{
  "contractName": "aTokenMockup",
  "abi": [
    {
      "inputs": [
        {
          "internalType": "address",
          "name": "_cashAddress",
          "type": "address"
        }
      ],
      "stateMutability": "nonpayable",
      "type": "constructor"
    },
    {
      "inputs": [
        {
          "internalType": "address",
          "name": "",
          "type": "address"
        }
      ],
      "name": "aTokenBalances",
      "outputs": [
        {
          "internalType": "uint256",
          "name": "",
          "type": "uint256"
        }
      ],
      "stateMutability": "view",
      "type": "function"
    },
    {
      "inputs": [
        {
          "internalType": "address",
          "name": "",
          "type": "address"
        }
      ],
      "name": "daiBalances",
      "outputs": [
        {
          "internalType": "uint256",
          "name": "",
          "type": "uint256"
        }
      ],
      "stateMutability": "view",
      "type": "function"
    },
    {
      "inputs": [
        {
          "internalType": "address",
          "name": "_owner",
          "type": "address"
        }
      ],
      "name": "balanceOf",
      "outputs": [
        {
          "internalType": "uint256",
          "name": "",
          "type": "uint256"
        }
      ],
      "stateMutability": "view",
      "type": "function"
    },
    {
      "inputs": [
        {
          "internalType": "address",
          "name": "stfu",
          "type": "address"
        },
        {
          "internalType": "uint256",
          "name": "mintAmount",
          "type": "uint256"
        },
        {
          "internalType": "uint16",
          "name": "gtfo",
          "type": "uint16"
        }
      ],
      "name": "deposit",
      "outputs": [],
      "stateMutability": "nonpayable",
      "type": "function"
    },
    {
      "inputs": [
        {
          "internalType": "address",
          "name": "_owner",
          "type": "address"
        }
      ],
      "name": "generate10PercentInterest",
      "outputs": [],
      "stateMutability": "nonpayable",
      "type": "function"
    },
    {
      "inputs": [
        {
          "internalType": "uint256",
          "name": "redeemAmount",
          "type": "uint256"
        }
      ],
      "name": "redeem",
      "outputs": [],
      "stateMutability": "nonpayable",
      "type": "function"
    }
  ],
  "bytecode": "0x608060405234801561001057600080fd5b506040516106cc3803806106cc8339818101604052602081101561003357600080fd5b5051600280546001600160a01b0319166001600160a01b03909216919091179055610669806100636000396000f3fe608060405234801561001057600080fd5b50600436106100625760003560e01c80635f2f5af21461006757806370a082311461008f578063d2d0e066146100c7578063db006a75146100fd578063dc48e3661461011a578063ef06734214610140575b600080fd5b61008d6004803603602081101561007d57600080fd5b50356001600160a01b0316610166565b005b6100b5600480360360208110156100a557600080fd5b50356001600160a01b031661027a565b60408051918252519081900360200190f35b61008d600480360360608110156100dd57600080fd5b5080356001600160a01b0316906020810135906040013561ffff16610295565b61008d6004803603602081101561011357600080fd5b503561037a565b6100b56004803603602081101561013057600080fd5b50356001600160a01b031661042e565b6100b56004803603602081101561015657600080fd5b50356001600160a01b0316610440565b6001600160a01b03811660009081526020819052604081205461019090600a63ffffffff61045216565b6002546040805163045e52b360e11b81523060048201526024810184905290519293506001600160a01b03909116916308bca5669160448082019260009290919082900301818387803b1580156101e657600080fd5b505af11580156101fa573d6000803e3d6000fd5b5050506001600160a01b03831660009081526020819052604090205461022791508263ffffffff61049b16565b6001600160a01b0383166000908152602081815260408083209390935560019052205461025a908263ffffffff61049b16565b6001600160a01b0390921660009081526001602052604090209190915550565b6001600160a01b031660009081526001602052604090205490565b600254604080516323b872dd60e01b81523360048201523060248201526044810185905290516001600160a01b03909216916323b872dd916064808201926020929091908290030181600087803b1580156102ef57600080fd5b505af1158015610303573d6000803e3d6000fd5b505050506040513d602081101561031957600080fd5b50503360009081526020819052604090205461033b908363ffffffff61049b16565b3360009081526020818152604080832093909355600190522054610365908363ffffffff61049b16565b33600090815260016020526040902055505050565b3360009081526001602052604090205461039a908263ffffffff6104f516565b33600081815260016020908152604080832094909455600254845163a9059cbb60e01b815260048101949094526024840186905293516001600160a01b039094169363a9059cbb93604480820194918390030190829087803b1580156103ff57600080fd5b505af1158015610413573d6000803e3d6000fd5b505050506040513d602081101561042957600080fd5b505050565b60016020526000908152604090205481565b60006020819052908152604090205481565b600061049483836040518060400160405280601a81526020017f536166654d6174683a206469766973696f6e206279207a65726f000000000000815250610537565b9392505050565b600082820183811015610494576040805162461bcd60e51b815260206004820152601b60248201527f536166654d6174683a206164646974696f6e206f766572666c6f770000000000604482015290519081900360640190fd5b600061049483836040518060400160405280601e81526020017f536166654d6174683a207375627472616374696f6e206f766572666c6f7700008152506105d9565b600081836105c35760405162461bcd60e51b81526004018080602001828103825283818151815260200191508051906020019080838360005b83811015610588578181015183820152602001610570565b50505050905090810190601f1680156105b55780820380516001836020036101000a031916815260200191505b509250505060405180910390fd5b5060008385816105cf57fe5b0495945050505050565b6000818484111561062b5760405162461bcd60e51b8152602060048201818152835160248401528351909283926044909101919085019080838360008315610588578181015183820152602001610570565b50505090039056fea264697066735822122003e140a07fbcc1b7c758227174f89de13436b6226293b84cc3848b1bcccece4a64736f6c63430006070033",
  "immutableReferences": {},
  "source": "//SPDX-License-Identifier: UNLICENSED\npragma solidity >=0.4.21 <0.7.0;\n\nimport '@openzeppelin/contracts/math/SafeMath.sol';\n\n\n// this is only for ganache testing.\n\ninterface Cash {\n    function approve(address _spender, uint256 _amount) external returns (bool);\n\n    function balanceOf(address _ownesr) external view returns (uint256);\n\n    function faucet(uint256 _amount) external;\n\n    function transfer(address _to, uint256 _amount) external returns (bool);\n\n    function transferFrom(\n        address _from,\n        address _to,\n        uint256 _amount\n    ) external returns (bool);\n\n    function allocateTo(address recipient, uint256 value) external;\n}\n\n\ncontract aTokenMockup {\n    using SafeMath for uint256;\n\n    mapping(address => uint256) public daiBalances;\n    mapping(address => uint256) public aTokenBalances;\n\n    Cash underlying;\n\n    constructor(address _cashAddress) public {\n        underlying = Cash(_cashAddress);\n    }\n\n    function balanceOf(address _owner) public view returns (uint256) {\n        return aTokenBalances[_owner];\n    }\n\n    function deposit(\n        address stfu,\n        uint256 mintAmount,\n        uint16 gtfo\n    ) public {\n        stfu;\n        gtfo;\n        underlying.transferFrom(msg.sender, address(this), mintAmount);\n        daiBalances[msg.sender] = daiBalances[msg.sender].add(mintAmount);\n        aTokenBalances[msg.sender] = aTokenBalances[msg.sender].add(mintAmount);\n    }\n\n    function generate10PercentInterest(address _owner) public {\n        uint256 _10percent = daiBalances[_owner].div(10);\n        underlying.allocateTo(address(this), _10percent);\n        daiBalances[_owner] = daiBalances[_owner].add(_10percent);\n        aTokenBalances[_owner] = aTokenBalances[_owner].add(_10percent);\n    }\n\n    function redeem(uint256 redeemAmount) public {\n        aTokenBalances[msg.sender] = aTokenBalances[msg.sender].sub(redeemAmount);\n        underlying.transfer(msg.sender, redeemAmount);\n    }\n}\n",
  "sourcePath": "/Users/brenfife/Desktop/MagicBet-Contracts/contracts/mockups/aTokenMockup.sol",
  "compiler": {
    "name": "solc",
    "version": "0.6.7+commit.b8d736ae.Emscripten.clang"
  },
  "schemaVersion": "3.1.0",
  "updatedAt": "2020-05-31T15:59:21.274Z",
  "networkType": "ethereum",
  "devdoc": {
    "methods": {}
  },
  "userdoc": {
    "methods": {}
  }
}