{
  "contractName": "BTMarket",
  "abi": [
    {
      "inputs": [
        {
          "internalType": "contract Dai",
          "name": "_daiAddress",
          "type": "address"
        },
        {
          "internalType": "address[3]",
          "name": "_aaveAddresses",
          "type": "address[3]"
        },
        {
          "internalType": "contract IRealitio",
          "name": "_realitioAddress",
          "type": "address"
        },
        {
          "internalType": "contract IUniswapV2Router01",
          "name": "_uniswapRouter",
          "type": "address"
        },
        {
          "internalType": "string",
          "name": "_eventName",
          "type": "string"
        },
        {
          "internalType": "uint256[4]",
          "name": "_marketTimes",
          "type": "uint256[4]"
        },
        {
          "internalType": "address",
          "name": "_arbitrator",
          "type": "address"
        },
        {
          "internalType": "string",
          "name": "_realitioQuestion",
          "type": "string"
        },
        {
          "internalType": "string[]",
          "name": "_outcomeNamesArray",
          "type": "string[]"
        },
        {
          "internalType": "address",
          "name": "_owner",
          "type": "address"
        }
      ],
      "stateMutability": "nonpayable",
      "type": "constructor"
    },
    {
      "anonymous": false,
      "inputs": [
        {
          "indexed": true,
          "internalType": "address",
          "name": "previousOwner",
          "type": "address"
        },
        {
          "indexed": true,
          "internalType": "address",
          "name": "newOwner",
          "type": "address"
        }
      ],
      "name": "OwnershipTransferred",
      "type": "event"
    },
    {
      "anonymous": false,
      "inputs": [
        {
          "indexed": true,
          "internalType": "address",
          "name": "participant",
          "type": "address"
        }
      ],
      "name": "ParticipantEntered",
      "type": "event"
    },
    {
      "anonymous": false,
      "inputs": [
        {
          "indexed": true,
          "internalType": "address",
          "name": "participant",
          "type": "address"
        }
      ],
      "name": "ParticipantWithdrawn",
      "type": "event"
    },
    {
      "anonymous": false,
      "inputs": [
        {
          "indexed": false,
          "internalType": "address",
          "name": "account",
          "type": "address"
        }
      ],
      "name": "Paused",
      "type": "event"
    },
    {
      "anonymous": false,
      "inputs": [
        {
          "indexed": false,
          "internalType": "enum BTMarket.States",
          "name": "state",
          "type": "uint8"
        }
      ],
      "name": "StateChanged",
      "type": "event"
    },
    {
      "anonymous": false,
      "inputs": [
        {
          "indexed": false,
          "internalType": "address",
          "name": "account",
          "type": "address"
        }
      ],
      "name": "Unpaused",
      "type": "event"
    },
    {
      "anonymous": false,
      "inputs": [
        {
          "indexed": true,
          "internalType": "address",
          "name": "winner",
          "type": "address"
        }
      ],
      "name": "WinnerSelected",
      "type": "event"
    },
    {
      "stateMutability": "payable",
      "type": "fallback"
    },
    {
      "inputs": [],
      "name": "aToken",
      "outputs": [
        {
          "internalType": "contract IaToken",
          "name": "",
          "type": "address"
        }
      ],
      "stateMutability": "view",
      "type": "function"
    },
    {
      "inputs": [],
      "name": "aaveLendingPool",
      "outputs": [
        {
          "internalType": "contract IAaveLendingPool",
          "name": "",
          "type": "address"
        }
      ],
      "stateMutability": "view",
      "type": "function"
    },
    {
      "inputs": [],
      "name": "betsWithdrawn",
      "outputs": [
        {
          "internalType": "uint256",
          "name": "",
          "type": "uint256"
        }
      ],
      "stateMutability": "view",
      "type": "function"
    },
    {
      "inputs": [
        {
          "internalType": "uint256",
          "name": "",
          "type": "uint256"
        }
      ],
      "name": "betsWithdrawnPerOutcome",
      "outputs": [
        {
          "internalType": "uint256",
          "name": "",
          "type": "uint256"
        }
      ],
      "stateMutability": "view",
      "type": "function"
    },
    {
      "inputs": [],
      "name": "dai",
      "outputs": [
        {
          "internalType": "contract Dai",
          "name": "",
          "type": "address"
        }
      ],
      "stateMutability": "view",
      "type": "function"
    },
    {
      "inputs": [],
      "name": "eventName",
      "outputs": [
        {
          "internalType": "string",
          "name": "",
          "type": "string"
        }
      ],
      "stateMutability": "view",
      "type": "function"
    },
    {
      "inputs": [],
      "name": "marketLockingTime",
      "outputs": [
        {
          "internalType": "uint256",
          "name": "",
          "type": "uint256"
        }
      ],
      "stateMutability": "view",
      "type": "function"
    },
    {
      "inputs": [],
      "name": "marketOpeningTime",
      "outputs": [
        {
          "internalType": "uint256",
          "name": "",
          "type": "uint256"
        }
      ],
      "stateMutability": "view",
      "type": "function"
    },
    {
      "inputs": [],
      "name": "marketOpeningTimeActual",
      "outputs": [
        {
          "internalType": "uint256",
          "name": "",
          "type": "uint256"
        }
      ],
      "stateMutability": "view",
      "type": "function"
    },
    {
      "inputs": [],
      "name": "marketResolutionTime",
      "outputs": [
        {
          "internalType": "uint32",
          "name": "",
          "type": "uint32"
        }
      ],
      "stateMutability": "view",
      "type": "function"
    },
    {
      "inputs": [],
      "name": "maxInterest",
      "outputs": [
        {
          "internalType": "uint256",
          "name": "",
          "type": "uint256"
        }
      ],
      "stateMutability": "view",
      "type": "function"
    },
    {
      "inputs": [],
      "name": "numberOfOutcomes",
      "outputs": [
        {
          "internalType": "uint256",
          "name": "",
          "type": "uint256"
        }
      ],
      "stateMutability": "view",
      "type": "function"
    },
    {
      "inputs": [
        {
          "internalType": "uint256",
          "name": "",
          "type": "uint256"
        }
      ],
      "name": "outcomeNames",
      "outputs": [
        {
          "internalType": "string",
          "name": "",
          "type": "string"
        }
      ],
      "stateMutability": "view",
      "type": "function"
    },
    {
      "inputs": [],
      "name": "owner",
      "outputs": [
        {
          "internalType": "address",
          "name": "",
          "type": "address"
        }
      ],
      "stateMutability": "view",
      "type": "function"
    },
    {
      "inputs": [
        {
          "internalType": "uint256",
          "name": "",
          "type": "uint256"
        }
      ],
      "name": "participants",
      "outputs": [
        {
          "internalType": "address",
          "name": "",
          "type": "address"
        }
      ],
      "stateMutability": "view",
      "type": "function"
    },
    {
      "inputs": [],
      "name": "paused",
      "outputs": [
        {
          "internalType": "bool",
          "name": "",
          "type": "bool"
        }
      ],
      "stateMutability": "view",
      "type": "function"
    },
    {
      "inputs": [],
      "name": "questionId",
      "outputs": [
        {
          "internalType": "bytes32",
          "name": "",
          "type": "bytes32"
        }
      ],
      "stateMutability": "view",
      "type": "function"
    },
    {
      "inputs": [],
      "name": "questionResolvedInvalid",
      "outputs": [
        {
          "internalType": "bool",
          "name": "",
          "type": "bool"
        }
      ],
      "stateMutability": "view",
      "type": "function"
    },
    {
      "inputs": [],
      "name": "realitio",
      "outputs": [
        {
          "internalType": "contract IRealitio",
          "name": "",
          "type": "address"
        }
      ],
      "stateMutability": "view",
      "type": "function"
    },
    {
      "inputs": [],
      "name": "renounceOwnership",
      "outputs": [],
      "stateMutability": "nonpayable",
      "type": "function"
    },
    {
      "inputs": [],
      "name": "state",
      "outputs": [
        {
          "internalType": "enum BTMarket.States",
          "name": "",
          "type": "uint8"
        }
      ],
      "stateMutability": "view",
      "type": "function"
    },
    {
      "inputs": [
        {
          "internalType": "uint256",
          "name": "",
          "type": "uint256"
        }
      ],
      "name": "tokenAddresses",
      "outputs": [
        {
          "internalType": "contract Token",
          "name": "",
          "type": "address"
        }
      ],
      "stateMutability": "view",
      "type": "function"
    },
    {
      "inputs": [],
      "name": "totalBets",
      "outputs": [
        {
          "internalType": "uint256",
          "name": "",
          "type": "uint256"
        }
      ],
      "stateMutability": "view",
      "type": "function"
    },
    {
      "inputs": [
        {
          "internalType": "uint256",
          "name": "",
          "type": "uint256"
        }
      ],
      "name": "totalBetsPerOutcome",
      "outputs": [
        {
          "internalType": "uint256",
          "name": "",
          "type": "uint256"
        }
      ],
      "stateMutability": "view",
      "type": "function"
    },
    {
      "inputs": [
        {
          "internalType": "address",
          "name": "",
          "type": "address"
        }
      ],
      "name": "totalBetsPerUser",
      "outputs": [
        {
          "internalType": "uint256",
          "name": "",
          "type": "uint256"
        }
      ],
      "stateMutability": "view",
      "type": "function"
    },
    {
      "inputs": [
        {
          "internalType": "address",
          "name": "newOwner",
          "type": "address"
        }
      ],
      "name": "transferOwnership",
      "outputs": [],
      "stateMutability": "nonpayable",
      "type": "function"
    },
    {
      "inputs": [],
      "name": "uniswapRouter",
      "outputs": [
        {
          "internalType": "contract IUniswapV2Router01",
          "name": "",
          "type": "address"
        }
      ],
      "stateMutability": "view",
      "type": "function"
    },
    {
      "inputs": [
        {
          "internalType": "uint256",
          "name": "",
          "type": "uint256"
        }
      ],
      "name": "usersPerOutcome",
      "outputs": [
        {
          "internalType": "uint256",
          "name": "",
          "type": "uint256"
        }
      ],
      "stateMutability": "view",
      "type": "function"
    },
    {
      "inputs": [],
      "name": "winningOutcome",
      "outputs": [
        {
          "internalType": "uint256",
          "name": "",
          "type": "uint256"
        }
      ],
      "stateMutability": "view",
      "type": "function"
    },
    {
      "inputs": [
        {
          "internalType": "address",
          "name": "",
          "type": "address"
        }
      ],
      "name": "withdrawnBool",
      "outputs": [
        {
          "internalType": "bool",
          "name": "",
          "type": "bool"
        }
      ],
      "stateMutability": "view",
      "type": "function"
    },
    {
      "stateMutability": "payable",
      "type": "receive"
    },
    {
      "inputs": [
        {
          "internalType": "string",
          "name": "_eventName",
          "type": "string"
        }
      ],
      "name": "setEventName",
      "outputs": [],
      "stateMutability": "nonpayable",
      "type": "function"
    },
    {
      "inputs": [
        {
          "internalType": "uint256",
          "name": "_outcome",
          "type": "uint256"
        }
      ],
      "name": "getBetAmountsArray",
      "outputs": [
        {
          "internalType": "uint256[]",
          "name": "",
          "type": "uint256[]"
        }
      ],
      "stateMutability": "view",
      "type": "function"
    },
    {
      "inputs": [
        {
          "internalType": "uint256",
          "name": "_outcome",
          "type": "uint256"
        }
      ],
      "name": "getTimestampsArray",
      "outputs": [
        {
          "internalType": "uint256[]",
          "name": "",
          "type": "uint256[]"
        }
      ],
      "stateMutability": "view",
      "type": "function"
    },
    {
      "inputs": [],
      "name": "getMarketSize",
      "outputs": [
        {
          "internalType": "uint256",
          "name": "",
          "type": "uint256"
        }
      ],
      "stateMutability": "view",
      "type": "function"
    },
    {
      "inputs": [
        {
          "internalType": "uint256",
          "name": "_outcome",
          "type": "uint256"
        }
      ],
      "name": "getParticipantsBet",
      "outputs": [
        {
          "internalType": "uint256",
          "name": "",
          "type": "uint256"
        }
      ],
      "stateMutability": "view",
      "type": "function"
    },
    {
      "inputs": [],
      "name": "getMaxTotalInterest",
      "outputs": [
        {
          "internalType": "uint256",
          "name": "",
          "type": "uint256"
        }
      ],
      "stateMutability": "view",
      "type": "function"
    },
    {
      "inputs": [],
      "name": "getTotalInterest",
      "outputs": [
        {
          "internalType": "uint256",
          "name": "",
          "type": "uint256"
        }
      ],
      "stateMutability": "view",
      "type": "function"
    },
    {
      "inputs": [
        {
          "internalType": "uint256",
          "name": "_outcome",
          "type": "uint256"
        }
      ],
      "name": "getWinningsGivenOutcome",
      "outputs": [
        {
          "internalType": "uint256",
          "name": "",
          "type": "uint256"
        }
      ],
      "stateMutability": "view",
      "type": "function"
    },
    {
      "inputs": [],
      "name": "getWinningsInvalid",
      "outputs": [
        {
          "internalType": "uint256",
          "name": "",
          "type": "uint256"
        }
      ],
      "stateMutability": "view",
      "type": "function"
    },
    {
      "inputs": [
        {
          "internalType": "uint256",
          "name": "_outcome",
          "type": "uint256"
        },
        {
          "internalType": "uint256",
          "name": "_dai",
          "type": "uint256"
        }
      ],
      "name": "placeBet",
      "outputs": [],
      "stateMutability": "payable",
      "type": "function"
    },
    {
      "inputs": [],
      "name": "determineWinner",
      "outputs": [],
      "stateMutability": "nonpayable",
      "type": "function"
    },
    {
      "inputs": [],
      "name": "incrementState",
      "outputs": [],
      "stateMutability": "nonpayable",
      "type": "function"
    },
    {
      "inputs": [],
      "name": "circuitBreaker",
      "outputs": [],
      "stateMutability": "nonpayable",
      "type": "function"
    },
    {
      "inputs": [],
      "name": "withdraw",
      "outputs": [],
      "stateMutability": "nonpayable",
      "type": "function"
    },
    {
      "inputs": [
        {
          "internalType": "uint256",
          "name": "ethAmount",
          "type": "uint256"
        }
      ],
      "name": "getEstimatedETHforDAI",
      "outputs": [
        {
          "internalType": "uint256[]",
          "name": "",
          "type": "uint256[]"
        }
      ],
      "stateMutability": "view",
      "type": "function"
    },
    {
      "inputs": [
        {
          "internalType": "uint256",
          "name": "daiAmount",
          "type": "uint256"
        }
      ],
      "name": "getEstimatedDAIforETH",
      "outputs": [
        {
          "internalType": "uint256[]",
          "name": "",
          "type": "uint256[]"
        }
      ],
      "stateMutability": "view",
      "type": "function"
    },
    {
      "inputs": [],
      "name": "disableContract",
      "outputs": [
        {
          "internalType": "bool",
          "name": "",
          "type": "bool"
        }
      ],
      "stateMutability": "nonpayable",
      "type": "function"
    },
    {
      "inputs": [],
      "name": "enableContract",
      "outputs": [
        {
          "internalType": "bool",
          "name": "",
          "type": "bool"
        }
      ],
      "stateMutability": "nonpayable",
      "type": "function"
    }
  ],
  "bytecode": "0x60806040526045601b55601c805460ff191660011790553480156200002357600080fd5b506040516200457538038062004575833981016040819052620000469162000806565b60006200005b6001600160e01b036200029f16565b600080546001600160a01b0319166001600160a01b03831690811782556040519293509160008051602062004555833981519152908290a3506000805461ffff60a01b1916600160a81b1790556001600160a01b0381163314620000cd57620000cd816001600160e01b03620002a416565b600180546001600160a01b0319166001600160a01b038c161790558860006020020151600280546001600160a01b0319166001600160a01b039092169190911790558860016020020151600380546001600160a01b03199081166001600160a01b03938416179091556004805482168b8416179055600580549091168983161790556001541663095ea7b38a60026020020151600160ff1b6040518363ffffffff1660e01b81526004016200018492919062000950565b602060405180830381600087803b1580156200019f57600080fd5b505af1158015620001b4573d6000803e3d6000fd5b505050506040513d601f19601f82011682018060405250810190620001da9190620007c4565b508551620001f090600c90602089019062000554565b50845160075560208501516009556040850151600a805463ffffffff191663ffffffff9092169190911790558151600f5560005b600f548110156200025d57620002548382815181106200024057fe5b60200260200101516200036360201b60201c565b60010162000224565b50600242620002898286888a60036020020151600a5463ffffffff16866001600160e01b03620004b516565b600b555062000aff9a5050505050505050505050565b335b90565b620002b76001600160e01b036200029f16565b6000546001600160a01b03908116911614620002f05760405162461bcd60e51b8152600401620002e790620009c4565b60405180910390fd5b6001600160a01b038116620003195760405162461bcd60e51b8152600401620002e7906200097e565b600080546040516001600160a01b03808516939216916000805160206200455583398151915291a3600080546001600160a01b0319166001600160a01b0392909216919091179055565b60008060105460ff1660048111156200037857fe5b14620003985760405162461bcd60e51b8152600401620002e790620009f9565b600d80546001810182556000919091528251620003dd917fd7b6990105719101dabeb77144f2a3385c8033acd3af97e9423a695e81ad1eb50190602085019062000554565b50600082604051620003ef90620005d9565b620003fb919062000969565b604051809103906000f08015801562000418573d6000803e3d6000fd5b50600e805460018101825560008290527fbb7b4a454dc3493923482f07822329ed19e8244eff582cc204f8554c3620c3fd0180546001600160a01b0319166001600160a01b038416179055600f5490549192501415620004b05760105460ff1660048111156200048457fe5b60010160048111156200049357fe5b6010805460ff19166001836004811115620004aa57fe5b02179055505b505050565b6004805460405163762c38fd60e01b81526000926001600160a01b039092169163762c38fd91620004f3918b918b918b918b918b918b910162000a3f565b602060405180830381600087803b1580156200050e57600080fd5b505af115801562000523573d6000803e3d6000fd5b505050506040513d601f19601f82011682018060405250810190620005499190620007ed565b979650505050505050565b828054600181600116156101000203166002900490600052602060002090601f016020900481019282601f106200059757805160ff1916838001178555620005c7565b82800160010185558215620005c7579182015b82811115620005c7578251825591602001919060010190620005aa565b50620005d5929150620005e7565b5090565b6113b280620031a383390190565b620002a191905b80821115620005d55760008155600101620005ee565b8051620006118162000ae6565b92915050565b600082601f83011262000628578081fd5b62000634606062000a8c565b90508082846060850111156200064957600080fd5b60005b600381101562000679578151620006638162000ae6565b835260209283019291909101906001016200064c565b50505092915050565b600082601f83011262000693578081fd5b81516001600160401b03811115620006a9578182fd5b6020620006ba818284020162000a8c565b828152925080830184820160005b84811015620006f557620006e2888584518a010162000756565b83529183019190830190600101620006c8565b505050505092915050565b600082601f83011262000711578081fd5b6200071d608062000a8c565b90508082846080850111156200073257600080fd5b60005b60048110156200067957815183526020928301929091019060010162000735565b600082601f83011262000767578081fd5b81516001600160401b038111156200077d578182fd5b62000792601f8201601f191660200162000a8c565b9150808252836020828501011115620007aa57600080fd5b620007bd81602084016020860162000ab3565b5092915050565b600060208284031215620007d6578081fd5b81518015158114620007e6578182fd5b9392505050565b600060208284031215620007ff578081fd5b5051919050565b6000806000806000806000806000806101e08b8d03121562000826578586fd5b620008328c8c62000604565b9950620008438c60208d0162000617565b9850620008548c60808d0162000604565b9750620008658c60a08d0162000604565b60c08c01519097506001600160401b038082111562000882578788fd5b620008908e838f0162000756565b9750620008a18e60e08f0162000700565b9650620008b38e6101608f0162000604565b95506101808d0151915080821115620008ca578485fd5b620008d88e838f0162000756565b94506101a08d0151915080821115620008ef578384fd5b50620008fe8d828e0162000682565b925050620009118c6101c08d0162000604565b90509295989b9194979a5092959850565b600081518084526200093c81602086016020860162000ab3565b601f01601f19169290920160200192915050565b6001600160a01b03929092168252602082015260400190565b600060208252620007e6602083018462000922565b60208082526026908201527f4f776e61626c653a206e6577206f776e657220697320746865207a65726f206160408201526564647265737360d01b606082015260800190565b6020808252818101527f4f776e61626c653a2063616c6c6572206973206e6f7420746865206f776e6572604082015260600190565b60208082526026908201527f66756e6374696f6e2063616e6e6f742062652063616c6c656420617420746869604082015265732074696d6560d01b606082015260800190565b600087825260c0602083015262000a5a60c083018862000922565b6001600160a01b039690961660408301525063ffffffff938416606082015291909216608082015260a0015292915050565b6040518181016001600160401b038111828210171562000aab57600080fd5b604052919050565b60005b8381101562000ad057818101518382015260200162000ab6565b8381111562000ae0576000848401525b50505050565b6001600160a01b038116811462000afc57600080fd5b50565b6126948062000b0f6000396000f3fe6080604052600436106102975760003560e01c8063894ba8331161015a578063c19d93fb116100c1578063e8f033c91161007a578063e8f033c91461070e578063e9d337b81461072e578063ee72b06d14610743578063f2fde38b14610758578063f4b9fa7514610778578063fd27b51e1461078d5761029e565b8063c19d93fb14610657578063c4d8dc5814610679578063c56f338c14610699578063d844ab5f146106b9578063e14dedfd146106d9578063e5df8b84146106ee5761029e565b8063a055ccc511610113578063a055ccc5146105ce578063a0c1f15e146105e3578063ada8b83d146105f8578063b06a5c5214610618578063bc8802a21461062d578063befa1e2f146106425761029e565b8063894ba8331461053a5780638da5cb5b1461054f578063906d624114610564578063991d4f5d146105845780639b34ae03146105a45780639d7c7d39146105b95761029e565b806349200d77116101fe5780635c975abb116101b75780635c975abb146104b1578063715018a6146104c6578063735de9f7146104db5780638043c9c0146104f0578063807535cc1461050557806382633028146105255761029e565b806349200d77146104125780634afe62b5146104275780634b8755ca1461043a5780634ecc79f71461044f578063519709c414610464578063561a5aca146104845761029e565b806333b16d931161025057806333b16d931461036f57806335c1d34914610384578063367edd32146103b15780633ccfd60b146103d35780633eac5540146103e857806347254f4f146103fd5761029e565b806305801f0b146102a05780630b60365c146102d6578063149b5d58146102eb57806316efd9411461030b578063232ea3ad1461032057806327acae74146103425761029e565b3661029e57005b005b3480156102ac57600080fd5b506102c06102bb36600461216c565b6107a2565b6040516102cd91906122ad565b60405180910390f35b3480156102e257600080fd5b506102c06107b4565b3480156102f757600080fd5b506102c061030636600461216c565b610871565b34801561031757600080fd5b5061029e610914565b34801561032c57600080fd5b5061033561096a565b6040516102cd91906125ee565b34801561034e57600080fd5b5061036261035d36600461216c565b610976565b6040516102cd91906122ca565b34801561037b57600080fd5b5061029e610a1c565b34801561039057600080fd5b506103a461039f36600461216c565b610ab2565b6040516102cd91906121e8565b3480156103bd57600080fd5b506103c6610ad9565b6040516102cd91906122a2565b3480156103df57600080fd5b5061029e610b41565b3480156103f457600080fd5b506102c0610c56565b34801561040957600080fd5b506103c6610c5c565b34801561041e57600080fd5b506102c0610c65565b61029e610435366004612184565b610c6b565b34801561044657600080fd5b506102c0610ce8565b34801561045b57600080fd5b506102c0610cee565b34801561047057600080fd5b506102c061047f36600461216c565b610cf4565b34801561049057600080fd5b506104a461049f36600461216c565b610d06565b6040516102cd919061225e565b3480156104bd57600080fd5b506103c6610d98565b3480156104d257600080fd5b5061029e610da8565b3480156104e757600080fd5b506103a4610e27565b3480156104fc57600080fd5b50610362610e36565b34801561051157600080fd5b506104a461052036600461216c565b610e91565b34801561053157600080fd5b506102c0610ef3565b34801561054657600080fd5b506103c6610ef9565b34801561055b57600080fd5b506103a4610f62565b34801561057057600080fd5b506103c661057f366004611ffa565b610f71565b34801561059057600080fd5b5061029e61059f366004612102565b610f86565b3480156105b057600080fd5b506102c0610fc7565b3480156105c557600080fd5b506102c0610fcd565b3480156105da57600080fd5b506102c0611000565b3480156105ef57600080fd5b506103a4611036565b34801561060457600080fd5b506104a461061336600461216c565b611045565b34801561062457600080fd5b506102c0611083565b34801561063957600080fd5b506103a4611089565b34801561064e57600080fd5b506102c0611098565b34801561066357600080fd5b5061066c61109e565b6040516102cd91906122b6565b34801561068557600080fd5b506102c061069436600461216c565b6110a7565b3480156106a557600080fd5b506102c06106b436600461216c565b6110b8565b3480156106c557600080fd5b506102c06106d4366004611ffa565b6110ca565b3480156106e557600080fd5b506102c06110dc565b3480156106fa57600080fd5b506103a461070936600461216c565b6110e2565b34801561071a57600080fd5b506104a461072936600461216c565b6110ef565b34801561073a57600080fd5b506103a461114f565b34801561074f57600080fd5b5061029e61115e565b34801561076457600080fd5b5061029e610773366004611ffa565b6112bc565b34801561078457600080fd5b506103a4611372565b34801561079957600080fd5b506102c0611381565b60136020526000908152604090205481565b6000806107ce60185460175461138790919063ffffffff16565b6002546040516370a0823160e01b81529192506000916001600160a01b03909116906370a08231906108049030906004016121e8565b60206040518083038186803b15801561081c57600080fd5b505afa158015610830573d6000803e3d6000fd5b505050506040513d601f19601f8201168201806040525081019061085491906120ea565b90506000610868828463ffffffff61138716565b93505050505b90565b600080600e838154811061088157fe5b6000918252602090912001546040516370a0823160e01b81526001600160a01b03909116915081906370a08231906108bd9033906004016121e8565b60206040518083038186803b1580156108d557600080fd5b505afa1580156108e9573d6000803e3d6000fd5b505050506040513d601f19601f8201168201806040525081019061090d91906120ea565b9392505050565b600a546224ea0063ffffffff9182160116421161094c5760405162461bcd60e51b8152600401610943906124ca565b60405180910390fd5b601c805460ff19908116600117909155601080549091166004179055565b600a5463ffffffff1681565b600d818154811061098357fe5b600091825260209182902001805460408051601f6002600019610100600187161502019094169390930492830185900485028101850190915281815293509091830182828015610a145780601f106109e957610100808354040283529160200191610a14565b820191906000526020600020905b8154815290600101906020018083116109f757829003601f168201915b505050505081565b600054600160a01b900460ff1615610a465760405162461bcd60e51b8152600401610943906123ff565b610a4e6113c9565b610a6a5760405162461bcd60e51b8152600401610943906123c8565b610a7261144e565b601b81905560001914801590610a985750601b5460009081526013602052604090205415155b15610aa857601c805460ff191690555b610ab061115e565b565b60198181548110610abf57fe5b6000918252602090912001546001600160a01b0316905081565b6000610ae36114d7565b6000546001600160a01b03908116911614610b105760405162461bcd60e51b815260040161094390612495565b600054600160a01b900460ff16610b395760405162461bcd60e51b81526004016109439061231d565b61086e6114db565b60048060105460ff166004811115610b5557fe5b14610b725760405162461bcd60e51b8152600401610943906124ed565b600054600160a01b900460ff1615610b9c5760405162461bcd60e51b8152600401610943906123ff565b600054600160a81b900460ff16610bc55760405162461bcd60e51b815260040161094390612561565b6000805460ff60a81b19168155338152601a602052604090205460ff1615610bff5760405162461bcd60e51b815260040161094390612429565b336000908152601a60205260409020805460ff19166001179055601c5460ff16610c3057610c2b611547565b610c38565b610c38611598565b610c406115a2565b506000805460ff60a81b1916600160a81b179055565b60085481565b601c5460ff1681565b600f5481565b60028060105460ff166004811115610c7f57fe5b14610c9c5760405162461bcd60e51b8152600401610943906124ed565b600054600160a01b900460ff1615610cc65760405162461bcd60e51b8152600401610943906123ff565b610cd08383611733565b610cda338361197f565b610ce382611a35565b505050565b60095481565b60075481565b60166020526000908152604090205481565b606080610d11611aa3565b60055460405163d06ca61f60e01b81529192506001600160a01b03169063d06ca61f90610d449086908590600401612598565b60006040518083038186803b158015610d5c57600080fd5b505afa158015610d70573d6000803e3d6000fd5b505050506040513d6000823e601f3d908101601f1916820160405261090d9190810190612032565b600054600160a01b900460ff1690565b610db06114d7565b6000546001600160a01b03908116911614610ddd5760405162461bcd60e51b815260040161094390612495565b600080546040516001600160a01b03909116907f8be0079c531659141344cd1fd0a4f28419497f9722a3daafe3b4186f6b6457e0908390a3600080546001600160a01b0319169055565b6005546001600160a01b031681565b600c805460408051602060026001851615610100026000190190941693909304601f81018490048402820184019092528181529291830182828015610a145780601f106109e957610100808354040283529160200191610a14565b600081815260116020908152604091829020805483518184028101840190945280845260609392830182828015610ee757602002820191906000526020600020905b815481526020019060010190808311610ed3575b50505050509050919050565b60065481565b6000610f036114d7565b6000546001600160a01b03908116911614610f305760405162461bcd60e51b815260040161094390612495565b600054600160a01b900460ff1615610f5a5760405162461bcd60e51b8152600401610943906123ff565b61086e611b97565b6000546001600160a01b031690565b601a6020526000908152604090205460ff1681565b610f8e6114d7565b6000546001600160a01b03908116911614610fbb5760405162461bcd60e51b815260040161094390612495565b610ce3600c8383611f62565b601b5481565b6000600460105460ff166004811115610fe257fe5b1415610ff1575060065461086e565b610ff96107b4565b905061086e565b600061103161101c60185460175461138790919063ffffffff16565b33600090815260146020526040902054611bfd565b905090565b6002546001600160a01b031681565b606080611050611aa3565b6005546040516307c0329d60e21b81529192506001600160a01b031690631f00ca7490610d449086908590600401612598565b600b5481565b6004546001600160a01b031681565b60175481565b60105460ff1681565b60006110b282611c3b565b92915050565b60156020526000908152604090205481565b60146020526000908152604090205481565b60185481565b600e8181548110610abf57fe5b600081815260126020908152604091829020805483518184028101840190945280845260609392830182828015610ee75760200282019190600052602060002090815481526020019060010190808311610ed35750505050509050919050565b6003546001600160a01b031681565b600054600160a01b900460ff16156111885760405162461bcd60e51b8152600401610943906123ff565b600160105460ff16600481111561119b57fe5b1480156111a9575042600754105b806111d05750600260105460ff1660048111156111c257fe5b1480156111d0575042600954105b806111f95750600360105460ff1660048111156111e957fe5b1480156111f95750601b54604514155b15610ab057600160105460ff16600481111561121157fe5b141561121c57426008555b600360105460ff16600481111561122f57fe5b14156112415761123d6107b4565b6006555b60105460ff16600481111561125257fe5b600101600481111561126057fe5b6010805460ff1916600183600481111561127657fe5b02179055506010546040517f551dc40198cc79684bb69e4931dba4ac16e4598792ee1c0a5000aeea366d7bb6916112b29160ff909116906122b6565b60405180910390a1565b6112c46114d7565b6000546001600160a01b039081169116146112f15760405162461bcd60e51b815260040161094390612495565b6001600160a01b0381166113175760405162461bcd60e51b81526004016109439061234b565b600080546040516001600160a01b03808516939216917f8be0079c531659141344cd1fd0a4f28419497f9722a3daafe3b4186f6b6457e091a3600080546001600160a01b0319166001600160a01b0392909216919091179055565b6001546001600160a01b031681565b60195490565b600061090d83836040518060400160405280601e81526020017f536166654d6174683a207375627472616374696f6e206f766572666c6f770000815250611d10565b60048054600b54604051633fc6a14f60e11b81526000936001600160a01b0390931692637f8d429e926113fe929091016122ad565b60206040518083038186803b15801561141657600080fd5b505afa15801561142a573d6000803e3d6000fd5b505050506040513d601f19601f8201168201806040525081019061103191906120ca565b60048054600b5460405163684e62bf60e11b815260009384936001600160a01b03169263d09cc57e9261148192016122ad565b60206040518083038186803b15801561149957600080fd5b505afa1580156114ad573d6000803e3d6000fd5b505050506040513d601f19601f820116820180604052508101906114d191906120ea565b91505090565b3390565b600054600160a01b900460ff166115045760405162461bcd60e51b81526004016109439061231d565b6000805460ff60a01b191690557f5db9ee0a495bf2e6ff9c91a7834c1ba4fdd244a5e8aa4e537bd38aeae4b073aa61153a6114d7565b6040516112b291906121e8565b6000611554601b54611c3b565b336000908152601460205260408120549192509061157990839063ffffffff611d3c16565b905080156115945761158a81611d61565b6115943382611d91565b5050565b6000611554611000565b6000805b600f54811015611701576000600e82815481106115bf57fe5b60009182526020822001546040516370a0823160e01b81526001600160a01b03909116925082906370a08231906115fa9033906004016121e8565b60206040518083038186803b15801561161257600080fd5b505afa158015611626573d6000803e3d6000fd5b505050506040513d601f19601f8201168201806040525081019061164a91906120ea565b905080156116f757611662848263ffffffff611d3c16565b600084815260156020526040902054909450611684908263ffffffff611d3c16565b600084815260156020526040908190209190915551632770a7eb60e21b81526001600160a01b03831690639dc29fac906116c490339085906004016121fc565b600060405180830381600087803b1580156116de57600080fd5b505af11580156116f2573d6000803e3d6000fd5b505050505b50506001016115a6565b5033600090815260146020526040902054811461171a57fe5b60185461172d908263ffffffff611d3c16565b60185550565b6000828152601160209081526040808320805460018181018355918552838520018590558584526012835290832080549182018155835290822042910155600e80548490811061177f57fe5b6000918252602090912001546040516370a0823160e01b81526001600160a01b03909116915081906370a08231906117bb9033906004016121e8565b60206040518083038186803b1580156117d357600080fd5b505afa1580156117e7573d6000803e3d6000fd5b505050506040513d601f19601f8201168201806040525081019061180b91906120ea565b61187b576019805460018181019092557f944998273e477b495144fb8794c914197f3ccb46be2900f4698fd0ef743c96950180546001600160a01b0319163317905560008481526016602052604090205461186b9163ffffffff611d3c16565b6000848152601660205260409020555b60405133907fef3b3ae531a4f494c95e537ec1fe385cfe5c1146cb4c1d850b24bad38595804990600090a26040516340c10f1960e01b81526001600160a01b038216906340c10f19906118d490339086906004016121fc565b600060405180830381600087803b1580156118ee57600080fd5b505af1158015611902573d6000803e3d6000fd5b505060175461191a925090508363ffffffff611d3c16565b60175560008381526013602052604090205461193c908363ffffffff611d3c16565b60008481526013602090815260408083209390935533825260149052205461196a908363ffffffff611d3c16565b33600090815260146020526040902055505050565b34156119935761198e81611dc3565b611594565b6001546040516323b872dd60e01b81526001600160a01b03909116906323b872dd906119c790859030908690600401612215565b602060405180830381600087803b1580156119e157600080fd5b505af11580156119f5573d6000803e3d6000fd5b505050506040513d601f19601f82011682018060405250810190611a1991906120ca565b6115945760405162461bcd60e51b815260040161094390612533565b600354600154604051636968703360e11b81526001600160a01b039283169263d2d0e06692611a6e929116908590600090600401612239565b600060405180830381600087803b158015611a8857600080fd5b505af1158015611a9c573d6000803e3d6000fd5b5050505050565b6040805160028082526060808301845292839291906020830190803683375050600554604080516315ab88c960e31b815290519394506001600160a01b039091169263ad5c464892506004808301926020929190829003018186803b158015611b0b57600080fd5b505afa158015611b1f573d6000803e3d6000fd5b505050506040513d601f19601f82011682018060405250810190611b439190612016565b81600081518110611b5057fe5b6001600160a01b0392831660209182029290920101526001805483519216918391908110611b7a57fe5b6001600160a01b0390921660209283029190910190910152905090565b600054600160a01b900460ff1615611bc15760405162461bcd60e51b8152600401610943906123ff565b6000805460ff60a01b1916600160a01b1790557f62e78cea01bee320cd4e420270b5ea74000d11b0c9f74754ebdbfc544b05a25861153a6114d7565b600080831561090d576000611c106107b4565b9050611c3285611c26838763ffffffff611eb416565b9063ffffffff611eee16565b95945050505050565b600080600e8381548110611c4b57fe5b60009182526020822001546040516370a0823160e01b81526001600160a01b03909116925082906370a0823190611c869033906004016121e8565b60206040518083038186803b158015611c9e57600080fd5b505afa158015611cb2573d6000803e3d6000fd5b505050506040513d601f19601f82011682018060405250810190611cd691906120ea565b60008581526015602090815260408083205460139092528220549293509091611d049163ffffffff61138716565b9050611c328183611bfd565b60008184841115611d345760405162461bcd60e51b815260040161094391906122ca565b505050900390565b60008282018381101561090d5760405162461bcd60e51b815260040161094390612391565b60025460405163db006a7560e01b81526001600160a01b039091169063db006a7590611a6e9084906004016122ad565b60015460405163a9059cbb60e01b81526001600160a01b039091169063a9059cbb906119c790859085906004016121fc565b6060611dcd611aa3565b60055460405163fb3bdb4160e01b81529192506001600160a01b03169063fb3bdb41903490611e0990869086903090600f4201906004016125b9565b6000604051808303818588803b158015611e2257600080fd5b505af1158015611e36573d6000803e3d6000fd5b50505050506040513d6000823e601f3d908101601f19168201604052611e5f9190810190612032565b50336001600160a01b031647604051611e779061086e565b60006040518083038185875af1925050503d8060008114611a9c576040519150601f19603f3d011682016040523d82523d6000602084013e611a9c565b600082611ec3575060006110b2565b82820282848281611ed057fe5b041461090d5760405162461bcd60e51b815260040161094390612454565b600061090d83836040518060400160405280601a81526020017f536166654d6174683a206469766973696f6e206279207a65726f00000000000081525060008183611f4c5760405162461bcd60e51b815260040161094391906122ca565b506000838581611f5857fe5b0495945050505050565b828054600181600116156101000203166002900490600052602060002090601f016020900481019282601f10611fa35782800160ff19823516178555611fd0565b82800160010185558215611fd0579182015b82811115611fd0578235825591602001919060010190611fb5565b50611fdc929150611fe0565b5090565b61086e91905b80821115611fdc5760008155600101611fe6565b60006020828403121561200b578081fd5b813561090d81612646565b600060208284031215612027578081fd5b815161090d81612646565b60006020808385031215612044578182fd5b825167ffffffffffffffff81111561205a578283fd5b80840185601f82011261206b578384fd5b8051915061208061207b83612626565b6125ff565b828152838101908285018585028401860189101561209c578687fd5b8693505b848410156120be5780518352600193909301929185019185016120a0565b50979650505050505050565b6000602082840312156120db578081fd5b8151801515811461090d578182fd5b6000602082840312156120fb578081fd5b5051919050565b60008060208385031215612114578081fd5b823567ffffffffffffffff8082111561212b578283fd5b81850186601f82011261213c578384fd5b803592508183111561214c578384fd5b86602084830101111561215d578384fd5b60200196919550909350505050565b60006020828403121561217d578081fd5b5035919050565b60008060408385031215612196578182fd5b50508035926020909101359150565b6000815180845260208085019450808401835b838110156121dd5781516001600160a01b0316875295820195908201906001016121b8565b509495945050505050565b6001600160a01b0391909116815260200190565b6001600160a01b03929092168252602082015260400190565b6001600160a01b039384168152919092166020820152604081019190915260600190565b6001600160a01b03939093168352602083019190915261ffff16604082015260600190565b6020808252825182820181905260009190848201906040850190845b818110156122965783518352928401929184019160010161227a565b50909695505050505050565b901515815260200190565b90815260200190565b60208101600583106122c457fe5b91905290565b6000602080835283518082850152825b818110156122f6578581018301518582016040015282016122da565b818111156123075783604083870101525b50601f01601f1916929092016040019392505050565b60208082526014908201527314185d5cd8589b194e881b9bdd081c185d5cd95960621b604082015260600190565b60208082526026908201527f4f776e61626c653a206e6577206f776e657220697320746865207a65726f206160408201526564647265737360d01b606082015260800190565b6020808252601b908201527f536166654d6174683a206164646974696f6e206f766572666c6f770000000000604082015260600190565b60208082526018908201527f4f7261636c6520686173206e6f742066696e616c697365640000000000000000604082015260600190565b60208082526010908201526f14185d5cd8589b194e881c185d5cd95960821b604082015260600190565b60208082526011908201527020b63932b0b23c903bb4ba34323930bbb760791b604082015260600190565b60208082526021908201527f536166654d6174683a206d756c7469706c69636174696f6e206f766572666c6f6040820152607760f81b606082015260800190565b6020808252818101527f4f776e61626c653a2063616c6c6572206973206e6f7420746865206f776e6572604082015260600190565b602080825260099082015268546f6f206561726c7960b81b604082015260600190565b60208082526026908201527f66756e6374696f6e2063616e6e6f742062652063616c6c656420617420746869604082015265732074696d6560d01b606082015260800190565b60208082526014908201527310d85cda081d1c985b9cd9995c8819985a5b195960621b604082015260600190565b6020808252601f908201527f5265656e7472616e637947756172643a207265656e7472616e742063616c6c00604082015260600190565b6000838252604060208301526125b160408301846121a5565b949350505050565b6000858252608060208301526125d260808301866121a5565b6001600160a01b03949094166040830152506060015292915050565b63ffffffff91909116815260200190565b60405181810167ffffffffffffffff8111828210171561261e57600080fd5b604052919050565b600067ffffffffffffffff82111561263c578081fd5b5060209081020190565b6001600160a01b038116811461265b57600080fd5b5056fea264697066735822122022e8f3e9a83c2bd470567e59124eef8732bc96f4d3b50c17350019db7cde1fb864736f6c6343000607003360806040523480156200001157600080fd5b50604051620013b2380380620013b2833981810160405260208110156200003757600080fd5b81019080805160405193929190846401000000008211156200005857600080fd5b9083019060208201858111156200006e57600080fd5b82516401000000008111828201881017156200008957600080fd5b82525081516020918201929091019080838360005b83811015620000b85781810151838201526020016200009e565b50505050905090810190601f168015620000e65780820380516001836020036101000a031916815260200191505b5060408181019052600281526126a160f11b60208083019190915285518695509193506200011c925060039190850190620001b9565b50805162000132906004906020840190620001b9565b50506005805460ff19166012179055506000620001576001600160e01b03620001b416565b60058054610100600160a81b0319166101006001600160a01b03841690810291909117909155604051919250906000907f8be0079c531659141344cd1fd0a4f28419497f9722a3daafe3b4186f6b6457e0908290a350506200025b565b335b90565b828054600181600116156101000203166002900490600052602060002090601f016020900481019282601f10620001fc57805160ff19168380011785556200022c565b828001600101855582156200022c579182015b828111156200022c5782518255916020019190600101906200020f565b506200023a9291506200023e565b5090565b620001b691905b808211156200023a576000815560010162000245565b611147806200026b6000396000f3fe6080604052600436106100f75760003560e01c8063715018a61161008a578063a457c2d711610059578063a457c2d7146103a5578063a9059cbb146103de578063dd62ed3e14610417578063f2fde38b14610452576100fe565b8063715018a6146103115780638da5cb5b1461032657806395d89b41146103575780639dc29fac1461036c576100fe565b8063313ce567116100c6578063313ce56714610241578063395093511461026c57806340c10f19146102a557806370a08231146102de576100fe565b806306fdde0314610100578063095ea7b31461018a57806318160ddd146101d757806323b872dd146101fe576100fe565b366100fe57005b005b34801561010c57600080fd5b50610115610485565b6040805160208082528351818301528351919283929083019185019080838360005b8381101561014f578181015183820152602001610137565b50505050905090810190601f16801561017c5780820380516001836020036101000a031916815260200191505b509250505060405180910390f35b34801561019657600080fd5b506101c3600480360360408110156101ad57600080fd5b506001600160a01b03813516906020013561051b565b604080519115158252519081900360200190f35b3480156101e357600080fd5b506101ec610538565b60408051918252519081900360200190f35b34801561020a57600080fd5b506101c36004803603606081101561022157600080fd5b506001600160a01b0381358116916020810135909116906040013561053e565b34801561024d57600080fd5b506102566105cb565b6040805160ff9092168252519081900360200190f35b34801561027857600080fd5b506101c36004803603604081101561028f57600080fd5b506001600160a01b0381351690602001356105d4565b3480156102b157600080fd5b506100fe600480360360408110156102c857600080fd5b506001600160a01b038135169060200135610628565b3480156102ea57600080fd5b506101ec6004803603602081101561030157600080fd5b50356001600160a01b0316610693565b34801561031d57600080fd5b506100fe6106ae565b34801561033257600080fd5b5061033b61075b565b604080516001600160a01b039092168252519081900360200190f35b34801561036357600080fd5b5061011561076f565b34801561037857600080fd5b506100fe6004803603604081101561038f57600080fd5b506001600160a01b0381351690602001356107d0565b3480156103b157600080fd5b506101c3600480360360408110156103c857600080fd5b506001600160a01b038135169060200135610837565b3480156103ea57600080fd5b506101c36004803603604081101561040157600080fd5b506001600160a01b0381351690602001356108a5565b34801561042357600080fd5b506101ec6004803603604081101561043a57600080fd5b506001600160a01b03813581169160200135166108b9565b34801561045e57600080fd5b506100fe6004803603602081101561047557600080fd5b50356001600160a01b03166108e4565b60038054604080516020601f60026000196101006001881615020190951694909404938401819004810282018101909252828152606093909290918301828280156105115780601f106104e657610100808354040283529160200191610511565b820191906000526020600020905b8154815290600101906020018083116104f457829003601f168201915b5050505050905090565b600061052f6105286109ed565b84846109f1565b50600192915050565b60025490565b600061054b848484610add565b6105c1846105576109ed565b6105bc8560405180606001604052806028815260200161103b602891396001600160a01b038a166000908152600160205260408120906105956109ed565b6001600160a01b03168152602081019190915260400160002054919063ffffffff610c4416565b6109f1565b5060019392505050565b60055460ff1690565b600061052f6105e16109ed565b846105bc85600160006105f26109ed565b6001600160a01b03908116825260208083019390935260409182016000908120918c16815292529020549063ffffffff610cdb16565b6106306109ed565b60055461010090046001600160a01b03908116911614610685576040805162461bcd60e51b81526020600482018190526024820152600080516020611063833981519152604482015290519081900360640190fd5b61068f8282610d3c565b5050565b6001600160a01b031660009081526020819052604090205490565b6106b66109ed565b60055461010090046001600160a01b0390811691161461070b576040805162461bcd60e51b81526020600482018190526024820152600080516020611063833981519152604482015290519081900360640190fd5b60055460405160009161010090046001600160a01b0316907f8be0079c531659141344cd1fd0a4f28419497f9722a3daafe3b4186f6b6457e0908390a360058054610100600160a81b0319169055565b60055461010090046001600160a01b031690565b60048054604080516020601f60026000196101006001881615020190951694909404938401819004810282018101909252828152606093909290918301828280156105115780601f106104e657610100808354040283529160200191610511565b6107d86109ed565b60055461010090046001600160a01b0390811691161461082d576040805162461bcd60e51b81526020600482018190526024820152600080516020611063833981519152604482015290519081900360640190fd5b61068f8282610e38565b600061052f6108446109ed565b846105bc856040518060600160405280602581526020016110ed602591396001600061086e6109ed565b6001600160a01b03908116825260208083019390935260409182016000908120918d1681529252902054919063ffffffff610c4416565b600061052f6108b26109ed565b8484610add565b6001600160a01b03918216600090815260016020908152604080832093909416825291909152205490565b6108ec6109ed565b60055461010090046001600160a01b03908116911614610941576040805162461bcd60e51b81526020600482018190526024820152600080516020611063833981519152604482015290519081900360640190fd5b6001600160a01b0381166109865760405162461bcd60e51b8152600401808060200182810382526026815260200180610fcd6026913960400191505060405180910390fd5b6005546040516001600160a01b0380841692610100900416907f8be0079c531659141344cd1fd0a4f28419497f9722a3daafe3b4186f6b6457e090600090a3600580546001600160a01b0390921661010002610100600160a81b0319909216919091179055565b3390565b6001600160a01b038316610a365760405162461bcd60e51b81526004018080602001828103825260248152602001806110c96024913960400191505060405180910390fd5b6001600160a01b038216610a7b5760405162461bcd60e51b8152600401808060200182810382526022815260200180610ff36022913960400191505060405180910390fd5b6001600160a01b03808416600081815260016020908152604080832094871680845294825291829020859055815185815291517f8c5be1e5ebec7d5bd14f71427d1e84f3dd0314c0f7b2291e5b200ac8c7c3b9259281900390910190a3505050565b6001600160a01b038316610b225760405162461bcd60e51b81526004018080602001828103825260258152602001806110a46025913960400191505060405180910390fd5b6001600160a01b038216610b675760405162461bcd60e51b8152600401808060200182810382526023815260200180610f886023913960400191505060405180910390fd5b610b72838383610f40565b610bb581604051806060016040528060268152602001611015602691396001600160a01b038616600090815260208190526040902054919063ffffffff610c4416565b6001600160a01b038085166000908152602081905260408082209390935590841681522054610bea908263ffffffff610cdb16565b6001600160a01b038084166000818152602081815260409182902094909455805185815290519193928716927fddf252ad1be2c89b69c2b068fc378daa952ba7f163c4a11628f55a4df523b3ef92918290030190a3505050565b60008184841115610cd35760405162461bcd60e51b81526004018080602001828103825283818151815260200191508051906020019080838360005b83811015610c98578181015183820152602001610c80565b50505050905090810190601f168015610cc55780820380516001836020036101000a031916815260200191505b509250505060405180910390fd5b505050900390565b600082820183811015610d35576040805162461bcd60e51b815260206004820152601b60248201527f536166654d6174683a206164646974696f6e206f766572666c6f770000000000604482015290519081900360640190fd5b9392505050565b6001600160a01b038216610d97576040805162461bcd60e51b815260206004820152601f60248201527f45524332303a206d696e7420746f20746865207a65726f206164647265737300604482015290519081900360640190fd5b610da360008383610f40565b600254610db6908263ffffffff610cdb16565b6002556001600160a01b038216600090815260208190526040902054610de2908263ffffffff610cdb16565b6001600160a01b0383166000818152602081815260408083209490945583518581529351929391927fddf252ad1be2c89b69c2b068fc378daa952ba7f163c4a11628f55a4df523b3ef9281900390910190a35050565b6001600160a01b038216610e7d5760405162461bcd60e51b81526004018080602001828103825260218152602001806110836021913960400191505060405180910390fd5b610e8982600083610f40565b610ecc81604051806060016040528060228152602001610fab602291396001600160a01b038516600090815260208190526040902054919063ffffffff610c4416565b6001600160a01b038316600090815260208190526040902055600254610ef8908263ffffffff610f4516565b6002556040805182815290516000916001600160a01b038516917fddf252ad1be2c89b69c2b068fc378daa952ba7f163c4a11628f55a4df523b3ef9181900360200190a35050565b505050565b6000610d3583836040518060400160405280601e81526020017f536166654d6174683a207375627472616374696f6e206f766572666c6f770000815250610c4456fe45524332303a207472616e7366657220746f20746865207a65726f206164647265737345524332303a206275726e20616d6f756e7420657863656564732062616c616e63654f776e61626c653a206e6577206f776e657220697320746865207a65726f206164647265737345524332303a20617070726f766520746f20746865207a65726f206164647265737345524332303a207472616e7366657220616d6f756e7420657863656564732062616c616e636545524332303a207472616e7366657220616d6f756e74206578636565647320616c6c6f77616e63654f776e61626c653a2063616c6c6572206973206e6f7420746865206f776e657245524332303a206275726e2066726f6d20746865207a65726f206164647265737345524332303a207472616e736665722066726f6d20746865207a65726f206164647265737345524332303a20617070726f76652066726f6d20746865207a65726f206164647265737345524332303a2064656372656173656420616c6c6f77616e63652062656c6f77207a65726fa264697066735822122084de7059b8cb952e2c8fa5247cf23c85cde79f3a7a56e8cd12d2ca7b28fe784364736f6c634300060700338be0079c531659141344cd1fd0a4f28419497f9722a3daafe3b4186f6b6457e0",
  "immutableReferences": {},
  "source": "//SPDX-License-Identifier: UNLICENSED\npragma solidity 0.6.7;\npragma experimental ABIEncoderV2;\n\nimport '@nomiclabs/buidler/console.sol';\nimport '@openzeppelin/contracts/math/SafeMath.sol';\nimport '@openzeppelin/contracts/utils/ReentrancyGuard.sol';\nimport '@openzeppelin/contracts/utils/Pausable.sol';\nimport '@openzeppelin/contracts/access/Ownable.sol';\nimport './interfaces/IAave.sol';\nimport './interfaces/IDai.sol';\nimport './interfaces/IRealitio.sol';\nimport './interfaces/IUniswapV2Router01.sol';\nimport './Token.sol';\n\n\ncontract BTMarket is Ownable, Pausable, ReentrancyGuard {\n    using SafeMath for uint256;\n\n    ////////////////////////////////////\n    //////// VARIABLES /////////////////\n    ////////////////////////////////////\n\n    //////// Externals ////////\n    Dai public dai;\n    IaToken public aToken;\n    IAaveLendingPool public aaveLendingPool;\n    IRealitio public realitio;\n    IUniswapV2Router01 public uniswapRouter;\n\n    //////// Market Details ////////\n    uint256 public maxInterest; //for the front end\n    uint256 public marketOpeningTime; // when the market can opened for bets\n    uint256 public marketOpeningTimeActual; //when the market is actually opened\n    uint256 public marketLockingTime; // when the market is no longer open for bets\n    uint32 public marketResolutionTime; // the time the realitio market is able to be answered, uint32 cos Realitio needs it\n    bytes32 public questionId; // the question ID of the question on realitio\n    string public eventName;\n    string[] public outcomeNames;\n    Token[] public tokenAddresses;\n    uint256 public numberOfOutcomes;\n    enum States {SETUP, WAITING, OPEN, LOCKED, WITHDRAW}\n    States public state;\n\n    //////// Betting variables ////////\n    mapping(uint256 => uint256[]) private betAmountsArray;\n    mapping(uint256 => uint256[]) private timestampsArray;\n    mapping(uint256 => uint256) public totalBetsPerOutcome;\n    mapping(address => uint256) public totalBetsPerUser;\n    mapping(uint256 => uint256) public betsWithdrawnPerOutcome;\n    mapping(uint256 => uint256) public usersPerOutcome;\n    uint256 public totalBets;\n    uint256 public betsWithdrawn;\n    address[] public participants;\n\n    //////// Market resolution variables ////////\n    mapping(address => bool) public withdrawnBool; //so participants can only withdraw once\n    uint256 public winningOutcome = 69; // start with incorrect winning outcome\n    bool public questionResolvedInvalid = true; // default to true\n\n    ////////////////////////////////////\n    //////// CONSTRUCTOR ///////////////\n    ////////////////////////////////////\n    constructor(\n        Dai _daiAddress,\n        address[3] memory _aaveAddresses,\n        IRealitio _realitioAddress,\n        IUniswapV2Router01 _uniswapRouter,\n        string memory _eventName,\n        uint256[4] memory _marketTimes,\n        address _arbitrator,\n        string memory _realitioQuestion,\n        string[] memory _outcomeNamesArray,\n        address _owner\n    ) public {\n        if (_owner != msg.sender) {\n            transferOwnership(_owner);\n        }\n        // Externals\n        dai = _daiAddress;\n        aToken = IaToken(_aaveAddresses[0]);\n        aaveLendingPool = IAaveLendingPool(_aaveAddresses[1]);\n        realitio = _realitioAddress;\n        uniswapRouter = _uniswapRouter;\n\n        // Approvals\n        dai.approve(_aaveAddresses[2], 2**255);\n\n        // Pass arguments to public variables\n        eventName = _eventName;\n        marketOpeningTime = _marketTimes[0];\n        marketLockingTime = _marketTimes[1];\n        marketResolutionTime = uint32(_marketTimes[2]);\n        numberOfOutcomes = _outcomeNamesArray.length;\n\n        //create the tokens\n        for (uint256 i = 0; i < numberOfOutcomes; i++) {\n            _createTokenContract(_outcomeNamesArray[i]);\n        }\n\n        // Create the question on Realitio\n        uint256 _templateId = 2;\n        uint256 _nonce = now; // <- should probably change this to zero for mainnet\n        questionId = _postQuestion(\n            _templateId,\n            _realitioQuestion,\n            _arbitrator,\n            uint32(_marketTimes[3]),\n            marketResolutionTime,\n            _nonce\n        );\n    }\n\n    ////////////////////////////////////\n    //////// EVENTS ////////////////////\n    ////////////////////////////////////\n    event ParticipantEntered(address indexed participant);\n    event ParticipantWithdrawn(address indexed participant);\n    event StateChanged(States state);\n    event WinnerSelected(address indexed winner);\n\n    ////////////////////////////////////\n    //////// INITIAL SETUP /////////////\n    ////////////////////////////////////\n    // you cannot pass an array of strings as an argument\n    // string manipulation is also difficult, so it is not easy to parse the relevant\n    // ... info from the _realitioQuestion string. So, manually set this info\n    // probably redundant, the front end can store this, just adding in case\n\n    function setEventName(string calldata _eventName) external onlyOwner {\n        eventName = _eventName;\n    }\n\n    function _createTokenContract(string memory _outcomeName) internal checkState(States.SETUP) {\n        outcomeNames.push(_outcomeName);\n        Token tokenContract = new Token({_tokenName: _outcomeName});\n        tokenAddresses.push(tokenContract);\n        if (tokenAddresses.length == numberOfOutcomes) {\n            state = States(uint256(state) + 1);\n        }\n    }\n\n    ////////////////////////////////////\n    //////// MODIFIERS /////////////////\n    ////////////////////////////////////\n    modifier checkState(States currentState) {\n        require(state == currentState, 'function cannot be called at this time');\n        _;\n    }\n\n    ////////////////////////////////////\n    ////////// VIEW FUNCTIONS //////////\n    ////////////////////////////////////\n    function getBetAmountsArray(uint256 _outcome) external view returns (uint256[] memory) {\n        return betAmountsArray[_outcome];\n    }\n\n    function getTimestampsArray(uint256 _outcome) external view returns (uint256[] memory) {\n        return timestampsArray[_outcome];\n    }\n\n    function getMarketSize() public view returns (uint256) {\n        return participants.length;\n    }\n\n    function getParticipantsBet(uint256 _outcome) public view returns (uint256) {\n        Token _token = Token(tokenAddresses[_outcome]);\n        return _token.balanceOf(msg.sender);\n    }\n\n    function getMaxTotalInterest() public view returns (uint256) {\n        if (state == States.WITHDRAW) {\n            return maxInterest;\n        } else {\n            return getTotalInterest();\n        }\n    }\n\n    function getTotalInterest() public view returns (uint256) {\n        uint256 _remainingBet = totalBets.sub(betsWithdrawn);\n        uint256 _totalAdaibalances = aToken.balanceOf(address(this));\n        uint256 _totalInterest = _totalAdaibalances.sub(_remainingBet);\n        return _totalInterest;\n    }\n\n    function getWinningsGivenOutcome(uint256 _outcome) external view returns (uint256) {\n        return _getWinningsGivenOutcome(_outcome);\n    }\n\n    function _getWinningsGivenOutcome(uint256 _outcome) internal view returns (uint256) {\n        Token _token = Token(tokenAddresses[_outcome]);\n        uint256 _userBetOnOutcome = _token.balanceOf(msg.sender);\n        uint256 _totalRemainingBetsOnOutcome = totalBetsPerOutcome[_outcome].sub(betsWithdrawnPerOutcome[_outcome]);\n        return _calculateWinnings(_totalRemainingBetsOnOutcome, _userBetOnOutcome);\n    }\n\n    /// @dev if invalid outcome, simply pay out interest in proportion to bets across all tokenAddresses\n    /// @dev i.e. as if all the outcomes 'won'\n    function getWinningsInvalid() public view returns (uint256) {\n        return _calculateWinnings(totalBets.sub(betsWithdrawn), totalBetsPerUser[msg.sender]);\n    }\n\n    function _calculateWinnings(uint256 _totalBetAmount, uint256 _userBetOutcomeAmount)\n        internal\n        view\n        returns (uint256)\n    {\n        uint256 winnings;\n        if (_totalBetAmount > 0) {\n            uint256 _totalInterest = getTotalInterest();\n            winnings = (_totalInterest.mul(_userBetOutcomeAmount)).div(_totalBetAmount);\n        }\n        return winnings;\n    }\n\n    // need the interest rate for this\n    // function getEstimatedReturn(uint _outcome) returns (uint) {\n    //     uint _timeLocked = marketResolutionTime.\n    // }\n\n    ////////////////////////////////////\n    //////// REALIITO FUNCTIONS ////////\n    ////////////////////////////////////\n\n    /// @notice posts the question to realit.io\n    function _postQuestion(\n        uint256 template_id,\n        string memory question,\n        address arbitrator,\n        uint32 timeout,\n        uint32 opening_ts,\n        uint256 nonce\n    ) internal returns (bytes32) {\n        return realitio.askQuestion(template_id, question, arbitrator, timeout, opening_ts, nonce);\n    }\n\n    /// @notice gets the winning outcome from realitio\n    /// @dev this function call will revert if it has not yet resolved\n    function _determineWinner() internal view returns (uint256) {\n        bytes32 _winningOutcome = realitio.resultFor(questionId);\n        return uint256(_winningOutcome);\n    }\n\n    /// @notice has the question been finalized on realitio?\n    function _isQuestionFinalized() internal view returns (bool) {\n        return realitio.isFinalized(questionId);\n    }\n\n    ////////////////////////////////////\n    /////// EXTERNAL DAI CALLS /////////\n    ////////////////////////////////////\n\n    /// @notice common function for all outgoing DAI transfers\n    function _sendCash(address _to, uint256 _amount) internal {\n        require(dai.transfer(_to, _amount), 'Cash transfer failed');\n    }\n\n    /// @notice common function for all incoming DAI transfers\n    function _receiveCash(address _from, uint256 _amount) internal {\n        if (msg.value > 0) {\n            swapETHForExactTokenWithUniswap(_amount);\n            return;\n        }\n\n        require(dai.transferFrom(_from, address(this), _amount), 'Cash transfer failed');\n    }\n\n    ////////////////////////////////////\n    /////// EXTERNAL AAVE CALLS ////////\n    ////////////////////////////////////\n\n    /// @notice swap Dai for aDai\n    function _sendToAave(uint256 _dai) internal {\n        aaveLendingPool.deposit(address(dai), _dai, 0);\n    }\n\n    /// @notice swap aDai for Dai\n    function _redeemFromAave(uint256 _dai) internal {\n        aToken.redeem(_dai);\n    }\n\n    ////////////////////////////////////\n    //////// EXTERNAL FUNCTIONS ////////\n    ////////////////////////////////////\n\n    function placeBet(uint256 _outcome, uint256 _dai) external payable checkState(States.OPEN) whenNotPaused {\n        _placeBet(_outcome, _dai);\n        _receiveCash(msg.sender, _dai);\n        _sendToAave(_dai);\n    }\n\n    function determineWinner() external whenNotPaused {\n        require(_isQuestionFinalized(), 'Oracle has not finalised');\n        winningOutcome = _determineWinner();\n        if (winningOutcome != ((2**256) - 1) && totalBetsPerOutcome[winningOutcome] > 0) {\n            questionResolvedInvalid = false;\n        }\n        incrementState();\n    }\n\n    // keep this public as it's called by determineWinner\n    // not onlyOwner, can be called by anyone, this is fine\n    function incrementState() public whenNotPaused {\n        if (\n            ((state == States.WAITING) && (marketOpeningTime < now)) ||\n            ((state == States.OPEN) && (marketLockingTime < now)) ||\n            ((state == States.LOCKED) && (winningOutcome != 69))\n        ) {\n            if (state == States.WAITING) {\n                marketOpeningTimeActual = now;\n            }\n            if (state == States.LOCKED) {\n                maxInterest = getTotalInterest();\n            }\n            state = States(uint256(state) + 1);\n            emit StateChanged(state);\n        }\n    }\n\n    /// @dev change state to WITHDRAW to lock contract and return all funds\n    /// @dev in case Oracle never resolves\n    function circuitBreaker() external {\n        require(now > (marketResolutionTime + 4 weeks), 'Too early');\n        questionResolvedInvalid = true;\n        state = States.WITHDRAW;\n    }\n\n    function withdraw() external checkState(States.WITHDRAW) whenNotPaused nonReentrant {\n        require(!withdrawnBool[msg.sender], 'Already withdrawn');\n        withdrawnBool[msg.sender] = true;\n        if (!questionResolvedInvalid) {\n            _payoutWinnings();\n        } else {\n            _payoutWinningsInvalid();\n        }\n        _burnUsersTokens();\n    }\n\n    ////////////////////////////////////\n    //////// INTERNAL FUNCTIONS ////////\n    ////////////////////////////////////\n    function _payoutWinnings() internal {\n        uint256 _winnings = _getWinningsGivenOutcome(winningOutcome);\n        uint256 _daiToSend = _winnings.add(totalBetsPerUser[msg.sender]);\n        // externals\n        if (_daiToSend > 0) {\n            _redeemFromAave(_daiToSend);\n            _sendCash(msg.sender, _daiToSend);\n        }\n    }\n\n    function _payoutWinningsInvalid() internal {\n        uint256 _winningsInvalid = getWinningsInvalid();\n        uint256 _daiToSend = _winningsInvalid.add(totalBetsPerUser[msg.sender]);\n        // externals\n        if (_daiToSend > 0) {\n            _redeemFromAave(_daiToSend);\n            _sendCash(msg.sender, _daiToSend);\n        }\n    }\n\n    function _placeBet(uint256 _outcome, uint256 _dai) internal {\n        betAmountsArray[_outcome].push(_dai);\n        timestampsArray[_outcome].push(now);\n        Token _token = Token(tokenAddresses[_outcome]);\n        if (_token.balanceOf(msg.sender) == 0) {\n            participants.push(msg.sender);\n            usersPerOutcome[_outcome] = usersPerOutcome[_outcome].add(1);\n        }\n        emit ParticipantEntered(msg.sender);\n        _token.mint(msg.sender, _dai);\n        totalBets = totalBets.add(_dai);\n        totalBetsPerOutcome[_outcome] = totalBetsPerOutcome[_outcome].add(_dai);\n        totalBetsPerUser[msg.sender] = totalBetsPerUser[msg.sender].add(_dai);\n    }\n\n    function _burnUsersTokens() internal {\n        uint256 _userBetsAllOutcomes;\n        for (uint256 i = 0; i < numberOfOutcomes; i++) {\n            Token _token = Token(tokenAddresses[i]);\n            uint256 _userBetThisOutcome = _token.balanceOf(msg.sender);\n            if (_userBetThisOutcome > 0) {\n                _userBetsAllOutcomes = _userBetsAllOutcomes.add(_userBetThisOutcome);\n                betsWithdrawnPerOutcome[i] = betsWithdrawnPerOutcome[i].add(_userBetThisOutcome);\n                _token.burn(msg.sender, _userBetThisOutcome);\n            }\n        }\n        assert(_userBetsAllOutcomes == totalBetsPerUser[msg.sender]);\n        betsWithdrawn = betsWithdrawn.add(_userBetsAllOutcomes);\n    }\n\n    function swapETHForExactTokenWithUniswap(uint256 daiAmount) private {\n        address[] memory path = getDAIforETHpath();\n\n        uniswapRouter.swapETHForExactTokens.value(msg.value)(daiAmount, path, address(this), now + 15);\n        msg.sender.call.value(address(this).balance)(''); // refund leftover ETH\n    }\n\n    function getEstimatedETHforDAI(uint256 ethAmount) public view returns (uint256[] memory) {\n        address[] memory path = getDAIforETHpath();\n\n        return uniswapRouter.getAmountsIn(ethAmount, path);\n    }\n\n    function getEstimatedDAIforETH(uint256 daiAmount) public view returns (uint256[] memory) {\n        address[] memory path = getDAIforETHpath();\n\n        return uniswapRouter.getAmountsOut(daiAmount, path);\n    }\n\n    function getDAIforETHpath() private view returns (address[] memory) {\n        address[] memory path = new address[](2);\n        path[0] = uniswapRouter.WETH();\n        path[1] = address(dai);\n\n        return path;\n    }\n\n    ////////////////////////////////////\n    ///// BOILERPLATE FUNCTIONS ////////\n    ////////////////////////////////////\n    function disableContract() public onlyOwner whenNotPaused returns (bool) {\n        _pause();\n    }\n\n    function enableContract() public onlyOwner whenPaused returns (bool) {\n        _unpause();\n    }\n\n    receive() external payable {}\n\n    fallback() external payable {}\n}\n",
  "sourcePath": "/Users/brenfife/Desktop/MagicBet-Contracts/contracts/BTMarket.sol",
  "compiler": {
    "name": "solc",
    "version": "0.6.7+commit.b8d736ae.Emscripten.clang"
  },
  "schemaVersion": "3.1.0",
  "updatedAt": "2020-05-31T15:59:21.248Z",
  "networkType": "ethereum",
  "devdoc": {
    "methods": {
      "circuitBreaker()": {
        "details": "change state to WITHDRAW to lock contract and return all fundsin case Oracle never resolves"
      },
      "getWinningsInvalid()": {
        "details": "if invalid outcome, simply pay out interest in proportion to bets across all tokenAddressesi.e. as if all the outcomes 'won'"
      },
      "owner()": {
        "details": "Returns the address of the current owner."
      },
      "paused()": {
        "details": "Returns true if the contract is paused, and false otherwise."
      },
      "renounceOwnership()": {
        "details": "Leaves the contract without owner. It will not be possible to call `onlyOwner` functions anymore. Can only be called by the current owner.     * NOTE: Renouncing ownership will leave the contract without an owner, thereby removing any functionality that is only available to the owner."
      },
      "transferOwnership(address)": {
        "details": "Transfers ownership of the contract to a new account (`newOwner`). Can only be called by the current owner."
      }
    }
  },
  "userdoc": {
    "methods": {
      "constructor": "///////////////////////////////// ///// CONSTRUCTOR /////////////// /////////////////////////////////",
      "disableContract()": {
        "notice": "///////////////////////////////// // BOILERPLATE FUNCTIONS //////// /////////////////////////////////"
      },
      "getBetAmountsArray(uint256)": {
        "notice": "///////////////////////////////// /////// VIEW FUNCTIONS ////////// /////////////////////////////////"
      },
      "placeBet(uint256,uint256)": {
        "notice": "///////////////////////////////// ///// EXTERNAL FUNCTIONS //////// /////////////////////////////////"
      },
      "setEventName(string)": {
        "notice": "///////////////////////////////// ///// INITIAL SETUP ///////////// /////////////////////////////////"
      }
    }
  }
}