{
  "contractName": "DaiMockup",
  "abi": [
    {
      "inputs": [
        {
          "internalType": "address",
          "name": "",
          "type": "address"
        },
        {
          "internalType": "address",
          "name": "",
          "type": "address"
        }
      ],
      "name": "allowances",
      "outputs": [
        {
          "internalType": "uint256",
          "name": "",
          "type": "uint256"
        }
      ],
      "stateMutability": "view",
      "type": "function"
    },
    {
      "inputs": [
        {
          "internalType": "address",
          "name": "",
          "type": "address"
        }
      ],
      "name": "balances",
      "outputs": [
        {
          "internalType": "uint256",
          "name": "",
          "type": "uint256"
        }
      ],
      "stateMutability": "view",
      "type": "function"
    },
    {
      "inputs": [
        {
          "internalType": "address",
          "name": "_spender",
          "type": "address"
        },
        {
          "internalType": "uint256",
          "name": "_amount",
          "type": "uint256"
        }
      ],
      "name": "approve",
      "outputs": [
        {
          "internalType": "bool",
          "name": "",
          "type": "bool"
        }
      ],
      "stateMutability": "nonpayable",
      "type": "function"
    },
    {
      "inputs": [
        {
          "internalType": "address",
          "name": "_owner",
          "type": "address"
        }
      ],
      "name": "balanceOf",
      "outputs": [
        {
          "internalType": "uint256",
          "name": "",
          "type": "uint256"
        }
      ],
      "stateMutability": "view",
      "type": "function"
    },
    {
      "inputs": [
        {
          "internalType": "address",
          "name": "_recipient",
          "type": "address"
        },
        {
          "internalType": "uint256",
          "name": "_amount",
          "type": "uint256"
        }
      ],
      "name": "allocateTo",
      "outputs": [],
      "stateMutability": "nonpayable",
      "type": "function"
    },
    {
      "inputs": [
        {
          "internalType": "uint256",
          "name": "_amount",
          "type": "uint256"
        }
      ],
      "name": "mint",
      "outputs": [],
      "stateMutability": "nonpayable",
      "type": "function"
    },
    {
      "inputs": [
        {
          "internalType": "uint256",
          "name": "_amount",
          "type": "uint256"
        },
        {
          "internalType": "address",
          "name": "_address",
          "type": "address"
        }
      ],
      "name": "mint2",
      "outputs": [],
      "stateMutability": "nonpayable",
      "type": "function"
    },
    {
      "inputs": [
        {
          "internalType": "address",
          "name": "_to",
          "type": "address"
        },
        {
          "internalType": "uint256",
          "name": "_amount",
          "type": "uint256"
        }
      ],
      "name": "transfer",
      "outputs": [
        {
          "internalType": "bool",
          "name": "",
          "type": "bool"
        }
      ],
      "stateMutability": "nonpayable",
      "type": "function"
    },
    {
      "inputs": [
        {
          "internalType": "address",
          "name": "_from",
          "type": "address"
        },
        {
          "internalType": "address",
          "name": "_to",
          "type": "address"
        },
        {
          "internalType": "uint256",
          "name": "_amount",
          "type": "uint256"
        }
      ],
      "name": "transferFrom",
      "outputs": [
        {
          "internalType": "bool",
          "name": "",
          "type": "bool"
        }
      ],
      "stateMutability": "nonpayable",
      "type": "function"
    },
    {
      "inputs": [
        {
          "internalType": "address",
          "name": "_from",
          "type": "address"
        },
        {
          "internalType": "address",
          "name": "_to",
          "type": "address"
        },
        {
          "internalType": "uint256",
          "name": "_amount",
          "type": "uint256"
        }
      ],
      "name": "transferFromNoApproval",
      "outputs": [
        {
          "internalType": "bool",
          "name": "",
          "type": "bool"
        }
      ],
      "stateMutability": "nonpayable",
      "type": "function"
    },
    {
      "inputs": [
        {
          "internalType": "address",
          "name": "_victim",
          "type": "address"
        }
      ],
      "name": "resetBalance",
      "outputs": [
        {
          "internalType": "bool",
          "name": "",
          "type": "bool"
        }
      ],
      "stateMutability": "nonpayable",
      "type": "function"
    }
  ],
  "bytecode": "0x608060405234801561001057600080fd5b506106ee806100206000396000f3fe608060405234801561001057600080fd5b50600436106100a95760003560e01c806355b6ed5c1161007157806355b6ed5c1461018a57806370a08231146101b857806395ca3127146101de578063a0712d681461020a578063a9059cbb14610227578063bd05184414610253576100a9565b806308bca566146100ae578063095ea7b3146100dc57806323b872dd1461011c57806327e235e3146101525780633d5f28c81461011c575b600080fd5b6100da600480360360408110156100c457600080fd5b506001600160a01b038135169060200135610279565b005b610108600480360360408110156100f257600080fd5b506001600160a01b0381351690602001356102c2565b604080519115158252519081900360200190f35b6101086004803603606081101561013257600080fd5b506001600160a01b038135811691602081013590911690604001356102ef565b6101786004803603602081101561016857600080fd5b50356001600160a01b03166103d4565b60408051918252519081900360200190f35b610178600480360360408110156101a057600080fd5b506001600160a01b03813581169160200135166103e6565b610178600480360360208110156101ce57600080fd5b50356001600160a01b0316610403565b6100da600480360360408110156101f457600080fd5b50803590602001356001600160a01b031661041e565b6100da6004803603602081101561022057600080fd5b5035610464565b6101086004803603604081101561023d57600080fd5b506001600160a01b038135169060200135610497565b6101086004803603602081101561026957600080fd5b50356001600160a01b0316610566565b6001600160a01b0382166000908152602081905260409020546102a2908263ffffffff61058316565b6001600160a01b0390921660009081526020819052604090209190915550565b6001600160a01b038216600090815260016020818152604080842033855290915290912082905592915050565b6001600160a01b038316600090815260208190526040812054821115610353576040805162461bcd60e51b8152602060048201526014602482015273496e73756666696369656e742062616c616e636560601b604482015290519081900360640190fd5b6001600160a01b03841660009081526020819052604090205461037c908363ffffffff6105e416565b6001600160a01b0380861660009081526020819052604080822093909355908516815220546103b1908363ffffffff61058316565b6001600160a01b0384166000908152602081905260409020555060019392505050565b60006020819052908152604090205481565b600160209081526000928352604080842090915290825290205481565b6001600160a01b031660009081526020819052604090205490565b6001600160a01b038116600090815260208190526040902054610447908363ffffffff61058316565b6001600160a01b0390911660009081526020819052604090205550565b33600090815260208190526040902054610484908263ffffffff61058316565b3360009081526020819052604090205550565b336000908152602081905260408120548211156104f2576040805162461bcd60e51b8152602060048201526014602482015273496e73756666696369656e742062616c616e636560601b604482015290519081900360640190fd5b33600090815260208190526040902054610512908363ffffffff6105e416565b33600090815260208190526040808220929092556001600160a01b03851681522054610544908363ffffffff61058316565b6001600160a01b03841660009081526020819052604090205550600192915050565b6001600160a01b0316600090815260208190526040812081905590565b6000828201838110156105dd576040805162461bcd60e51b815260206004820152601b60248201527f536166654d6174683a206164646974696f6e206f766572666c6f770000000000604482015290519081900360640190fd5b9392505050565b60006105dd83836040518060400160405280601e81526020017f536166654d6174683a207375627472616374696f6e206f766572666c6f770000815250600081848411156106b05760405162461bcd60e51b81526004018080602001828103825283818151815260200191508051906020019080838360005b8381101561067557818101518382015260200161065d565b50505050905090810190601f1680156106a25780820380516001836020036101000a031916815260200191505b509250505060405180910390fd5b50505090039056fea2646970667358221220ec04da20c3f62dd371a9250ae2051a5d39646daaa616f0c028a84ac4850432aa64736f6c634300060a0033",
  "immutableReferences": {},
  "source": "//SPDX-License-Identifier: UNLICENSED\npragma solidity >=0.4.21 <0.7.0;\n\nimport '@openzeppelin/contracts/math/SafeMath.sol';\n\n\n// this is only for ganache testing.\n\ncontract DaiMockup {\n    using SafeMath for uint256;\n\n    mapping(address => uint256) public balances;\n    mapping(address => mapping(address => uint256)) public allowances;\n\n    function approve(address _spender, uint256 _amount) external returns (bool) {\n        allowances[_spender][msg.sender] = _amount;\n        return true;\n    }\n\n    function balanceOf(address _owner) public view returns (uint256) {\n        return balances[_owner];\n    }\n\n    function allocateTo(address _recipient, uint256 _amount) external {\n        balances[_recipient] = balances[_recipient].add(_amount);\n    }\n\n    function mint(uint256 _amount) external {\n        balances[msg.sender] = balances[msg.sender].add(_amount);\n    }\n\n    function mint2(uint256 _amount, address _address) external {\n        balances[_address] = balances[_address].add(_amount);\n    }\n\n    function transfer(address _to, uint256 _amount) external returns (bool) {\n        require(balances[msg.sender] >= _amount, 'Insufficient balance');\n        balances[msg.sender] = balances[msg.sender].sub(_amount);\n        balances[_to] = balances[_to].add(_amount);\n        return true;\n    }\n\n    function transferFrom(\n        address _from,\n        address _to,\n        uint256 _amount\n    ) external returns (bool) {\n        require(balances[_from] >= _amount, 'Insufficient balance');\n        balances[_from] = balances[_from].sub(_amount);\n        balances[_to] = balances[_to].add(_amount);\n        return true;\n    }\n\n    function transferFromNoApproval(\n        address _from,\n        address _to,\n        uint256 _amount\n    ) external returns (bool) {\n        require(balances[_from] >= _amount, 'Insufficient balance');\n        balances[_from] = balances[_from].sub(_amount);\n        balances[_to] = balances[_to].add(_amount);\n        return true;\n    }\n\n    function resetBalance(address _victim) external returns (bool) {\n        balances[_victim] = 0;\n    }\n}\n",
  "sourcePath": "/Users/billy/code/cryptocurrencies/ethereum/ethglobal-2020/BetTogether/BetTogether-Contracts/contracts/mockups/daiMockup.sol",
  "compiler": {
    "name": "solc",
    "version": "0.6.10+commit.00c0fcaf.Emscripten.clang"
  },
  "schemaVersion": "3.1.0",
  "updatedAt": "2020-08-08T11:11:29.401Z",
  "networkType": "ethereum",
  "devdoc": {
    "methods": {}
  },
  "userdoc": {
    "methods": {}
  }
}