{
  "contractName": "magicBetMockup",
  "abi": [
    {
      "anonymous": false,
      "inputs": [
        {
          "indexed": true,
          "internalType": "address",
          "name": "previousOwner",
          "type": "address"
        },
        {
          "indexed": true,
          "internalType": "address",
          "name": "newOwner",
          "type": "address"
        }
      ],
      "name": "OwnershipTransferred",
      "type": "event"
    },
    {
      "anonymous": false,
      "inputs": [
        {
          "indexed": true,
          "internalType": "address",
          "name": "participant",
          "type": "address"
        }
      ],
      "name": "ParticipantEntered",
      "type": "event"
    },
    {
      "anonymous": false,
      "inputs": [
        {
          "indexed": true,
          "internalType": "address",
          "name": "participant",
          "type": "address"
        }
      ],
      "name": "ParticipantWithdrawn",
      "type": "event"
    },
    {
      "anonymous": false,
      "inputs": [
        {
          "indexed": false,
          "internalType": "address",
          "name": "account",
          "type": "address"
        }
      ],
      "name": "Paused",
      "type": "event"
    },
    {
      "anonymous": false,
      "inputs": [
        {
          "indexed": false,
          "internalType": "enum MBMarket.States",
          "name": "state",
          "type": "uint8"
        }
      ],
      "name": "StateChanged",
      "type": "event"
    },
    {
      "anonymous": false,
      "inputs": [
        {
          "indexed": false,
          "internalType": "address",
          "name": "account",
          "type": "address"
        }
      ],
      "name": "Unpaused",
      "type": "event"
    },
    {
      "anonymous": false,
      "inputs": [
        {
          "indexed": true,
          "internalType": "address",
          "name": "winner",
          "type": "address"
        }
      ],
      "name": "WinnerSelected",
      "type": "event"
    },
    {
      "stateMutability": "payable",
      "type": "fallback"
    },
    {
      "inputs": [],
      "name": "ORACLE_TIMEOUT_TIME",
      "outputs": [
        {
          "internalType": "uint256",
          "name": "",
          "type": "uint256"
        }
      ],
      "stateMutability": "view",
      "type": "function"
    },
    {
      "inputs": [],
      "name": "UNRESOLVED_OUTCOME_RESULT",
      "outputs": [
        {
          "internalType": "uint256",
          "name": "",
          "type": "uint256"
        }
      ],
      "stateMutability": "view",
      "type": "function"
    },
    {
      "inputs": [],
      "name": "aToken",
      "outputs": [
        {
          "internalType": "contract IaToken",
          "name": "",
          "type": "address"
        }
      ],
      "stateMutability": "view",
      "type": "function"
    },
    {
      "inputs": [],
      "name": "aaveLendingPool",
      "outputs": [
        {
          "internalType": "contract IAaveLendingPool",
          "name": "",
          "type": "address"
        }
      ],
      "stateMutability": "view",
      "type": "function"
    },
    {
      "inputs": [],
      "name": "betsWithdrawn",
      "outputs": [
        {
          "internalType": "uint256",
          "name": "",
          "type": "uint256"
        }
      ],
      "stateMutability": "view",
      "type": "function"
    },
    {
      "inputs": [
        {
          "internalType": "uint256",
          "name": "",
          "type": "uint256"
        }
      ],
      "name": "betsWithdrawnPerOutcome",
      "outputs": [
        {
          "internalType": "uint256",
          "name": "",
          "type": "uint256"
        }
      ],
      "stateMutability": "view",
      "type": "function"
    },
    {
      "inputs": [],
      "name": "dai",
      "outputs": [
        {
          "internalType": "contract Dai",
          "name": "",
          "type": "address"
        }
      ],
      "stateMutability": "view",
      "type": "function"
    },
    {
      "inputs": [],
      "name": "determineWinner",
      "outputs": [],
      "stateMutability": "nonpayable",
      "type": "function"
    },
    {
      "inputs": [],
      "name": "disableContract",
      "outputs": [
        {
          "internalType": "bool",
          "name": "",
          "type": "bool"
        }
      ],
      "stateMutability": "nonpayable",
      "type": "function"
    },
    {
      "inputs": [],
      "name": "enableContract",
      "outputs": [
        {
          "internalType": "bool",
          "name": "",
          "type": "bool"
        }
      ],
      "stateMutability": "nonpayable",
      "type": "function"
    },
    {
      "inputs": [],
      "name": "eventName",
      "outputs": [
        {
          "internalType": "string",
          "name": "",
          "type": "string"
        }
      ],
      "stateMutability": "view",
      "type": "function"
    },
    {
      "inputs": [
        {
          "internalType": "uint256",
          "name": "_outcome",
          "type": "uint256"
        }
      ],
      "name": "getBetAmountsArray",
      "outputs": [
        {
          "internalType": "uint256[]",
          "name": "",
          "type": "uint256[]"
        }
      ],
      "stateMutability": "view",
      "type": "function"
    },
    {
      "inputs": [],
      "name": "getCurrentState",
      "outputs": [
        {
          "internalType": "enum MBMarket.States",
          "name": "",
          "type": "uint8"
        }
      ],
      "stateMutability": "view",
      "type": "function"
    },
    {
      "inputs": [
        {
          "internalType": "uint256",
          "name": "daiAmount",
          "type": "uint256"
        }
      ],
      "name": "getEstimatedDAIforETH",
      "outputs": [
        {
          "internalType": "uint256[]",
          "name": "",
          "type": "uint256[]"
        }
      ],
      "stateMutability": "view",
      "type": "function"
    },
    {
      "inputs": [
        {
          "internalType": "uint256",
          "name": "ethAmount",
          "type": "uint256"
        }
      ],
      "name": "getEstimatedETHforDAI",
      "outputs": [
        {
          "internalType": "uint256[]",
          "name": "",
          "type": "uint256[]"
        }
      ],
      "stateMutability": "view",
      "type": "function"
    },
    {
      "inputs": [],
      "name": "getMarketSize",
      "outputs": [
        {
          "internalType": "uint256",
          "name": "",
          "type": "uint256"
        }
      ],
      "stateMutability": "view",
      "type": "function"
    },
    {
      "inputs": [],
      "name": "getMaxTotalInterest",
      "outputs": [
        {
          "internalType": "uint256",
          "name": "",
          "type": "uint256"
        }
      ],
      "stateMutability": "view",
      "type": "function"
    },
    {
      "inputs": [],
      "name": "getOutcomeNames",
      "outputs": [
        {
          "internalType": "string[]",
          "name": "",
          "type": "string[]"
        }
      ],
      "stateMutability": "view",
      "type": "function"
    },
    {
      "inputs": [],
      "name": "getParticipants",
      "outputs": [
        {
          "internalType": "address[]",
          "name": "",
          "type": "address[]"
        }
      ],
      "stateMutability": "view",
      "type": "function"
    },
    {
      "inputs": [
        {
          "internalType": "uint256",
          "name": "_outcome",
          "type": "uint256"
        }
      ],
      "name": "getParticipantsBet",
      "outputs": [
        {
          "internalType": "uint256",
          "name": "",
          "type": "uint256"
        }
      ],
      "stateMutability": "view",
      "type": "function"
    },
    {
      "inputs": [
        {
          "internalType": "uint256",
          "name": "_outcome",
          "type": "uint256"
        }
      ],
      "name": "getTimestampsArray",
      "outputs": [
        {
          "internalType": "uint256[]",
          "name": "",
          "type": "uint256[]"
        }
      ],
      "stateMutability": "view",
      "type": "function"
    },
    {
      "inputs": [],
      "name": "getTokenAddresses",
      "outputs": [
        {
          "internalType": "contract Token[]",
          "name": "",
          "type": "address[]"
        }
      ],
      "stateMutability": "view",
      "type": "function"
    },
    {
      "inputs": [],
      "name": "getTotalInterest",
      "outputs": [
        {
          "internalType": "uint256",
          "name": "",
          "type": "uint256"
        }
      ],
      "stateMutability": "view",
      "type": "function"
    },
    {
      "inputs": [],
      "name": "getUserBetsAllOutcomes",
      "outputs": [
        {
          "internalType": "uint256",
          "name": "",
          "type": "uint256"
        }
      ],
      "stateMutability": "view",
      "type": "function"
    },
    {
      "inputs": [
        {
          "internalType": "uint256",
          "name": "_outcome",
          "type": "uint256"
        }
      ],
      "name": "getWinningsGivenOutcome",
      "outputs": [
        {
          "internalType": "uint256",
          "name": "",
          "type": "uint256"
        }
      ],
      "stateMutability": "view",
      "type": "function"
    },
    {
      "inputs": [],
      "name": "getWinningsInvalid",
      "outputs": [
        {
          "internalType": "uint256",
          "name": "",
          "type": "uint256"
        }
      ],
      "stateMutability": "view",
      "type": "function"
    },
    {
      "inputs": [
        {
          "internalType": "contract Dai",
          "name": "_daiAddress",
          "type": "address"
        },
        {
          "internalType": "address[3]",
          "name": "_aaveAddresses",
          "type": "address[3]"
        },
        {
          "internalType": "contract IRealitio",
          "name": "_realitioAddress",
          "type": "address"
        },
        {
          "internalType": "contract IUniswapV2Router02",
          "name": "_uniswapRouter",
          "type": "address"
        },
        {
          "internalType": "string",
          "name": "_eventName",
          "type": "string"
        },
        {
          "internalType": "uint256[4]",
          "name": "_marketTimes",
          "type": "uint256[4]"
        },
        {
          "internalType": "address",
          "name": "_arbitrator",
          "type": "address"
        },
        {
          "internalType": "string",
          "name": "_realitioQuestion",
          "type": "string"
        },
        {
          "internalType": "string[]",
          "name": "_outcomeNamesArray",
          "type": "string[]"
        }
      ],
      "name": "initialize",
      "outputs": [],
      "stateMutability": "nonpayable",
      "type": "function"
    },
    {
      "inputs": [],
      "name": "marketLockingTime",
      "outputs": [
        {
          "internalType": "uint256",
          "name": "",
          "type": "uint256"
        }
      ],
      "stateMutability": "view",
      "type": "function"
    },
    {
      "inputs": [],
      "name": "marketOpeningTime",
      "outputs": [
        {
          "internalType": "uint256",
          "name": "",
          "type": "uint256"
        }
      ],
      "stateMutability": "view",
      "type": "function"
    },
    {
      "inputs": [],
      "name": "marketResolutionTime",
      "outputs": [
        {
          "internalType": "uint256",
          "name": "",
          "type": "uint256"
        }
      ],
      "stateMutability": "view",
      "type": "function"
    },
    {
      "inputs": [],
      "name": "maxInterest",
      "outputs": [
        {
          "internalType": "uint256",
          "name": "",
          "type": "uint256"
        }
      ],
      "stateMutability": "view",
      "type": "function"
    },
    {
      "inputs": [],
      "name": "numberOfOutcomes",
      "outputs": [
        {
          "internalType": "uint256",
          "name": "",
          "type": "uint256"
        }
      ],
      "stateMutability": "view",
      "type": "function"
    },
    {
      "inputs": [
        {
          "internalType": "uint256",
          "name": "",
          "type": "uint256"
        }
      ],
      "name": "outcomeNames",
      "outputs": [
        {
          "internalType": "string",
          "name": "",
          "type": "string"
        }
      ],
      "stateMutability": "view",
      "type": "function"
    },
    {
      "inputs": [],
      "name": "owner",
      "outputs": [
        {
          "internalType": "address",
          "name": "",
          "type": "address"
        }
      ],
      "stateMutability": "view",
      "type": "function"
    },
    {
      "inputs": [
        {
          "internalType": "uint256",
          "name": "",
          "type": "uint256"
        }
      ],
      "name": "participants",
      "outputs": [
        {
          "internalType": "address",
          "name": "",
          "type": "address"
        }
      ],
      "stateMutability": "view",
      "type": "function"
    },
    {
      "inputs": [],
      "name": "paused",
      "outputs": [
        {
          "internalType": "bool",
          "name": "",
          "type": "bool"
        }
      ],
      "stateMutability": "view",
      "type": "function"
    },
    {
      "inputs": [
        {
          "internalType": "uint256",
          "name": "_outcome",
          "type": "uint256"
        },
        {
          "internalType": "uint256",
          "name": "_dai",
          "type": "uint256"
        },
        {
          "internalType": "uint256",
          "name": "_uniswapDeadline",
          "type": "uint256"
        }
      ],
      "name": "placeBet",
      "outputs": [],
      "stateMutability": "payable",
      "type": "function"
    },
    {
      "inputs": [],
      "name": "questionId",
      "outputs": [
        {
          "internalType": "bytes32",
          "name": "",
          "type": "bytes32"
        }
      ],
      "stateMutability": "view",
      "type": "function"
    },
    {
      "inputs": [],
      "name": "realitio",
      "outputs": [
        {
          "internalType": "contract IRealitio",
          "name": "",
          "type": "address"
        }
      ],
      "stateMutability": "view",
      "type": "function"
    },
    {
      "inputs": [],
      "name": "renounceOwnership",
      "outputs": [],
      "stateMutability": "nonpayable",
      "type": "function"
    },
    {
      "inputs": [
        {
          "internalType": "uint256",
          "name": "",
          "type": "uint256"
        }
      ],
      "name": "tokenAddresses",
      "outputs": [
        {
          "internalType": "contract Token",
          "name": "",
          "type": "address"
        }
      ],
      "stateMutability": "view",
      "type": "function"
    },
    {
      "inputs": [],
      "name": "totalBets",
      "outputs": [
        {
          "internalType": "uint256",
          "name": "",
          "type": "uint256"
        }
      ],
      "stateMutability": "view",
      "type": "function"
    },
    {
      "inputs": [
        {
          "internalType": "uint256",
          "name": "",
          "type": "uint256"
        }
      ],
      "name": "totalBetsPerOutcome",
      "outputs": [
        {
          "internalType": "uint256",
          "name": "",
          "type": "uint256"
        }
      ],
      "stateMutability": "view",
      "type": "function"
    },
    {
      "inputs": [
        {
          "internalType": "address",
          "name": "newOwner",
          "type": "address"
        }
      ],
      "name": "transferOwnership",
      "outputs": [],
      "stateMutability": "nonpayable",
      "type": "function"
    },
    {
      "inputs": [],
      "name": "uniswapRouter",
      "outputs": [
        {
          "internalType": "contract IUniswapV2Router02",
          "name": "",
          "type": "address"
        }
      ],
      "stateMutability": "view",
      "type": "function"
    },
    {
      "inputs": [
        {
          "internalType": "uint256",
          "name": "",
          "type": "uint256"
        }
      ],
      "name": "usersPerOutcome",
      "outputs": [
        {
          "internalType": "uint256",
          "name": "",
          "type": "uint256"
        }
      ],
      "stateMutability": "view",
      "type": "function"
    },
    {
      "inputs": [],
      "name": "winningOutcome",
      "outputs": [
        {
          "internalType": "uint256",
          "name": "",
          "type": "uint256"
        }
      ],
      "stateMutability": "view",
      "type": "function"
    },
    {
      "inputs": [],
      "name": "withdraw",
      "outputs": [],
      "stateMutability": "nonpayable",
      "type": "function"
    },
    {
      "stateMutability": "payable",
      "type": "receive"
    },
    {
      "inputs": [],
      "name": "newFunction",
      "outputs": [
        {
          "internalType": "uint256",
          "name": "",
          "type": "uint256"
        }
      ],
      "stateMutability": "pure",
      "type": "function"
    }
  ],
  "bytecode": "0x60806040526002805460ff19169055600060075534801561001f57600080fd5b5060006100336001600160e01b0361009316565b600080546001600160a01b0319166001600160a01b0383169081178255604051929350917f8be0079c531659141344cd1fd0a4f28419497f9722a3daafe3b4186f6b6457e0908290a3506000805460ff60a01b1916905560018055610097565b3390565b61441080620000a76000396000f3fe608060405260043610620002f55760003560e01c8063826330281162000199578063c56f338c11620000f1578063e8f033c911620000a3578063f1f9c33e1162000079578063f1f9c33e146200086f578063f2fde38b1462000887578063f4b9fa7514620008ac578063fd27b51e14620008c457620002fd565b8063e8f033c9146200080b578063e9d337b81462000830578063ee8c24b8146200084857620002fd565b8063c56f338c1462000753578063cb7049551462000778578063e14dedfd146200079f578063e54f4fe314620007b7578063e5df8b8414620007cf578063e71c969714620007f457620002fd565b8063a0c1f15e116200014b578063a0c1f15e14620006a9578063ada8b83d14620006c1578063b06a5c5214620006e6578063bc8802a214620006fe578063befa1e2f1462000716578063c4d8dc58146200072e57620002fd565b8063826330281462000619578063894ba83314620006315780638da5cb5b14620006495780639b34ae0314620006615780639d7c7d391462000679578063a055ccc5146200069157620002fd565b806349200d77116200024d5780635c975abb11620001ff5780635c975abb146200057c5780636b9ae9ca1462000594578063715018a614620005ac578063735de9f714620005c45780638043c9c014620005dc578063807535cc14620005f457620002fd565b806349200d7714620004b45780634b8755ca14620004cc5780634ecc79f714620004e4578063519709c414620004fc578063561a5aca14620005215780635aa68ac0146200055557620002fd565b806327acae7411620002a757806327acae7414620003ce57806333b16d93146200040257806335c1d349146200041a578063367edd32146200044e578063378aa70114620004755780633ccfd60b146200049c57620002fd565b806305801f0b14620002ff5780630b60365c146200033c578063149b5d5814620003545780631b28d63e1462000379578063232ea3ad146200039157806326f0f25414620003a957620002fd565b36620002fd57005b005b3480156200030c57600080fd5b50620003246200031e36600462002a02565b620008dc565b60405162000333919062002c5d565b60405180910390f35b3480156200034957600080fd5b5062000324620008ee565b3480156200036157600080fd5b50620003246200037336600462002a02565b620009b5565b3480156200038657600080fd5b506200032462000a5f565b3480156200039e57600080fd5b506200032462000a65565b348015620003b657600080fd5b50620002fd620003c8366004620028fb565b62000a6b565b348015620003db57600080fd5b50620003f3620003ed36600462002a02565b62000c30565b60405162000333919062002c7b565b3480156200040f57600080fd5b50620002fd62000cdb565b3480156200042757600080fd5b506200043f6200043936600462002a02565b62000d40565b60405162000333919062002ada565b3480156200045b57600080fd5b506200046662000d68565b60405162000333919062002c52565b3480156200048257600080fd5b506200048d62000dda565b60405162000333919062002c66565b348015620004a957600080fd5b50620002fd62000e52565b348015620004c157600080fd5b506200032462000f3c565b348015620004d957600080fd5b506200032462000f42565b348015620004f157600080fd5b506200032462000f48565b3480156200050957600080fd5b50620003246200051b36600462002a02565b62000f4e565b3480156200052e57600080fd5b50620005466200054036600462002a02565b62000f60565b60405162000333919062002c18565b3480156200056257600080fd5b506200056d62000ffa565b60405162000333919062002b50565b3480156200058957600080fd5b50620004666200105e565b348015620005a157600080fd5b50620003246200106e565b348015620005b957600080fd5b50620002fd62001146565b348015620005d157600080fd5b506200043f620011ca565b348015620005e957600080fd5b50620003f3620011d9565b3480156200060157600080fd5b50620005466200061336600462002a02565b62001237565b3480156200062657600080fd5b50620003246200129b565b3480156200063e57600080fd5b5062000466620012a1565b3480156200065657600080fd5b506200043f62001314565b3480156200066e57600080fd5b506200032462001323565b3480156200068657600080fd5b506200032462001329565b3480156200069e57600080fd5b506200032462001351565b348015620006b657600080fd5b506200043f62001385565b348015620006ce57600080fd5b5062000546620006e036600462002a02565b62001394565b348015620006f357600080fd5b5062000324620013d6565b3480156200070b57600080fd5b506200043f620013dc565b3480156200072357600080fd5b5062000324620013eb565b3480156200073b57600080fd5b50620003246200074d36600462002a02565b620013f1565b3480156200076057600080fd5b50620003246200077236600462002a02565b620014da565b3480156200078557600080fd5b5062000790620014ec565b60405162000333919062002bb4565b348015620007ac57600080fd5b5062000324620015ca565b348015620007c457600080fd5b5062000324620015d0565b348015620007dc57600080fd5b506200043f620007ee36600462002a02565b620015d6565b620002fd6200080536600462002a1b565b620015e4565b3480156200081857600080fd5b50620005466200082a36600462002a02565b62001674565b3480156200083d57600080fd5b506200043f620016d6565b3480156200085557600080fd5b5062000860620016e5565b60405162000333919062002b65565b3480156200087c57600080fd5b506200032462001747565b3480156200089457600080fd5b50620002fd620008a6366004620027e6565b6200174e565b348015620008b957600080fd5b506200043f6200180c565b348015620008d157600080fd5b506200032462001820565b60106020526000908152604090205481565b6000806200090a6016546015546200182690919063ffffffff16565b6003546040516370a0823160e01b81529192506000916001600160a01b03909116906370a08231906200094290309060040162002ada565b60206040518083038186803b1580156200095b57600080fd5b505afa15801562000970573d6000803e3d6000fd5b505050506040513d601f19601f82011682018060405250810190620009969190620028e2565b90506000620009ac828463ffffffff6200182616565b93505050505b90565b600080600e8381548110620009c657fe5b6000918252602090912001546040516370a0823160e01b81526001600160a01b03909116915081906370a082319062000a0490339060040162002ada565b60206040518083038186803b15801562000a1d57600080fd5b505afa15801562000a32573d6000803e3d6000fd5b505050506040513d601f19601f8201168201806040525081019062000a589190620028e2565b9392505050565b61053990565b600a5481565b60025460ff161562000a9a5760405162461bcd60e51b815260040162000a919062002e0b565b60405180910390fd5b600019601881905560028054610100600160a81b0319166101006001600160a01b038d8116820292909217928390558b51600380546001600160a01b031990811692851692909217905560208d01516004805483169185169190911781556005805483168e8616179055600680549092168c8516179091556040808e0151905163095ea7b360e01b8152929094049092169363095ea7b39362000b409390920162002aee565b602060405180830381600087803b15801562000b5b57600080fd5b505af115801562000b70573d6000803e3d6000fd5b505050506040513d601f19601f8201168201806040525081019062000b969190620028c0565b50845162000bac90600c90602088019062002589565b5083516008556020840151600955604084015163ffffffff16600a558051600f5560005b600f5481101562000c035762000bfa82828151811062000bec57fe5b602002602001015162001873565b60010162000bd0565b5060024262000c208285878960036020020151600a548662001948565b600b555050505050505050505050565b600d818154811062000c3e57fe5b600091825260209182902001805460408051601f600260001961010060018716150201909416939093049283018590048502810185019091528181529350909183018282801562000cd35780601f1062000ca75761010080835404028352916020019162000cd3565b820191906000526020600020905b81548152906001019060200180831162000cb557829003601f168201915b505050505081565b600054600160a01b900460ff161562000d085760405162461bcd60e51b815260040162000a919062002da0565b62000d12620019e6565b62000d315760405162461bcd60e51b815260040162000a919062002d3b565b62000d3b62001a6f565b601855565b6017818154811062000d4e57fe5b6000918252602090912001546001600160a01b0316905081565b600062000d7462001b01565b6000546001600160a01b0390811691161462000da45760405162461bcd60e51b815260040162000a919062002e42565b600054600160a01b900460ff1662000dd05760405162461bcd60e51b815260040162000a919062002c90565b620009b262001b05565b600060085442101562000df057506000620009b2565b600854421015801562000e04575060095442105b1562000e1357506001620009b2565b60001960185414801562000e3d5750600a5462000e3a906224ea0063ffffffff62001b8216565b42105b1562000e4c57506002620009b2565b50600390565b60038062000e5f62000dda565b600381111562000e6b57fe5b1462000e8b5760405162461bcd60e51b815260040162000a919062002e77565b600054600160a01b900460ff161562000eb85760405162461bcd60e51b815260040162000a919062002da0565b6002600154141562000ede5760405162461bcd60e51b815260040162000a919062002eeb565b600260015560075462000ef95762000ef5620008ee565b6007555b6018546000908152601060205260409020541562000f215762000f1b62001baa565b62000f2b565b62000f2b62001bfd565b62000f3562001c09565b5060018055565b600f5481565b60095481565b60085481565b60126020526000908152604090205481565b60608062000f6d62001d7c565b60065460405163d06ca61f60e01b81529192506001600160a01b03169063d06ca61f9062000fa2908690859060040162002f22565b60006040518083038186803b15801562000fbb57600080fd5b505afa15801562000fd0573d6000803e3d6000fd5b505050506040513d6000823e601f3d908101601f1916820160405262000a58919081019062002824565b606060178054806020026020016040519081016040528092919081815260200182805480156200105457602002820191906000526020600020905b81546001600160a01b0316815260019091019060200180831162001035575b5050505050905090565b600054600160a01b900460ff1690565b600080805b600f5481101562001140576000600e82815481106200108e57fe5b60009182526020822001546040516370a0823160e01b81526001600160a01b03909116925082906370a0823190620010cb90339060040162002ada565b60206040518083038186803b158015620010e457600080fd5b505afa158015620010f9573d6000803e3d6000fd5b505050506040513d601f19601f820116820180604052508101906200111f9190620028e2565b905062001133848263ffffffff62001b8216565b9350505060010162001073565b50905090565b6200115062001b01565b6000546001600160a01b03908116911614620011805760405162461bcd60e51b815260040162000a919062002e42565b600080546040516001600160a01b03909116907f8be0079c531659141344cd1fd0a4f28419497f9722a3daafe3b4186f6b6457e0908390a3600080546001600160a01b0319169055565b6006546001600160a01b031681565b600c805460408051602060026001851615610100026000190190941693909304601f8101849004840282018401909252818152929183018282801562000cd35780601f1062000ca75761010080835404028352916020019162000cd3565b6000818152601360209081526040918290208054835181840281018401909452808452606093928301828280156200128f57602002820191906000526020600020905b8154815260200190600101908083116200127a575b50505050509050919050565b60075481565b6000620012ad62001b01565b6000546001600160a01b03908116911614620012dd5760405162461bcd60e51b815260040162000a919062002e42565b600054600160a01b900460ff16156200130a5760405162461bcd60e51b815260040162000a919062002da0565b620009b262001e7e565b6000546001600160a01b031690565b60185481565b600754600090156200133f5750600754620009b2565b62001349620008ee565b9050620009b2565b600062001380620013706016546015546200182690919063ffffffff16565b6200137a6200106e565b62001ee9565b905090565b6003546001600160a01b031681565b606080620013a162001d7c565b6006546040516307c0329d60e21b81529192506001600160a01b031690631f00ca749062000fa2908690859060040162002f22565b600b5481565b6005546001600160a01b031681565b60155481565b600080600e83815481106200140257fe5b60009182526020822001546040516370a0823160e01b81526001600160a01b03909116925082906370a08231906200143f90339060040162002ada565b60206040518083038186803b1580156200145857600080fd5b505afa1580156200146d573d6000803e3d6000fd5b505050506040513d601f19601f82011682018060405250810190620014939190620028e2565b60008581526011602090815260408083205460109092528220549293509091620014c39163ffffffff6200182616565b9050620014d1818362001ee9565b95945050505050565b60116020526000908152604090205481565b6060600d805480602002602001604051908101604052809291908181526020016000905b82821015620015c15760008481526020908190208301805460408051601f6002600019610100600187161502019094169390930492830185900485028101850190915281815292830182828015620015ac5780601f106200158057610100808354040283529160200191620015ac565b820191906000526020600020905b8154815290600101906020018083116200158e57829003601f168201915b50505050508152602001906001019062001510565b50505050905090565b60165481565b60001981565b600e818154811062000d4e57fe5b600180620015f162000dda565b6003811115620015fd57fe5b146200161d5760405162461bcd60e51b815260040162000a919062002e77565b600054600160a01b900460ff16156200164a5760405162461bcd60e51b815260040162000a919062002da0565b62001656848462001f25565b6200166333848462002155565b6200166e8362002222565b50505050565b6000818152601460209081526040918290208054835181840281018401909452808452606093928301828280156200128f57602002820191906000526020600020908154815260200190600101908083116200127a5750505050509050919050565b6004546001600160a01b031681565b6060600e80548060200260200160405190810160405280929190818152602001828054801562001054576020028201919060005260206000209081546001600160a01b0316815260019091019060200180831162001035575050505050905090565b6224ea0081565b6200175862001b01565b6000546001600160a01b03908116911614620017885760405162461bcd60e51b815260040162000a919062002e42565b6001600160a01b038116620017b15760405162461bcd60e51b815260040162000a919062002cbe565b600080546040516001600160a01b03808516939216917f8be0079c531659141344cd1fd0a4f28419497f9722a3daafe3b4186f6b6457e091a3600080546001600160a01b0319166001600160a01b0392909216919091179055565b60025461010090046001600160a01b031681565b60175490565b60006200186a83836040518060400160405280601e81526020017f536166654d6174683a207375627472616374696f6e206f766572666c6f77000081525062002297565b90505b92915050565b600d80546001810182556000919091528151620018b8917fd7b6990105719101dabeb77144f2a3385c8033acd3af97e9423a695e81ad1eb50190602084019062002589565b50600081604051620018ca906200260e565b620018d6919062002c7b565b604051809103906000f080158015620018f3573d6000803e3d6000fd5b50600e80546001810182556000919091527fbb7b4a454dc3493923482f07822329ed19e8244eff582cc204f8554c3620c3fd0180546001600160a01b0319166001600160a01b03929092169190911790555050565b60055460405163762c38fd60e01b81526000916001600160a01b03169063762c38fd9062001985908a908a908a908a908a908a9060040162002f7c565b602060405180830381600087803b158015620019a057600080fd5b505af1158015620019b5573d6000803e3d6000fd5b505050506040513d601f19601f82011682018060405250810190620019db9190620028e2565b979650505050505050565b600554600b54604051633fc6a14f60e11b81526000926001600160a01b031691637f8d429e9162001a1b919060040162002c5d565b60206040518083038186803b15801562001a3457600080fd5b505afa15801562001a49573d6000803e3d6000fd5b505050506040513d601f19601f82011682018060405250810190620013809190620028c0565b600554600b5460405163684e62bf60e11b815260009283926001600160a01b039091169163d09cc57e9162001aa79160040162002c5d565b60206040518083038186803b15801562001ac057600080fd5b505afa15801562001ad5573d6000803e3d6000fd5b505050506040513d601f19601f8201168201806040525081019062001afb9190620028e2565b91505090565b3390565b600054600160a01b900460ff1662001b315760405162461bcd60e51b815260040162000a919062002c90565b6000805460ff60a01b191690557f5db9ee0a495bf2e6ff9c91a7834c1ba4fdd244a5e8aa4e537bd38aeae4b073aa62001b6962001b01565b60405162001b78919062002ada565b60405180910390a1565b6000828201838110156200186a5760405162461bcd60e51b815260040162000a919062002d04565b600062001bb9601854620013f1565b9050600062001bd962001bcb6200106e565b839063ffffffff62001b8216565b9050801562001bf95762001bed81620022c6565b62001bf93382620022f8565b5050565b600062001bb962001351565b60005b600f5481101562001d79576000600e828154811062001c2757fe5b60009182526020822001546040516370a0823160e01b81526001600160a01b03909116925082906370a082319062001c6490339060040162002ada565b60206040518083038186803b15801562001c7d57600080fd5b505afa15801562001c92573d6000803e3d6000fd5b505050506040513d601f19601f8201168201806040525081019062001cb89190620028e2565b9050801562001d6e5760008381526011602052604090205462001ce2908263ffffffff62001b8216565b60008481526011602052604090205560165462001d06908263ffffffff62001b8216565b601655604051632770a7eb60e21b81526001600160a01b03831690639dc29fac9062001d39903390859060040162002aee565b600060405180830381600087803b15801562001d5457600080fd5b505af115801562001d69573d6000803e3d6000fd5b505050505b505060010162001c0c565b50565b6040805160028082526060808301845292839291906020830190803683375050600654604080516315ab88c960e31b815290519394506001600160a01b039091169263ad5c464892506004808301926020929190829003018186803b15801562001de557600080fd5b505afa15801562001dfa573d6000803e3d6000fd5b505050506040513d601f19601f8201168201806040525081019062001e20919062002805565b8160008151811062001e2e57fe5b6001600160a01b0392831660209182029290920101526002548251610100909104909116908290600190811062001e6157fe5b6001600160a01b0390921660209283029190910190910152905090565b600054600160a01b900460ff161562001eab5760405162461bcd60e51b815260040162000a919062002da0565b6000805460ff60a01b1916600160a01b1790557f62e78cea01bee320cd4e420270b5ea74000d11b0c9f74754ebdbfc544b05a25862001b6962001b01565b60008083156200186a57600062001eff620008ee565b9050620014d18562001f18838763ffffffff620023a516565b9063ffffffff620023e516565b6000600e838154811062001f3557fe5b60009182526020808320909101548583526013825260408084208054600181810183559186528486200187905587855260148452818520805491820181558552929093204292019190915590516370a0823160e01b81526001600160a01b03909116915081906370a082319062001fb190339060040162002ada565b60206040518083038186803b15801562001fca57600080fd5b505afa15801562001fdf573d6000803e3d6000fd5b505050506040513d601f19601f82011682018060405250810190620020059190620028e2565b62002078576017805460018181019092557fc624b66cc0138b8fabc209247f72d758e1cf3343756d543badbf24212bed8c150180546001600160a01b03191633179055600084815260126020526040902054620020689163ffffffff62001b8216565b6000848152601260205260409020555b6040516340c10f1960e01b81526001600160a01b038216906340c10f1990620020a8903390869060040162002aee565b600060405180830381600087803b158015620020c357600080fd5b505af1158015620020d8573d6000803e3d6000fd5b5050601554620020f2925090508363ffffffff62001b8216565b60155560008381526010602052604090205462002116908363ffffffff62001b8216565b60008481526010602052604080822092909255905133917fef3b3ae531a4f494c95e537ec1fe385cfe5c1146cb4c1d850b24bad38595804991a2505050565b34156200216e5762002168828262002429565b6200221d565b6002546040516323b872dd60e01b81526101009091046001600160a01b0316906323b872dd90620021a89086903090879060040162002b07565b602060405180830381600087803b158015620021c357600080fd5b505af1158015620021d8573d6000803e3d6000fd5b505050506040513d601f19601f82011682018060405250810190620021fe9190620028c0565b6200221d5760405162461bcd60e51b815260040162000a919062002ebd565b505050565b60048054600254604051636968703360e11b81526001600160a01b039283169363d2d0e0669362002260936101009004169186916000910162002b2b565b600060405180830381600087803b1580156200227b57600080fd5b505af115801562002290573d6000803e3d6000fd5b5050505050565b60008184841115620022be5760405162461bcd60e51b815260040162000a91919062002c7b565b505050900390565b60035460405163db006a7560e01b81526001600160a01b039091169063db006a75906200226090849060040162002c5d565b60025460405163a9059cbb60e01b81526101009091046001600160a01b03169063a9059cbb9062002330908590859060040162002aee565b602060405180830381600087803b1580156200234b57600080fd5b505af115801562002360573d6000803e3d6000fd5b505050506040513d601f19601f82011682018060405250810190620023869190620028c0565b62001bf95760405162461bcd60e51b815260040162000a919062002ebd565b600082620023b6575060006200186d565b82820282848281620023c457fe5b04146200186a5760405162461bcd60e51b815260040162000a919062002dca565b60006200186a83836040518060400160405280601a81526020017f536166654d6174683a206469766973696f6e206279207a65726f0000000000008152506200254e565b60606200243562001d7c565b60065460405163fb3bdb4160e01b81529192506001600160a01b03169063fb3bdb419034906200247090879086903090899060040162002f45565b6000604051808303818588803b1580156200248a57600080fd5b505af11580156200249f573d6000803e3d6000fd5b50505050506040513d6000823e601f3d908101601f19168201604052620024ca919081019062002824565b506000336001600160a01b031647604051620024e690620009b2565b60006040518083038185875af1925050503d806000811462002525576040519150601f19603f3d011682016040523d82523d6000602084013e6200252a565b606091505b50509050806200166e5760405162461bcd60e51b815260040162000a919062002d72565b60008183620025725760405162461bcd60e51b815260040162000a91919062002c7b565b5060008385816200257f57fe5b0495945050505050565b828054600181600116156101000203166002900490600052602060002090601f016020900481019282601f10620025cc57805160ff1916838001178555620025fc565b82800160010185558215620025fc579182015b82811115620025fc578251825591602001919060010190620025df565b506200260a9291506200261c565b5090565b6113b2806200302983390190565b620009b291905b808211156200260a576000815560010162002623565b80356200186d8162003012565b600082601f83011262002657578081fd5b62002663606062002fc9565b90508082846060850111156200267857600080fd5b60005b6003811015620026a8578135620026928162003012565b835260209283019291909101906001016200267b565b50505092915050565b600082601f830112620026c2578081fd5b8135620026d9620026d38262002ff1565b62002fc9565b818152915060208083019084810160005b84811015620027175762002704888484358a010162002778565b84529282019290820190600101620026ea565b505050505092915050565b600082601f83011262002733578081fd5b6200273f608062002fc9565b90508082846080850111156200275457600080fd5b60005b6004811015620026a857813583526020928301929091019060010162002757565b600082601f83011262002789578081fd5b813567ffffffffffffffff811115620027a0578182fd5b620027b5601f8201601f191660200162002fc9565b9150808252836020828501011115620027cd57600080fd5b8060208401602084013760009082016020015292915050565b600060208284031215620027f8578081fd5b81356200186a8162003012565b60006020828403121562002817578081fd5b81516200186a8162003012565b6000602080838503121562002837578182fd5b825167ffffffffffffffff8111156200284e578283fd5b80840185601f82011262002860578384fd5b8051915062002873620026d38362002ff1565b828152838101908285018585028401860189101562002890578687fd5b8693505b84841015620028b457805183526001939093019291850191850162002894565b50979650505050505050565b600060208284031215620028d2578081fd5b815180151581146200186a578182fd5b600060208284031215620028f4578081fd5b5051919050565b60008060008060008060008060006101c08a8c0312156200291a578485fd5b620029268b8b62002639565b9850620029378b60208c0162002646565b9750620029488b60808c0162002639565b9650620029598b60a08c0162002639565b955060c08a013567ffffffffffffffff8082111562002976578687fd5b620029848d838e0162002778565b9650620029958d60e08e0162002722565b9550620029a78d6101608e0162002639565b94506101808c0135915080821115620029be578384fd5b620029cc8d838e0162002778565b93506101a08c0135915080821115620029e3578283fd5b50620029f28c828d01620026b1565b9150509295985092959850929598565b60006020828403121562002a14578081fd5b5035919050565b60008060006060848603121562002a30578283fd5b505081359360208301359350604090920135919050565b6000815180845260208085019450808401835b8381101562002a815781516001600160a01b03168752958201959082019060010162002a5a565b509495945050505050565b60008151808452815b8181101562002ab35760208185018101518683018201520162002a95565b8181111562002ac55782602083870101525b50601f01601f19169290920160200192915050565b6001600160a01b0391909116815260200190565b6001600160a01b03929092168252602082015260400190565b6001600160a01b039384168152919092166020820152604081019190915260600190565b6001600160a01b03939093168352602083019190915261ffff16604082015260600190565b6000602082526200186a602083018462002a47565b6020808252825182820181905260009190848201906040850190845b8181101562002ba85783516001600160a01b03168352928401929184019160010162002b81565b50909695505050505050565b6000602080830181845280855180835260408601915060408482028701019250838701855b8281101562002c0b57603f1988860301845262002bf885835162002a8c565b9450928501929085019060010162002bd9565b5092979650505050505050565b6020808252825182820181905260009190848201906040850190845b8181101562002ba85783518352928401929184019160010162002c34565b901515815260200190565b90815260200190565b602081016004831062002c7557fe5b91905290565b6000602082526200186a602083018462002a8c565b60208082526014908201527314185d5cd8589b194e881b9bdd081c185d5cd95960621b604082015260600190565b60208082526026908201527f4f776e61626c653a206e6577206f776e657220697320746865207a65726f206160408201526564647265737360d01b606082015260800190565b6020808252601b908201527f536166654d6174683a206164646974696f6e206f766572666c6f770000000000604082015260600190565b60208082526018908201527f4f7261636c6520686173206e6f742066696e616c697365640000000000000000604082015260600190565b6020808252601490820152731499599d5b99081bd9881155120819985a5b195960621b604082015260600190565b60208082526010908201526f14185d5cd8589b194e881c185d5cd95960821b604082015260600190565b60208082526021908201527f536166654d6174683a206d756c7469706c69636174696f6e206f766572666c6f6040820152607760f81b606082015260800190565b6020808252601d908201527f436f6e747261637420616c726561647920696e697469616c697a65642e000000604082015260600190565b6020808252818101527f4f776e61626c653a2063616c6c6572206973206e6f7420746865206f776e6572604082015260600190565b60208082526026908201527f66756e6374696f6e2063616e6e6f742062652063616c6c656420617420746869604082015265732074696d6560d01b606082015260800190565b60208082526014908201527310d85cda081d1c985b9cd9995c8819985a5b195960621b604082015260600190565b6020808252601f908201527f5265656e7472616e637947756172643a207265656e7472616e742063616c6c00604082015260600190565b60008382526040602083015262002f3d604083018462002a47565b949350505050565b60008582526080602083015262002f60608083018662002a47565b6001600160a01b03949094166040830152506060015292915050565b600087825260c0602083015262002f9760c083018862002a8c565b6001600160a01b039690961660408301525063ffffffff938416606082015291909216608082015260a0015292915050565b60405181810167ffffffffffffffff8111828210171562002fe957600080fd5b604052919050565b600067ffffffffffffffff82111562003008578081fd5b5060209081020190565b6001600160a01b038116811462001d7957600080fdfe60806040523480156200001157600080fd5b50604051620013b2380380620013b2833981810160405260208110156200003757600080fd5b81019080805160405193929190846401000000008211156200005857600080fd5b9083019060208201858111156200006e57600080fd5b82516401000000008111828201881017156200008957600080fd5b82525081516020918201929091019080838360005b83811015620000b85781810151838201526020016200009e565b50505050905090810190601f168015620000e65780820380516001836020036101000a031916815260200191505b5060408181019052600281526126a160f11b60208083019190915285518695509193506200011c925060039190850190620001b9565b50805162000132906004906020840190620001b9565b50506005805460ff19166012179055506000620001576001600160e01b03620001b416565b60058054610100600160a81b0319166101006001600160a01b03841690810291909117909155604051919250906000907f8be0079c531659141344cd1fd0a4f28419497f9722a3daafe3b4186f6b6457e0908290a350506200025b565b335b90565b828054600181600116156101000203166002900490600052602060002090601f016020900481019282601f10620001fc57805160ff19168380011785556200022c565b828001600101855582156200022c579182015b828111156200022c5782518255916020019190600101906200020f565b506200023a9291506200023e565b5090565b620001b691905b808211156200023a576000815560010162000245565b611147806200026b6000396000f3fe6080604052600436106100f75760003560e01c8063715018a61161008a578063a457c2d711610059578063a457c2d7146103a5578063a9059cbb146103de578063dd62ed3e14610417578063f2fde38b14610452576100fe565b8063715018a6146103115780638da5cb5b1461032657806395d89b41146103575780639dc29fac1461036c576100fe565b8063313ce567116100c6578063313ce56714610241578063395093511461026c57806340c10f19146102a557806370a08231146102de576100fe565b806306fdde0314610100578063095ea7b31461018a57806318160ddd146101d757806323b872dd146101fe576100fe565b366100fe57005b005b34801561010c57600080fd5b50610115610485565b6040805160208082528351818301528351919283929083019185019080838360005b8381101561014f578181015183820152602001610137565b50505050905090810190601f16801561017c5780820380516001836020036101000a031916815260200191505b509250505060405180910390f35b34801561019657600080fd5b506101c3600480360360408110156101ad57600080fd5b506001600160a01b03813516906020013561051b565b604080519115158252519081900360200190f35b3480156101e357600080fd5b506101ec610538565b60408051918252519081900360200190f35b34801561020a57600080fd5b506101c36004803603606081101561022157600080fd5b506001600160a01b0381358116916020810135909116906040013561053e565b34801561024d57600080fd5b506102566105cb565b6040805160ff9092168252519081900360200190f35b34801561027857600080fd5b506101c36004803603604081101561028f57600080fd5b506001600160a01b0381351690602001356105d4565b3480156102b157600080fd5b506100fe600480360360408110156102c857600080fd5b506001600160a01b038135169060200135610628565b3480156102ea57600080fd5b506101ec6004803603602081101561030157600080fd5b50356001600160a01b0316610693565b34801561031d57600080fd5b506100fe6106ae565b34801561033257600080fd5b5061033b61075b565b604080516001600160a01b039092168252519081900360200190f35b34801561036357600080fd5b5061011561076f565b34801561037857600080fd5b506100fe6004803603604081101561038f57600080fd5b506001600160a01b0381351690602001356107d0565b3480156103b157600080fd5b506101c3600480360360408110156103c857600080fd5b506001600160a01b038135169060200135610837565b3480156103ea57600080fd5b506101c36004803603604081101561040157600080fd5b506001600160a01b0381351690602001356108a5565b34801561042357600080fd5b506101ec6004803603604081101561043a57600080fd5b506001600160a01b03813581169160200135166108b9565b34801561045e57600080fd5b506100fe6004803603602081101561047557600080fd5b50356001600160a01b03166108e4565b60038054604080516020601f60026000196101006001881615020190951694909404938401819004810282018101909252828152606093909290918301828280156105115780601f106104e657610100808354040283529160200191610511565b820191906000526020600020905b8154815290600101906020018083116104f457829003601f168201915b5050505050905090565b600061052f6105286109ed565b84846109f1565b50600192915050565b60025490565b600061054b848484610add565b6105c1846105576109ed565b6105bc8560405180606001604052806028815260200161103b602891396001600160a01b038a166000908152600160205260408120906105956109ed565b6001600160a01b03168152602081019190915260400160002054919063ffffffff610c4416565b6109f1565b5060019392505050565b60055460ff1690565b600061052f6105e16109ed565b846105bc85600160006105f26109ed565b6001600160a01b03908116825260208083019390935260409182016000908120918c16815292529020549063ffffffff610cdb16565b6106306109ed565b60055461010090046001600160a01b03908116911614610685576040805162461bcd60e51b81526020600482018190526024820152600080516020611063833981519152604482015290519081900360640190fd5b61068f8282610d3c565b5050565b6001600160a01b031660009081526020819052604090205490565b6106b66109ed565b60055461010090046001600160a01b0390811691161461070b576040805162461bcd60e51b81526020600482018190526024820152600080516020611063833981519152604482015290519081900360640190fd5b60055460405160009161010090046001600160a01b0316907f8be0079c531659141344cd1fd0a4f28419497f9722a3daafe3b4186f6b6457e0908390a360058054610100600160a81b0319169055565b60055461010090046001600160a01b031690565b60048054604080516020601f60026000196101006001881615020190951694909404938401819004810282018101909252828152606093909290918301828280156105115780601f106104e657610100808354040283529160200191610511565b6107d86109ed565b60055461010090046001600160a01b0390811691161461082d576040805162461bcd60e51b81526020600482018190526024820152600080516020611063833981519152604482015290519081900360640190fd5b61068f8282610e38565b600061052f6108446109ed565b846105bc856040518060600160405280602581526020016110ed602591396001600061086e6109ed565b6001600160a01b03908116825260208083019390935260409182016000908120918d1681529252902054919063ffffffff610c4416565b600061052f6108b26109ed565b8484610add565b6001600160a01b03918216600090815260016020908152604080832093909416825291909152205490565b6108ec6109ed565b60055461010090046001600160a01b03908116911614610941576040805162461bcd60e51b81526020600482018190526024820152600080516020611063833981519152604482015290519081900360640190fd5b6001600160a01b0381166109865760405162461bcd60e51b8152600401808060200182810382526026815260200180610fcd6026913960400191505060405180910390fd5b6005546040516001600160a01b0380841692610100900416907f8be0079c531659141344cd1fd0a4f28419497f9722a3daafe3b4186f6b6457e090600090a3600580546001600160a01b0390921661010002610100600160a81b0319909216919091179055565b3390565b6001600160a01b038316610a365760405162461bcd60e51b81526004018080602001828103825260248152602001806110c96024913960400191505060405180910390fd5b6001600160a01b038216610a7b5760405162461bcd60e51b8152600401808060200182810382526022815260200180610ff36022913960400191505060405180910390fd5b6001600160a01b03808416600081815260016020908152604080832094871680845294825291829020859055815185815291517f8c5be1e5ebec7d5bd14f71427d1e84f3dd0314c0f7b2291e5b200ac8c7c3b9259281900390910190a3505050565b6001600160a01b038316610b225760405162461bcd60e51b81526004018080602001828103825260258152602001806110a46025913960400191505060405180910390fd5b6001600160a01b038216610b675760405162461bcd60e51b8152600401808060200182810382526023815260200180610f886023913960400191505060405180910390fd5b610b72838383610f40565b610bb581604051806060016040528060268152602001611015602691396001600160a01b038616600090815260208190526040902054919063ffffffff610c4416565b6001600160a01b038085166000908152602081905260408082209390935590841681522054610bea908263ffffffff610cdb16565b6001600160a01b038084166000818152602081815260409182902094909455805185815290519193928716927fddf252ad1be2c89b69c2b068fc378daa952ba7f163c4a11628f55a4df523b3ef92918290030190a3505050565b60008184841115610cd35760405162461bcd60e51b81526004018080602001828103825283818151815260200191508051906020019080838360005b83811015610c98578181015183820152602001610c80565b50505050905090810190601f168015610cc55780820380516001836020036101000a031916815260200191505b509250505060405180910390fd5b505050900390565b600082820183811015610d35576040805162461bcd60e51b815260206004820152601b60248201527f536166654d6174683a206164646974696f6e206f766572666c6f770000000000604482015290519081900360640190fd5b9392505050565b6001600160a01b038216610d97576040805162461bcd60e51b815260206004820152601f60248201527f45524332303a206d696e7420746f20746865207a65726f206164647265737300604482015290519081900360640190fd5b610da360008383610f40565b600254610db6908263ffffffff610cdb16565b6002556001600160a01b038216600090815260208190526040902054610de2908263ffffffff610cdb16565b6001600160a01b0383166000818152602081815260408083209490945583518581529351929391927fddf252ad1be2c89b69c2b068fc378daa952ba7f163c4a11628f55a4df523b3ef9281900390910190a35050565b6001600160a01b038216610e7d5760405162461bcd60e51b81526004018080602001828103825260218152602001806110836021913960400191505060405180910390fd5b610e8982600083610f40565b610ecc81604051806060016040528060228152602001610fab602291396001600160a01b038516600090815260208190526040902054919063ffffffff610c4416565b6001600160a01b038316600090815260208190526040902055600254610ef8908263ffffffff610f4516565b6002556040805182815290516000916001600160a01b038516917fddf252ad1be2c89b69c2b068fc378daa952ba7f163c4a11628f55a4df523b3ef9181900360200190a35050565b505050565b6000610d3583836040518060400160405280601e81526020017f536166654d6174683a207375627472616374696f6e206f766572666c6f770000815250610c4456fe45524332303a207472616e7366657220746f20746865207a65726f206164647265737345524332303a206275726e20616d6f756e7420657863656564732062616c616e63654f776e61626c653a206e6577206f776e657220697320746865207a65726f206164647265737345524332303a20617070726f766520746f20746865207a65726f206164647265737345524332303a207472616e7366657220616d6f756e7420657863656564732062616c616e636545524332303a207472616e7366657220616d6f756e74206578636565647320616c6c6f77616e63654f776e61626c653a2063616c6c6572206973206e6f7420746865206f776e657245524332303a206275726e2066726f6d20746865207a65726f206164647265737345524332303a207472616e736665722066726f6d20746865207a65726f206164647265737345524332303a20617070726f76652066726f6d20746865207a65726f206164647265737345524332303a2064656372656173656420616c6c6f77616e63652062656c6f77207a65726fa26469706673582212207f9c3b0197cb2a21c2d5dafed42d3fd8c385e7f2830b352e74526bc7d3bc958f64736f6c634300060a0033a2646970667358221220d8c5a3777af9873ba93ffb95875c535bd65ca26777f6239ab7a39f5dc4fff91d64736f6c634300060a0033",
  "immutableReferences": {},
  "source": "//SPDX-License-Identifier: UNLICENSED\npragma solidity >=0.4.21 <0.7.0;\npragma experimental ABIEncoderV2;\n\n// this is only for ganache testing\n\nimport '../MBMarket.sol';\n\ncontract magicBetMockup is MBMarket {\n    function newFunction() external pure returns (uint256) {\n        return 1337;\n    }\n}\n",
  "sourcePath": "/Users/brenfife/Desktop/MagicBet-Contracts/contracts/mockups/magicBetMockup.sol",
  "compiler": {
    "name": "solc",
    "version": "0.6.10+commit.00c0fcaf.Emscripten.clang"
  },
  "schemaVersion": "3.2.2",
  "updatedAt": "2020-07-25T19:34:28.261Z",
  "devdoc": {
    "methods": {
      "getWinningsInvalid()": {
        "details": "If invalid outcome, simply pay out interest in proportion to bets across all tokenAddressesi.e. as if all the outcomes 'won'"
      },
      "owner()": {
        "details": "Returns the address of the current owner."
      },
      "paused()": {
        "details": "Returns true if the contract is paused, and false otherwise."
      },
      "renounceOwnership()": {
        "details": "Leaves the contract without owner. It will not be possible to call `onlyOwner` functions anymore. Can only be called by the current owner. NOTE: Renouncing ownership will leave the contract without an owner, thereby removing any functionality that is only available to the owner."
      },
      "transferOwnership(address)": {
        "details": "Transfers ownership of the contract to a new account (`newOwner`). Can only be called by the current owner."
      }
    }
  },
  "userdoc": {
    "methods": {
      "UNRESOLVED_OUTCOME_RESULT()": {
        "notice": "///////////////////////////////// ///// VARIABLES ///////////////// /////////////////////////////////"
      },
      "dai()": {
        "notice": "///// Externals ////////"
      },
      "disableContract()": {
        "notice": "///////////////////////////////// // BOILERPLATE FUNCTIONS //////// /////////////////////////////////"
      },
      "getCurrentState()": {
        "notice": "///////////////////////////////// /////// VIEW FUNCTIONS ////////// /////////////////////////////////"
      },
      "initialize(address,address[3],address,address,string,uint256[4],address,string,string[])": {
        "notice": "///////////////////////////////// ///// CONSTRUCTOR /////////////// /////////////////////////////////"
      },
      "maxInterest()": {
        "notice": "///// Market Details ////////"
      },
      "placeBet(uint256,uint256,uint256)": {
        "notice": "///////////////////////////////// ///// EXTERNAL FUNCTIONS //////// /////////////////////////////////"
      },
      "totalBetsPerOutcome(uint256)": {
        "notice": "///// Betting variables ////////"
      },
      "winningOutcome()": {
        "notice": "///// Market resolution variables ////////"
      }
    }
  }
}