{
  "contractName": "magicBetMockup",
  "abi": [
    {
      "anonymous": false,
      "inputs": [
        {
          "indexed": true,
          "internalType": "address",
          "name": "previousOwner",
          "type": "address"
        },
        {
          "indexed": true,
          "internalType": "address",
          "name": "newOwner",
          "type": "address"
        }
      ],
      "name": "OwnershipTransferred",
      "type": "event"
    },
    {
      "anonymous": false,
      "inputs": [
        {
          "indexed": true,
          "internalType": "address",
          "name": "participant",
          "type": "address"
        }
      ],
      "name": "ParticipantEntered",
      "type": "event"
    },
    {
      "anonymous": false,
      "inputs": [
        {
          "indexed": true,
          "internalType": "address",
          "name": "participant",
          "type": "address"
        }
      ],
      "name": "ParticipantWithdrawn",
      "type": "event"
    },
    {
      "anonymous": false,
      "inputs": [
        {
          "indexed": false,
          "internalType": "address",
          "name": "account",
          "type": "address"
        }
      ],
      "name": "Paused",
      "type": "event"
    },
    {
      "anonymous": false,
      "inputs": [
        {
          "indexed": false,
          "internalType": "enum MBMarket.States",
          "name": "state",
          "type": "uint8"
        }
      ],
      "name": "StateChanged",
      "type": "event"
    },
    {
      "anonymous": false,
      "inputs": [
        {
          "indexed": false,
          "internalType": "address",
          "name": "account",
          "type": "address"
        }
      ],
      "name": "Unpaused",
      "type": "event"
    },
    {
      "anonymous": false,
      "inputs": [
        {
          "indexed": true,
          "internalType": "address",
          "name": "winner",
          "type": "address"
        }
      ],
      "name": "WinnerSelected",
      "type": "event"
    },
    {
      "stateMutability": "payable",
      "type": "fallback"
    },
    {
      "inputs": [],
      "name": "ORACLE_TIMEOUT_TIME",
      "outputs": [
        {
          "internalType": "uint256",
          "name": "",
          "type": "uint256"
        }
      ],
      "stateMutability": "view",
      "type": "function"
    },
    {
      "inputs": [],
      "name": "UNRESOLVED_OUTCOME_RESULT",
      "outputs": [
        {
          "internalType": "uint256",
          "name": "",
          "type": "uint256"
        }
      ],
      "stateMutability": "view",
      "type": "function"
    },
    {
      "inputs": [],
      "name": "aToken",
      "outputs": [
        {
          "internalType": "contract IaToken",
          "name": "",
          "type": "address"
        }
      ],
      "stateMutability": "view",
      "type": "function"
    },
    {
      "inputs": [],
      "name": "aaveLendingPool",
      "outputs": [
        {
          "internalType": "contract IAaveLendingPool",
          "name": "",
          "type": "address"
        }
      ],
      "stateMutability": "view",
      "type": "function"
    },
    {
      "inputs": [],
      "name": "betsWithdrawn",
      "outputs": [
        {
          "internalType": "uint256",
          "name": "",
          "type": "uint256"
        }
      ],
      "stateMutability": "view",
      "type": "function"
    },
    {
      "inputs": [
        {
          "internalType": "uint256",
          "name": "",
          "type": "uint256"
        }
      ],
      "name": "betsWithdrawnPerOutcome",
      "outputs": [
        {
          "internalType": "uint256",
          "name": "",
          "type": "uint256"
        }
      ],
      "stateMutability": "view",
      "type": "function"
    },
    {
      "inputs": [],
      "name": "dai",
      "outputs": [
        {
          "internalType": "contract Dai",
          "name": "",
          "type": "address"
        }
      ],
      "stateMutability": "view",
      "type": "function"
    },
    {
      "inputs": [],
      "name": "determineWinner",
      "outputs": [],
      "stateMutability": "nonpayable",
      "type": "function"
    },
    {
      "inputs": [],
      "name": "disableContract",
      "outputs": [
        {
          "internalType": "bool",
          "name": "",
          "type": "bool"
        }
      ],
      "stateMutability": "nonpayable",
      "type": "function"
    },
    {
      "inputs": [],
      "name": "enableContract",
      "outputs": [
        {
          "internalType": "bool",
          "name": "",
          "type": "bool"
        }
      ],
      "stateMutability": "nonpayable",
      "type": "function"
    },
    {
      "inputs": [],
      "name": "eventName",
      "outputs": [
        {
          "internalType": "string",
          "name": "",
          "type": "string"
        }
      ],
      "stateMutability": "view",
      "type": "function"
    },
    {
      "inputs": [
        {
          "internalType": "uint256",
          "name": "_outcome",
          "type": "uint256"
        }
      ],
      "name": "getBetAmountsArray",
      "outputs": [
        {
          "internalType": "uint256[]",
          "name": "",
          "type": "uint256[]"
        }
      ],
      "stateMutability": "view",
      "type": "function"
    },
    {
      "inputs": [],
      "name": "getCurrentState",
      "outputs": [
        {
          "internalType": "enum MBMarket.States",
          "name": "",
          "type": "uint8"
        }
      ],
      "stateMutability": "view",
      "type": "function"
    },
    {
      "inputs": [
        {
          "internalType": "uint256",
          "name": "daiAmount",
          "type": "uint256"
        }
      ],
      "name": "getEstimatedETHforDAI",
      "outputs": [
        {
          "internalType": "uint256[]",
          "name": "",
          "type": "uint256[]"
        }
      ],
      "stateMutability": "view",
      "type": "function"
    },
    {
      "inputs": [],
      "name": "getMarketSize",
      "outputs": [
        {
          "internalType": "uint256",
          "name": "",
          "type": "uint256"
        }
      ],
      "stateMutability": "view",
      "type": "function"
    },
    {
      "inputs": [],
      "name": "getMaxTotalInterest",
      "outputs": [
        {
          "internalType": "uint256",
          "name": "",
          "type": "uint256"
        }
      ],
      "stateMutability": "view",
      "type": "function"
    },
    {
      "inputs": [],
      "name": "getOutcomeNames",
      "outputs": [
        {
          "internalType": "string[]",
          "name": "",
          "type": "string[]"
        }
      ],
      "stateMutability": "view",
      "type": "function"
    },
    {
      "inputs": [],
      "name": "getParticipants",
      "outputs": [
        {
          "internalType": "address[]",
          "name": "",
          "type": "address[]"
        }
      ],
      "stateMutability": "view",
      "type": "function"
    },
    {
      "inputs": [
        {
          "internalType": "uint256",
          "name": "_outcome",
          "type": "uint256"
        }
      ],
      "name": "getTimestampsArray",
      "outputs": [
        {
          "internalType": "uint256[]",
          "name": "",
          "type": "uint256[]"
        }
      ],
      "stateMutability": "view",
      "type": "function"
    },
    {
      "inputs": [],
      "name": "getTokenAddresses",
      "outputs": [
        {
          "internalType": "contract Token[]",
          "name": "",
          "type": "address[]"
        }
      ],
      "stateMutability": "view",
      "type": "function"
    },
    {
      "inputs": [],
      "name": "getTotalInterest",
      "outputs": [
        {
          "internalType": "uint256",
          "name": "",
          "type": "uint256"
        }
      ],
      "stateMutability": "view",
      "type": "function"
    },
    {
      "inputs": [
        {
          "internalType": "contract Dai",
          "name": "_daiAddress",
          "type": "address"
        },
        {
          "internalType": "address[3]",
          "name": "_aaveAddresses",
          "type": "address[3]"
        },
        {
          "internalType": "contract IRealitio",
          "name": "_realitioAddress",
          "type": "address"
        },
        {
          "internalType": "contract IUniswapV2Router02",
          "name": "_uniswapRouter",
          "type": "address"
        },
        {
          "internalType": "string",
          "name": "_eventName",
          "type": "string"
        },
        {
          "internalType": "uint256[4]",
          "name": "_marketTimes",
          "type": "uint256[4]"
        },
        {
          "internalType": "address",
          "name": "_arbitrator",
          "type": "address"
        },
        {
          "internalType": "string",
          "name": "_realitioQuestion",
          "type": "string"
        },
        {
          "internalType": "string[]",
          "name": "_outcomeNamesArray",
          "type": "string[]"
        }
      ],
      "name": "initialize",
      "outputs": [],
      "stateMutability": "nonpayable",
      "type": "function"
    },
    {
      "inputs": [],
      "name": "marketLockingTime",
      "outputs": [
        {
          "internalType": "uint256",
          "name": "",
          "type": "uint256"
        }
      ],
      "stateMutability": "view",
      "type": "function"
    },
    {
      "inputs": [],
      "name": "marketOpeningTime",
      "outputs": [
        {
          "internalType": "uint256",
          "name": "",
          "type": "uint256"
        }
      ],
      "stateMutability": "view",
      "type": "function"
    },
    {
      "inputs": [],
      "name": "marketResolutionTime",
      "outputs": [
        {
          "internalType": "uint256",
          "name": "",
          "type": "uint256"
        }
      ],
      "stateMutability": "view",
      "type": "function"
    },
    {
      "inputs": [],
      "name": "maxInterest",
      "outputs": [
        {
          "internalType": "uint256",
          "name": "",
          "type": "uint256"
        }
      ],
      "stateMutability": "view",
      "type": "function"
    },
    {
      "inputs": [],
      "name": "numberOfOutcomes",
      "outputs": [
        {
          "internalType": "uint256",
          "name": "",
          "type": "uint256"
        }
      ],
      "stateMutability": "view",
      "type": "function"
    },
    {
      "inputs": [
        {
          "internalType": "uint256",
          "name": "",
          "type": "uint256"
        }
      ],
      "name": "outcomeNames",
      "outputs": [
        {
          "internalType": "string",
          "name": "",
          "type": "string"
        }
      ],
      "stateMutability": "view",
      "type": "function"
    },
    {
      "inputs": [],
      "name": "owner",
      "outputs": [
        {
          "internalType": "address",
          "name": "",
          "type": "address"
        }
      ],
      "stateMutability": "view",
      "type": "function"
    },
    {
      "inputs": [
        {
          "internalType": "uint256",
          "name": "",
          "type": "uint256"
        }
      ],
      "name": "participants",
      "outputs": [
        {
          "internalType": "address",
          "name": "",
          "type": "address"
        }
      ],
      "stateMutability": "view",
      "type": "function"
    },
    {
      "inputs": [],
      "name": "paused",
      "outputs": [
        {
          "internalType": "bool",
          "name": "",
          "type": "bool"
        }
      ],
      "stateMutability": "view",
      "type": "function"
    },
    {
      "inputs": [
        {
          "internalType": "uint256",
          "name": "_outcome",
          "type": "uint256"
        },
        {
          "internalType": "uint256",
          "name": "_dai",
          "type": "uint256"
        },
        {
          "internalType": "uint256",
          "name": "_uniswapDeadline",
          "type": "uint256"
        }
      ],
      "name": "placeBet",
      "outputs": [],
      "stateMutability": "payable",
      "type": "function"
    },
    {
      "inputs": [],
      "name": "questionId",
      "outputs": [
        {
          "internalType": "bytes32",
          "name": "",
          "type": "bytes32"
        }
      ],
      "stateMutability": "view",
      "type": "function"
    },
    {
      "inputs": [],
      "name": "realitio",
      "outputs": [
        {
          "internalType": "contract IRealitio",
          "name": "",
          "type": "address"
        }
      ],
      "stateMutability": "view",
      "type": "function"
    },
    {
      "inputs": [],
      "name": "renounceOwnership",
      "outputs": [],
      "stateMutability": "nonpayable",
      "type": "function"
    },
    {
      "inputs": [
        {
          "internalType": "uint256",
          "name": "",
          "type": "uint256"
        }
      ],
      "name": "tokenAddresses",
      "outputs": [
        {
          "internalType": "contract Token",
          "name": "",
          "type": "address"
        }
      ],
      "stateMutability": "view",
      "type": "function"
    },
    {
      "inputs": [],
      "name": "totalBets",
      "outputs": [
        {
          "internalType": "uint256",
          "name": "",
          "type": "uint256"
        }
      ],
      "stateMutability": "view",
      "type": "function"
    },
    {
      "inputs": [
        {
          "internalType": "uint256",
          "name": "",
          "type": "uint256"
        }
      ],
      "name": "totalBetsPerOutcome",
      "outputs": [
        {
          "internalType": "uint256",
          "name": "",
          "type": "uint256"
        }
      ],
      "stateMutability": "view",
      "type": "function"
    },
    {
      "inputs": [
        {
          "internalType": "address",
          "name": "newOwner",
          "type": "address"
        }
      ],
      "name": "transferOwnership",
      "outputs": [],
      "stateMutability": "nonpayable",
      "type": "function"
    },
    {
      "inputs": [],
      "name": "uniswapRouter",
      "outputs": [
        {
          "internalType": "contract IUniswapV2Router02",
          "name": "",
          "type": "address"
        }
      ],
      "stateMutability": "view",
      "type": "function"
    },
    {
      "inputs": [
        {
          "internalType": "uint256",
          "name": "",
          "type": "uint256"
        }
      ],
      "name": "usersPerOutcome",
      "outputs": [
        {
          "internalType": "uint256",
          "name": "",
          "type": "uint256"
        }
      ],
      "stateMutability": "view",
      "type": "function"
    },
    {
      "inputs": [],
      "name": "winningOutcome",
      "outputs": [
        {
          "internalType": "uint256",
          "name": "",
          "type": "uint256"
        }
      ],
      "stateMutability": "view",
      "type": "function"
    },
    {
      "inputs": [],
      "name": "withdraw",
      "outputs": [],
      "stateMutability": "nonpayable",
      "type": "function"
    },
    {
      "stateMutability": "payable",
      "type": "receive"
    },
    {
      "inputs": [],
      "name": "newFunction",
      "outputs": [
        {
          "internalType": "uint256",
          "name": "",
          "type": "uint256"
        }
      ],
      "stateMutability": "pure",
      "type": "function"
    }
  ],
  "bytecode": "0x60806040526002805460ff19169055600060075534801561001f57600080fd5b5060006100336001600160e01b0361009316565b600080546001600160a01b0319166001600160a01b0383169081178255604051929350917f8be0079c531659141344cd1fd0a4f28419497f9722a3daafe3b4186f6b6457e0908290a3506000805460ff60a01b1916905560018055610097565b3390565b61422c80620000a76000396000f3fe608060405260043610620002a75760003560e01c8063894ba8331162000163578063e14dedfd11620000c7578063e9d337b81162000085578063e9d337b81462000743578063ee8c24b8146200075b578063f1f9c33e1462000782578063f2fde38b146200079a578063f4b9fa7514620007bf578063fd27b51e14620007d757620002af565b8063e14dedfd14620006b2578063e54f4fe314620006ca578063e5df8b8414620006e2578063e71c96971462000707578063e8f033c9146200071e57620002af565b8063ada8b83d1162000121578063ada8b83d14620005f9578063b06a5c52146200061e578063bc8802a21462000636578063befa1e2f146200064e578063c56f338c1462000666578063cb704955146200068b57620002af565b8063894ba83314620005815780638da5cb5b14620005995780639b34ae0314620005b15780639d7c7d3914620005c9578063a0c1f15e14620005e157620002af565b806349200d77116200020b5780635c975abb11620001c95780635c975abb14620004d5578063715018a614620004ed578063735de9f714620005055780638043c9c0146200051d578063807535cc146200053557806382633028146200056957620002af565b806349200d7714620004415780634b8755ca14620004595780634ecc79f71462000471578063519709c414620004895780635aa68ac014620004ae57620002af565b806327acae74116200026557806327acae74146200035b57806333b16d93146200038f57806335c1d34914620003a7578063367edd3214620003db578063378aa70114620004025780633ccfd60b146200042957620002af565b806305801f0b14620002b15780630b60365c14620002ee5780631b28d63e1462000306578063232ea3ad146200031e57806326f0f254146200033657620002af565b36620002af57005b005b348015620002be57600080fd5b50620002d6620002d03660046200281e565b620007ef565b604051620002e5919062002a79565b60405180910390f35b348015620002fb57600080fd5b50620002d662000801565b3480156200031357600080fd5b50620002d6620008c8565b3480156200032b57600080fd5b50620002d6620008ce565b3480156200034357600080fd5b50620002af6200035536600462002717565b620008d4565b3480156200036857600080fd5b50620003806200037a3660046200281e565b62000a99565b604051620002e5919062002a97565b3480156200039c57600080fd5b50620002af62000b44565b348015620003b457600080fd5b50620003cc620003c63660046200281e565b62000ba9565b604051620002e59190620028f6565b348015620003e857600080fd5b50620003f362000bd1565b604051620002e5919062002a6e565b3480156200040f57600080fd5b506200041a62000c43565b604051620002e5919062002a82565b3480156200043657600080fd5b50620002af62000cbb565b3480156200044e57600080fd5b50620002d662000da5565b3480156200046657600080fd5b50620002d662000dab565b3480156200047e57600080fd5b50620002d662000db1565b3480156200049657600080fd5b50620002d6620004a83660046200281e565b62000db7565b348015620004bb57600080fd5b50620004c662000dc9565b604051620002e591906200296c565b348015620004e257600080fd5b50620003f362000e2d565b348015620004fa57600080fd5b50620002af62000e3d565b3480156200051257600080fd5b50620003cc62000ec1565b3480156200052a57600080fd5b506200038062000ed0565b3480156200054257600080fd5b506200055a620005543660046200281e565b62000f2e565b604051620002e5919062002a34565b3480156200057657600080fd5b50620002d662000f92565b3480156200058e57600080fd5b50620003f362000f98565b348015620005a657600080fd5b50620003cc6200100b565b348015620005be57600080fd5b50620002d66200101a565b348015620005d657600080fd5b50620002d662001020565b348015620005ee57600080fd5b50620003cc62001048565b3480156200060657600080fd5b506200055a620006183660046200281e565b62001057565b3480156200062b57600080fd5b50620002d6620010f8565b3480156200064357600080fd5b50620003cc620010fe565b3480156200065b57600080fd5b50620002d66200110d565b3480156200067357600080fd5b50620002d6620006853660046200281e565b62001113565b3480156200069857600080fd5b50620006a362001125565b604051620002e59190620029d0565b348015620006bf57600080fd5b50620002d662001203565b348015620006d757600080fd5b50620002d662001209565b348015620006ef57600080fd5b50620003cc620007013660046200281e565b6200120f565b620002af6200071836600462002837565b6200121d565b3480156200072b57600080fd5b506200055a6200073d3660046200281e565b620012ad565b3480156200075057600080fd5b50620003cc6200130f565b3480156200076857600080fd5b50620007736200131e565b604051620002e5919062002981565b3480156200078f57600080fd5b50620002d662001380565b348015620007a757600080fd5b50620002af620007b936600462002602565b62001387565b348015620007cc57600080fd5b50620003cc62001445565b348015620007e457600080fd5b50620002d662001459565b60106020526000908152604090205481565b6000806200081d6016546015546200145f90919063ffffffff16565b6003546040516370a0823160e01b81529192506000916001600160a01b03909116906370a082319062000855903090600401620028f6565b60206040518083038186803b1580156200086e57600080fd5b505afa15801562000883573d6000803e3d6000fd5b505050506040513d601f19601f82011682018060405250810190620008a99190620026fe565b90506000620008bf828463ffffffff6200145f16565b93505050505b90565b61053990565b600a5481565b60025460ff1615620009035760405162461bcd60e51b8152600401620008fa9062002c27565b60405180910390fd5b600019601881905560028054610100600160a81b0319166101006001600160a01b038d8116820292909217928390558b51600380546001600160a01b031990811692851692909217905560208d01516004805483169185169190911781556005805483168e8616179055600680549092168c8516179091556040808e0151905163095ea7b360e01b8152929094049092169363095ea7b393620009a9939092016200290a565b602060405180830381600087803b158015620009c457600080fd5b505af1158015620009d9573d6000803e3d6000fd5b505050506040513d601f19601f82011682018060405250810190620009ff9190620026dc565b50845162000a1590600c906020880190620023a5565b5083516008556020840151600955604084015163ffffffff16600a558051600f5560005b600f5481101562000a6c5762000a6382828151811062000a5557fe5b6020026020010151620014ac565b60010162000a39565b5060024262000a898285878960036020020151600a548662001581565b600b555050505050505050505050565b600d818154811062000aa757fe5b600091825260209182902001805460408051601f600260001961010060018716150201909416939093049283018590048502810185019091528181529350909183018282801562000b3c5780601f1062000b105761010080835404028352916020019162000b3c565b820191906000526020600020905b81548152906001019060200180831162000b1e57829003601f168201915b505050505081565b600054600160a01b900460ff161562000b715760405162461bcd60e51b8152600401620008fa9062002bbc565b62000b7b6200161f565b62000b9a5760405162461bcd60e51b8152600401620008fa9062002b57565b62000ba4620016ad565b601855565b6017818154811062000bb757fe5b6000918252602090912001546001600160a01b0316905081565b600062000bdd6200173f565b6000546001600160a01b0390811691161462000c0d5760405162461bcd60e51b8152600401620008fa9062002c5e565b600054600160a01b900460ff1662000c395760405162461bcd60e51b8152600401620008fa9062002aac565b620008c562001743565b600060085442101562000c5957506000620008c5565b600854421015801562000c6d575060095442105b1562000c7c57506001620008c5565b60001960185414801562000ca65750600a5462000ca3906224ea0063ffffffff620017c016565b42105b1562000cb557506002620008c5565b50600390565b60038062000cc862000c43565b600381111562000cd457fe5b1462000cf45760405162461bcd60e51b8152600401620008fa9062002c93565b600054600160a01b900460ff161562000d215760405162461bcd60e51b8152600401620008fa9062002bbc565b6002600154141562000d475760405162461bcd60e51b8152600401620008fa9062002d07565b600260015560075462000d625762000d5e62000801565b6007555b6018546000908152601060205260409020541562000d8a5762000d84620017e8565b62000d94565b62000d946200183b565b62000d9e6200186a565b5060018055565b600f5481565b60095481565b60085481565b60126020526000908152604090205481565b6060601780548060200260200160405190810160405280929190818152602001828054801562000e2357602002820191906000526020600020905b81546001600160a01b0316815260019091019060200180831162000e04575b5050505050905090565b600054600160a01b900460ff1690565b62000e476200173f565b6000546001600160a01b0390811691161462000e775760405162461bcd60e51b8152600401620008fa9062002c5e565b600080546040516001600160a01b03909116907f8be0079c531659141344cd1fd0a4f28419497f9722a3daafe3b4186f6b6457e0908390a3600080546001600160a01b0319169055565b6006546001600160a01b031681565b600c805460408051602060026001851615610100026000190190941693909304601f8101849004840282018401909252818152929183018282801562000b3c5780601f1062000b105761010080835404028352916020019162000b3c565b60008181526013602090815260409182902080548351818402810184019094528084526060939283018282801562000f8657602002820191906000526020600020905b81548152602001906001019080831162000f71575b50505050509050919050565b60075481565b600062000fa46200173f565b6000546001600160a01b0390811691161462000fd45760405162461bcd60e51b8152600401620008fa9062002c5e565b600054600160a01b900460ff1615620010015760405162461bcd60e51b8152600401620008fa9062002bbc565b620008c5620019dd565b6000546001600160a01b031690565b60185481565b60075460009015620010365750600754620008c5565b6200104062000801565b9050620008c5565b6003546001600160a01b031681565b6060806200106462001a48565b6006546040516307c0329d60e21b81529192506001600160a01b031690631f00ca749062001099908690859060040162002d3e565b60006040518083038186803b158015620010b257600080fd5b505afa158015620010c7573d6000803e3d6000fd5b505050506040513d6000823e601f3d908101601f19168201604052620010f1919081019062002640565b9392505050565b600b5481565b6005546001600160a01b031681565b60155481565b60116020526000908152604090205481565b6060600d805480602002602001604051908101604052809291908181526020016000905b82821015620011fa5760008481526020908190208301805460408051601f6002600019610100600187161502019094169390930492830185900485028101850190915281815292830182828015620011e55780601f10620011b957610100808354040283529160200191620011e5565b820191906000526020600020905b815481529060010190602001808311620011c757829003601f168201915b50505050508152602001906001019062001149565b50505050905090565b60165481565b60001981565b600e818154811062000bb757fe5b6001806200122a62000c43565b60038111156200123657fe5b14620012565760405162461bcd60e51b8152600401620008fa9062002c93565b600054600160a01b900460ff1615620012835760405162461bcd60e51b8152600401620008fa9062002bbc565b6200128f848462001b4a565b6200129c33848462001d7a565b620012a78362001e47565b50505050565b60008181526014602090815260409182902080548351818402810184019094528084526060939283018282801562000f86576020028201919060005260206000209081548152602001906001019080831162000f715750505050509050919050565b6004546001600160a01b031681565b6060600e80548060200260200160405190810160405280929190818152602001828054801562000e23576020028201919060005260206000209081546001600160a01b0316815260019091019060200180831162000e04575050505050905090565b6224ea0081565b620013916200173f565b6000546001600160a01b03908116911614620013c15760405162461bcd60e51b8152600401620008fa9062002c5e565b6001600160a01b038116620013ea5760405162461bcd60e51b8152600401620008fa9062002ada565b600080546040516001600160a01b03808516939216917f8be0079c531659141344cd1fd0a4f28419497f9722a3daafe3b4186f6b6457e091a3600080546001600160a01b0319166001600160a01b0392909216919091179055565b60025461010090046001600160a01b031681565b60175490565b6000620014a383836040518060400160405280601e81526020017f536166654d6174683a207375627472616374696f6e206f766572666c6f77000081525062001ebc565b90505b92915050565b600d80546001810182556000919091528151620014f1917fd7b6990105719101dabeb77144f2a3385c8033acd3af97e9423a695e81ad1eb501906020840190620023a5565b5060008160405162001503906200242a565b6200150f919062002a97565b604051809103906000f0801580156200152c573d6000803e3d6000fd5b50600e80546001810182556000919091527fbb7b4a454dc3493923482f07822329ed19e8244eff582cc204f8554c3620c3fd0180546001600160a01b0319166001600160a01b03929092169190911790555050565b60055460405163762c38fd60e01b81526000916001600160a01b03169063762c38fd90620015be908a908a908a908a908a908a9060040162002d98565b602060405180830381600087803b158015620015d957600080fd5b505af1158015620015ee573d6000803e3d6000fd5b505050506040513d601f19601f82011682018060405250810190620016149190620026fe565b979650505050505050565b600554600b54604051633fc6a14f60e11b81526000926001600160a01b031691637f8d429e9162001654919060040162002a79565b60206040518083038186803b1580156200166d57600080fd5b505afa15801562001682573d6000803e3d6000fd5b505050506040513d601f19601f82011682018060405250810190620016a89190620026dc565b905090565b600554600b5460405163684e62bf60e11b815260009283926001600160a01b039091169163d09cc57e91620016e59160040162002a79565b60206040518083038186803b158015620016fe57600080fd5b505afa15801562001713573d6000803e3d6000fd5b505050506040513d601f19601f82011682018060405250810190620017399190620026fe565b91505090565b3390565b600054600160a01b900460ff166200176f5760405162461bcd60e51b8152600401620008fa9062002aac565b6000805460ff60a01b191690557f5db9ee0a495bf2e6ff9c91a7834c1ba4fdd244a5e8aa4e537bd38aeae4b073aa620017a76200173f565b604051620017b69190620028f6565b60405180910390a1565b600082820183811015620014a35760405162461bcd60e51b8152600401620008fa9062002b20565b6000620017f760185462001eeb565b90506000620018176200180962001fd4565b839063ffffffff620017c016565b9050801562001837576200182b81620020ac565b620018373382620020de565b5050565b6000620017f76200185a6016546015546200145f90919063ffffffff16565b6200186462001fd4565b6200218b565b60005b600f54811015620019da576000600e82815481106200188857fe5b60009182526020822001546040516370a0823160e01b81526001600160a01b03909116925082906370a0823190620018c5903390600401620028f6565b60206040518083038186803b158015620018de57600080fd5b505afa158015620018f3573d6000803e3d6000fd5b505050506040513d601f19601f82011682018060405250810190620019199190620026fe565b90508015620019cf5760008381526011602052604090205462001943908263ffffffff620017c016565b60008481526011602052604090205560165462001967908263ffffffff620017c016565b601655604051632770a7eb60e21b81526001600160a01b03831690639dc29fac906200199a90339085906004016200290a565b600060405180830381600087803b158015620019b557600080fd5b505af1158015620019ca573d6000803e3d6000fd5b505050505b50506001016200186d565b50565b600054600160a01b900460ff161562001a0a5760405162461bcd60e51b8152600401620008fa9062002bbc565b6000805460ff60a01b1916600160a01b1790557f62e78cea01bee320cd4e420270b5ea74000d11b0c9f74754ebdbfc544b05a258620017a76200173f565b6040805160028082526060808301845292839291906020830190803683375050600654604080516315ab88c960e31b815290519394506001600160a01b039091169263ad5c464892506004808301926020929190829003018186803b15801562001ab157600080fd5b505afa15801562001ac6573d6000803e3d6000fd5b505050506040513d601f19601f8201168201806040525081019062001aec919062002621565b8160008151811062001afa57fe5b6001600160a01b0392831660209182029290920101526002548251610100909104909116908290600190811062001b2d57fe5b6001600160a01b0390921660209283029190910190910152905090565b6000600e838154811062001b5a57fe5b60009182526020808320909101548583526013825260408084208054600181810183559186528486200187905587855260148452818520805491820181558552929093204292019190915590516370a0823160e01b81526001600160a01b03909116915081906370a082319062001bd6903390600401620028f6565b60206040518083038186803b15801562001bef57600080fd5b505afa15801562001c04573d6000803e3d6000fd5b505050506040513d601f19601f8201168201806040525081019062001c2a9190620026fe565b62001c9d576017805460018181019092557fc624b66cc0138b8fabc209247f72d758e1cf3343756d543badbf24212bed8c150180546001600160a01b0319163317905560008481526012602052604090205462001c8d9163ffffffff620017c016565b6000848152601260205260409020555b6040516340c10f1960e01b81526001600160a01b038216906340c10f199062001ccd90339086906004016200290a565b600060405180830381600087803b15801562001ce857600080fd5b505af115801562001cfd573d6000803e3d6000fd5b505060155462001d17925090508363ffffffff620017c016565b60155560008381526010602052604090205462001d3b908363ffffffff620017c016565b60008481526010602052604080822092909255905133917fef3b3ae531a4f494c95e537ec1fe385cfe5c1146cb4c1d850b24bad38595804991a2505050565b341562001d935762001d8d8282620021c7565b62001e42565b6002546040516323b872dd60e01b81526101009091046001600160a01b0316906323b872dd9062001dcd9086903090879060040162002923565b602060405180830381600087803b15801562001de857600080fd5b505af115801562001dfd573d6000803e3d6000fd5b505050506040513d601f19601f8201168201806040525081019062001e239190620026dc565b62001e425760405162461bcd60e51b8152600401620008fa9062002cd9565b505050565b60048054600254604051636968703360e11b81526001600160a01b039283169363d2d0e0669362001e85936101009004169186916000910162002947565b600060405180830381600087803b15801562001ea057600080fd5b505af115801562001eb5573d6000803e3d6000fd5b5050505050565b6000818484111562001ee35760405162461bcd60e51b8152600401620008fa919062002a97565b505050900390565b600080600e838154811062001efc57fe5b60009182526020822001546040516370a0823160e01b81526001600160a01b03909116925082906370a082319062001f39903390600401620028f6565b60206040518083038186803b15801562001f5257600080fd5b505afa15801562001f67573d6000803e3d6000fd5b505050506040513d601f19601f8201168201806040525081019062001f8d9190620026fe565b6000858152601160209081526040808320546010909252822054929350909162001fbd9163ffffffff6200145f16565b905062001fcb81836200218b565b95945050505050565b600080805b600f54811015620020a6576000600e828154811062001ff457fe5b60009182526020822001546040516370a0823160e01b81526001600160a01b03909116925082906370a082319062002031903390600401620028f6565b60206040518083038186803b1580156200204a57600080fd5b505afa1580156200205f573d6000803e3d6000fd5b505050506040513d601f19601f82011682018060405250810190620020859190620026fe565b905062002099848263ffffffff620017c016565b9350505060010162001fd9565b50905090565b60035460405163db006a7560e01b81526001600160a01b039091169063db006a759062001e8590849060040162002a79565b60025460405163a9059cbb60e01b81526101009091046001600160a01b03169063a9059cbb906200211690859085906004016200290a565b602060405180830381600087803b1580156200213157600080fd5b505af115801562002146573d6000803e3d6000fd5b505050506040513d601f19601f820116820180604052508101906200216c9190620026dc565b620018375760405162461bcd60e51b8152600401620008fa9062002cd9565b6000808315620014a3576000620021a162000801565b905062001fcb85620021ba838763ffffffff620022ec16565b9063ffffffff6200232c16565b6060620021d362001a48565b60065460405163fb3bdb4160e01b81529192506001600160a01b03169063fb3bdb419034906200220e90879086903090899060040162002d61565b6000604051808303818588803b1580156200222857600080fd5b505af11580156200223d573d6000803e3d6000fd5b50505050506040513d6000823e601f3d908101601f1916820160405262002268919081019062002640565b506000336001600160a01b0316476040516200228490620008c5565b60006040518083038185875af1925050503d8060008114620022c3576040519150601f19603f3d011682016040523d82523d6000602084013e620022c8565b606091505b5050905080620012a75760405162461bcd60e51b8152600401620008fa9062002b8e565b600082620022fd57506000620014a6565b828202828482816200230b57fe5b0414620014a35760405162461bcd60e51b8152600401620008fa9062002be6565b6000620014a383836040518060400160405280601a81526020017f536166654d6174683a206469766973696f6e206279207a65726f000000000000815250600081836200238e5760405162461bcd60e51b8152600401620008fa919062002a97565b5060008385816200239b57fe5b0495945050505050565b828054600181600116156101000203166002900490600052602060002090601f016020900481019282601f10620023e857805160ff191683800117855562002418565b8280016001018555821562002418579182015b8281111562002418578251825591602001919060010190620023fb565b506200242692915062002438565b5090565b6113b28062002e4583390190565b620008c591905b808211156200242657600081556001016200243f565b8035620014a68162002e2e565b600082601f83011262002473578081fd5b6200247f606062002de5565b90508082846060850111156200249457600080fd5b60005b6003811015620024c4578135620024ae8162002e2e565b8352602092830192919091019060010162002497565b50505092915050565b600082601f830112620024de578081fd5b8135620024f5620024ef8262002e0d565b62002de5565b818152915060208083019084810160005b84811015620025335762002520888484358a010162002594565b8452928201929082019060010162002506565b505050505092915050565b600082601f8301126200254f578081fd5b6200255b608062002de5565b90508082846080850111156200257057600080fd5b60005b6004811015620024c457813583526020928301929091019060010162002573565b600082601f830112620025a5578081fd5b813567ffffffffffffffff811115620025bc578182fd5b620025d1601f8201601f191660200162002de5565b9150808252836020828501011115620025e957600080fd5b8060208401602084013760009082016020015292915050565b60006020828403121562002614578081fd5b8135620014a38162002e2e565b60006020828403121562002633578081fd5b8151620014a38162002e2e565b6000602080838503121562002653578182fd5b825167ffffffffffffffff8111156200266a578283fd5b80840185601f8201126200267c578384fd5b805191506200268f620024ef8362002e0d565b8281528381019082850185850284018601891015620026ac578687fd5b8693505b84841015620026d0578051835260019390930192918501918501620026b0565b50979650505050505050565b600060208284031215620026ee578081fd5b81518015158114620014a3578182fd5b60006020828403121562002710578081fd5b5051919050565b60008060008060008060008060006101c08a8c03121562002736578485fd5b620027428b8b62002455565b9850620027538b60208c0162002462565b9750620027648b60808c0162002455565b9650620027758b60a08c0162002455565b955060c08a013567ffffffffffffffff8082111562002792578687fd5b620027a08d838e0162002594565b9650620027b18d60e08e016200253e565b9550620027c38d6101608e0162002455565b94506101808c0135915080821115620027da578384fd5b620027e88d838e0162002594565b93506101a08c0135915080821115620027ff578283fd5b506200280e8c828d01620024cd565b9150509295985092959850929598565b60006020828403121562002830578081fd5b5035919050565b6000806000606084860312156200284c578283fd5b505081359360208301359350604090920135919050565b6000815180845260208085019450808401835b838110156200289d5781516001600160a01b03168752958201959082019060010162002876565b509495945050505050565b60008151808452815b81811015620028cf57602081850181015186830182015201620028b1565b81811115620028e15782602083870101525b50601f01601f19169290920160200192915050565b6001600160a01b0391909116815260200190565b6001600160a01b03929092168252602082015260400190565b6001600160a01b039384168152919092166020820152604081019190915260600190565b6001600160a01b03939093168352602083019190915261ffff16604082015260600190565b600060208252620014a3602083018462002863565b6020808252825182820181905260009190848201906040850190845b81811015620029c45783516001600160a01b0316835292840192918401916001016200299d565b50909695505050505050565b6000602080830181845280855180835260408601915060408482028701019250838701855b8281101562002a2757603f1988860301845262002a14858351620028a8565b94509285019290850190600101620029f5565b5092979650505050505050565b6020808252825182820181905260009190848201906040850190845b81811015620029c45783518352928401929184019160010162002a50565b901515815260200190565b90815260200190565b602081016004831062002a9157fe5b91905290565b600060208252620014a36020830184620028a8565b60208082526014908201527314185d5cd8589b194e881b9bdd081c185d5cd95960621b604082015260600190565b60208082526026908201527f4f776e61626c653a206e6577206f776e657220697320746865207a65726f206160408201526564647265737360d01b606082015260800190565b6020808252601b908201527f536166654d6174683a206164646974696f6e206f766572666c6f770000000000604082015260600190565b60208082526018908201527f4f7261636c6520686173206e6f742066696e616c697365640000000000000000604082015260600190565b6020808252601490820152731499599d5b99081bd9881155120819985a5b195960621b604082015260600190565b60208082526010908201526f14185d5cd8589b194e881c185d5cd95960821b604082015260600190565b60208082526021908201527f536166654d6174683a206d756c7469706c69636174696f6e206f766572666c6f6040820152607760f81b606082015260800190565b6020808252601d908201527f436f6e747261637420616c726561647920696e697469616c697a65642e000000604082015260600190565b6020808252818101527f4f776e61626c653a2063616c6c6572206973206e6f7420746865206f776e6572604082015260600190565b60208082526026908201527f66756e6374696f6e2063616e6e6f742062652063616c6c656420617420746869604082015265732074696d6560d01b606082015260800190565b60208082526014908201527310d85cda081d1c985b9cd9995c8819985a5b195960621b604082015260600190565b6020808252601f908201527f5265656e7472616e637947756172643a207265656e7472616e742063616c6c00604082015260600190565b60008382526040602083015262002d59604083018462002863565b949350505050565b60008582526080602083015262002d7c608083018662002863565b6001600160a01b03949094166040830152506060015292915050565b600087825260c0602083015262002db360c0830188620028a8565b6001600160a01b039690961660408301525063ffffffff938416606082015291909216608082015260a0015292915050565b60405181810167ffffffffffffffff8111828210171562002e0557600080fd5b604052919050565b600067ffffffffffffffff82111562002e24578081fd5b5060209081020190565b6001600160a01b0381168114620019da57600080fdfe60806040523480156200001157600080fd5b50604051620013b2380380620013b2833981810160405260208110156200003757600080fd5b81019080805160405193929190846401000000008211156200005857600080fd5b9083019060208201858111156200006e57600080fd5b82516401000000008111828201881017156200008957600080fd5b82525081516020918201929091019080838360005b83811015620000b85781810151838201526020016200009e565b50505050905090810190601f168015620000e65780820380516001836020036101000a031916815260200191505b5060408181019052600281526126a160f11b60208083019190915285518695509193506200011c925060039190850190620001b9565b50805162000132906004906020840190620001b9565b50506005805460ff19166012179055506000620001576001600160e01b03620001b416565b60058054610100600160a81b0319166101006001600160a01b03841690810291909117909155604051919250906000907f8be0079c531659141344cd1fd0a4f28419497f9722a3daafe3b4186f6b6457e0908290a350506200025b565b335b90565b828054600181600116156101000203166002900490600052602060002090601f016020900481019282601f10620001fc57805160ff19168380011785556200022c565b828001600101855582156200022c579182015b828111156200022c5782518255916020019190600101906200020f565b506200023a9291506200023e565b5090565b620001b691905b808211156200023a576000815560010162000245565b611147806200026b6000396000f3fe6080604052600436106100f75760003560e01c8063715018a61161008a578063a457c2d711610059578063a457c2d7146103a5578063a9059cbb146103de578063dd62ed3e14610417578063f2fde38b14610452576100fe565b8063715018a6146103115780638da5cb5b1461032657806395d89b41146103575780639dc29fac1461036c576100fe565b8063313ce567116100c6578063313ce56714610241578063395093511461026c57806340c10f19146102a557806370a08231146102de576100fe565b806306fdde0314610100578063095ea7b31461018a57806318160ddd146101d757806323b872dd146101fe576100fe565b366100fe57005b005b34801561010c57600080fd5b50610115610485565b6040805160208082528351818301528351919283929083019185019080838360005b8381101561014f578181015183820152602001610137565b50505050905090810190601f16801561017c5780820380516001836020036101000a031916815260200191505b509250505060405180910390f35b34801561019657600080fd5b506101c3600480360360408110156101ad57600080fd5b506001600160a01b03813516906020013561051b565b604080519115158252519081900360200190f35b3480156101e357600080fd5b506101ec610538565b60408051918252519081900360200190f35b34801561020a57600080fd5b506101c36004803603606081101561022157600080fd5b506001600160a01b0381358116916020810135909116906040013561053e565b34801561024d57600080fd5b506102566105cb565b6040805160ff9092168252519081900360200190f35b34801561027857600080fd5b506101c36004803603604081101561028f57600080fd5b506001600160a01b0381351690602001356105d4565b3480156102b157600080fd5b506100fe600480360360408110156102c857600080fd5b506001600160a01b038135169060200135610628565b3480156102ea57600080fd5b506101ec6004803603602081101561030157600080fd5b50356001600160a01b0316610693565b34801561031d57600080fd5b506100fe6106ae565b34801561033257600080fd5b5061033b61075b565b604080516001600160a01b039092168252519081900360200190f35b34801561036357600080fd5b5061011561076f565b34801561037857600080fd5b506100fe6004803603604081101561038f57600080fd5b506001600160a01b0381351690602001356107d0565b3480156103b157600080fd5b506101c3600480360360408110156103c857600080fd5b506001600160a01b038135169060200135610837565b3480156103ea57600080fd5b506101c36004803603604081101561040157600080fd5b506001600160a01b0381351690602001356108a5565b34801561042357600080fd5b506101ec6004803603604081101561043a57600080fd5b506001600160a01b03813581169160200135166108b9565b34801561045e57600080fd5b506100fe6004803603602081101561047557600080fd5b50356001600160a01b03166108e4565b60038054604080516020601f60026000196101006001881615020190951694909404938401819004810282018101909252828152606093909290918301828280156105115780601f106104e657610100808354040283529160200191610511565b820191906000526020600020905b8154815290600101906020018083116104f457829003601f168201915b5050505050905090565b600061052f6105286109ed565b84846109f1565b50600192915050565b60025490565b600061054b848484610add565b6105c1846105576109ed565b6105bc8560405180606001604052806028815260200161103b602891396001600160a01b038a166000908152600160205260408120906105956109ed565b6001600160a01b03168152602081019190915260400160002054919063ffffffff610c4416565b6109f1565b5060019392505050565b60055460ff1690565b600061052f6105e16109ed565b846105bc85600160006105f26109ed565b6001600160a01b03908116825260208083019390935260409182016000908120918c16815292529020549063ffffffff610cdb16565b6106306109ed565b60055461010090046001600160a01b03908116911614610685576040805162461bcd60e51b81526020600482018190526024820152600080516020611063833981519152604482015290519081900360640190fd5b61068f8282610d3c565b5050565b6001600160a01b031660009081526020819052604090205490565b6106b66109ed565b60055461010090046001600160a01b0390811691161461070b576040805162461bcd60e51b81526020600482018190526024820152600080516020611063833981519152604482015290519081900360640190fd5b60055460405160009161010090046001600160a01b0316907f8be0079c531659141344cd1fd0a4f28419497f9722a3daafe3b4186f6b6457e0908390a360058054610100600160a81b0319169055565b60055461010090046001600160a01b031690565b60048054604080516020601f60026000196101006001881615020190951694909404938401819004810282018101909252828152606093909290918301828280156105115780601f106104e657610100808354040283529160200191610511565b6107d86109ed565b60055461010090046001600160a01b0390811691161461082d576040805162461bcd60e51b81526020600482018190526024820152600080516020611063833981519152604482015290519081900360640190fd5b61068f8282610e38565b600061052f6108446109ed565b846105bc856040518060600160405280602581526020016110ed602591396001600061086e6109ed565b6001600160a01b03908116825260208083019390935260409182016000908120918d1681529252902054919063ffffffff610c4416565b600061052f6108b26109ed565b8484610add565b6001600160a01b03918216600090815260016020908152604080832093909416825291909152205490565b6108ec6109ed565b60055461010090046001600160a01b03908116911614610941576040805162461bcd60e51b81526020600482018190526024820152600080516020611063833981519152604482015290519081900360640190fd5b6001600160a01b0381166109865760405162461bcd60e51b8152600401808060200182810382526026815260200180610fcd6026913960400191505060405180910390fd5b6005546040516001600160a01b0380841692610100900416907f8be0079c531659141344cd1fd0a4f28419497f9722a3daafe3b4186f6b6457e090600090a3600580546001600160a01b0390921661010002610100600160a81b0319909216919091179055565b3390565b6001600160a01b038316610a365760405162461bcd60e51b81526004018080602001828103825260248152602001806110c96024913960400191505060405180910390fd5b6001600160a01b038216610a7b5760405162461bcd60e51b8152600401808060200182810382526022815260200180610ff36022913960400191505060405180910390fd5b6001600160a01b03808416600081815260016020908152604080832094871680845294825291829020859055815185815291517f8c5be1e5ebec7d5bd14f71427d1e84f3dd0314c0f7b2291e5b200ac8c7c3b9259281900390910190a3505050565b6001600160a01b038316610b225760405162461bcd60e51b81526004018080602001828103825260258152602001806110a46025913960400191505060405180910390fd5b6001600160a01b038216610b675760405162461bcd60e51b8152600401808060200182810382526023815260200180610f886023913960400191505060405180910390fd5b610b72838383610f40565b610bb581604051806060016040528060268152602001611015602691396001600160a01b038616600090815260208190526040902054919063ffffffff610c4416565b6001600160a01b038085166000908152602081905260408082209390935590841681522054610bea908263ffffffff610cdb16565b6001600160a01b038084166000818152602081815260409182902094909455805185815290519193928716927fddf252ad1be2c89b69c2b068fc378daa952ba7f163c4a11628f55a4df523b3ef92918290030190a3505050565b60008184841115610cd35760405162461bcd60e51b81526004018080602001828103825283818151815260200191508051906020019080838360005b83811015610c98578181015183820152602001610c80565b50505050905090810190601f168015610cc55780820380516001836020036101000a031916815260200191505b509250505060405180910390fd5b505050900390565b600082820183811015610d35576040805162461bcd60e51b815260206004820152601b60248201527f536166654d6174683a206164646974696f6e206f766572666c6f770000000000604482015290519081900360640190fd5b9392505050565b6001600160a01b038216610d97576040805162461bcd60e51b815260206004820152601f60248201527f45524332303a206d696e7420746f20746865207a65726f206164647265737300604482015290519081900360640190fd5b610da360008383610f40565b600254610db6908263ffffffff610cdb16565b6002556001600160a01b038216600090815260208190526040902054610de2908263ffffffff610cdb16565b6001600160a01b0383166000818152602081815260408083209490945583518581529351929391927fddf252ad1be2c89b69c2b068fc378daa952ba7f163c4a11628f55a4df523b3ef9281900390910190a35050565b6001600160a01b038216610e7d5760405162461bcd60e51b81526004018080602001828103825260218152602001806110836021913960400191505060405180910390fd5b610e8982600083610f40565b610ecc81604051806060016040528060228152602001610fab602291396001600160a01b038516600090815260208190526040902054919063ffffffff610c4416565b6001600160a01b038316600090815260208190526040902055600254610ef8908263ffffffff610f4516565b6002556040805182815290516000916001600160a01b038516917fddf252ad1be2c89b69c2b068fc378daa952ba7f163c4a11628f55a4df523b3ef9181900360200190a35050565b505050565b6000610d3583836040518060400160405280601e81526020017f536166654d6174683a207375627472616374696f6e206f766572666c6f770000815250610c4456fe45524332303a207472616e7366657220746f20746865207a65726f206164647265737345524332303a206275726e20616d6f756e7420657863656564732062616c616e63654f776e61626c653a206e6577206f776e657220697320746865207a65726f206164647265737345524332303a20617070726f766520746f20746865207a65726f206164647265737345524332303a207472616e7366657220616d6f756e7420657863656564732062616c616e636545524332303a207472616e7366657220616d6f756e74206578636565647320616c6c6f77616e63654f776e61626c653a2063616c6c6572206973206e6f7420746865206f776e657245524332303a206275726e2066726f6d20746865207a65726f206164647265737345524332303a207472616e736665722066726f6d20746865207a65726f206164647265737345524332303a20617070726f76652066726f6d20746865207a65726f206164647265737345524332303a2064656372656173656420616c6c6f77616e63652062656c6f77207a65726fa26469706673582212209afe7f213cc02a61ed8d3c20879dbaf98ec26ac888bdc1217855a5f7e212b40f64736f6c634300060a0033a2646970667358221220c7ba7fc3492b7cc967a58f9324c53f038050f203bc2b1b840eb3cf2d75df176164736f6c634300060a0033",
  "immutableReferences": {},
  "source": "//SPDX-License-Identifier: UNLICENSED\npragma solidity >=0.4.21 <0.7.0;\npragma experimental ABIEncoderV2;\n\n// this is only for ganache testing\n\nimport '../MBMarket.sol';\n\ncontract magicBetMockup is MBMarket {\n    function newFunction() external pure returns (uint256) {\n        return 1337;\n    }\n}\n",
  "sourcePath": "/Users/billy/code/cryptocurrencies/ethereum/ethglobal-2020/BetTogether/BetTogether-Contracts/contracts/mockups/magicBetMockup.sol",
  "compiler": {
    "name": "solc",
    "version": "0.6.10+commit.00c0fcaf.Emscripten.clang"
  },
  "schemaVersion": "3.1.0",
  "updatedAt": "2020-08-08T11:10:37.494Z",
  "devdoc": {
    "methods": {
      "owner()": {
        "details": "Returns the address of the current owner."
      },
      "paused()": {
        "details": "Returns true if the contract is paused, and false otherwise."
      },
      "renounceOwnership()": {
        "details": "Leaves the contract without owner. It will not be possible to call `onlyOwner` functions anymore. Can only be called by the current owner. NOTE: Renouncing ownership will leave the contract without an owner, thereby removing any functionality that is only available to the owner."
      },
      "transferOwnership(address)": {
        "details": "Transfers ownership of the contract to a new account (`newOwner`). Can only be called by the current owner."
      }
    }
  },
  "userdoc": {
    "methods": {
      "UNRESOLVED_OUTCOME_RESULT()": {
        "notice": "///////////////////////////////// ///// VARIABLES ///////////////// /////////////////////////////////"
      },
      "dai()": {
        "notice": "///// Externals ////////"
      },
      "disableContract()": {
        "notice": "///////////////////////////////// // BOILERPLATE FUNCTIONS //////// /////////////////////////////////"
      },
      "getCurrentState()": {
        "notice": "///////////////////////////////// /////// VIEW FUNCTIONS ////////// /////////////////////////////////"
      },
      "initialize(address,address[3],address,address,string,uint256[4],address,string,string[])": {
        "notice": "///////////////////////////////// ///// CONSTRUCTOR /////////////// /////////////////////////////////"
      },
      "maxInterest()": {
        "notice": "///// Market Details ////////"
      },
      "placeBet(uint256,uint256,uint256)": {
        "notice": "///////////////////////////////// ///// EXTERNAL FUNCTIONS //////// /////////////////////////////////"
      },
      "totalBetsPerOutcome(uint256)": {
        "notice": "///// Betting variables ////////"
      },
      "winningOutcome()": {
        "notice": "///// Market resolution variables ////////"
      }
    }
  }
}