{
  "contractName": "magicBetMockup",
  "abi": [
    {
      "anonymous": false,
      "inputs": [
        {
          "indexed": true,
          "internalType": "address",
          "name": "previousOwner",
          "type": "address"
        },
        {
          "indexed": true,
          "internalType": "address",
          "name": "newOwner",
          "type": "address"
        }
      ],
      "name": "OwnershipTransferred",
      "type": "event"
    },
    {
      "anonymous": false,
      "inputs": [
        {
          "indexed": true,
          "internalType": "address",
          "name": "participant",
          "type": "address"
        }
      ],
      "name": "ParticipantEntered",
      "type": "event"
    },
    {
      "anonymous": false,
      "inputs": [
        {
          "indexed": true,
          "internalType": "address",
          "name": "participant",
          "type": "address"
        }
      ],
      "name": "ParticipantWithdrawn",
      "type": "event"
    },
    {
      "anonymous": false,
      "inputs": [
        {
          "indexed": false,
          "internalType": "address",
          "name": "account",
          "type": "address"
        }
      ],
      "name": "Paused",
      "type": "event"
    },
    {
      "anonymous": false,
      "inputs": [
        {
          "indexed": false,
          "internalType": "enum MBMarket.States",
          "name": "state",
          "type": "uint8"
        }
      ],
      "name": "StateChanged",
      "type": "event"
    },
    {
      "anonymous": false,
      "inputs": [
        {
          "indexed": false,
          "internalType": "address",
          "name": "account",
          "type": "address"
        }
      ],
      "name": "Unpaused",
      "type": "event"
    },
    {
      "anonymous": false,
      "inputs": [
        {
          "indexed": true,
          "internalType": "address",
          "name": "winner",
          "type": "address"
        }
      ],
      "name": "WinnerSelected",
      "type": "event"
    },
    {
      "stateMutability": "payable",
      "type": "fallback"
    },
    {
      "inputs": [],
      "name": "ORACLE_TIMEOUT_TIME",
      "outputs": [
        {
          "internalType": "uint256",
          "name": "",
          "type": "uint256"
        }
      ],
      "stateMutability": "view",
      "type": "function"
    },
    {
      "inputs": [],
      "name": "UNRESOLVED_OUTCOME_RESULT",
      "outputs": [
        {
          "internalType": "uint256",
          "name": "",
          "type": "uint256"
        }
      ],
      "stateMutability": "view",
      "type": "function"
    },
    {
      "inputs": [],
      "name": "aToken",
      "outputs": [
        {
          "internalType": "contract IaToken",
          "name": "",
          "type": "address"
        }
      ],
      "stateMutability": "view",
      "type": "function"
    },
    {
      "inputs": [],
      "name": "aaveLendingPool",
      "outputs": [
        {
          "internalType": "contract IAaveLendingPool",
          "name": "",
          "type": "address"
        }
      ],
      "stateMutability": "view",
      "type": "function"
    },
    {
      "inputs": [],
      "name": "betsWithdrawn",
      "outputs": [
        {
          "internalType": "uint256",
          "name": "",
          "type": "uint256"
        }
      ],
      "stateMutability": "view",
      "type": "function"
    },
    {
      "inputs": [
        {
          "internalType": "uint256",
          "name": "",
          "type": "uint256"
        }
      ],
      "name": "betsWithdrawnPerOutcome",
      "outputs": [
        {
          "internalType": "uint256",
          "name": "",
          "type": "uint256"
        }
      ],
      "stateMutability": "view",
      "type": "function"
    },
    {
      "inputs": [],
      "name": "dai",
      "outputs": [
        {
          "internalType": "contract Dai",
          "name": "",
          "type": "address"
        }
      ],
      "stateMutability": "view",
      "type": "function"
    },
    {
      "inputs": [],
      "name": "determineWinner",
      "outputs": [],
      "stateMutability": "nonpayable",
      "type": "function"
    },
    {
      "inputs": [],
      "name": "disableContract",
      "outputs": [
        {
          "internalType": "bool",
          "name": "",
          "type": "bool"
        }
      ],
      "stateMutability": "nonpayable",
      "type": "function"
    },
    {
      "inputs": [],
      "name": "enableContract",
      "outputs": [
        {
          "internalType": "bool",
          "name": "",
          "type": "bool"
        }
      ],
      "stateMutability": "nonpayable",
      "type": "function"
    },
    {
      "inputs": [],
      "name": "eventName",
      "outputs": [
        {
          "internalType": "string",
          "name": "",
          "type": "string"
        }
      ],
      "stateMutability": "view",
      "type": "function"
    },
    {
      "inputs": [
        {
          "internalType": "uint256",
          "name": "_outcome",
          "type": "uint256"
        }
      ],
      "name": "getBetAmountsArray",
      "outputs": [
        {
          "internalType": "uint256[]",
          "name": "",
          "type": "uint256[]"
        }
      ],
      "stateMutability": "view",
      "type": "function"
    },
    {
      "inputs": [],
      "name": "getCurrentState",
      "outputs": [
        {
          "internalType": "enum MBMarket.States",
          "name": "",
          "type": "uint8"
        }
      ],
      "stateMutability": "view",
      "type": "function"
    },
    {
      "inputs": [
        {
          "internalType": "uint256",
          "name": "daiAmount",
          "type": "uint256"
        }
      ],
      "name": "getEstimatedETHforDAI",
      "outputs": [
        {
          "internalType": "uint256[]",
          "name": "",
          "type": "uint256[]"
        }
      ],
      "stateMutability": "view",
      "type": "function"
    },
    {
      "inputs": [],
      "name": "getMarketSize",
      "outputs": [
        {
          "internalType": "uint256",
          "name": "",
          "type": "uint256"
        }
      ],
      "stateMutability": "view",
      "type": "function"
    },
    {
      "inputs": [],
      "name": "getMaxTotalInterest",
      "outputs": [
        {
          "internalType": "uint256",
          "name": "",
          "type": "uint256"
        }
      ],
      "stateMutability": "view",
      "type": "function"
    },
    {
      "inputs": [],
      "name": "getOutcomeNames",
      "outputs": [
        {
          "internalType": "string[]",
          "name": "",
          "type": "string[]"
        }
      ],
      "stateMutability": "view",
      "type": "function"
    },
    {
      "inputs": [],
      "name": "getParticipants",
      "outputs": [
        {
          "internalType": "address[]",
          "name": "",
          "type": "address[]"
        }
      ],
      "stateMutability": "view",
      "type": "function"
    },
    {
      "inputs": [
        {
          "internalType": "uint256",
          "name": "_outcome",
          "type": "uint256"
        }
      ],
      "name": "getTimestampsArray",
      "outputs": [
        {
          "internalType": "uint256[]",
          "name": "",
          "type": "uint256[]"
        }
      ],
      "stateMutability": "view",
      "type": "function"
    },
    {
      "inputs": [],
      "name": "getTokenAddresses",
      "outputs": [
        {
          "internalType": "contract Token[]",
          "name": "",
          "type": "address[]"
        }
      ],
      "stateMutability": "view",
      "type": "function"
    },
    {
      "inputs": [],
      "name": "getTotalInterest",
      "outputs": [
        {
          "internalType": "uint256",
          "name": "",
          "type": "uint256"
        }
      ],
      "stateMutability": "view",
      "type": "function"
    },
    {
      "inputs": [
        {
          "internalType": "contract Dai",
          "name": "_daiAddress",
          "type": "address"
        },
        {
          "internalType": "address[3]",
          "name": "_aaveAddresses",
          "type": "address[3]"
        },
        {
          "internalType": "contract IRealitio",
          "name": "_realitioAddress",
          "type": "address"
        },
        {
          "internalType": "contract IUniswapV2Router02",
          "name": "_uniswapRouter",
          "type": "address"
        },
        {
          "internalType": "string",
          "name": "_eventName",
          "type": "string"
        },
        {
          "internalType": "uint256[4]",
          "name": "_marketTimes",
          "type": "uint256[4]"
        },
        {
          "internalType": "address",
          "name": "_arbitrator",
          "type": "address"
        },
        {
          "internalType": "string",
          "name": "_realitioQuestion",
          "type": "string"
        },
        {
          "internalType": "string[]",
          "name": "_outcomeNamesArray",
          "type": "string[]"
        }
      ],
      "name": "initialize",
      "outputs": [],
      "stateMutability": "nonpayable",
      "type": "function"
    },
    {
      "inputs": [],
      "name": "marketLockingTime",
      "outputs": [
        {
          "internalType": "uint256",
          "name": "",
          "type": "uint256"
        }
      ],
      "stateMutability": "view",
      "type": "function"
    },
    {
      "inputs": [],
      "name": "marketOpeningTime",
      "outputs": [
        {
          "internalType": "uint256",
          "name": "",
          "type": "uint256"
        }
      ],
      "stateMutability": "view",
      "type": "function"
    },
    {
      "inputs": [],
      "name": "marketResolutionTime",
      "outputs": [
        {
          "internalType": "uint256",
          "name": "",
          "type": "uint256"
        }
      ],
      "stateMutability": "view",
      "type": "function"
    },
    {
      "inputs": [],
      "name": "maxInterest",
      "outputs": [
        {
          "internalType": "uint256",
          "name": "",
          "type": "uint256"
        }
      ],
      "stateMutability": "view",
      "type": "function"
    },
    {
      "inputs": [],
      "name": "numberOfOutcomes",
      "outputs": [
        {
          "internalType": "uint256",
          "name": "",
          "type": "uint256"
        }
      ],
      "stateMutability": "view",
      "type": "function"
    },
    {
      "inputs": [
        {
          "internalType": "uint256",
          "name": "",
          "type": "uint256"
        }
      ],
      "name": "outcomeNames",
      "outputs": [
        {
          "internalType": "string",
          "name": "",
          "type": "string"
        }
      ],
      "stateMutability": "view",
      "type": "function"
    },
    {
      "inputs": [],
      "name": "owner",
      "outputs": [
        {
          "internalType": "address",
          "name": "",
          "type": "address"
        }
      ],
      "stateMutability": "view",
      "type": "function"
    },
    {
      "inputs": [
        {
          "internalType": "uint256",
          "name": "",
          "type": "uint256"
        }
      ],
      "name": "participants",
      "outputs": [
        {
          "internalType": "address",
          "name": "",
          "type": "address"
        }
      ],
      "stateMutability": "view",
      "type": "function"
    },
    {
      "inputs": [],
      "name": "paused",
      "outputs": [
        {
          "internalType": "bool",
          "name": "",
          "type": "bool"
        }
      ],
      "stateMutability": "view",
      "type": "function"
    },
    {
      "inputs": [
        {
          "internalType": "uint256",
          "name": "_outcome",
          "type": "uint256"
        },
        {
          "internalType": "uint256",
          "name": "_dai",
          "type": "uint256"
        },
        {
          "internalType": "uint256",
          "name": "_uniswapDeadline",
          "type": "uint256"
        }
      ],
      "name": "placeBet",
      "outputs": [],
      "stateMutability": "payable",
      "type": "function"
    },
    {
      "inputs": [],
      "name": "questionId",
      "outputs": [
        {
          "internalType": "bytes32",
          "name": "",
          "type": "bytes32"
        }
      ],
      "stateMutability": "view",
      "type": "function"
    },
    {
      "inputs": [],
      "name": "realitio",
      "outputs": [
        {
          "internalType": "contract IRealitio",
          "name": "",
          "type": "address"
        }
      ],
      "stateMutability": "view",
      "type": "function"
    },
    {
      "inputs": [],
      "name": "renounceOwnership",
      "outputs": [],
      "stateMutability": "nonpayable",
      "type": "function"
    },
    {
      "inputs": [
        {
          "internalType": "uint256",
          "name": "sponsorAmount",
          "type": "uint256"
        }
      ],
      "name": "sponsorEvent",
      "outputs": [],
      "stateMutability": "nonpayable",
      "type": "function"
    },
    {
      "inputs": [
        {
          "internalType": "address",
          "name": "",
          "type": "address"
        }
      ],
      "name": "sponsoredMoney",
      "outputs": [
        {
          "internalType": "uint256",
          "name": "",
          "type": "uint256"
        }
      ],
      "stateMutability": "view",
      "type": "function"
    },
    {
      "inputs": [
        {
          "internalType": "uint256",
          "name": "",
          "type": "uint256"
        }
      ],
      "name": "tokenAddresses",
      "outputs": [
        {
          "internalType": "contract Token",
          "name": "",
          "type": "address"
        }
      ],
      "stateMutability": "view",
      "type": "function"
    },
    {
      "inputs": [],
      "name": "totalBets",
      "outputs": [
        {
          "internalType": "uint256",
          "name": "",
          "type": "uint256"
        }
      ],
      "stateMutability": "view",
      "type": "function"
    },
    {
      "inputs": [
        {
          "internalType": "uint256",
          "name": "",
          "type": "uint256"
        }
      ],
      "name": "totalBetsPerOutcome",
      "outputs": [
        {
          "internalType": "uint256",
          "name": "",
          "type": "uint256"
        }
      ],
      "stateMutability": "view",
      "type": "function"
    },
    {
      "inputs": [],
      "name": "totalSponsoredMoney",
      "outputs": [
        {
          "internalType": "uint256",
          "name": "",
          "type": "uint256"
        }
      ],
      "stateMutability": "view",
      "type": "function"
    },
    {
      "inputs": [
        {
          "internalType": "address",
          "name": "newOwner",
          "type": "address"
        }
      ],
      "name": "transferOwnership",
      "outputs": [],
      "stateMutability": "nonpayable",
      "type": "function"
    },
    {
      "inputs": [],
      "name": "uniswapRouter",
      "outputs": [
        {
          "internalType": "contract IUniswapV2Router02",
          "name": "",
          "type": "address"
        }
      ],
      "stateMutability": "view",
      "type": "function"
    },
    {
      "inputs": [
        {
          "internalType": "uint256",
          "name": "",
          "type": "uint256"
        }
      ],
      "name": "usersPerOutcome",
      "outputs": [
        {
          "internalType": "uint256",
          "name": "",
          "type": "uint256"
        }
      ],
      "stateMutability": "view",
      "type": "function"
    },
    {
      "inputs": [],
      "name": "winningOutcome",
      "outputs": [
        {
          "internalType": "uint256",
          "name": "",
          "type": "uint256"
        }
      ],
      "stateMutability": "view",
      "type": "function"
    },
    {
      "inputs": [],
      "name": "withdraw",
      "outputs": [],
      "stateMutability": "nonpayable",
      "type": "function"
    },
    {
      "inputs": [
        {
          "internalType": "uint256",
          "name": "withdrawAmount",
          "type": "uint256"
        }
      ],
      "name": "withdrawSponsorMoney",
      "outputs": [],
      "stateMutability": "nonpayable",
      "type": "function"
    },
    {
      "stateMutability": "payable",
      "type": "receive"
    },
    {
      "inputs": [],
      "name": "newFunction",
      "outputs": [
        {
          "internalType": "uint256",
          "name": "",
          "type": "uint256"
        }
      ],
      "stateMutability": "pure",
      "type": "function"
    }
  ],
  "bytecode": "0x60806040526002805460ff19169055600060075534801561001f57600080fd5b50600061002a61008a565b600080546001600160a01b0319166001600160a01b0383169081178255604051929350917f8be0079c531659141344cd1fd0a4f28419497f9722a3daafe3b4186f6b6457e0908290a3506000805460ff60a01b191690556001805561008e565b3390565b614457806200009e6000396000f3fe608060405260043610620002d75760003560e01c80638da5cb5b116200017b578063e54f4fe311620000d3578063f01c28bd1162000085578063f01c28bd14620007fc578063f1f9c33e1462000821578063f2fde38b1462000839578063f4b9fa75146200085e578063fd27b51e1462000876578063fe650b5e146200088e57620002df565b8063e54f4fe31462000744578063e5df8b84146200075c578063e71c96971462000781578063e8f033c91462000798578063e9d337b814620007bd578063ee8c24b814620007d557620002df565b8063bc8802a2116200012d578063bc8802a2146200068b578063befa1e2f14620006a3578063c56f338c14620006bb578063cb70495514620006e0578063d9d8c4ac1462000707578063e14dedfd146200072c57620002df565b80638da5cb5b14620005ee5780639b34ae0314620006065780639d7c7d39146200061e578063a0c1f15e1462000636578063ada8b83d146200064e578063b06a5c52146200067357620002df565b806349200d77116200022f578063715018a611620001e1578063715018a61462000542578063735de9f7146200055a5780638043c9c01462000572578063807535cc146200058a5780638263302814620005be578063894ba83314620005d657620002df565b806349200d7714620004965780634b8755ca14620004ae5780634ecc79f714620004c6578063519709c414620004de5780635aa68ac014620005035780635c975abb146200052a57620002df565b806327acae74116200028957806327acae7414620003b057806333b16d9314620003e457806335c1d34914620003fc578063367edd321462000430578063378aa70114620004575780633ccfd60b146200047e57620002df565b806305801f0b14620002e15780630b60365c146200031e57806315f9602214620003365780631b28d63e146200035b578063232ea3ad146200037357806326f0f254146200038b57620002df565b36620002df57005b005b348015620002ee57600080fd5b50620003066200030036600462002a6c565b620008a6565b60405162000315919062002cc7565b60405180910390f35b3480156200032b57600080fd5b5062000306620008b8565b3480156200034357600080fd5b50620003066200035536600462002853565b62000979565b3480156200036857600080fd5b50620003066200098b565b3480156200038057600080fd5b506200030662000991565b3480156200039857600080fd5b50620002df620003aa36600462002965565b62000997565b348015620003bd57600080fd5b50620003d5620003cf36600462002a6c565b62000b5c565b60405162000315919062002ce5565b348015620003f157600080fd5b50620002df62000c07565b3480156200040957600080fd5b50620004216200041b36600462002a6c565b62000c6c565b60405162000315919062002b44565b3480156200043d57600080fd5b506200044862000c94565b60405162000315919062002cbc565b3480156200046457600080fd5b506200046f62000d06565b60405162000315919062002cd0565b3480156200048b57600080fd5b50620002df62000d78565b348015620004a357600080fd5b506200030662000e62565b348015620004bb57600080fd5b506200030662000e68565b348015620004d357600080fd5b506200030662000e6e565b348015620004eb57600080fd5b5062000306620004fd36600462002a6c565b62000e74565b3480156200051057600080fd5b506200051b62000e86565b60405162000315919062002bba565b3480156200053757600080fd5b506200044862000eea565b3480156200054f57600080fd5b50620002df62000efa565b3480156200056757600080fd5b506200042162000f7e565b3480156200057f57600080fd5b50620003d562000f8d565b3480156200059757600080fd5b50620005af620005a936600462002a6c565b62000feb565b60405162000315919062002c82565b348015620005cb57600080fd5b50620003066200104f565b348015620005e357600080fd5b506200044862001055565b348015620005fb57600080fd5b5062000421620010c8565b3480156200061357600080fd5b5062000306620010d7565b3480156200062b57600080fd5b5062000306620010dd565b3480156200064357600080fd5b506200042162001105565b3480156200065b57600080fd5b50620005af6200066d36600462002a6c565b62001114565b3480156200068057600080fd5b5062000306620011b5565b3480156200069857600080fd5b5062000421620011bb565b348015620006b057600080fd5b5062000306620011ca565b348015620006c857600080fd5b5062000306620006da36600462002a6c565b620011d0565b348015620006ed57600080fd5b50620006f8620011e2565b60405162000315919062002c1e565b3480156200071457600080fd5b50620002df6200072636600462002a6c565b620012c0565b3480156200073957600080fd5b50620003066200139d565b3480156200075157600080fd5b5062000306620013a3565b3480156200076957600080fd5b50620004216200077b36600462002a6c565b620013a9565b620002df6200079236600462002a85565b620013b7565b348015620007a557600080fd5b50620005af620007b736600462002a6c565b62001447565b348015620007ca57600080fd5b5062000421620014a9565b348015620007e257600080fd5b50620007ed620014b8565b60405162000315919062002bcf565b3480156200080957600080fd5b50620002df6200081b36600462002a6c565b6200151a565b3480156200082e57600080fd5b506200030662001610565b3480156200084657600080fd5b50620002df6200085836600462002853565b62001617565b3480156200086b57600080fd5b5062000421620016d5565b3480156200088357600080fd5b5062000306620016e9565b3480156200089b57600080fd5b5062000306620016ef565b60106020526000908152604090205481565b600080620008d4601654601554620016f590919063ffffffff16565b6003546040516370a0823160e01b81529192506000916001600160a01b03909116906370a08231906200090c90309060040162002b44565b60206040518083038186803b1580156200092557600080fd5b505afa1580156200093a573d6000803e3d6000fd5b505050506040513d601f19601f820116820180604052508101906200096091906200294c565b90506000620009708284620016f5565b93505050505b90565b60186020526000908152604090205481565b61053990565b600a5481565b60025460ff1615620009c65760405162461bcd60e51b8152600401620009bd9062002e75565b60405180910390fd5b600019601a81905560028054610100600160a81b0319166101006001600160a01b038d8116820292909217928390558b51600380546001600160a01b031990811692851692909217905560208d01516004805483169185169190911781556005805483168e8616179055600680549092168c8516179091556040808e0151905163095ea7b360e01b8152929094049092169363095ea7b39362000a6c9390920162002b7c565b602060405180830381600087803b15801562000a8757600080fd5b505af115801562000a9c573d6000803e3d6000fd5b505050506040513d601f19601f8201168201806040525081019062000ac291906200292a565b50845162000ad890600c906020880190620025fc565b5083516008556020840151600955604084015163ffffffff16600a558051600f5560005b600f5481101562000b2f5762000b2682828151811062000b1857fe5b602002602001015162001742565b60010162000afc565b5060024262000b4c8285878960036020020151600a548662001817565b600b555050505050505050505050565b600d818154811062000b6a57fe5b600091825260209182902001805460408051601f600260001961010060018716150201909416939093049283018590048502810185019091528181529350909183018282801562000bff5780601f1062000bd35761010080835404028352916020019162000bff565b820191906000526020600020905b81548152906001019060200180831162000be157829003601f168201915b505050505081565b600054600160a01b900460ff161562000c345760405162461bcd60e51b8152600401620009bd9062002e0a565b62000c3e620018b5565b62000c5d5760405162461bcd60e51b8152600401620009bd9062002da5565b62000c6762001943565b601a55565b6019818154811062000c7a57fe5b6000918252602090912001546001600160a01b0316905081565b600062000ca0620019d5565b6000546001600160a01b0390811691161462000cd05760405162461bcd60e51b8152600401620009bd9062002eac565b600054600160a01b900460ff1662000cfc5760405162461bcd60e51b8152600401620009bd9062002cfa565b62000976620019d9565b600060085442101562000d1c5750600062000976565b600854421015801562000d30575060095442105b1562000d3f5750600162000976565b600019601a5414801562000d635750600a5462000d60906224ea0062001a56565b42105b1562000d725750600262000976565b50600390565b60038062000d8562000d06565b600381111562000d9157fe5b1462000db15760405162461bcd60e51b8152600401620009bd9062002ee1565b600054600160a01b900460ff161562000dde5760405162461bcd60e51b8152600401620009bd9062002e0a565b6002600154141562000e045760405162461bcd60e51b8152600401620009bd9062002f55565b600260015560075462000e1f5762000e1b620008b8565b6007555b601a546000908152601060205260409020541562000e475762000e4162001a7e565b62000e51565b62000e5162001ac7565b62000e5b62001af6565b5060018055565b600f5481565b60095481565b60085481565b60126020526000908152604090205481565b6060601980548060200260200160405190810160405280929190818152602001828054801562000ee057602002820191906000526020600020905b81546001600160a01b0316815260019091019060200180831162000ec1575b5050505050905090565b600054600160a01b900460ff1690565b62000f04620019d5565b6000546001600160a01b0390811691161462000f345760405162461bcd60e51b8152600401620009bd9062002eac565b600080546040516001600160a01b03909116907f8be0079c531659141344cd1fd0a4f28419497f9722a3daafe3b4186f6b6457e0908390a3600080546001600160a01b0319169055565b6006546001600160a01b031681565b600c805460408051602060026001851615610100026000190190941693909304601f8101849004840282018401909252818152929183018282801562000bff5780601f1062000bd35761010080835404028352916020019162000bff565b6000818152601360209081526040918290208054835181840281018401909452808452606093928301828280156200104357602002820191906000526020600020905b8154815260200190600101908083116200102e575b50505050509050919050565b60075481565b600062001061620019d5565b6000546001600160a01b03908116911614620010915760405162461bcd60e51b8152600401620009bd9062002eac565b600054600160a01b900460ff1615620010be5760405162461bcd60e51b8152600401620009bd9062002e0a565b6200097662001c5d565b6000546001600160a01b031690565b601a5481565b60075460009015620010f3575060075462000976565b620010fd620008b8565b905062000976565b6003546001600160a01b031681565b6060806200112162001cc8565b6006546040516307c0329d60e21b81529192506001600160a01b031690631f00ca749062001156908690859060040162002f8c565b60006040518083038186803b1580156200116f57600080fd5b505afa15801562001184573d6000803e3d6000fd5b505050506040513d6000823e601f3d908101601f19168201604052620011ae919081019062002891565b9392505050565b600b5481565b6005546001600160a01b031681565b60155481565b60116020526000908152604090205481565b6060600d805480602002602001604051908101604052809291908181526020016000905b82821015620012b75760008481526020908190208301805460408051601f6002600019610100600187161502019094169390930492830185900485028101850190915281815292830182828015620012a25780601f106200127657610100808354040283529160200191620012a2565b820191906000526020600020905b8154815290600101906020018083116200128457829003601f168201915b50505050508152602001906001019062001206565b50505050905090565b6002546040516323b872dd60e01b81526101009091046001600160a01b0316906323b872dd90620012fa9033903090869060040162002b58565b602060405180830381600087803b1580156200131557600080fd5b505af11580156200132a573d6000803e3d6000fd5b505050506040513d601f19601f820116820180604052508101906200135091906200292a565b506200135c8162001dca565b3360009081526018602052604090205462001378908262001a56565b3360009081526018602052604090205560175462001397908262001a56565b60175550565b60165481565b60001981565b600e818154811062000c7a57fe5b600180620013c462000d06565b6003811115620013d057fe5b14620013f05760405162461bcd60e51b8152600401620009bd9062002ee1565b600054600160a01b900460ff16156200141d5760405162461bcd60e51b8152600401620009bd9062002e0a565b62001429848462001e3f565b620014363384846200205d565b620014418362001dca565b50505050565b6000818152601460209081526040918290208054835181840281018401909452808452606093928301828280156200104357602002820191906000526020600020908154815260200190600101908083116200102e5750505050509050919050565b6004546001600160a01b031681565b6060600e80548060200260200160405190810160405280929190818152602001828054801562000ee0576020028201919060005260206000209081546001600160a01b0316815260019091019060200180831162000ec1575050505050905090565b6200155181604051806060016040528060238152602001620043ff602391393360009081526018602052604090205491906200212a565b33600090815260186020526040902055601754620015709082620016f5565b6017556200157e8162002159565b60025460405163a9059cbb60e01b81526101009091046001600160a01b03169063a9059cbb90620015b6903390859060040162002b7c565b602060405180830381600087803b158015620015d157600080fd5b505af1158015620015e6573d6000803e3d6000fd5b505050506040513d601f19601f820116820180604052508101906200160c91906200292a565b5050565b6224ea0081565b62001621620019d5565b6000546001600160a01b03908116911614620016515760405162461bcd60e51b8152600401620009bd9062002eac565b6001600160a01b0381166200167a5760405162461bcd60e51b8152600401620009bd9062002d28565b600080546040516001600160a01b03808516939216917f8be0079c531659141344cd1fd0a4f28419497f9722a3daafe3b4186f6b6457e091a3600080546001600160a01b0319166001600160a01b0392909216919091179055565b60025461010090046001600160a01b031681565b60195490565b60175481565b60006200173983836040518060400160405280601e81526020017f536166654d6174683a207375627472616374696f6e206f766572666c6f7700008152506200212a565b90505b92915050565b600d8054600181018255600091909152815162001787917fd7b6990105719101dabeb77144f2a3385c8033acd3af97e9423a695e81ad1eb501906020840190620025fc565b50600081604051620017999062002681565b620017a5919062002ce5565b604051809103906000f080158015620017c2573d6000803e3d6000fd5b50600e80546001810182556000919091527fbb7b4a454dc3493923482f07822329ed19e8244eff582cc204f8554c3620c3fd0180546001600160a01b0319166001600160a01b03929092169190911790555050565b60055460405163762c38fd60e01b81526000916001600160a01b03169063762c38fd9062001854908a908a908a908a908a908a9060040162002fe6565b602060405180830381600087803b1580156200186f57600080fd5b505af115801562001884573d6000803e3d6000fd5b505050506040513d601f19601f82011682018060405250810190620018aa91906200294c565b979650505050505050565b600554600b54604051633fc6a14f60e11b81526000926001600160a01b031691637f8d429e91620018ea919060040162002cc7565b60206040518083038186803b1580156200190357600080fd5b505afa15801562001918573d6000803e3d6000fd5b505050506040513d601f19601f820116820180604052508101906200193e91906200292a565b905090565b600554600b5460405163684e62bf60e11b815260009283926001600160a01b039091169163d09cc57e916200197b9160040162002cc7565b60206040518083038186803b1580156200199457600080fd5b505afa158015620019a9573d6000803e3d6000fd5b505050506040513d601f19601f82011682018060405250810190620019cf91906200294c565b91505090565b3390565b600054600160a01b900460ff1662001a055760405162461bcd60e51b8152600401620009bd9062002cfa565b6000805460ff60a01b191690557f5db9ee0a495bf2e6ff9c91a7834c1ba4fdd244a5e8aa4e537bd38aeae4b073aa62001a3d620019d5565b60405162001a4c919062002b44565b60405180910390a1565b600082820183811015620017395760405162461bcd60e51b8152600401620009bd9062002d6e565b600062001a8d601a546200218b565b9050600062001aa762001a9f6200226e565b839062001a56565b905080156200160c5762001abb8162002159565b6200160c338262002341565b600062001a8d62001ae6601654601554620016f590919063ffffffff16565b62001af06200226e565b620023ee565b60005b600f5481101562001c5a576000600e828154811062001b1457fe5b60009182526020822001546040516370a0823160e01b81526001600160a01b03909116925082906370a082319062001b5190339060040162002b44565b60206040518083038186803b15801562001b6a57600080fd5b505afa15801562001b7f573d6000803e3d6000fd5b505050506040513d601f19601f8201168201806040525081019062001ba591906200294c565b9050801562001c4f5760008381526011602052604090205462001bc9908262001a56565b60008481526011602052604090205560165462001be7908262001a56565b601655604051632770a7eb60e21b81526001600160a01b03831690639dc29fac9062001c1a903390859060040162002b7c565b600060405180830381600087803b15801562001c3557600080fd5b505af115801562001c4a573d6000803e3d6000fd5b505050505b505060010162001af9565b50565b600054600160a01b900460ff161562001c8a5760405162461bcd60e51b8152600401620009bd9062002e0a565b6000805460ff60a01b1916600160a01b1790557f62e78cea01bee320cd4e420270b5ea74000d11b0c9f74754ebdbfc544b05a25862001a3d620019d5565b6040805160028082526060808301845292839291906020830190803683375050600654604080516315ab88c960e31b815290519394506001600160a01b039091169263ad5c464892506004808301926020929190829003018186803b15801562001d3157600080fd5b505afa15801562001d46573d6000803e3d6000fd5b505050506040513d601f19601f8201168201806040525081019062001d6c919062002872565b8160008151811062001d7a57fe5b6001600160a01b0392831660209182029290920101526002548251610100909104909116908290600190811062001dad57fe5b6001600160a01b0390921660209283029190910190910152905090565b60048054600254604051636968703360e11b81526001600160a01b039283169363d2d0e0669362001e08936101009004169186916000910162002b95565b600060405180830381600087803b15801562001e2357600080fd5b505af115801562001e38573d6000803e3d6000fd5b5050505050565b6000600e838154811062001e4f57fe5b60009182526020808320909101548583526013825260408084208054600181810183559186528486200187905587855260148452818520805491820181558552929093204292019190915590516370a0823160e01b81526001600160a01b03909116915081906370a082319062001ecb90339060040162002b44565b60206040518083038186803b15801562001ee457600080fd5b505afa15801562001ef9573d6000803e3d6000fd5b505050506040513d601f19601f8201168201806040525081019062001f1f91906200294c565b62001f8c576019805460018181019092557f944998273e477b495144fb8794c914197f3ccb46be2900f4698fd0ef743c96950180546001600160a01b0319163317905560008481526012602052604090205462001f7c9162001a56565b6000848152601260205260409020555b6040516340c10f1960e01b81526001600160a01b038216906340c10f199062001fbc903390869060040162002b7c565b600060405180830381600087803b15801562001fd757600080fd5b505af115801562001fec573d6000803e3d6000fd5b505060155462002000925090508362001a56565b6015556000838152601060205260409020546200201e908362001a56565b60008481526010602052604080822092909255905133917fef3b3ae531a4f494c95e537ec1fe385cfe5c1146cb4c1d850b24bad38595804991a2505050565b341562002076576200207082826200241e565b62002125565b6002546040516323b872dd60e01b81526101009091046001600160a01b0316906323b872dd90620020b09086903090879060040162002b58565b602060405180830381600087803b158015620020cb57600080fd5b505af1158015620020e0573d6000803e3d6000fd5b505050506040513d601f19601f820116820180604052508101906200210691906200292a565b620021255760405162461bcd60e51b8152600401620009bd9062002f27565b505050565b60008184841115620021515760405162461bcd60e51b8152600401620009bd919062002ce5565b505050900390565b60035460405163db006a7560e01b81526001600160a01b039091169063db006a759062001e0890849060040162002cc7565b600080600e83815481106200219c57fe5b60009182526020822001546040516370a0823160e01b81526001600160a01b03909116925082906370a0823190620021d990339060040162002b44565b60206040518083038186803b158015620021f257600080fd5b505afa15801562002207573d6000803e3d6000fd5b505050506040513d601f19601f820116820180604052508101906200222d91906200294c565b600085815260116020908152604080832054601090925282205492935090916200225791620016f5565b9050620022658183620023ee565b95945050505050565b60008060005b600f548110156200233b576000600e82815481106200228f57fe5b60009182526020822001546040516370a0823160e01b81526001600160a01b03909116925082906370a0823190620022cc90339060040162002b44565b60206040518083038186803b158015620022e557600080fd5b505afa158015620022fa573d6000803e3d6000fd5b505050506040513d601f19601f820116820180604052508101906200232091906200294c565b90506200232e848262001a56565b9350505060010162002274565b50905090565b60025460405163a9059cbb60e01b81526101009091046001600160a01b03169063a9059cbb9062002379908590859060040162002b7c565b602060405180830381600087803b1580156200239457600080fd5b505af1158015620023a9573d6000803e3d6000fd5b505050506040513d601f19601f82011682018060405250810190620023cf91906200292a565b6200160c5760405162461bcd60e51b8152600401620009bd9062002f27565b60008083156200173957600062002404620008b8565b9050620022658562002417838762002543565b9062002583565b60606200242a62001cc8565b60065460405163fb3bdb4160e01b81529192506001600160a01b03169063fb3bdb419034906200246590879086903090899060040162002faf565b6000604051808303818588803b1580156200247f57600080fd5b505af115801562002494573d6000803e3d6000fd5b50505050506040513d6000823e601f3d908101601f19168201604052620024bf919081019062002891565b506000336001600160a01b031647604051620024db9062000976565b60006040518083038185875af1925050503d80600081146200251a576040519150601f19603f3d011682016040523d82523d6000602084013e6200251f565b606091505b5050905080620014415760405162461bcd60e51b8152600401620009bd9062002ddc565b60008262002554575060006200173c565b828202828482816200256257fe5b0414620017395760405162461bcd60e51b8152600401620009bd9062002e34565b60006200173983836040518060400160405280601a81526020017f536166654d6174683a206469766973696f6e206279207a65726f00000000000081525060008183620025e55760405162461bcd60e51b8152600401620009bd919062002ce5565b506000838581620025f257fe5b0495945050505050565b828054600181600116156101000203166002900490600052602060002090601f016020900481019282601f106200263f57805160ff19168380011785556200266f565b828001600101855582156200266f579182015b828111156200266f57825182559160200191906001019062002652565b506200267d9291506200268f565b5090565b61136c806200309383390190565b5b808211156200267d576000815560010162002690565b80356200173c816200307c565b600082601f830112620026c4578081fd5b620026d0606062003033565b9050808284606085011115620026e557600080fd5b60005b600381101562002715578135620026ff816200307c565b83526020928301929190910190600101620026e8565b50505092915050565b600082601f8301126200272f578081fd5b81356200274662002740826200305b565b62003033565b818152915060208083019084810160005b84811015620027845762002771888484358a0101620027e5565b8452928201929082019060010162002757565b505050505092915050565b600082601f830112620027a0578081fd5b620027ac608062003033565b9050808284608085011115620027c157600080fd5b60005b600481101562002715578135835260209283019290910190600101620027c4565b600082601f830112620027f6578081fd5b813567ffffffffffffffff8111156200280d578182fd5b62002822601f8201601f191660200162003033565b91508082528360208285010111156200283a57600080fd5b8060208401602084013760009082016020015292915050565b60006020828403121562002865578081fd5b813562001739816200307c565b60006020828403121562002884578081fd5b815162001739816200307c565b60006020808385031215620028a4578182fd5b825167ffffffffffffffff811115620028bb578283fd5b8301601f81018513620028cc578283fd5b8051620028dd62002740826200305b565b8181528381019083850185840285018601891015620028fa578687fd5b8694505b838510156200291e578051835260019490940193918501918501620028fe565b50979650505050505050565b6000602082840312156200293c578081fd5b8151801515811462001739578182fd5b6000602082840312156200295e578081fd5b5051919050565b60008060008060008060008060006101c08a8c03121562002984578485fd5b620029908b8b620026a6565b9850620029a18b60208c01620026b3565b9750620029b28b60808c01620026a6565b9650620029c38b60a08c01620026a6565b955060c08a013567ffffffffffffffff80821115620029e0578687fd5b620029ee8d838e01620027e5565b9650620029ff8d60e08e016200278f565b955062002a118d6101608e01620026a6565b94506101808c013591508082111562002a28578384fd5b62002a368d838e01620027e5565b93506101a08c013591508082111562002a4d578283fd5b5062002a5c8c828d016200271e565b9150509295985092959850929598565b60006020828403121562002a7e578081fd5b5035919050565b60008060006060848603121562002a9a578283fd5b505081359360208301359350604090920135919050565b6000815180845260208085019450808401835b8381101562002aeb5781516001600160a01b03168752958201959082019060010162002ac4565b509495945050505050565b60008151808452815b8181101562002b1d5760208185018101518683018201520162002aff565b8181111562002b2f5782602083870101525b50601f01601f19169290920160200192915050565b6001600160a01b0391909116815260200190565b6001600160a01b039384168152919092166020820152604081019190915260600190565b6001600160a01b03929092168252602082015260400190565b6001600160a01b03939093168352602083019190915261ffff16604082015260600190565b60006020825262001739602083018462002ab1565b6020808252825182820181905260009190848201906040850190845b8181101562002c125783516001600160a01b03168352928401929184019160010162002beb565b50909695505050505050565b6000602080830181845280855180835260408601915060408482028701019250838701855b8281101562002c7557603f1988860301845262002c6285835162002af6565b9450928501929085019060010162002c43565b5092979650505050505050565b6020808252825182820181905260009190848201906040850190845b8181101562002c125783518352928401929184019160010162002c9e565b901515815260200190565b90815260200190565b602081016004831062002cdf57fe5b91905290565b60006020825262001739602083018462002af6565b60208082526014908201527314185d5cd8589b194e881b9bdd081c185d5cd95960621b604082015260600190565b60208082526026908201527f4f776e61626c653a206e6577206f776e657220697320746865207a65726f206160408201526564647265737360d01b606082015260800190565b6020808252601b908201527f536166654d6174683a206164646974696f6e206f766572666c6f770000000000604082015260600190565b60208082526018908201527f4f7261636c6520686173206e6f742066696e616c697365640000000000000000604082015260600190565b6020808252601490820152731499599d5b99081bd9881155120819985a5b195960621b604082015260600190565b60208082526010908201526f14185d5cd8589b194e881c185d5cd95960821b604082015260600190565b60208082526021908201527f536166654d6174683a206d756c7469706c69636174696f6e206f766572666c6f6040820152607760f81b606082015260800190565b6020808252601d908201527f436f6e747261637420616c726561647920696e697469616c697a65642e000000604082015260600190565b6020808252818101527f4f776e61626c653a2063616c6c6572206973206e6f7420746865206f776e6572604082015260600190565b60208082526026908201527f66756e6374696f6e2063616e6e6f742062652063616c6c656420617420746869604082015265732074696d6560d01b606082015260800190565b60208082526014908201527310d85cda081d1c985b9cd9995c8819985a5b195960621b604082015260600190565b6020808252601f908201527f5265656e7472616e637947756172643a207265656e7472616e742063616c6c00604082015260600190565b60008382526040602083015262002fa7604083018462002ab1565b949350505050565b60008582526080602083015262002fca608083018662002ab1565b6001600160a01b03949094166040830152506060015292915050565b600087825260c060208301526200300160c083018862002af6565b6001600160a01b039690961660408301525063ffffffff938416606082015291909216608082015260a0015292915050565b60405181810167ffffffffffffffff811182821017156200305357600080fd5b604052919050565b600067ffffffffffffffff82111562003072578081fd5b5060209081020190565b6001600160a01b038116811462001c5a57600080fdfe60806040523480156200001157600080fd5b506040516200136c3803806200136c833981810160405260208110156200003757600080fd5b81019080805160405193929190846401000000008211156200005857600080fd5b9083019060208201858111156200006e57600080fd5b82516401000000008111828201881017156200008957600080fd5b82525081516020918201929091019080838360005b83811015620000b85781810151838201526020016200009e565b50505050905090810190601f168015620000e65780820380516001836020036101000a031916815260200191505b5060408181019052600281526126a160f11b60208083019190915285518695509193506200011c925060039190850190620001af565b50805162000132906004906020840190620001af565b50506005805460ff191660121790555060006200014e620001ab565b60058054610100600160a81b0319166101006001600160a01b03841690810291909117909155604051919250906000907f8be0079c531659141344cd1fd0a4f28419497f9722a3daafe3b4186f6b6457e0908290a350506200024b565b3390565b828054600181600116156101000203166002900490600052602060002090601f016020900481019282601f10620001f257805160ff191683800117855562000222565b8280016001018555821562000222579182015b828111156200022257825182559160200191906001019062000205565b506200023092915062000234565b5090565b5b8082111562000230576000815560010162000235565b611111806200025b6000396000f3fe6080604052600436106100f75760003560e01c8063715018a61161008a578063a457c2d711610059578063a457c2d7146103a5578063a9059cbb146103de578063dd62ed3e14610417578063f2fde38b14610452576100fe565b8063715018a6146103115780638da5cb5b1461032657806395d89b41146103575780639dc29fac1461036c576100fe565b8063313ce567116100c6578063313ce56714610241578063395093511461026c57806340c10f19146102a557806370a08231146102de576100fe565b806306fdde0314610100578063095ea7b31461018a57806318160ddd146101d757806323b872dd146101fe576100fe565b366100fe57005b005b34801561010c57600080fd5b50610115610485565b6040805160208082528351818301528351919283929083019185019080838360005b8381101561014f578181015183820152602001610137565b50505050905090810190601f16801561017c5780820380516001836020036101000a031916815260200191505b509250505060405180910390f35b34801561019657600080fd5b506101c3600480360360408110156101ad57600080fd5b506001600160a01b03813516906020013561051b565b604080519115158252519081900360200190f35b3480156101e357600080fd5b506101ec610538565b60408051918252519081900360200190f35b34801561020a57600080fd5b506101c36004803603606081101561022157600080fd5b506001600160a01b0381358116916020810135909116906040013561053e565b34801561024d57600080fd5b506102566105c5565b6040805160ff9092168252519081900360200190f35b34801561027857600080fd5b506101c36004803603604081101561028f57600080fd5b506001600160a01b0381351690602001356105ce565b3480156102b157600080fd5b506100fe600480360360408110156102c857600080fd5b506001600160a01b03813516906020013561061c565b3480156102ea57600080fd5b506101ec6004803603602081101561030157600080fd5b50356001600160a01b0316610687565b34801561031d57600080fd5b506100fe6106a2565b34801561033257600080fd5b5061033b61074f565b604080516001600160a01b039092168252519081900360200190f35b34801561036357600080fd5b50610115610763565b34801561037857600080fd5b506100fe6004803603604081101561038f57600080fd5b506001600160a01b0381351690602001356107c4565b3480156103b157600080fd5b506101c3600480360360408110156103c857600080fd5b506001600160a01b03813516906020013561082b565b3480156103ea57600080fd5b506101c36004803603604081101561040157600080fd5b506001600160a01b038135169060200135610893565b34801561042357600080fd5b506101ec6004803603604081101561043a57600080fd5b506001600160a01b03813581169160200135166108a7565b34801561045e57600080fd5b506100fe6004803603602081101561047557600080fd5b50356001600160a01b03166108d2565b60038054604080516020601f60026000196101006001881615020190951694909404938401819004810282018101909252828152606093909290918301828280156105115780601f106104e657610100808354040283529160200191610511565b820191906000526020600020905b8154815290600101906020018083116104f457829003601f168201915b5050505050905090565b600061052f6105286109db565b84846109df565b50600192915050565b60025490565b600061054b848484610acb565b6105bb846105576109db565b6105b685604051806060016040528060288152602001611005602891396001600160a01b038a166000908152600160205260408120906105956109db565b6001600160a01b031681526020810191909152604001600020549190610c26565b6109df565b5060019392505050565b60055460ff1690565b600061052f6105db6109db565b846105b685600160006105ec6109db565b6001600160a01b03908116825260208083019390935260409182016000908120918c168152925290205490610cbd565b6106246109db565b60055461010090046001600160a01b03908116911614610679576040805162461bcd60e51b8152602060048201819052602482015260008051602061102d833981519152604482015290519081900360640190fd5b6106838282610d1e565b5050565b6001600160a01b031660009081526020819052604090205490565b6106aa6109db565b60055461010090046001600160a01b039081169116146106ff576040805162461bcd60e51b8152602060048201819052602482015260008051602061102d833981519152604482015290519081900360640190fd5b60055460405160009161010090046001600160a01b0316907f8be0079c531659141344cd1fd0a4f28419497f9722a3daafe3b4186f6b6457e0908390a360058054610100600160a81b0319169055565b60055461010090046001600160a01b031690565b60048054604080516020601f60026000196101006001881615020190951694909404938401819004810282018101909252828152606093909290918301828280156105115780601f106104e657610100808354040283529160200191610511565b6107cc6109db565b60055461010090046001600160a01b03908116911614610821576040805162461bcd60e51b8152602060048201819052602482015260008051602061102d833981519152604482015290519081900360640190fd5b6106838282610e0e565b600061052f6108386109db565b846105b6856040518060600160405280602581526020016110b760259139600160006108626109db565b6001600160a01b03908116825260208083019390935260409182016000908120918d16815292529020549190610c26565b600061052f6108a06109db565b8484610acb565b6001600160a01b03918216600090815260016020908152604080832093909416825291909152205490565b6108da6109db565b60055461010090046001600160a01b0390811691161461092f576040805162461bcd60e51b8152602060048201819052602482015260008051602061102d833981519152604482015290519081900360640190fd5b6001600160a01b0381166109745760405162461bcd60e51b8152600401808060200182810382526026815260200180610f976026913960400191505060405180910390fd5b6005546040516001600160a01b0380841692610100900416907f8be0079c531659141344cd1fd0a4f28419497f9722a3daafe3b4186f6b6457e090600090a3600580546001600160a01b0390921661010002610100600160a81b0319909216919091179055565b3390565b6001600160a01b038316610a245760405162461bcd60e51b81526004018080602001828103825260248152602001806110936024913960400191505060405180910390fd5b6001600160a01b038216610a695760405162461bcd60e51b8152600401808060200182810382526022815260200180610fbd6022913960400191505060405180910390fd5b6001600160a01b03808416600081815260016020908152604080832094871680845294825291829020859055815185815291517f8c5be1e5ebec7d5bd14f71427d1e84f3dd0314c0f7b2291e5b200ac8c7c3b9259281900390910190a3505050565b6001600160a01b038316610b105760405162461bcd60e51b815260040180806020018281038252602581526020018061106e6025913960400191505060405180910390fd5b6001600160a01b038216610b555760405162461bcd60e51b8152600401808060200182810382526023815260200180610f526023913960400191505060405180910390fd5b610b60838383610f0a565b610b9d81604051806060016040528060268152602001610fdf602691396001600160a01b0386166000908152602081905260409020549190610c26565b6001600160a01b038085166000908152602081905260408082209390935590841681522054610bcc9082610cbd565b6001600160a01b038084166000818152602081815260409182902094909455805185815290519193928716927fddf252ad1be2c89b69c2b068fc378daa952ba7f163c4a11628f55a4df523b3ef92918290030190a3505050565b60008184841115610cb55760405162461bcd60e51b81526004018080602001828103825283818151815260200191508051906020019080838360005b83811015610c7a578181015183820152602001610c62565b50505050905090810190601f168015610ca75780820380516001836020036101000a031916815260200191505b509250505060405180910390fd5b505050900390565b600082820183811015610d17576040805162461bcd60e51b815260206004820152601b60248201527f536166654d6174683a206164646974696f6e206f766572666c6f770000000000604482015290519081900360640190fd5b9392505050565b6001600160a01b038216610d79576040805162461bcd60e51b815260206004820152601f60248201527f45524332303a206d696e7420746f20746865207a65726f206164647265737300604482015290519081900360640190fd5b610d8560008383610f0a565b600254610d929082610cbd565b6002556001600160a01b038216600090815260208190526040902054610db89082610cbd565b6001600160a01b0383166000818152602081815260408083209490945583518581529351929391927fddf252ad1be2c89b69c2b068fc378daa952ba7f163c4a11628f55a4df523b3ef9281900390910190a35050565b6001600160a01b038216610e535760405162461bcd60e51b815260040180806020018281038252602181526020018061104d6021913960400191505060405180910390fd5b610e5f82600083610f0a565b610e9c81604051806060016040528060228152602001610f75602291396001600160a01b0385166000908152602081905260409020549190610c26565b6001600160a01b038316600090815260208190526040902055600254610ec29082610f0f565b6002556040805182815290516000916001600160a01b038516917fddf252ad1be2c89b69c2b068fc378daa952ba7f163c4a11628f55a4df523b3ef9181900360200190a35050565b505050565b6000610d1783836040518060400160405280601e81526020017f536166654d6174683a207375627472616374696f6e206f766572666c6f770000815250610c2656fe45524332303a207472616e7366657220746f20746865207a65726f206164647265737345524332303a206275726e20616d6f756e7420657863656564732062616c616e63654f776e61626c653a206e6577206f776e657220697320746865207a65726f206164647265737345524332303a20617070726f766520746f20746865207a65726f206164647265737345524332303a207472616e7366657220616d6f756e7420657863656564732062616c616e636545524332303a207472616e7366657220616d6f756e74206578636565647320616c6c6f77616e63654f776e61626c653a2063616c6c6572206973206e6f7420746865206f776e657245524332303a206275726e2066726f6d20746865207a65726f206164647265737345524332303a207472616e736665722066726f6d20746865207a65726f206164647265737345524332303a20617070726f76652066726f6d20746865207a65726f206164647265737345524332303a2064656372656173656420616c6c6f77616e63652062656c6f77207a65726fa2646970667358221220f1ac81afec8ee7186c18bf8841711431e2965f878d83733e78b99013e0b29c8f64736f6c634300060c003343616e6e6f74207769746864726177206d6f7265207468616e206465706f7369746564a2646970667358221220a75a48e0e03565caf35bdca697b63ee7e76dff85c6dc761a9fbc3c21f3559bf364736f6c634300060c0033",
  "immutableReferences": {},
  "source": "//SPDX-License-Identifier: UNLICENSED\npragma solidity >=0.4.21 <0.7.0;\npragma experimental ABIEncoderV2;\n\n// this is only for ganache testing\n\nimport '../MBMarket.sol';\n\ncontract magicBetMockup is MBMarket {\n    function newFunction() external pure returns (uint256) {\n        return 1337;\n    }\n}\n",
  "sourcePath": "/Users/brenfife/Desktop/MagicBet-Contracts/contracts/mockups/magicBetMockup.sol",
  "compiler": {
    "name": "solc",
    "version": "0.6.12+commit.27d51765.Emscripten.clang"
  },
  "schemaVersion": "3.2.3",
  "updatedAt": "2020-08-19T03:35:10.157Z",
  "devdoc": {
    "kind": "dev",
    "methods": {
      "owner()": {
        "details": "Returns the address of the current owner."
      },
      "paused()": {
        "details": "Returns true if the contract is paused, and false otherwise."
      },
      "renounceOwnership()": {
        "details": "Leaves the contract without owner. It will not be possible to call `onlyOwner` functions anymore. Can only be called by the current owner. NOTE: Renouncing ownership will leave the contract without an owner, thereby removing any functionality that is only available to the owner."
      },
      "transferOwnership(address)": {
        "details": "Transfers ownership of the contract to a new account (`newOwner`). Can only be called by the current owner."
      }
    },
    "version": 1
  },
  "userdoc": {
    "kind": "user",
    "methods": {},
    "version": 1
  }
}