{
  "contractName": "MBMarketFactory",
  "abi": [
    {
      "inputs": [
        {
          "internalType": "contract Dai",
          "name": "_daiAddress",
          "type": "address"
        },
        {
          "internalType": "contract IaToken",
          "name": "_aTokenAddress",
          "type": "address"
        },
        {
          "internalType": "contract IAaveLendingPool",
          "name": "_aaveLpAddress",
          "type": "address"
        },
        {
          "internalType": "contract IAaveLendingPoolCore",
          "name": "_aaveLpcoreAddress",
          "type": "address"
        },
        {
          "internalType": "contract IRealitio",
          "name": "_realitioAddress",
          "type": "address"
        },
        {
          "internalType": "contract IUniswapV2Router02",
          "name": "_uniswapRouter",
          "type": "address"
        }
      ],
      "stateMutability": "nonpayable",
      "type": "constructor"
    },
    {
      "anonymous": false,
      "inputs": [
        {
          "indexed": false,
          "internalType": "address",
          "name": "contractAddress",
          "type": "address"
        }
      ],
      "name": "MarketCreated",
      "type": "event"
    },
    {
      "anonymous": false,
      "inputs": [
        {
          "indexed": true,
          "internalType": "address",
          "name": "previousOwner",
          "type": "address"
        },
        {
          "indexed": true,
          "internalType": "address",
          "name": "newOwner",
          "type": "address"
        }
      ],
      "name": "OwnershipTransferred",
      "type": "event"
    },
    {
      "anonymous": false,
      "inputs": [
        {
          "indexed": false,
          "internalType": "address",
          "name": "account",
          "type": "address"
        }
      ],
      "name": "Paused",
      "type": "event"
    },
    {
      "anonymous": false,
      "inputs": [
        {
          "indexed": false,
          "internalType": "address",
          "name": "account",
          "type": "address"
        }
      ],
      "name": "Unpaused",
      "type": "event"
    },
    {
      "inputs": [],
      "name": "aToken",
      "outputs": [
        {
          "internalType": "contract IaToken",
          "name": "",
          "type": "address"
        }
      ],
      "stateMutability": "view",
      "type": "function"
    },
    {
      "inputs": [],
      "name": "aaveLendingPool",
      "outputs": [
        {
          "internalType": "contract IAaveLendingPool",
          "name": "",
          "type": "address"
        }
      ],
      "stateMutability": "view",
      "type": "function"
    },
    {
      "inputs": [],
      "name": "aaveLendingPoolCore",
      "outputs": [
        {
          "internalType": "contract IAaveLendingPoolCore",
          "name": "",
          "type": "address"
        }
      ],
      "stateMutability": "view",
      "type": "function"
    },
    {
      "inputs": [],
      "name": "dai",
      "outputs": [
        {
          "internalType": "contract Dai",
          "name": "",
          "type": "address"
        }
      ],
      "stateMutability": "view",
      "type": "function"
    },
    {
      "inputs": [
        {
          "internalType": "address",
          "name": "",
          "type": "address"
        }
      ],
      "name": "mappingOfMarkets",
      "outputs": [
        {
          "internalType": "bool",
          "name": "",
          "type": "bool"
        }
      ],
      "stateMutability": "view",
      "type": "function"
    },
    {
      "inputs": [
        {
          "internalType": "uint256",
          "name": "",
          "type": "uint256"
        }
      ],
      "name": "marketAddresses",
      "outputs": [
        {
          "internalType": "address",
          "name": "",
          "type": "address"
        }
      ],
      "stateMutability": "view",
      "type": "function"
    },
    {
      "inputs": [],
      "name": "mostRecentContract",
      "outputs": [
        {
          "internalType": "address",
          "name": "",
          "type": "address"
        }
      ],
      "stateMutability": "view",
      "type": "function"
    },
    {
      "inputs": [],
      "name": "owner",
      "outputs": [
        {
          "internalType": "address",
          "name": "",
          "type": "address"
        }
      ],
      "stateMutability": "view",
      "type": "function"
    },
    {
      "inputs": [],
      "name": "paused",
      "outputs": [
        {
          "internalType": "bool",
          "name": "",
          "type": "bool"
        }
      ],
      "stateMutability": "view",
      "type": "function"
    },
    {
      "inputs": [],
      "name": "realitio",
      "outputs": [
        {
          "internalType": "contract IRealitio",
          "name": "",
          "type": "address"
        }
      ],
      "stateMutability": "view",
      "type": "function"
    },
    {
      "inputs": [],
      "name": "renounceOwnership",
      "outputs": [],
      "stateMutability": "nonpayable",
      "type": "function"
    },
    {
      "inputs": [
        {
          "internalType": "address",
          "name": "newOwner",
          "type": "address"
        }
      ],
      "name": "transferOwnership",
      "outputs": [],
      "stateMutability": "nonpayable",
      "type": "function"
    },
    {
      "inputs": [],
      "name": "uniswapRouter",
      "outputs": [
        {
          "internalType": "contract IUniswapV2Router02",
          "name": "",
          "type": "address"
        }
      ],
      "stateMutability": "view",
      "type": "function"
    },
    {
      "inputs": [
        {
          "internalType": "string",
          "name": "_eventName",
          "type": "string"
        },
        {
          "internalType": "uint256",
          "name": "_marketOpeningTime",
          "type": "uint256"
        },
        {
          "internalType": "uint256",
          "name": "_marketLockingTime",
          "type": "uint256"
        },
        {
          "internalType": "uint32",
          "name": "_marketResolutionTime",
          "type": "uint32"
        },
        {
          "internalType": "uint32",
          "name": "_timeout",
          "type": "uint32"
        },
        {
          "internalType": "address",
          "name": "_arbitrator",
          "type": "address"
        },
        {
          "internalType": "string",
          "name": "_realitioQuestion",
          "type": "string"
        },
        {
          "internalType": "string[]",
          "name": "_outcomeNamesArray",
          "type": "string[]"
        }
      ],
      "name": "createMarket",
      "outputs": [
        {
          "internalType": "contract MBMarket",
          "name": "",
          "type": "address"
        }
      ],
      "stateMutability": "nonpayable",
      "type": "function"
    },
    {
      "inputs": [],
      "name": "getMarkets",
      "outputs": [
        {
          "internalType": "address[]",
          "name": "",
          "type": "address[]"
        }
      ],
      "stateMutability": "view",
      "type": "function"
    },
    {
      "inputs": [],
      "name": "destroy",
      "outputs": [],
      "stateMutability": "nonpayable",
      "type": "function"
    },
    {
      "inputs": [
        {
          "internalType": "address payable",
          "name": "marketAddress",
          "type": "address"
        }
      ],
      "name": "disableMarket",
      "outputs": [
        {
          "internalType": "bool",
          "name": "",
          "type": "bool"
        }
      ],
      "stateMutability": "nonpayable",
      "type": "function"
    }
  ],
  "bytecode": "0x60806040523480156200001157600080fd5b50604051620053da380380620053da833981016040819052620000349162000117565b6000620000496001600160e01b036200011316565b600080546001600160a01b0319166001600160a01b0383169081178255604051929350917f8be0079c531659141344cd1fd0a4f28419497f9722a3daafe3b4186f6b6457e0908290a3506000805460ff60a01b19169055600180546001600160a01b03199081166001600160a01b0398891617909155600280548216968816969096179095556003805486169487169490941790935560048054851692861692909217909155600580548416918516919091179055600680549092169216919091179055620001c3565b3390565b60008060008060008060c0878903121562000130578182fd5b86516200013d81620001aa565b60208801519096506200015081620001aa565b60408801519095506200016381620001aa565b60608801519094506200017681620001aa565b60808801519093506200018981620001aa565b60a08801519092506200019c81620001aa565b809150509295509295509295565b6001600160a01b0381168114620001c057600080fd5b50565b61520780620001d36000396000f3fe60806040523480156200001157600080fd5b5060043610620001245760003560e01c8063a0c1f15e11620000b1578063e9d337b8116200007b578063e9d337b814620001f1578063ec2c901614620001fb578063f2fde38b1462000214578063f4b9fa75146200022b578063f55a898c14620002355762000124565b8063a0c1f15e14620001bc578063bc8802a214620001c6578063d3f8fb8114620001d0578063e35a609d14620001e75762000124565b8063735de9f711620000f3578063735de9f71462000187578063799d9727146200019157806383197ef014620001a85780638da5cb5b14620001b25762000124565b8063350293a114620001295780633ca5583314620001585780635c975abb1462000162578063715018a6146200017b575b600080fd5b620001406200013a36600462000a73565b6200024c565b6040516200014f919062000b6c565b60405180910390f35b6200014062000274565b6200016c62000283565b6040516200014f919062000bcf565b6200018562000293565b005b6200014062000320565b62000140620001a236600462000996565b6200032f565b620001856200051f565b6200014062000588565b6200014062000597565b62000140620005a6565b6200016c620001e136600462000955565b620005b5565b62000140620005ca565b62000140620005d9565b62000205620005e8565b6040516200014f919062000b80565b620001856200022536600462000955565b6200064c565b620001406200070a565b6200016c6200024636600462000955565b62000719565b600881815481106200025a57fe5b6000918252602090912001546001600160a01b0316905081565b6004546001600160a01b031681565b600054600160a01b900460ff1690565b6200029d62000810565b6000546001600160a01b03908116911614620002d65760405162461bcd60e51b8152600401620002cd9062000dae565b60405180910390fd5b600080546040516001600160a01b03909116907f8be0079c531659141344cd1fd0a4f28419497f9722a3daafe3b4186f6b6457e0908390a3600080546001600160a01b0319169055565b6006546001600160a01b031681565b60006200033b62000810565b6000546001600160a01b039081169116146200036b5760405162461bcd60e51b8152600401620002cd9062000dae565b600054600160a01b900460ff1615620003985760405162461bcd60e51b8152600401620002cd9062000d84565b620003a262000814565b506040805160808101825289815260208082018a905263ffffffff808a16838501528816606080840191909152600154845191820185526002546001600160a01b0390811683526003548116938301939093526004548316828601526005546006549551949560009592851694918216929116908f9087908c908c908c9033906200042d9062000832565b620004429a9998979695949392919062000bda565b604051809103906000f0801580156200045f573d6000803e3d6000fd5b506008805460018181019092557ff3f7a9fe364faab93b216da50a3214154f22a0a2b415b23a84c8169e8b636ee30180546001600160a01b0384166001600160a01b0319918216811790925560008281526007602052604090819020805460ff19169094179093556009805490911690911790555190915081907fb27af04ab132a0b6bba5de2a84bbbadcc31c20c33932936a992ae6ff951259c3906200050890839062000b6c565b60405180910390a1509a9950505050505050505050565b6200052962000810565b6000546001600160a01b03908116911614620005595760405162461bcd60e51b8152600401620002cd9062000dae565b600054600160a01b900460ff16620005855760405162461bcd60e51b8152600401620002cd9062000cbf565b33ff5b6000546001600160a01b031690565b6002546001600160a01b031681565b6005546001600160a01b031681565b60076020526000908152604090205460ff1681565b6009546001600160a01b031681565b6003546001600160a01b031681565b606060088054806020026020016040519081016040528092919081815260200182805480156200064257602002820191906000526020600020905b81546001600160a01b0316815260019091019060200180831162000623575b5050505050905090565b6200065662000810565b6000546001600160a01b03908116911614620006865760405162461bcd60e51b8152600401620002cd9062000dae565b6001600160a01b038116620006af5760405162461bcd60e51b8152600401620002cd9062000ced565b600080546040516001600160a01b03808516939216917f8be0079c531659141344cd1fd0a4f28419497f9722a3daafe3b4186f6b6457e091a3600080546001600160a01b0319166001600160a01b0392909216919091179055565b6001546001600160a01b031681565b60006200072562000810565b6000546001600160a01b03908116911614620007555760405162461bcd60e51b8152600401620002cd9062000dae565b6001600160a01b038216600090815260076020526040902054829060ff16620007925760405162461bcd60e51b8152600401620002cd9062000d33565b826001600160a01b031663894ba8336040518163ffffffff1660e01b8152600401602060405180830381600087803b158015620007ce57600080fd5b505af1158015620007e3573d6000803e3d6000fd5b505050506040513d601f19601f8201168201806040525081019062000809919062000974565b9392505050565b3390565b60405180608001604052806004906020820280368337509192915050565b6143ad8062000e2583390190565b80356200084d8162000e0b565b92915050565b600082601f83011262000864578081fd5b813567ffffffffffffffff8111156200087b578182fd5b60206200088c818284020162000de3565b828152925080830184820160005b84811015620008c757620008b4888584358a0101620008d2565b835291830191908301906001016200089a565b505050505092915050565b600082601f830112620008e3578081fd5b813567ffffffffffffffff811115620008fa578182fd5b6200090f601f8201601f191660200162000de3565b91508082528360208285010111156200092757600080fd5b8060208401602084013760009082016020015292915050565b803563ffffffff811681146200084d57600080fd5b60006020828403121562000967578081fd5b8135620008098162000e0b565b60006020828403121562000986578081fd5b8151801515811462000809578182fd5b600080600080600080600080610100898b031215620009b3578384fd5b883567ffffffffffffffff80821115620009cb578586fd5b620009d98c838d01620008d2565b995060208b0135985060408b01359750620009f88c60608d0162000940565b965062000a098c60808d0162000940565b955062000a1a8c60a08d0162000840565b945060c08b013591508082111562000a30578384fd5b62000a3e8c838d01620008d2565b935060e08b013591508082111562000a54578283fd5b5062000a638b828c0162000853565b9150509295985092959890939650565b60006020828403121562000a85578081fd5b5035919050565b6001600160a01b03169052565b60008282518085526020808601955080818302840101818601855b8481101562000ae657601f1986840301895262000ad383835162000b1e565b9884019892509083019060010162000ab4565b5090979650505050505050565b8060005b600481101562000b1857815184526020938401939091019060010162000af7565b50505050565b60008151808452815b8181101562000b455760208185018101518683018201520162000b27565b8181111562000b575782602083870101525b50601f01601f19169290920160200192915050565b6001600160a01b0391909116815260200190565b6020808252825182820181905260009190848201906040850190845b8181101562000bc35783516001600160a01b03168352928401929184019160010162000b9c565b50909695505050505050565b901515815260200190565b6001600160a01b038b16815260006101e060208084018d845b600381101562000c1b5762000c0a83835162000a8c565b918301919083019060010162000bf3565b5050505062000c2e608084018c62000a8c565b62000c3d60a084018b62000a8c565b8060c084015262000c518184018a62000b1e565b62000c6060e085018a62000af3565b62000c7061016085018962000a8c565b83810361018085015262000c85818862000b1e565b9150508281036101a084015262000c9d818662000a99565b91505062000cb06101c083018462000a8c565b9b9a5050505050505050505050565b60208082526014908201527314185d5cd8589b194e881b9bdd081c185d5cd95960621b604082015260600190565b60208082526026908201527f4f776e61626c653a206e6577206f776e657220697320746865207a65726f206160408201526564647265737360d01b606082015260800190565b60208082526031908201527f4d757374277665206265656e20637265617465642062792074686520636f72726040820152706573706f6e64696e6720666163746f727960781b606082015260800190565b60208082526010908201526f14185d5cd8589b194e881c185d5cd95960821b604082015260600190565b6020808252818101527f4f776e61626c653a2063616c6c6572206973206e6f7420746865206f776e6572604082015260600190565b60405181810167ffffffffffffffff8111828210171562000e0357600080fd5b604052919050565b6001600160a01b038116811462000e2157600080fd5b5056fe608060405260006007556000196018553480156200001c57600080fd5b50604051620043ad380380620043ad8339810160408190526200003f9162000741565b6000620000546001600160e01b036200025816565b600080546001600160a01b0319166001600160a01b0383169081178255604051929350916000805160206200438d833981519152908290a3506000805460ff60a01b19169055600180556001600160a01b0381163314620000c357620000c3816001600160e01b036200025d16565b600280546001600160a01b03199081166001600160a01b038d811691909117928390558b5160038054841691831691909117905560208c01516004805484169183169190911781556005805484168d8416179055600680549093168b8316179092556040808d0151905163095ea7b360e01b8152939091169263095ea7b39262000153929160001991016200088b565b602060405180830381600087803b1580156200016e57600080fd5b505af115801562000183573d6000803e3d6000fd5b505050506040513d601f19601f82011682018060405250810190620001a99190620006ff565b508551620001bf90600c9060208901906200048f565b5084516008556020850151600955604085015163ffffffff16600a558151600f5560005b600f548110156200021c5762000213838281518110620001ff57fe5b60200260200101516200031c60201b60201c565b600101620001e3565b50600242620002428286888a60036020020151600a54866001600160e01b03620003f116565b600b5550620009f49a5050505050505050505050565b335b90565b620002706001600160e01b036200025816565b6000546001600160a01b03908116911614620002a95760405162461bcd60e51b8152600401620002a090620008ff565b60405180910390fd5b6001600160a01b038116620002d25760405162461bcd60e51b8152600401620002a090620008b9565b600080546040516001600160a01b03808516939216916000805160206200438d83398151915291a3600080546001600160a01b0319166001600160a01b0392909216919091179055565b600d8054600181018255600091909152815162000361917fd7b6990105719101dabeb77144f2a3385c8033acd3af97e9423a695e81ad1eb5019060208401906200048f565b50600081604051620003739062000514565b6200037f9190620008a4565b604051809103906000f0801580156200039c573d6000803e3d6000fd5b50600e80546001810182556000919091527fbb7b4a454dc3493923482f07822329ed19e8244eff582cc204f8554c3620c3fd0180546001600160a01b0319166001600160a01b03929092169190911790555050565b60055460405163762c38fd60e01b81526000916001600160a01b03169063762c38fd906200042e908a908a908a908a908a908a9060040162000934565b602060405180830381600087803b1580156200044957600080fd5b505af11580156200045e573d6000803e3d6000fd5b505050506040513d601f19601f8201168201806040525081019062000484919062000728565b979650505050505050565b828054600181600116156101000203166002900490600052602060002090601f016020900481019282601f10620004d257805160ff191683800117855562000502565b8280016001018555821562000502579182015b8281111562000502578251825591602001919060010190620004e5565b506200051092915062000522565b5090565b6113b28062002fdb83390190565b6200025a91905b8082111562000510576000815560010162000529565b80516200054c81620009db565b92915050565b600082601f83011262000563578081fd5b6200056f606062000981565b90508082846060850111156200058457600080fd5b60005b6003811015620005b45781516200059e81620009db565b8352602092830192919091019060010162000587565b50505092915050565b600082601f830112620005ce578081fd5b81516001600160401b03811115620005e4578182fd5b6020620005f5818284020162000981565b828152925080830184820160005b8481101562000630576200061d888584518a010162000691565b8352918301919083019060010162000603565b505050505092915050565b600082601f8301126200064c578081fd5b62000658608062000981565b90508082846080850111156200066d57600080fd5b60005b6004811015620005b457815183526020928301929091019060010162000670565b600082601f830112620006a2578081fd5b81516001600160401b03811115620006b8578182fd5b620006cd601f8201601f191660200162000981565b9150808252836020828501011115620006e557600080fd5b620006f8816020840160208601620009a8565b5092915050565b60006020828403121562000711578081fd5b8151801515811462000721578182fd5b9392505050565b6000602082840312156200073a578081fd5b5051919050565b6000806000806000806000806000806101e08b8d03121562000761578586fd5b6200076d8c8c6200053f565b99506200077e8c60208d0162000552565b98506200078f8c60808d016200053f565b9750620007a08c60a08d016200053f565b60c08c01519097506001600160401b0380821115620007bd578788fd5b620007cb8e838f0162000691565b9750620007dc8e60e08f016200063b565b9650620007ee8e6101608f016200053f565b95506101808d015191508082111562000805578485fd5b620008138e838f0162000691565b94506101a08d01519150808211156200082a578384fd5b50620008398d828e01620005bd565b9250506200084c8c6101c08d016200053f565b90509295989b9194979a5092959850565b6000815180845262000877816020860160208601620009a8565b601f01601f19169290920160200192915050565b6001600160a01b03929092168252602082015260400190565b6000602082526200072160208301846200085d565b60208082526026908201527f4f776e61626c653a206e6577206f776e657220697320746865207a65726f206160408201526564647265737360d01b606082015260800190565b6020808252818101527f4f776e61626c653a2063616c6c6572206973206e6f7420746865206f776e6572604082015260600190565b600087825260c060208301526200094f60c08301886200085d565b6001600160a01b039690961660408301525063ffffffff938416606082015291909216608082015260a0015292915050565b6040518181016001600160401b0381118282101715620009a057600080fd5b604052919050565b60005b83811015620009c5578181015183820152602001620009ab565b83811115620009d5576000848401525b50505050565b6001600160a01b0381168114620009f157600080fd5b50565b6125d78062000a046000396000f3fe60806040526004361061028c5760003560e01c8063826330281161015a578063c56f338c116100c1578063e9d337b81161007a578063e9d337b8146106e5578063ee8c24b8146106fa578063f1f9c33e1461071c578063f2fde38b14610731578063f4b9fa7514610751578063fd27b51e1461076657610293565b8063c56f338c14610639578063cb70495514610659578063e14dedfd1461067b578063e54f4fe314610690578063e5df8b84146106a5578063e8f033c9146106c557610293565b8063a0c1f15e11610113578063a0c1f15e146105a5578063ada8b83d146105ba578063b06a5c52146105da578063bc8802a2146105ef578063befa1e2f14610604578063c4d8dc581461061957610293565b80638263302814610527578063894ba8331461053c5780638da5cb5b146105515780639b34ae03146105665780639d7c7d391461057b578063a055ccc51461059057610293565b80634afe62b5116101fe5780635c975abb116101b75780635c975abb1461049e5780636b9ae9ca146104b3578063715018a6146104c8578063735de9f7146104dd5780638043c9c0146104f2578063807535cc1461050757610293565b80634afe62b5146103f25780634b8755ca146104055780634ecc79f71461041a578063519709c41461042f578063561a5aca1461044f5780635aa68ac01461047c57610293565b806333b16d931161025057806333b16d931461034257806335c1d34914610357578063367edd3214610384578063378aa701146103a65780633ccfd60b146103c857806349200d77146103dd57610293565b806305801f0b146102955780630b60365c146102cb578063149b5d58146102e0578063232ea3ad1461030057806327acae741461031557610293565b3661029357005b005b3480156102a157600080fd5b506102b56102b0366004612024565b61077b565b6040516102c29190612264565b60405180910390f35b3480156102d757600080fd5b506102b561078d565b3480156102ec57600080fd5b506102b56102fb366004612024565b61084a565b34801561030c57600080fd5b506102b56108ed565b34801561032157600080fd5b50610335610330366004612024565b6108f3565b6040516102c29190612281565b34801561034e57600080fd5b50610293610999565b34801561036357600080fd5b50610377610372366004612024565b6109fd565b6040516102c291906120eb565b34801561039057600080fd5b50610399610a24565b6040516102c29190612259565b3480156103b257600080fd5b506103bb610a8c565b6040516102c2919061226d565b3480156103d457600080fd5b50610293610afa565b3480156103e957600080fd5b506102b5610bcd565b61029361040036600461203c565b610bd3565b34801561041157600080fd5b506102b5610c52565b34801561042657600080fd5b506102b5610c58565b34801561043b57600080fd5b506102b561044a366004612024565b610c5e565b34801561045b57600080fd5b5061046f61046a366004612024565b610c70565b6040516102c29190612221565b34801561048857600080fd5b50610491610d02565b6040516102c29190612161565b3480156104aa57600080fd5b50610399610d64565b3480156104bf57600080fd5b506102b5610d74565b3480156104d457600080fd5b50610293610e41565b3480156104e957600080fd5b50610377610ec0565b3480156104fe57600080fd5b50610335610ecf565b34801561051357600080fd5b5061046f610522366004612024565b610f2a565b34801561053357600080fd5b506102b5610f8c565b34801561054857600080fd5b50610399610f92565b34801561055d57600080fd5b50610377610ffb565b34801561057257600080fd5b506102b561100a565b34801561058757600080fd5b506102b5611010565b34801561059c57600080fd5b506102b5611033565b3480156105b157600080fd5b50610377611061565b3480156105c657600080fd5b5061046f6105d5366004612024565b611070565b3480156105e657600080fd5b506102b56110ae565b3480156105fb57600080fd5b506103776110b4565b34801561061057600080fd5b506102b56110c3565b34801561062557600080fd5b506102b5610634366004612024565b6110c9565b34801561064557600080fd5b506102b5610654366004612024565b6111a7565b34801561066557600080fd5b5061066e6111b9565b6040516102c291906121c1565b34801561068757600080fd5b506102b5611291565b34801561069c57600080fd5b506102b5611297565b3480156106b157600080fd5b506103776106c0366004612024565b61129d565b3480156106d157600080fd5b5061046f6106e0366004612024565b6112aa565b3480156106f157600080fd5b5061037761130a565b34801561070657600080fd5b5061070f611319565b6040516102c29190612174565b34801561072857600080fd5b506102b5611379565b34801561073d57600080fd5b5061029361074c366004611f1c565b611380565b34801561075d57600080fd5b50610377611436565b34801561077257600080fd5b506102b5611445565b60106020526000908152604090205481565b6000806107a760165460155461144b90919063ffffffff16565b6003546040516370a0823160e01b81529192506000916001600160a01b03909116906370a08231906107dd9030906004016120eb565b60206040518083038186803b1580156107f557600080fd5b505afa158015610809573d6000803e3d6000fd5b505050506040513d601f19601f8201168201806040525081019061082d919061200c565b90506000610841828463ffffffff61144b16565b93505050505b90565b600080600e838154811061085a57fe5b6000918252602090912001546040516370a0823160e01b81526001600160a01b03909116915081906370a08231906108969033906004016120eb565b60206040518083038186803b1580156108ae57600080fd5b505afa1580156108c2573d6000803e3d6000fd5b505050506040513d601f19601f820116820180604052508101906108e6919061200c565b9392505050565b600a5481565b600d818154811061090057fe5b600091825260209182902001805460408051601f60026000196101006001871615020190941693909304928301859004850281018501909152818152935090918301828280156109915780601f1061096657610100808354040283529160200191610991565b820191906000526020600020905b81548152906001019060200180831161097457829003601f168201915b505050505081565b600054600160a01b900460ff16156109cc5760405162461bcd60e51b81526004016109c3906123a4565b60405180910390fd5b6109d4611496565b6109f05760405162461bcd60e51b81526004016109c39061233f565b6109f8611519565b601855565b60178181548110610a0a57fe5b6000918252602090912001546001600160a01b0316905081565b6000610a2e6115a5565b6000546001600160a01b03908116911614610a5b5760405162461bcd60e51b81526004016109c39061240f565b600054600160a01b900460ff16610a845760405162461bcd60e51b81526004016109c390612294565b6108476115a9565b6000600854421015610aa057506000610847565b6008544210158015610ab3575060095442105b15610ac057506001610847565b600019601854148015610ae75750600a54610ae4906224ea0063ffffffff61161f16565b42105b15610af457506002610847565b50600390565b600380610b05610a8c565b6003811115610b1057fe5b14610b2d5760405162461bcd60e51b81526004016109c390612444565b600054600160a01b900460ff1615610b575760405162461bcd60e51b81526004016109c3906123a4565b60026001541415610b7a5760405162461bcd60e51b81526004016109c3906124b8565b6002600155600754610b9257610b8e61078d565b6007555b60185460009081526010602052604090205415610bb657610bb1611644565b610bbe565b610bbe61168c565b610bc6611696565b5060018055565b600f5481565b600180610bde610a8c565b6003811115610be957fe5b14610c065760405162461bcd60e51b81526004016109c390612444565b600054600160a01b900460ff1615610c305760405162461bcd60e51b81526004016109c3906123a4565b610c3a83836117f7565b610c443383611a15565b610c4d82611acb565b505050565b60095481565b60085481565b60126020526000908152604090205481565b606080610c7b611b37565b60065460405163d06ca61f60e01b81529192506001600160a01b03169063d06ca61f90610cae90869085906004016124ef565b60006040518083038186803b158015610cc657600080fd5b505afa158015610cda573d6000803e3d6000fd5b505050506040513d6000823e601f3d908101601f191682016040526108e69190810190611f54565b60606017805480602002602001604051908101604052809291908181526020018280548015610d5a57602002820191906000526020600020905b81546001600160a01b03168152600190910190602001808311610d3c575b5050505050905090565b600054600160a01b900460ff1690565b600080805b600f54811015610e3b576000600e8281548110610d9257fe5b60009182526020822001546040516370a0823160e01b81526001600160a01b03909116925082906370a0823190610dcd9033906004016120eb565b60206040518083038186803b158015610de557600080fd5b505afa158015610df9573d6000803e3d6000fd5b505050506040513d601f19601f82011682018060405250810190610e1d919061200c565b9050610e2f848263ffffffff61161f16565b93505050600101610d79565b50905090565b610e496115a5565b6000546001600160a01b03908116911614610e765760405162461bcd60e51b81526004016109c39061240f565b600080546040516001600160a01b03909116907f8be0079c531659141344cd1fd0a4f28419497f9722a3daafe3b4186f6b6457e0908390a3600080546001600160a01b0319169055565b6006546001600160a01b031681565b600c805460408051602060026001851615610100026000190190941693909304601f810184900484028201840190925281815292918301828280156109915780601f1061096657610100808354040283529160200191610991565b600081815260136020908152604091829020805483518184028101840190945280845260609392830182828015610f8057602002820191906000526020600020905b815481526020019060010190808311610f6c575b50505050509050919050565b60075481565b6000610f9c6115a5565b6000546001600160a01b03908116911614610fc95760405162461bcd60e51b81526004016109c39061240f565b600054600160a01b900460ff1615610ff35760405162461bcd60e51b81526004016109c3906123a4565b610847611c2c565b6000546001600160a01b031690565b60185481565b600754600090156110245750600754610847565b61102c61078d565b9050610847565b600061105c61104f60165460155461144b90919063ffffffff16565b611057610d74565b611c92565b905090565b6003546001600160a01b031681565b60608061107b611b37565b6006546040516307c0329d60e21b81529192506001600160a01b031690631f00ca7490610cae90869085906004016124ef565b600b5481565b6005546001600160a01b031681565b60155481565b600080600e83815481106110d957fe5b60009182526020822001546040516370a0823160e01b81526001600160a01b03909116925082906370a08231906111149033906004016120eb565b60206040518083038186803b15801561112c57600080fd5b505afa158015611140573d6000803e3d6000fd5b505050506040513d601f19601f82011682018060405250810190611164919061200c565b600085815260116020908152604080832054601090925282205492935090916111929163ffffffff61144b16565b905061119e8183611c92565b95945050505050565b60116020526000908152604090205481565b6060600d805480602002602001604051908101604052809291908181526020016000905b828210156112885760008481526020908190208301805460408051601f60026000196101006001871615020190941693909304928301859004850281018501909152818152928301828280156112745780601f1061124957610100808354040283529160200191611274565b820191906000526020600020905b81548152906001019060200180831161125757829003601f168201915b5050505050815260200190600101906111dd565b50505050905090565b60165481565b60001981565b600e8181548110610a0a57fe5b600081815260146020908152604091829020805483518184028101840190945280845260609392830182828015610f805760200282019190600052602060002090815481526020019060010190808311610f6c5750505050509050919050565b6004546001600160a01b031681565b6060600e805480602002602001604051908101604052809291908181526020018280548015610d5a576020028201919060005260206000209081546001600160a01b03168152600190910190602001808311610d3c575050505050905090565b6224ea0081565b6113886115a5565b6000546001600160a01b039081169116146113b55760405162461bcd60e51b81526004016109c39061240f565b6001600160a01b0381166113db5760405162461bcd60e51b81526004016109c3906122c2565b600080546040516001600160a01b03808516939216917f8be0079c531659141344cd1fd0a4f28419497f9722a3daafe3b4186f6b6457e091a3600080546001600160a01b0319166001600160a01b0392909216919091179055565b6002546001600160a01b031681565b60175490565b600061148d83836040518060400160405280601e81526020017f536166654d6174683a207375627472616374696f6e206f766572666c6f770000815250611cc7565b90505b92915050565b600554600b54604051633fc6a14f60e11b81526000926001600160a01b031691637f8d429e916114c99190600401612264565b60206040518083038186803b1580156114e157600080fd5b505afa1580156114f5573d6000803e3d6000fd5b505050506040513d601f19601f8201168201806040525081019061105c9190611fec565b600554600b5460405163684e62bf60e11b815260009283926001600160a01b039091169163d09cc57e9161154f91600401612264565b60206040518083038186803b15801561156757600080fd5b505afa15801561157b573d6000803e3d6000fd5b505050506040513d601f19601f8201168201806040525081019061159f919061200c565b91505090565b3390565b600054600160a01b900460ff166115d25760405162461bcd60e51b81526004016109c390612294565b6000805460ff60a01b191690557f5db9ee0a495bf2e6ff9c91a7834c1ba4fdd244a5e8aa4e537bd38aeae4b073aa6116086115a5565b60405161161591906120eb565b60405180910390a1565b60008282018381101561148d5760405162461bcd60e51b81526004016109c390612308565b60006116516018546110c9565b9050600061166d611660610d74565b839063ffffffff61161f16565b905080156116885761167e81611cf3565b6116883382611d23565b5050565b6000611651611033565b60005b600f548110156117f4576000600e82815481106116b257fe5b60009182526020822001546040516370a0823160e01b81526001600160a01b03909116925082906370a08231906116ed9033906004016120eb565b60206040518083038186803b15801561170557600080fd5b505afa158015611719573d6000803e3d6000fd5b505050506040513d601f19601f8201168201806040525081019061173d919061200c565b905080156117ea57600083815260116020526040902054611764908263ffffffff61161f16565b600084815260116020526040902055601654611786908263ffffffff61161f16565b601655604051632770a7eb60e21b81526001600160a01b03831690639dc29fac906117b790339085906004016120ff565b600060405180830381600087803b1580156117d157600080fd5b505af11580156117e5573d6000803e3d6000fd5b505050505b5050600101611699565b50565b6000600e838154811061180657fe5b60009182526020808320909101548583526013825260408084208054600181810183559186528486200187905587855260148452818520805491820181558552929093204292019190915590516370a0823160e01b81526001600160a01b03909116915081906370a08231906118809033906004016120eb565b60206040518083038186803b15801561189857600080fd5b505afa1580156118ac573d6000803e3d6000fd5b505050506040513d601f19601f820116820180604052508101906118d0919061200c565b611940576017805460018181019092557fc624b66cc0138b8fabc209247f72d758e1cf3343756d543badbf24212bed8c150180546001600160a01b031916331790556000848152601260205260409020546119309163ffffffff61161f16565b6000848152601260205260409020555b6040516340c10f1960e01b81526001600160a01b038216906340c10f199061196e90339086906004016120ff565b600060405180830381600087803b15801561198857600080fd5b505af115801561199c573d6000803e3d6000fd5b50506015546119b4925090508363ffffffff61161f16565b6015556000838152601060205260409020546119d6908363ffffffff61161f16565b60008481526010602052604080822092909255905133917fef3b3ae531a4f494c95e537ec1fe385cfe5c1146cb4c1d850b24bad38595804991a2505050565b3415611a2957611a2481611d55565b611688565b6002546040516323b872dd60e01b81526001600160a01b03909116906323b872dd90611a5d90859030908690600401612118565b602060405180830381600087803b158015611a7757600080fd5b505af1158015611a8b573d6000803e3d6000fd5b505050506040513d601f19601f82011682018060405250810190611aaf9190611fec565b6116885760405162461bcd60e51b81526004016109c39061248a565b60048054600254604051636968703360e11b81526001600160a01b039283169363d2d0e06693611b0293169186916000910161213c565b600060405180830381600087803b158015611b1c57600080fd5b505af1158015611b30573d6000803e3d6000fd5b5050505050565b6040805160028082526060808301845292839291906020830190803683375050600654604080516315ab88c960e31b815290519394506001600160a01b039091169263ad5c464892506004808301926020929190829003018186803b158015611b9f57600080fd5b505afa158015611bb3573d6000803e3d6000fd5b505050506040513d601f19601f82011682018060405250810190611bd79190611f38565b81600081518110611be457fe5b6001600160a01b039283166020918202929092010152600254825191169082906001908110611c0f57fe5b6001600160a01b0390921660209283029190910190910152905090565b600054600160a01b900460ff1615611c565760405162461bcd60e51b81526004016109c3906123a4565b6000805460ff60a01b1916600160a01b1790557f62e78cea01bee320cd4e420270b5ea74000d11b0c9f74754ebdbfc544b05a2586116086115a5565b600080831561148d576000611ca561078d565b905061119e85611cbb838763ffffffff611e6e16565b9063ffffffff611ea816565b60008184841115611ceb5760405162461bcd60e51b81526004016109c39190612281565b505050900390565b60035460405163db006a7560e01b81526001600160a01b039091169063db006a7590611b02908490600401612264565b60025460405163a9059cbb60e01b81526001600160a01b039091169063a9059cbb90611a5d90859085906004016120ff565b6060611d5f611b37565b60065460405163fb3bdb4160e01b81529192506001600160a01b03169063fb3bdb41903490611d9b90869086903090600f420190600401612510565b6000604051808303818588803b158015611db457600080fd5b505af1158015611dc8573d6000803e3d6000fd5b50505050506040513d6000823e601f3d908101601f19168201604052611df19190810190611f54565b506000336001600160a01b031647604051611e0b90610847565b60006040518083038185875af1925050503d8060008114611e48576040519150601f19603f3d011682016040523d82523d6000602084013e611e4d565b606091505b5050905080610c4d5760405162461bcd60e51b81526004016109c390612376565b600082611e7d57506000611490565b82820282848281611e8a57fe5b041461148d5760405162461bcd60e51b81526004016109c3906123ce565b600061148d83836040518060400160405280601a81526020017f536166654d6174683a206469766973696f6e206279207a65726f00000000000081525060008183611f065760405162461bcd60e51b81526004016109c39190612281565b506000838581611f1257fe5b0495945050505050565b600060208284031215611f2d578081fd5b813561148d8161258c565b600060208284031215611f49578081fd5b815161148d8161258c565b60006020808385031215611f66578182fd5b825167ffffffffffffffff811115611f7c578283fd5b80840185601f820112611f8d578384fd5b80519150611fa2611f9d8361256c565b612545565b8281528381019082850185850284018601891015611fbe578687fd5b8693505b84841015611fe0578051835260019390930192918501918501611fc2565b50979650505050505050565b600060208284031215611ffd578081fd5b8151801515811461148d578182fd5b60006020828403121561201d578081fd5b5051919050565b600060208284031215612035578081fd5b5035919050565b6000806040838503121561204e578081fd5b50508035926020909101359150565b6000815180845260208085019450808401835b838110156120955781516001600160a01b031687529582019590820190600101612070565b509495945050505050565b60008151808452815b818110156120c5576020818501810151868301820152016120a9565b818111156120d65782602083870101525b50601f01601f19169290920160200192915050565b6001600160a01b0391909116815260200190565b6001600160a01b03929092168252602082015260400190565b6001600160a01b039384168152919092166020820152604081019190915260600190565b6001600160a01b03939093168352602083019190915261ffff16604082015260600190565b60006020825261148d602083018461205d565b6020808252825182820181905260009190848201906040850190845b818110156121b55783516001600160a01b031683529284019291840191600101612190565b50909695505050505050565b6000602080830181845280855180835260408601915060408482028701019250838701855b8281101561221457603f198886030184526122028583516120a0565b945092850192908501906001016121e6565b5092979650505050505050565b6020808252825182820181905260009190848201906040850190845b818110156121b55783518352928401929184019160010161223d565b901515815260200190565b90815260200190565b602081016004831061227b57fe5b91905290565b60006020825261148d60208301846120a0565b60208082526014908201527314185d5cd8589b194e881b9bdd081c185d5cd95960621b604082015260600190565b60208082526026908201527f4f776e61626c653a206e6577206f776e657220697320746865207a65726f206160408201526564647265737360d01b606082015260800190565b6020808252601b908201527f536166654d6174683a206164646974696f6e206f766572666c6f770000000000604082015260600190565b60208082526018908201527f4f7261636c6520686173206e6f742066696e616c697365640000000000000000604082015260600190565b6020808252601490820152731499599d5b99081bd9881155120819985a5b195960621b604082015260600190565b60208082526010908201526f14185d5cd8589b194e881c185d5cd95960821b604082015260600190565b60208082526021908201527f536166654d6174683a206d756c7469706c69636174696f6e206f766572666c6f6040820152607760f81b606082015260800190565b6020808252818101527f4f776e61626c653a2063616c6c6572206973206e6f7420746865206f776e6572604082015260600190565b60208082526026908201527f66756e6374696f6e2063616e6e6f742062652063616c6c656420617420746869604082015265732074696d6560d01b606082015260800190565b60208082526014908201527310d85cda081d1c985b9cd9995c8819985a5b195960621b604082015260600190565b6020808252601f908201527f5265656e7472616e637947756172643a207265656e7472616e742063616c6c00604082015260600190565b600083825260406020830152612508604083018461205d565b949350505050565b600085825260806020830152612529608083018661205d565b6001600160a01b03949094166040830152506060015292915050565b60405181810167ffffffffffffffff8111828210171561256457600080fd5b604052919050565b600067ffffffffffffffff821115612582578081fd5b5060209081020190565b6001600160a01b03811681146117f457600080fdfea2646970667358221220287fc84db5608cc6edd05742903a4718302cb7d1e326bbd62f35e0dd576599fb64736f6c634300060a003360806040523480156200001157600080fd5b50604051620013b2380380620013b2833981810160405260208110156200003757600080fd5b81019080805160405193929190846401000000008211156200005857600080fd5b9083019060208201858111156200006e57600080fd5b82516401000000008111828201881017156200008957600080fd5b82525081516020918201929091019080838360005b83811015620000b85781810151838201526020016200009e565b50505050905090810190601f168015620000e65780820380516001836020036101000a031916815260200191505b5060408181019052600281526126a160f11b60208083019190915285518695509193506200011c925060039190850190620001b9565b50805162000132906004906020840190620001b9565b50506005805460ff19166012179055506000620001576001600160e01b03620001b416565b60058054610100600160a81b0319166101006001600160a01b03841690810291909117909155604051919250906000907f8be0079c531659141344cd1fd0a4f28419497f9722a3daafe3b4186f6b6457e0908290a350506200025b565b335b90565b828054600181600116156101000203166002900490600052602060002090601f016020900481019282601f10620001fc57805160ff19168380011785556200022c565b828001600101855582156200022c579182015b828111156200022c5782518255916020019190600101906200020f565b506200023a9291506200023e565b5090565b620001b691905b808211156200023a576000815560010162000245565b611147806200026b6000396000f3fe6080604052600436106100f75760003560e01c8063715018a61161008a578063a457c2d711610059578063a457c2d7146103a5578063a9059cbb146103de578063dd62ed3e14610417578063f2fde38b14610452576100fe565b8063715018a6146103115780638da5cb5b1461032657806395d89b41146103575780639dc29fac1461036c576100fe565b8063313ce567116100c6578063313ce56714610241578063395093511461026c57806340c10f19146102a557806370a08231146102de576100fe565b806306fdde0314610100578063095ea7b31461018a57806318160ddd146101d757806323b872dd146101fe576100fe565b366100fe57005b005b34801561010c57600080fd5b50610115610485565b6040805160208082528351818301528351919283929083019185019080838360005b8381101561014f578181015183820152602001610137565b50505050905090810190601f16801561017c5780820380516001836020036101000a031916815260200191505b509250505060405180910390f35b34801561019657600080fd5b506101c3600480360360408110156101ad57600080fd5b506001600160a01b03813516906020013561051b565b604080519115158252519081900360200190f35b3480156101e357600080fd5b506101ec610538565b60408051918252519081900360200190f35b34801561020a57600080fd5b506101c36004803603606081101561022157600080fd5b506001600160a01b0381358116916020810135909116906040013561053e565b34801561024d57600080fd5b506102566105cb565b6040805160ff9092168252519081900360200190f35b34801561027857600080fd5b506101c36004803603604081101561028f57600080fd5b506001600160a01b0381351690602001356105d4565b3480156102b157600080fd5b506100fe600480360360408110156102c857600080fd5b506001600160a01b038135169060200135610628565b3480156102ea57600080fd5b506101ec6004803603602081101561030157600080fd5b50356001600160a01b0316610693565b34801561031d57600080fd5b506100fe6106ae565b34801561033257600080fd5b5061033b61075b565b604080516001600160a01b039092168252519081900360200190f35b34801561036357600080fd5b5061011561076f565b34801561037857600080fd5b506100fe6004803603604081101561038f57600080fd5b506001600160a01b0381351690602001356107d0565b3480156103b157600080fd5b506101c3600480360360408110156103c857600080fd5b506001600160a01b038135169060200135610837565b3480156103ea57600080fd5b506101c36004803603604081101561040157600080fd5b506001600160a01b0381351690602001356108a5565b34801561042357600080fd5b506101ec6004803603604081101561043a57600080fd5b506001600160a01b03813581169160200135166108b9565b34801561045e57600080fd5b506100fe6004803603602081101561047557600080fd5b50356001600160a01b03166108e4565b60038054604080516020601f60026000196101006001881615020190951694909404938401819004810282018101909252828152606093909290918301828280156105115780601f106104e657610100808354040283529160200191610511565b820191906000526020600020905b8154815290600101906020018083116104f457829003601f168201915b5050505050905090565b600061052f6105286109ed565b84846109f1565b50600192915050565b60025490565b600061054b848484610add565b6105c1846105576109ed565b6105bc8560405180606001604052806028815260200161103b602891396001600160a01b038a166000908152600160205260408120906105956109ed565b6001600160a01b03168152602081019190915260400160002054919063ffffffff610c4416565b6109f1565b5060019392505050565b60055460ff1690565b600061052f6105e16109ed565b846105bc85600160006105f26109ed565b6001600160a01b03908116825260208083019390935260409182016000908120918c16815292529020549063ffffffff610cdb16565b6106306109ed565b60055461010090046001600160a01b03908116911614610685576040805162461bcd60e51b81526020600482018190526024820152600080516020611063833981519152604482015290519081900360640190fd5b61068f8282610d3c565b5050565b6001600160a01b031660009081526020819052604090205490565b6106b66109ed565b60055461010090046001600160a01b0390811691161461070b576040805162461bcd60e51b81526020600482018190526024820152600080516020611063833981519152604482015290519081900360640190fd5b60055460405160009161010090046001600160a01b0316907f8be0079c531659141344cd1fd0a4f28419497f9722a3daafe3b4186f6b6457e0908390a360058054610100600160a81b0319169055565b60055461010090046001600160a01b031690565b60048054604080516020601f60026000196101006001881615020190951694909404938401819004810282018101909252828152606093909290918301828280156105115780601f106104e657610100808354040283529160200191610511565b6107d86109ed565b60055461010090046001600160a01b0390811691161461082d576040805162461bcd60e51b81526020600482018190526024820152600080516020611063833981519152604482015290519081900360640190fd5b61068f8282610e38565b600061052f6108446109ed565b846105bc856040518060600160405280602581526020016110ed602591396001600061086e6109ed565b6001600160a01b03908116825260208083019390935260409182016000908120918d1681529252902054919063ffffffff610c4416565b600061052f6108b26109ed565b8484610add565b6001600160a01b03918216600090815260016020908152604080832093909416825291909152205490565b6108ec6109ed565b60055461010090046001600160a01b03908116911614610941576040805162461bcd60e51b81526020600482018190526024820152600080516020611063833981519152604482015290519081900360640190fd5b6001600160a01b0381166109865760405162461bcd60e51b8152600401808060200182810382526026815260200180610fcd6026913960400191505060405180910390fd5b6005546040516001600160a01b0380841692610100900416907f8be0079c531659141344cd1fd0a4f28419497f9722a3daafe3b4186f6b6457e090600090a3600580546001600160a01b0390921661010002610100600160a81b0319909216919091179055565b3390565b6001600160a01b038316610a365760405162461bcd60e51b81526004018080602001828103825260248152602001806110c96024913960400191505060405180910390fd5b6001600160a01b038216610a7b5760405162461bcd60e51b8152600401808060200182810382526022815260200180610ff36022913960400191505060405180910390fd5b6001600160a01b03808416600081815260016020908152604080832094871680845294825291829020859055815185815291517f8c5be1e5ebec7d5bd14f71427d1e84f3dd0314c0f7b2291e5b200ac8c7c3b9259281900390910190a3505050565b6001600160a01b038316610b225760405162461bcd60e51b81526004018080602001828103825260258152602001806110a46025913960400191505060405180910390fd5b6001600160a01b038216610b675760405162461bcd60e51b8152600401808060200182810382526023815260200180610f886023913960400191505060405180910390fd5b610b72838383610f40565b610bb581604051806060016040528060268152602001611015602691396001600160a01b038616600090815260208190526040902054919063ffffffff610c4416565b6001600160a01b038085166000908152602081905260408082209390935590841681522054610bea908263ffffffff610cdb16565b6001600160a01b038084166000818152602081815260409182902094909455805185815290519193928716927fddf252ad1be2c89b69c2b068fc378daa952ba7f163c4a11628f55a4df523b3ef92918290030190a3505050565b60008184841115610cd35760405162461bcd60e51b81526004018080602001828103825283818151815260200191508051906020019080838360005b83811015610c98578181015183820152602001610c80565b50505050905090810190601f168015610cc55780820380516001836020036101000a031916815260200191505b509250505060405180910390fd5b505050900390565b600082820183811015610d35576040805162461bcd60e51b815260206004820152601b60248201527f536166654d6174683a206164646974696f6e206f766572666c6f770000000000604482015290519081900360640190fd5b9392505050565b6001600160a01b038216610d97576040805162461bcd60e51b815260206004820152601f60248201527f45524332303a206d696e7420746f20746865207a65726f206164647265737300604482015290519081900360640190fd5b610da360008383610f40565b600254610db6908263ffffffff610cdb16565b6002556001600160a01b038216600090815260208190526040902054610de2908263ffffffff610cdb16565b6001600160a01b0383166000818152602081815260408083209490945583518581529351929391927fddf252ad1be2c89b69c2b068fc378daa952ba7f163c4a11628f55a4df523b3ef9281900390910190a35050565b6001600160a01b038216610e7d5760405162461bcd60e51b81526004018080602001828103825260218152602001806110836021913960400191505060405180910390fd5b610e8982600083610f40565b610ecc81604051806060016040528060228152602001610fab602291396001600160a01b038516600090815260208190526040902054919063ffffffff610c4416565b6001600160a01b038316600090815260208190526040902055600254610ef8908263ffffffff610f4516565b6002556040805182815290516000916001600160a01b038516917fddf252ad1be2c89b69c2b068fc378daa952ba7f163c4a11628f55a4df523b3ef9181900360200190a35050565b505050565b6000610d3583836040518060400160405280601e81526020017f536166654d6174683a207375627472616374696f6e206f766572666c6f770000815250610c4456fe45524332303a207472616e7366657220746f20746865207a65726f206164647265737345524332303a206275726e20616d6f756e7420657863656564732062616c616e63654f776e61626c653a206e6577206f776e657220697320746865207a65726f206164647265737345524332303a20617070726f766520746f20746865207a65726f206164647265737345524332303a207472616e7366657220616d6f756e7420657863656564732062616c616e636545524332303a207472616e7366657220616d6f756e74206578636565647320616c6c6f77616e63654f776e61626c653a2063616c6c6572206973206e6f7420746865206f776e657245524332303a206275726e2066726f6d20746865207a65726f206164647265737345524332303a207472616e736665722066726f6d20746865207a65726f206164647265737345524332303a20617070726f76652066726f6d20746865207a65726f206164647265737345524332303a2064656372656173656420616c6c6f77616e63652062656c6f77207a65726fa26469706673582212207f9c3b0197cb2a21c2d5dafed42d3fd8c385e7f2830b352e74526bc7d3bc958f64736f6c634300060a00338be0079c531659141344cd1fd0a4f28419497f9722a3daafe3b4186f6b6457e0a2646970667358221220d84aa2eec9e93e2cfd819ddbbc85b9f9bac0aec74734c9e71f457b405f2cedce64736f6c634300060a0033",
  "immutableReferences": {},
  "source": "//SPDX-License-Identifier: UNLICENSED\npragma solidity ^0.6.0;\npragma experimental ABIEncoderV2;\n\nimport '@openzeppelin/contracts/access/Ownable.sol';\nimport '@openzeppelin/contracts/utils/Pausable.sol';\nimport './MBMarket.sol';\nimport './interfaces/IAave.sol';\nimport './interfaces/IDai.sol';\nimport './interfaces/IRealitio.sol';\nimport './interfaces/IUniswapV2Router02.sol';\n\n/// @title The MagicBet factory\n/// @notice This contract allows for generating new market instances\ncontract MBMarketFactory is Ownable, Pausable {\n    Dai public dai;\n    IaToken public aToken;\n    IAaveLendingPool public aaveLendingPool;\n    IAaveLendingPoolCore public aaveLendingPoolCore;\n    IRealitio public realitio;\n    IUniswapV2Router02 public uniswapRouter;\n\n    mapping(address => bool) public mappingOfMarkets;\n    address[] public marketAddresses;\n    address public mostRecentContract;\n\n    event MarketCreated(address contractAddress);\n\n    modifier createdByThisFactory(address marketAddress) {\n        require(mappingOfMarkets[marketAddress], \"Must've been created by the corresponding factory\");\n        _;\n    }\n\n    constructor(\n        Dai _daiAddress,\n        IaToken _aTokenAddress,\n        IAaveLendingPool _aaveLpAddress,\n        IAaveLendingPoolCore _aaveLpcoreAddress,\n        IRealitio _realitioAddress,\n        IUniswapV2Router02 _uniswapRouter\n    ) public {\n        dai = _daiAddress;\n        aToken = _aTokenAddress;\n        aaveLendingPool = _aaveLpAddress;\n        aaveLendingPoolCore = _aaveLpcoreAddress;\n        realitio = _realitioAddress;\n        uniswapRouter = _uniswapRouter;\n    }\n\n    /// @notice This contract is the framework of each new market\n    /// @dev Currently, only owners can generate the markets\n    /// @param _eventName The event name\n    /// @param _marketOpeningTime When the market opens\n    /// @param _marketLockingTime When the market locks\n    /// @param _marketResolutionTime When the market is set to resolve\n    /// @param _timeout The timeout period\n    /// @param _arbitrator The arbitrator address\n    /// @param _realitioQuestion The question, formatted to suit how realitio required\n    /// @param _outcomeNamesArray The outcomes of this event\n    function createMarket(\n        string memory _eventName,\n        uint256 _marketOpeningTime,\n        uint256 _marketLockingTime,\n        uint32 _marketResolutionTime,\n        uint32 _timeout,\n        address _arbitrator,\n        string memory _realitioQuestion,\n        string[] memory _outcomeNamesArray\n    ) public virtual onlyOwner whenNotPaused returns (MBMarket) {\n        uint256[4] memory marketTimes = [_marketOpeningTime, _marketLockingTime, _marketResolutionTime, _timeout];\n        MBMarket newContract = new MBMarket({\n            _daiAddress: dai,\n            _aaveAddresses: [address(aToken), address(aaveLendingPool), address(aaveLendingPoolCore)],\n            _realitioAddress: realitio,\n            _uniswapRouter: uniswapRouter,\n            _eventName: _eventName,\n            _marketTimes: marketTimes,\n            _arbitrator: _arbitrator,\n            _realitioQuestion: _realitioQuestion,\n            _outcomeNamesArray: _outcomeNamesArray,\n            _owner: msg.sender\n        });\n        address newAddress = address(newContract);\n        marketAddresses.push(newAddress);\n        mappingOfMarkets[newAddress] = true;\n        mostRecentContract = newAddress;\n        emit MarketCreated(address(newAddress));\n        return newContract;\n    }\n\n    function getMarkets() public view returns (address[] memory) {\n        return marketAddresses;\n    }\n\n    function destroy() public onlyOwner whenPaused {\n        selfdestruct(msg.sender);\n    }\n\n    function disableMarket(address payable marketAddress)\n        public\n        onlyOwner\n        createdByThisFactory(marketAddress)\n        returns (bool)\n    {\n        return MBMarket(marketAddress).disableContract();\n    }\n}\n",
  "sourcePath": "/Users/brenfife/Desktop/MagicBet-Contracts/contracts/MBMarketFactory.sol",
  "compiler": {
    "name": "solc",
    "version": "0.6.10+commit.00c0fcaf.Emscripten.clang"
  },
  "schemaVersion": "3.2.0",
  "updatedAt": "2020-07-08T17:28:39.880Z",
  "devdoc": {
    "methods": {
      "createMarket(string,uint256,uint256,uint32,uint32,address,string,string[])": {
        "details": "Currently, only owners can generate the markets",
        "params": {
          "_arbitrator": "The arbitrator address",
          "_eventName": "The event name",
          "_marketLockingTime": "When the market locks",
          "_marketOpeningTime": "When the market opens",
          "_marketResolutionTime": "When the market is set to resolve",
          "_outcomeNamesArray": "The outcomes of this event",
          "_realitioQuestion": "The question, formatted to suit how realitio required",
          "_timeout": "The timeout period"
        }
      },
      "owner()": {
        "details": "Returns the address of the current owner."
      },
      "paused()": {
        "details": "Returns true if the contract is paused, and false otherwise."
      },
      "renounceOwnership()": {
        "details": "Leaves the contract without owner. It will not be possible to call `onlyOwner` functions anymore. Can only be called by the current owner. NOTE: Renouncing ownership will leave the contract without an owner, thereby removing any functionality that is only available to the owner."
      },
      "transferOwnership(address)": {
        "details": "Transfers ownership of the contract to a new account (`newOwner`). Can only be called by the current owner."
      }
    },
    "title": "The MagicBet factory"
  },
  "userdoc": {
    "methods": {
      "createMarket(string,uint256,uint256,uint32,uint32,address,string,string[])": {
        "notice": "This contract is the framework of each new market"
      }
    },
    "notice": "This contract allows for generating new market instances"
  }
}