{
  "contractName": "MBMarket",
  "abi": [
    {
      "anonymous": false,
      "inputs": [
        {
          "indexed": true,
          "internalType": "address",
          "name": "previousOwner",
          "type": "address"
        },
        {
          "indexed": true,
          "internalType": "address",
          "name": "newOwner",
          "type": "address"
        }
      ],
      "name": "OwnershipTransferred",
      "type": "event"
    },
    {
      "anonymous": false,
      "inputs": [
        {
          "indexed": true,
          "internalType": "address",
          "name": "participant",
          "type": "address"
        }
      ],
      "name": "ParticipantEntered",
      "type": "event"
    },
    {
      "anonymous": false,
      "inputs": [
        {
          "indexed": true,
          "internalType": "address",
          "name": "participant",
          "type": "address"
        }
      ],
      "name": "ParticipantWithdrawn",
      "type": "event"
    },
    {
      "anonymous": false,
      "inputs": [
        {
          "indexed": false,
          "internalType": "address",
          "name": "account",
          "type": "address"
        }
      ],
      "name": "Paused",
      "type": "event"
    },
    {
      "anonymous": false,
      "inputs": [
        {
          "indexed": false,
          "internalType": "enum MBMarket.States",
          "name": "state",
          "type": "uint8"
        }
      ],
      "name": "StateChanged",
      "type": "event"
    },
    {
      "anonymous": false,
      "inputs": [
        {
          "indexed": false,
          "internalType": "address",
          "name": "account",
          "type": "address"
        }
      ],
      "name": "Unpaused",
      "type": "event"
    },
    {
      "anonymous": false,
      "inputs": [
        {
          "indexed": true,
          "internalType": "address",
          "name": "winner",
          "type": "address"
        }
      ],
      "name": "WinnerSelected",
      "type": "event"
    },
    {
      "stateMutability": "payable",
      "type": "fallback"
    },
    {
      "inputs": [],
      "name": "ORACLE_TIMEOUT_TIME",
      "outputs": [
        {
          "internalType": "uint256",
          "name": "",
          "type": "uint256"
        }
      ],
      "stateMutability": "view",
      "type": "function"
    },
    {
      "inputs": [],
      "name": "UNRESOLVED_OUTCOME_RESULT",
      "outputs": [
        {
          "internalType": "uint256",
          "name": "",
          "type": "uint256"
        }
      ],
      "stateMutability": "view",
      "type": "function"
    },
    {
      "inputs": [],
      "name": "aToken",
      "outputs": [
        {
          "internalType": "contract IaToken",
          "name": "",
          "type": "address"
        }
      ],
      "stateMutability": "view",
      "type": "function"
    },
    {
      "inputs": [],
      "name": "aaveLendingPool",
      "outputs": [
        {
          "internalType": "contract IAaveLendingPool",
          "name": "",
          "type": "address"
        }
      ],
      "stateMutability": "view",
      "type": "function"
    },
    {
      "inputs": [],
      "name": "betsWithdrawn",
      "outputs": [
        {
          "internalType": "uint256",
          "name": "",
          "type": "uint256"
        }
      ],
      "stateMutability": "view",
      "type": "function"
    },
    {
      "inputs": [
        {
          "internalType": "uint256",
          "name": "",
          "type": "uint256"
        }
      ],
      "name": "betsWithdrawnPerOutcome",
      "outputs": [
        {
          "internalType": "uint256",
          "name": "",
          "type": "uint256"
        }
      ],
      "stateMutability": "view",
      "type": "function"
    },
    {
      "inputs": [],
      "name": "dai",
      "outputs": [
        {
          "internalType": "contract Dai",
          "name": "",
          "type": "address"
        }
      ],
      "stateMutability": "view",
      "type": "function"
    },
    {
      "inputs": [],
      "name": "eventName",
      "outputs": [
        {
          "internalType": "string",
          "name": "",
          "type": "string"
        }
      ],
      "stateMutability": "view",
      "type": "function"
    },
    {
      "inputs": [],
      "name": "marketLockingTime",
      "outputs": [
        {
          "internalType": "uint256",
          "name": "",
          "type": "uint256"
        }
      ],
      "stateMutability": "view",
      "type": "function"
    },
    {
      "inputs": [],
      "name": "marketOpeningTime",
      "outputs": [
        {
          "internalType": "uint256",
          "name": "",
          "type": "uint256"
        }
      ],
      "stateMutability": "view",
      "type": "function"
    },
    {
      "inputs": [],
      "name": "marketResolutionTime",
      "outputs": [
        {
          "internalType": "uint256",
          "name": "",
          "type": "uint256"
        }
      ],
      "stateMutability": "view",
      "type": "function"
    },
    {
      "inputs": [],
      "name": "maxInterest",
      "outputs": [
        {
          "internalType": "uint256",
          "name": "",
          "type": "uint256"
        }
      ],
      "stateMutability": "view",
      "type": "function"
    },
    {
      "inputs": [],
      "name": "numberOfOutcomes",
      "outputs": [
        {
          "internalType": "uint256",
          "name": "",
          "type": "uint256"
        }
      ],
      "stateMutability": "view",
      "type": "function"
    },
    {
      "inputs": [
        {
          "internalType": "uint256",
          "name": "",
          "type": "uint256"
        }
      ],
      "name": "outcomeNames",
      "outputs": [
        {
          "internalType": "string",
          "name": "",
          "type": "string"
        }
      ],
      "stateMutability": "view",
      "type": "function"
    },
    {
      "inputs": [],
      "name": "owner",
      "outputs": [
        {
          "internalType": "address",
          "name": "",
          "type": "address"
        }
      ],
      "stateMutability": "view",
      "type": "function"
    },
    {
      "inputs": [
        {
          "internalType": "uint256",
          "name": "",
          "type": "uint256"
        }
      ],
      "name": "participants",
      "outputs": [
        {
          "internalType": "address",
          "name": "",
          "type": "address"
        }
      ],
      "stateMutability": "view",
      "type": "function"
    },
    {
      "inputs": [],
      "name": "paused",
      "outputs": [
        {
          "internalType": "bool",
          "name": "",
          "type": "bool"
        }
      ],
      "stateMutability": "view",
      "type": "function"
    },
    {
      "inputs": [],
      "name": "questionId",
      "outputs": [
        {
          "internalType": "bytes32",
          "name": "",
          "type": "bytes32"
        }
      ],
      "stateMutability": "view",
      "type": "function"
    },
    {
      "inputs": [],
      "name": "realitio",
      "outputs": [
        {
          "internalType": "contract IRealitio",
          "name": "",
          "type": "address"
        }
      ],
      "stateMutability": "view",
      "type": "function"
    },
    {
      "inputs": [],
      "name": "renounceOwnership",
      "outputs": [],
      "stateMutability": "nonpayable",
      "type": "function"
    },
    {
      "inputs": [
        {
          "internalType": "address",
          "name": "",
          "type": "address"
        }
      ],
      "name": "sponsoredMoney",
      "outputs": [
        {
          "internalType": "uint256",
          "name": "",
          "type": "uint256"
        }
      ],
      "stateMutability": "view",
      "type": "function"
    },
    {
      "inputs": [
        {
          "internalType": "uint256",
          "name": "",
          "type": "uint256"
        }
      ],
      "name": "tokenAddresses",
      "outputs": [
        {
          "internalType": "contract Token",
          "name": "",
          "type": "address"
        }
      ],
      "stateMutability": "view",
      "type": "function"
    },
    {
      "inputs": [],
      "name": "totalBets",
      "outputs": [
        {
          "internalType": "uint256",
          "name": "",
          "type": "uint256"
        }
      ],
      "stateMutability": "view",
      "type": "function"
    },
    {
      "inputs": [
        {
          "internalType": "uint256",
          "name": "",
          "type": "uint256"
        }
      ],
      "name": "totalBetsPerOutcome",
      "outputs": [
        {
          "internalType": "uint256",
          "name": "",
          "type": "uint256"
        }
      ],
      "stateMutability": "view",
      "type": "function"
    },
    {
      "inputs": [],
      "name": "totalSponsoredMoney",
      "outputs": [
        {
          "internalType": "uint256",
          "name": "",
          "type": "uint256"
        }
      ],
      "stateMutability": "view",
      "type": "function"
    },
    {
      "inputs": [
        {
          "internalType": "address",
          "name": "newOwner",
          "type": "address"
        }
      ],
      "name": "transferOwnership",
      "outputs": [],
      "stateMutability": "nonpayable",
      "type": "function"
    },
    {
      "inputs": [],
      "name": "uniswapRouter",
      "outputs": [
        {
          "internalType": "contract IUniswapV2Router02",
          "name": "",
          "type": "address"
        }
      ],
      "stateMutability": "view",
      "type": "function"
    },
    {
      "inputs": [
        {
          "internalType": "uint256",
          "name": "",
          "type": "uint256"
        }
      ],
      "name": "usersPerOutcome",
      "outputs": [
        {
          "internalType": "uint256",
          "name": "",
          "type": "uint256"
        }
      ],
      "stateMutability": "view",
      "type": "function"
    },
    {
      "inputs": [],
      "name": "winningOutcome",
      "outputs": [
        {
          "internalType": "uint256",
          "name": "",
          "type": "uint256"
        }
      ],
      "stateMutability": "view",
      "type": "function"
    },
    {
      "stateMutability": "payable",
      "type": "receive"
    },
    {
      "inputs": [
        {
          "internalType": "contract Dai",
          "name": "_daiAddress",
          "type": "address"
        },
        {
          "internalType": "address[3]",
          "name": "_aaveAddresses",
          "type": "address[3]"
        },
        {
          "internalType": "contract IRealitio",
          "name": "_realitioAddress",
          "type": "address"
        },
        {
          "internalType": "contract IUniswapV2Router02",
          "name": "_uniswapRouter",
          "type": "address"
        },
        {
          "internalType": "string",
          "name": "_eventName",
          "type": "string"
        },
        {
          "internalType": "uint256[4]",
          "name": "_marketTimes",
          "type": "uint256[4]"
        },
        {
          "internalType": "address",
          "name": "_arbitrator",
          "type": "address"
        },
        {
          "internalType": "string",
          "name": "_realitioQuestion",
          "type": "string"
        },
        {
          "internalType": "string[]",
          "name": "_outcomeNamesArray",
          "type": "string[]"
        }
      ],
      "name": "initialize",
      "outputs": [],
      "stateMutability": "nonpayable",
      "type": "function"
    },
    {
      "inputs": [],
      "name": "getCurrentState",
      "outputs": [
        {
          "internalType": "enum MBMarket.States",
          "name": "",
          "type": "uint8"
        }
      ],
      "stateMutability": "view",
      "type": "function"
    },
    {
      "inputs": [],
      "name": "getOutcomeNames",
      "outputs": [
        {
          "internalType": "string[]",
          "name": "",
          "type": "string[]"
        }
      ],
      "stateMutability": "view",
      "type": "function"
    },
    {
      "inputs": [],
      "name": "getTokenAddresses",
      "outputs": [
        {
          "internalType": "contract Token[]",
          "name": "",
          "type": "address[]"
        }
      ],
      "stateMutability": "view",
      "type": "function"
    },
    {
      "inputs": [],
      "name": "getParticipants",
      "outputs": [
        {
          "internalType": "address[]",
          "name": "",
          "type": "address[]"
        }
      ],
      "stateMutability": "view",
      "type": "function"
    },
    {
      "inputs": [
        {
          "internalType": "uint256",
          "name": "_outcome",
          "type": "uint256"
        }
      ],
      "name": "getBetAmountsArray",
      "outputs": [
        {
          "internalType": "uint256[]",
          "name": "",
          "type": "uint256[]"
        }
      ],
      "stateMutability": "view",
      "type": "function"
    },
    {
      "inputs": [
        {
          "internalType": "uint256",
          "name": "_outcome",
          "type": "uint256"
        }
      ],
      "name": "getTimestampsArray",
      "outputs": [
        {
          "internalType": "uint256[]",
          "name": "",
          "type": "uint256[]"
        }
      ],
      "stateMutability": "view",
      "type": "function"
    },
    {
      "inputs": [],
      "name": "getMarketSize",
      "outputs": [
        {
          "internalType": "uint256",
          "name": "",
          "type": "uint256"
        }
      ],
      "stateMutability": "view",
      "type": "function"
    },
    {
      "inputs": [],
      "name": "getMaxTotalInterest",
      "outputs": [
        {
          "internalType": "uint256",
          "name": "",
          "type": "uint256"
        }
      ],
      "stateMutability": "view",
      "type": "function"
    },
    {
      "inputs": [],
      "name": "getTotalInterest",
      "outputs": [
        {
          "internalType": "uint256",
          "name": "",
          "type": "uint256"
        }
      ],
      "stateMutability": "view",
      "type": "function"
    },
    {
      "inputs": [
        {
          "internalType": "uint256",
          "name": "daiAmount",
          "type": "uint256"
        }
      ],
      "name": "getEstimatedETHforDAI",
      "outputs": [
        {
          "internalType": "uint256[]",
          "name": "",
          "type": "uint256[]"
        }
      ],
      "stateMutability": "view",
      "type": "function"
    },
    {
      "inputs": [
        {
          "internalType": "uint256",
          "name": "_outcome",
          "type": "uint256"
        },
        {
          "internalType": "uint256",
          "name": "_dai",
          "type": "uint256"
        },
        {
          "internalType": "uint256",
          "name": "_uniswapDeadline",
          "type": "uint256"
        }
      ],
      "name": "placeBet",
      "outputs": [],
      "stateMutability": "payable",
      "type": "function"
    },
    {
      "inputs": [],
      "name": "determineWinner",
      "outputs": [],
      "stateMutability": "nonpayable",
      "type": "function"
    },
    {
      "inputs": [],
      "name": "withdraw",
      "outputs": [],
      "stateMutability": "nonpayable",
      "type": "function"
    },
    {
      "inputs": [
        {
          "internalType": "uint256",
          "name": "sponsorAmount",
          "type": "uint256"
        }
      ],
      "name": "sponsorEvent",
      "outputs": [],
      "stateMutability": "nonpayable",
      "type": "function"
    },
    {
      "inputs": [
        {
          "internalType": "uint256",
          "name": "withdrawAmount",
          "type": "uint256"
        }
      ],
      "name": "withdrawSponsorMoney",
      "outputs": [],
      "stateMutability": "nonpayable",
      "type": "function"
    },
    {
      "inputs": [],
      "name": "disableContract",
      "outputs": [
        {
          "internalType": "bool",
          "name": "",
          "type": "bool"
        }
      ],
      "stateMutability": "nonpayable",
      "type": "function"
    },
    {
      "inputs": [],
      "name": "enableContract",
      "outputs": [
        {
          "internalType": "bool",
          "name": "",
          "type": "bool"
        }
      ],
      "stateMutability": "nonpayable",
      "type": "function"
    }
  ],
  "bytecode": "0x60806040526002805460ff19169055600060075534801561001f57600080fd5b50600061002a61008a565b600080546001600160a01b0319166001600160a01b0383169081178255604051929350917f8be0079c531659141344cd1fd0a4f28419497f9722a3daafe3b4186f6b6457e0908290a3506000805460ff60a01b191690556001805561008e565b3390565b61442d806200009e6000396000f3fe608060405260043610620002cb5760003560e01c80638da5cb5b116200017b578063e54f4fe311620000d3578063f01c28bd1162000085578063f01c28bd14620007d8578063f1f9c33e14620007fd578063f2fde38b1462000815578063f4b9fa75146200083a578063fd27b51e1462000852578063fe650b5e146200086a57620002d3565b8063e54f4fe31462000720578063e5df8b841462000738578063e71c9697146200075d578063e8f033c91462000774578063e9d337b81462000799578063ee8c24b814620007b157620002d3565b8063bc8802a2116200012d578063bc8802a21462000667578063befa1e2f146200067f578063c56f338c1462000697578063cb70495514620006bc578063d9d8c4ac14620006e3578063e14dedfd146200070857620002d3565b80638da5cb5b14620005ca5780639b34ae0314620005e25780639d7c7d3914620005fa578063a0c1f15e1462000612578063ada8b83d146200062a578063b06a5c52146200064f57620002d3565b806349200d77116200022f578063715018a611620001e1578063715018a6146200051e578063735de9f714620005365780638043c9c0146200054e578063807535cc146200056657806382633028146200059a578063894ba83314620005b257620002d3565b806349200d7714620004725780634b8755ca146200048a5780634ecc79f714620004a2578063519709c414620004ba5780635aa68ac014620004df5780635c975abb146200050657620002d3565b806327acae74116200028957806327acae74146200038c57806333b16d9314620003c057806335c1d34914620003d8578063367edd32146200040c578063378aa70114620004335780633ccfd60b146200045a57620002d3565b806305801f0b14620002d55780630b60365c146200031257806315f96022146200032a578063232ea3ad146200034f57806326f0f254146200036757620002d3565b36620002d357005b005b348015620002e257600080fd5b50620002fa620002f436600462002a42565b62000882565b60405162000309919062002c9d565b60405180910390f35b3480156200031f57600080fd5b50620002fa62000894565b3480156200033757600080fd5b50620002fa6200034936600462002829565b62000955565b3480156200035c57600080fd5b50620002fa62000967565b3480156200037457600080fd5b50620002d3620003863660046200293b565b6200096d565b3480156200039957600080fd5b50620003b1620003ab36600462002a42565b62000b32565b60405162000309919062002cbb565b348015620003cd57600080fd5b50620002d362000bdd565b348015620003e557600080fd5b50620003fd620003f736600462002a42565b62000c42565b60405162000309919062002b1a565b3480156200041957600080fd5b506200042462000c6a565b60405162000309919062002c92565b3480156200044057600080fd5b506200044b62000cdc565b60405162000309919062002ca6565b3480156200046757600080fd5b50620002d362000d4e565b3480156200047f57600080fd5b50620002fa62000e38565b3480156200049757600080fd5b50620002fa62000e3e565b348015620004af57600080fd5b50620002fa62000e44565b348015620004c757600080fd5b50620002fa620004d936600462002a42565b62000e4a565b348015620004ec57600080fd5b50620004f762000e5c565b60405162000309919062002b90565b3480156200051357600080fd5b506200042462000ec0565b3480156200052b57600080fd5b50620002d362000ed0565b3480156200054357600080fd5b50620003fd62000f54565b3480156200055b57600080fd5b50620003b162000f63565b3480156200057357600080fd5b506200058b6200058536600462002a42565b62000fc1565b60405162000309919062002c58565b348015620005a757600080fd5b50620002fa62001025565b348015620005bf57600080fd5b50620004246200102b565b348015620005d757600080fd5b50620003fd6200109e565b348015620005ef57600080fd5b50620002fa620010ad565b3480156200060757600080fd5b50620002fa620010b3565b3480156200061f57600080fd5b50620003fd620010db565b3480156200063757600080fd5b506200058b6200064936600462002a42565b620010ea565b3480156200065c57600080fd5b50620002fa6200118b565b3480156200067457600080fd5b50620003fd62001191565b3480156200068c57600080fd5b50620002fa620011a0565b348015620006a457600080fd5b50620002fa620006b636600462002a42565b620011a6565b348015620006c957600080fd5b50620006d4620011b8565b60405162000309919062002bf4565b348015620006f057600080fd5b50620002d36200070236600462002a42565b62001296565b3480156200071557600080fd5b50620002fa62001373565b3480156200072d57600080fd5b50620002fa62001379565b3480156200074557600080fd5b50620003fd6200075736600462002a42565b6200137f565b620002d36200076e36600462002a5b565b6200138d565b3480156200078157600080fd5b506200058b6200079336600462002a42565b6200141d565b348015620007a657600080fd5b50620003fd6200147f565b348015620007be57600080fd5b50620007c96200148e565b60405162000309919062002ba5565b348015620007e557600080fd5b50620002d3620007f736600462002a42565b620014f0565b3480156200080a57600080fd5b50620002fa620015e6565b3480156200082257600080fd5b50620002d36200083436600462002829565b620015ed565b3480156200084757600080fd5b50620003fd620016ab565b3480156200085f57600080fd5b50620002fa620016bf565b3480156200087757600080fd5b50620002fa620016c5565b60106020526000908152604090205481565b600080620008b0601654601554620016cb90919063ffffffff16565b6003546040516370a0823160e01b81529192506000916001600160a01b03909116906370a0823190620008e890309060040162002b1a565b60206040518083038186803b1580156200090157600080fd5b505afa15801562000916573d6000803e3d6000fd5b505050506040513d601f19601f820116820180604052508101906200093c919062002922565b905060006200094c8284620016cb565b93505050505b90565b60186020526000908152604090205481565b600a5481565b60025460ff16156200099c5760405162461bcd60e51b8152600401620009939062002e4b565b60405180910390fd5b600019601a81905560028054610100600160a81b0319166101006001600160a01b038d8116820292909217928390558b51600380546001600160a01b031990811692851692909217905560208d01516004805483169185169190911781556005805483168e8616179055600680549092168c8516179091556040808e0151905163095ea7b360e01b8152929094049092169363095ea7b39362000a429390920162002b52565b602060405180830381600087803b15801562000a5d57600080fd5b505af115801562000a72573d6000803e3d6000fd5b505050506040513d601f19601f8201168201806040525081019062000a98919062002900565b50845162000aae90600c906020880190620025d2565b5083516008556020840151600955604084015163ffffffff16600a558051600f5560005b600f5481101562000b055762000afc82828151811062000aee57fe5b602002602001015162001718565b60010162000ad2565b5060024262000b228285878960036020020151600a5486620017ed565b600b555050505050505050505050565b600d818154811062000b4057fe5b600091825260209182902001805460408051601f600260001961010060018716150201909416939093049283018590048502810185019091528181529350909183018282801562000bd55780601f1062000ba95761010080835404028352916020019162000bd5565b820191906000526020600020905b81548152906001019060200180831162000bb757829003601f168201915b505050505081565b600054600160a01b900460ff161562000c0a5760405162461bcd60e51b8152600401620009939062002de0565b62000c146200188b565b62000c335760405162461bcd60e51b8152600401620009939062002d7b565b62000c3d62001919565b601a55565b6019818154811062000c5057fe5b6000918252602090912001546001600160a01b0316905081565b600062000c76620019ab565b6000546001600160a01b0390811691161462000ca65760405162461bcd60e51b8152600401620009939062002e82565b600054600160a01b900460ff1662000cd25760405162461bcd60e51b8152600401620009939062002cd0565b62000952620019af565b600060085442101562000cf25750600062000952565b600854421015801562000d06575060095442105b1562000d155750600162000952565b600019601a5414801562000d395750600a5462000d36906224ea0062001a2c565b42105b1562000d485750600262000952565b50600390565b60038062000d5b62000cdc565b600381111562000d6757fe5b1462000d875760405162461bcd60e51b8152600401620009939062002eb7565b600054600160a01b900460ff161562000db45760405162461bcd60e51b8152600401620009939062002de0565b6002600154141562000dda5760405162461bcd60e51b8152600401620009939062002f2b565b600260015560075462000df55762000df162000894565b6007555b601a546000908152601060205260409020541562000e1d5762000e1762001a54565b62000e27565b62000e2762001a9d565b62000e3162001acc565b5060018055565b600f5481565b60095481565b60085481565b60126020526000908152604090205481565b6060601980548060200260200160405190810160405280929190818152602001828054801562000eb657602002820191906000526020600020905b81546001600160a01b0316815260019091019060200180831162000e97575b5050505050905090565b600054600160a01b900460ff1690565b62000eda620019ab565b6000546001600160a01b0390811691161462000f0a5760405162461bcd60e51b8152600401620009939062002e82565b600080546040516001600160a01b03909116907f8be0079c531659141344cd1fd0a4f28419497f9722a3daafe3b4186f6b6457e0908390a3600080546001600160a01b0319169055565b6006546001600160a01b031681565b600c805460408051602060026001851615610100026000190190941693909304601f8101849004840282018401909252818152929183018282801562000bd55780601f1062000ba95761010080835404028352916020019162000bd5565b6000818152601360209081526040918290208054835181840281018401909452808452606093928301828280156200101957602002820191906000526020600020905b81548152602001906001019080831162001004575b50505050509050919050565b60075481565b600062001037620019ab565b6000546001600160a01b03908116911614620010675760405162461bcd60e51b8152600401620009939062002e82565b600054600160a01b900460ff1615620010945760405162461bcd60e51b8152600401620009939062002de0565b6200095262001c33565b6000546001600160a01b031690565b601a5481565b60075460009015620010c9575060075462000952565b620010d362000894565b905062000952565b6003546001600160a01b031681565b606080620010f762001c9e565b6006546040516307c0329d60e21b81529192506001600160a01b031690631f00ca74906200112c908690859060040162002f62565b60006040518083038186803b1580156200114557600080fd5b505afa1580156200115a573d6000803e3d6000fd5b505050506040513d6000823e601f3d908101601f1916820160405262001184919081019062002867565b9392505050565b600b5481565b6005546001600160a01b031681565b60155481565b60116020526000908152604090205481565b6060600d805480602002602001604051908101604052809291908181526020016000905b828210156200128d5760008481526020908190208301805460408051601f6002600019610100600187161502019094169390930492830185900485028101850190915281815292830182828015620012785780601f106200124c5761010080835404028352916020019162001278565b820191906000526020600020905b8154815290600101906020018083116200125a57829003601f168201915b505050505081526020019060010190620011dc565b50505050905090565b6002546040516323b872dd60e01b81526101009091046001600160a01b0316906323b872dd90620012d09033903090869060040162002b2e565b602060405180830381600087803b158015620012eb57600080fd5b505af115801562001300573d6000803e3d6000fd5b505050506040513d601f19601f8201168201806040525081019062001326919062002900565b50620013328162001da0565b336000908152601860205260409020546200134e908262001a2c565b336000908152601860205260409020556017546200136d908262001a2c565b60175550565b60165481565b60001981565b600e818154811062000c5057fe5b6001806200139a62000cdc565b6003811115620013a657fe5b14620013c65760405162461bcd60e51b8152600401620009939062002eb7565b600054600160a01b900460ff1615620013f35760405162461bcd60e51b8152600401620009939062002de0565b620013ff848462001e15565b6200140c33848462002033565b620014178362001da0565b50505050565b600081815260146020908152604091829020805483518184028101840190945280845260609392830182828015620010195760200282019190600052602060002090815481526020019060010190808311620010045750505050509050919050565b6004546001600160a01b031681565b6060600e80548060200260200160405190810160405280929190818152602001828054801562000eb6576020028201919060005260206000209081546001600160a01b0316815260019091019060200180831162000e97575050505050905090565b6200152781604051806060016040528060238152602001620043d56023913933600090815260186020526040902054919062002100565b33600090815260186020526040902055601754620015469082620016cb565b60175562001554816200212f565b60025460405163a9059cbb60e01b81526101009091046001600160a01b03169063a9059cbb906200158c903390859060040162002b52565b602060405180830381600087803b158015620015a757600080fd5b505af1158015620015bc573d6000803e3d6000fd5b505050506040513d601f19601f82011682018060405250810190620015e2919062002900565b5050565b6224ea0081565b620015f7620019ab565b6000546001600160a01b03908116911614620016275760405162461bcd60e51b8152600401620009939062002e82565b6001600160a01b038116620016505760405162461bcd60e51b8152600401620009939062002cfe565b600080546040516001600160a01b03808516939216917f8be0079c531659141344cd1fd0a4f28419497f9722a3daafe3b4186f6b6457e091a3600080546001600160a01b0319166001600160a01b0392909216919091179055565b60025461010090046001600160a01b031681565b60195490565b60175481565b60006200170f83836040518060400160405280601e81526020017f536166654d6174683a207375627472616374696f6e206f766572666c6f77000081525062002100565b90505b92915050565b600d805460018101825560009190915281516200175d917fd7b6990105719101dabeb77144f2a3385c8033acd3af97e9423a695e81ad1eb501906020840190620025d2565b506000816040516200176f9062002657565b6200177b919062002cbb565b604051809103906000f08015801562001798573d6000803e3d6000fd5b50600e80546001810182556000919091527fbb7b4a454dc3493923482f07822329ed19e8244eff582cc204f8554c3620c3fd0180546001600160a01b0319166001600160a01b03929092169190911790555050565b60055460405163762c38fd60e01b81526000916001600160a01b03169063762c38fd906200182a908a908a908a908a908a908a9060040162002fbc565b602060405180830381600087803b1580156200184557600080fd5b505af11580156200185a573d6000803e3d6000fd5b505050506040513d601f19601f8201168201806040525081019062001880919062002922565b979650505050505050565b600554600b54604051633fc6a14f60e11b81526000926001600160a01b031691637f8d429e91620018c0919060040162002c9d565b60206040518083038186803b158015620018d957600080fd5b505afa158015620018ee573d6000803e3d6000fd5b505050506040513d601f19601f8201168201806040525081019062001914919062002900565b905090565b600554600b5460405163684e62bf60e11b815260009283926001600160a01b039091169163d09cc57e91620019519160040162002c9d565b60206040518083038186803b1580156200196a57600080fd5b505afa1580156200197f573d6000803e3d6000fd5b505050506040513d601f19601f82011682018060405250810190620019a5919062002922565b91505090565b3390565b600054600160a01b900460ff16620019db5760405162461bcd60e51b8152600401620009939062002cd0565b6000805460ff60a01b191690557f5db9ee0a495bf2e6ff9c91a7834c1ba4fdd244a5e8aa4e537bd38aeae4b073aa62001a13620019ab565b60405162001a22919062002b1a565b60405180910390a1565b6000828201838110156200170f5760405162461bcd60e51b8152600401620009939062002d44565b600062001a63601a5462002161565b9050600062001a7d62001a7562002244565b839062001a2c565b90508015620015e25762001a91816200212f565b620015e2338262002317565b600062001a6362001abc601654601554620016cb90919063ffffffff16565b62001ac662002244565b620023c4565b60005b600f5481101562001c30576000600e828154811062001aea57fe5b60009182526020822001546040516370a0823160e01b81526001600160a01b03909116925082906370a082319062001b2790339060040162002b1a565b60206040518083038186803b15801562001b4057600080fd5b505afa15801562001b55573d6000803e3d6000fd5b505050506040513d601f19601f8201168201806040525081019062001b7b919062002922565b9050801562001c255760008381526011602052604090205462001b9f908262001a2c565b60008481526011602052604090205560165462001bbd908262001a2c565b601655604051632770a7eb60e21b81526001600160a01b03831690639dc29fac9062001bf0903390859060040162002b52565b600060405180830381600087803b15801562001c0b57600080fd5b505af115801562001c20573d6000803e3d6000fd5b505050505b505060010162001acf565b50565b600054600160a01b900460ff161562001c605760405162461bcd60e51b8152600401620009939062002de0565b6000805460ff60a01b1916600160a01b1790557f62e78cea01bee320cd4e420270b5ea74000d11b0c9f74754ebdbfc544b05a25862001a13620019ab565b6040805160028082526060808301845292839291906020830190803683375050600654604080516315ab88c960e31b815290519394506001600160a01b039091169263ad5c464892506004808301926020929190829003018186803b15801562001d0757600080fd5b505afa15801562001d1c573d6000803e3d6000fd5b505050506040513d601f19601f8201168201806040525081019062001d42919062002848565b8160008151811062001d5057fe5b6001600160a01b0392831660209182029290920101526002548251610100909104909116908290600190811062001d8357fe5b6001600160a01b0390921660209283029190910190910152905090565b60048054600254604051636968703360e11b81526001600160a01b039283169363d2d0e0669362001dde936101009004169186916000910162002b6b565b600060405180830381600087803b15801562001df957600080fd5b505af115801562001e0e573d6000803e3d6000fd5b5050505050565b6000600e838154811062001e2557fe5b60009182526020808320909101548583526013825260408084208054600181810183559186528486200187905587855260148452818520805491820181558552929093204292019190915590516370a0823160e01b81526001600160a01b03909116915081906370a082319062001ea190339060040162002b1a565b60206040518083038186803b15801562001eba57600080fd5b505afa15801562001ecf573d6000803e3d6000fd5b505050506040513d601f19601f8201168201806040525081019062001ef5919062002922565b62001f62576019805460018181019092557f944998273e477b495144fb8794c914197f3ccb46be2900f4698fd0ef743c96950180546001600160a01b0319163317905560008481526012602052604090205462001f529162001a2c565b6000848152601260205260409020555b6040516340c10f1960e01b81526001600160a01b038216906340c10f199062001f92903390869060040162002b52565b600060405180830381600087803b15801562001fad57600080fd5b505af115801562001fc2573d6000803e3d6000fd5b505060155462001fd6925090508362001a2c565b60155560008381526010602052604090205462001ff4908362001a2c565b60008481526010602052604080822092909255905133917fef3b3ae531a4f494c95e537ec1fe385cfe5c1146cb4c1d850b24bad38595804991a2505050565b34156200204c57620020468282620023f4565b620020fb565b6002546040516323b872dd60e01b81526101009091046001600160a01b0316906323b872dd90620020869086903090879060040162002b2e565b602060405180830381600087803b158015620020a157600080fd5b505af1158015620020b6573d6000803e3d6000fd5b505050506040513d601f19601f82011682018060405250810190620020dc919062002900565b620020fb5760405162461bcd60e51b8152600401620009939062002efd565b505050565b60008184841115620021275760405162461bcd60e51b815260040162000993919062002cbb565b505050900390565b60035460405163db006a7560e01b81526001600160a01b039091169063db006a759062001dde90849060040162002c9d565b600080600e83815481106200217257fe5b60009182526020822001546040516370a0823160e01b81526001600160a01b03909116925082906370a0823190620021af90339060040162002b1a565b60206040518083038186803b158015620021c857600080fd5b505afa158015620021dd573d6000803e3d6000fd5b505050506040513d601f19601f8201168201806040525081019062002203919062002922565b600085815260116020908152604080832054601090925282205492935090916200222d91620016cb565b90506200223b8183620023c4565b95945050505050565b60008060005b600f5481101562002311576000600e82815481106200226557fe5b60009182526020822001546040516370a0823160e01b81526001600160a01b03909116925082906370a0823190620022a290339060040162002b1a565b60206040518083038186803b158015620022bb57600080fd5b505afa158015620022d0573d6000803e3d6000fd5b505050506040513d601f19601f82011682018060405250810190620022f6919062002922565b905062002304848262001a2c565b935050506001016200224a565b50905090565b60025460405163a9059cbb60e01b81526101009091046001600160a01b03169063a9059cbb906200234f908590859060040162002b52565b602060405180830381600087803b1580156200236a57600080fd5b505af11580156200237f573d6000803e3d6000fd5b505050506040513d601f19601f82011682018060405250810190620023a5919062002900565b620015e25760405162461bcd60e51b8152600401620009939062002efd565b60008083156200170f576000620023da62000894565b90506200223b85620023ed838762002519565b9062002559565b60606200240062001c9e565b60065460405163fb3bdb4160e01b81529192506001600160a01b03169063fb3bdb419034906200243b90879086903090899060040162002f85565b6000604051808303818588803b1580156200245557600080fd5b505af11580156200246a573d6000803e3d6000fd5b50505050506040513d6000823e601f3d908101601f1916820160405262002495919081019062002867565b506000336001600160a01b031647604051620024b19062000952565b60006040518083038185875af1925050503d8060008114620024f0576040519150601f19603f3d011682016040523d82523d6000602084013e620024f5565b606091505b5050905080620014175760405162461bcd60e51b8152600401620009939062002db2565b6000826200252a5750600062001712565b828202828482816200253857fe5b04146200170f5760405162461bcd60e51b8152600401620009939062002e0a565b60006200170f83836040518060400160405280601a81526020017f536166654d6174683a206469766973696f6e206279207a65726f00000000000081525060008183620025bb5760405162461bcd60e51b815260040162000993919062002cbb565b506000838581620025c857fe5b0495945050505050565b828054600181600116156101000203166002900490600052602060002090601f016020900481019282601f106200261557805160ff191683800117855562002645565b8280016001018555821562002645579182015b828111156200264557825182559160200191906001019062002628565b506200265392915062002665565b5090565b61136c806200306983390190565b5b8082111562002653576000815560010162002666565b8035620017128162003052565b600082601f8301126200269a578081fd5b620026a6606062003009565b9050808284606085011115620026bb57600080fd5b60005b6003811015620026eb578135620026d58162003052565b83526020928301929190910190600101620026be565b50505092915050565b600082601f83011262002705578081fd5b81356200271c620027168262003031565b62003009565b818152915060208083019084810160005b848110156200275a5762002747888484358a0101620027bb565b845292820192908201906001016200272d565b505050505092915050565b600082601f83011262002776578081fd5b62002782608062003009565b90508082846080850111156200279757600080fd5b60005b6004811015620026eb5781358352602092830192909101906001016200279a565b600082601f830112620027cc578081fd5b813567ffffffffffffffff811115620027e3578182fd5b620027f8601f8201601f191660200162003009565b91508082528360208285010111156200281057600080fd5b8060208401602084013760009082016020015292915050565b6000602082840312156200283b578081fd5b81356200170f8162003052565b6000602082840312156200285a578081fd5b81516200170f8162003052565b600060208083850312156200287a578182fd5b825167ffffffffffffffff81111562002891578283fd5b8301601f81018513620028a2578283fd5b8051620028b3620027168262003031565b8181528381019083850185840285018601891015620028d0578687fd5b8694505b83851015620028f4578051835260019490940193918501918501620028d4565b50979650505050505050565b60006020828403121562002912578081fd5b815180151581146200170f578182fd5b60006020828403121562002934578081fd5b5051919050565b60008060008060008060008060006101c08a8c0312156200295a578485fd5b620029668b8b6200267c565b9850620029778b60208c0162002689565b9750620029888b60808c016200267c565b9650620029998b60a08c016200267c565b955060c08a013567ffffffffffffffff80821115620029b6578687fd5b620029c48d838e01620027bb565b9650620029d58d60e08e0162002765565b9550620029e78d6101608e016200267c565b94506101808c0135915080821115620029fe578384fd5b62002a0c8d838e01620027bb565b93506101a08c013591508082111562002a23578283fd5b5062002a328c828d01620026f4565b9150509295985092959850929598565b60006020828403121562002a54578081fd5b5035919050565b60008060006060848603121562002a70578283fd5b505081359360208301359350604090920135919050565b6000815180845260208085019450808401835b8381101562002ac15781516001600160a01b03168752958201959082019060010162002a9a565b509495945050505050565b60008151808452815b8181101562002af35760208185018101518683018201520162002ad5565b8181111562002b055782602083870101525b50601f01601f19169290920160200192915050565b6001600160a01b0391909116815260200190565b6001600160a01b039384168152919092166020820152604081019190915260600190565b6001600160a01b03929092168252602082015260400190565b6001600160a01b03939093168352602083019190915261ffff16604082015260600190565b6000602082526200170f602083018462002a87565b6020808252825182820181905260009190848201906040850190845b8181101562002be85783516001600160a01b03168352928401929184019160010162002bc1565b50909695505050505050565b6000602080830181845280855180835260408601915060408482028701019250838701855b8281101562002c4b57603f1988860301845262002c3885835162002acc565b9450928501929085019060010162002c19565b5092979650505050505050565b6020808252825182820181905260009190848201906040850190845b8181101562002be85783518352928401929184019160010162002c74565b901515815260200190565b90815260200190565b602081016004831062002cb557fe5b91905290565b6000602082526200170f602083018462002acc565b60208082526014908201527314185d5cd8589b194e881b9bdd081c185d5cd95960621b604082015260600190565b60208082526026908201527f4f776e61626c653a206e6577206f776e657220697320746865207a65726f206160408201526564647265737360d01b606082015260800190565b6020808252601b908201527f536166654d6174683a206164646974696f6e206f766572666c6f770000000000604082015260600190565b60208082526018908201527f4f7261636c6520686173206e6f742066696e616c697365640000000000000000604082015260600190565b6020808252601490820152731499599d5b99081bd9881155120819985a5b195960621b604082015260600190565b60208082526010908201526f14185d5cd8589b194e881c185d5cd95960821b604082015260600190565b60208082526021908201527f536166654d6174683a206d756c7469706c69636174696f6e206f766572666c6f6040820152607760f81b606082015260800190565b6020808252601d908201527f436f6e747261637420616c726561647920696e697469616c697a65642e000000604082015260600190565b6020808252818101527f4f776e61626c653a2063616c6c6572206973206e6f7420746865206f776e6572604082015260600190565b60208082526026908201527f66756e6374696f6e2063616e6e6f742062652063616c6c656420617420746869604082015265732074696d6560d01b606082015260800190565b60208082526014908201527310d85cda081d1c985b9cd9995c8819985a5b195960621b604082015260600190565b6020808252601f908201527f5265656e7472616e637947756172643a207265656e7472616e742063616c6c00604082015260600190565b60008382526040602083015262002f7d604083018462002a87565b949350505050565b60008582526080602083015262002fa0608083018662002a87565b6001600160a01b03949094166040830152506060015292915050565b600087825260c0602083015262002fd760c083018862002acc565b6001600160a01b039690961660408301525063ffffffff938416606082015291909216608082015260a0015292915050565b60405181810167ffffffffffffffff811182821017156200302957600080fd5b604052919050565b600067ffffffffffffffff82111562003048578081fd5b5060209081020190565b6001600160a01b038116811462001c3057600080fdfe60806040523480156200001157600080fd5b506040516200136c3803806200136c833981810160405260208110156200003757600080fd5b81019080805160405193929190846401000000008211156200005857600080fd5b9083019060208201858111156200006e57600080fd5b82516401000000008111828201881017156200008957600080fd5b82525081516020918201929091019080838360005b83811015620000b85781810151838201526020016200009e565b50505050905090810190601f168015620000e65780820380516001836020036101000a031916815260200191505b5060408181019052600281526126a160f11b60208083019190915285518695509193506200011c925060039190850190620001af565b50805162000132906004906020840190620001af565b50506005805460ff191660121790555060006200014e620001ab565b60058054610100600160a81b0319166101006001600160a01b03841690810291909117909155604051919250906000907f8be0079c531659141344cd1fd0a4f28419497f9722a3daafe3b4186f6b6457e0908290a350506200024b565b3390565b828054600181600116156101000203166002900490600052602060002090601f016020900481019282601f10620001f257805160ff191683800117855562000222565b8280016001018555821562000222579182015b828111156200022257825182559160200191906001019062000205565b506200023092915062000234565b5090565b5b8082111562000230576000815560010162000235565b611111806200025b6000396000f3fe6080604052600436106100f75760003560e01c8063715018a61161008a578063a457c2d711610059578063a457c2d7146103a5578063a9059cbb146103de578063dd62ed3e14610417578063f2fde38b14610452576100fe565b8063715018a6146103115780638da5cb5b1461032657806395d89b41146103575780639dc29fac1461036c576100fe565b8063313ce567116100c6578063313ce56714610241578063395093511461026c57806340c10f19146102a557806370a08231146102de576100fe565b806306fdde0314610100578063095ea7b31461018a57806318160ddd146101d757806323b872dd146101fe576100fe565b366100fe57005b005b34801561010c57600080fd5b50610115610485565b6040805160208082528351818301528351919283929083019185019080838360005b8381101561014f578181015183820152602001610137565b50505050905090810190601f16801561017c5780820380516001836020036101000a031916815260200191505b509250505060405180910390f35b34801561019657600080fd5b506101c3600480360360408110156101ad57600080fd5b506001600160a01b03813516906020013561051b565b604080519115158252519081900360200190f35b3480156101e357600080fd5b506101ec610538565b60408051918252519081900360200190f35b34801561020a57600080fd5b506101c36004803603606081101561022157600080fd5b506001600160a01b0381358116916020810135909116906040013561053e565b34801561024d57600080fd5b506102566105c5565b6040805160ff9092168252519081900360200190f35b34801561027857600080fd5b506101c36004803603604081101561028f57600080fd5b506001600160a01b0381351690602001356105ce565b3480156102b157600080fd5b506100fe600480360360408110156102c857600080fd5b506001600160a01b03813516906020013561061c565b3480156102ea57600080fd5b506101ec6004803603602081101561030157600080fd5b50356001600160a01b0316610687565b34801561031d57600080fd5b506100fe6106a2565b34801561033257600080fd5b5061033b61074f565b604080516001600160a01b039092168252519081900360200190f35b34801561036357600080fd5b50610115610763565b34801561037857600080fd5b506100fe6004803603604081101561038f57600080fd5b506001600160a01b0381351690602001356107c4565b3480156103b157600080fd5b506101c3600480360360408110156103c857600080fd5b506001600160a01b03813516906020013561082b565b3480156103ea57600080fd5b506101c36004803603604081101561040157600080fd5b506001600160a01b038135169060200135610893565b34801561042357600080fd5b506101ec6004803603604081101561043a57600080fd5b506001600160a01b03813581169160200135166108a7565b34801561045e57600080fd5b506100fe6004803603602081101561047557600080fd5b50356001600160a01b03166108d2565b60038054604080516020601f60026000196101006001881615020190951694909404938401819004810282018101909252828152606093909290918301828280156105115780601f106104e657610100808354040283529160200191610511565b820191906000526020600020905b8154815290600101906020018083116104f457829003601f168201915b5050505050905090565b600061052f6105286109db565b84846109df565b50600192915050565b60025490565b600061054b848484610acb565b6105bb846105576109db565b6105b685604051806060016040528060288152602001611005602891396001600160a01b038a166000908152600160205260408120906105956109db565b6001600160a01b031681526020810191909152604001600020549190610c26565b6109df565b5060019392505050565b60055460ff1690565b600061052f6105db6109db565b846105b685600160006105ec6109db565b6001600160a01b03908116825260208083019390935260409182016000908120918c168152925290205490610cbd565b6106246109db565b60055461010090046001600160a01b03908116911614610679576040805162461bcd60e51b8152602060048201819052602482015260008051602061102d833981519152604482015290519081900360640190fd5b6106838282610d1e565b5050565b6001600160a01b031660009081526020819052604090205490565b6106aa6109db565b60055461010090046001600160a01b039081169116146106ff576040805162461bcd60e51b8152602060048201819052602482015260008051602061102d833981519152604482015290519081900360640190fd5b60055460405160009161010090046001600160a01b0316907f8be0079c531659141344cd1fd0a4f28419497f9722a3daafe3b4186f6b6457e0908390a360058054610100600160a81b0319169055565b60055461010090046001600160a01b031690565b60048054604080516020601f60026000196101006001881615020190951694909404938401819004810282018101909252828152606093909290918301828280156105115780601f106104e657610100808354040283529160200191610511565b6107cc6109db565b60055461010090046001600160a01b03908116911614610821576040805162461bcd60e51b8152602060048201819052602482015260008051602061102d833981519152604482015290519081900360640190fd5b6106838282610e0e565b600061052f6108386109db565b846105b6856040518060600160405280602581526020016110b760259139600160006108626109db565b6001600160a01b03908116825260208083019390935260409182016000908120918d16815292529020549190610c26565b600061052f6108a06109db565b8484610acb565b6001600160a01b03918216600090815260016020908152604080832093909416825291909152205490565b6108da6109db565b60055461010090046001600160a01b0390811691161461092f576040805162461bcd60e51b8152602060048201819052602482015260008051602061102d833981519152604482015290519081900360640190fd5b6001600160a01b0381166109745760405162461bcd60e51b8152600401808060200182810382526026815260200180610f976026913960400191505060405180910390fd5b6005546040516001600160a01b0380841692610100900416907f8be0079c531659141344cd1fd0a4f28419497f9722a3daafe3b4186f6b6457e090600090a3600580546001600160a01b0390921661010002610100600160a81b0319909216919091179055565b3390565b6001600160a01b038316610a245760405162461bcd60e51b81526004018080602001828103825260248152602001806110936024913960400191505060405180910390fd5b6001600160a01b038216610a695760405162461bcd60e51b8152600401808060200182810382526022815260200180610fbd6022913960400191505060405180910390fd5b6001600160a01b03808416600081815260016020908152604080832094871680845294825291829020859055815185815291517f8c5be1e5ebec7d5bd14f71427d1e84f3dd0314c0f7b2291e5b200ac8c7c3b9259281900390910190a3505050565b6001600160a01b038316610b105760405162461bcd60e51b815260040180806020018281038252602581526020018061106e6025913960400191505060405180910390fd5b6001600160a01b038216610b555760405162461bcd60e51b8152600401808060200182810382526023815260200180610f526023913960400191505060405180910390fd5b610b60838383610f0a565b610b9d81604051806060016040528060268152602001610fdf602691396001600160a01b0386166000908152602081905260409020549190610c26565b6001600160a01b038085166000908152602081905260408082209390935590841681522054610bcc9082610cbd565b6001600160a01b038084166000818152602081815260409182902094909455805185815290519193928716927fddf252ad1be2c89b69c2b068fc378daa952ba7f163c4a11628f55a4df523b3ef92918290030190a3505050565b60008184841115610cb55760405162461bcd60e51b81526004018080602001828103825283818151815260200191508051906020019080838360005b83811015610c7a578181015183820152602001610c62565b50505050905090810190601f168015610ca75780820380516001836020036101000a031916815260200191505b509250505060405180910390fd5b505050900390565b600082820183811015610d17576040805162461bcd60e51b815260206004820152601b60248201527f536166654d6174683a206164646974696f6e206f766572666c6f770000000000604482015290519081900360640190fd5b9392505050565b6001600160a01b038216610d79576040805162461bcd60e51b815260206004820152601f60248201527f45524332303a206d696e7420746f20746865207a65726f206164647265737300604482015290519081900360640190fd5b610d8560008383610f0a565b600254610d929082610cbd565b6002556001600160a01b038216600090815260208190526040902054610db89082610cbd565b6001600160a01b0383166000818152602081815260408083209490945583518581529351929391927fddf252ad1be2c89b69c2b068fc378daa952ba7f163c4a11628f55a4df523b3ef9281900390910190a35050565b6001600160a01b038216610e535760405162461bcd60e51b815260040180806020018281038252602181526020018061104d6021913960400191505060405180910390fd5b610e5f82600083610f0a565b610e9c81604051806060016040528060228152602001610f75602291396001600160a01b0385166000908152602081905260409020549190610c26565b6001600160a01b038316600090815260208190526040902055600254610ec29082610f0f565b6002556040805182815290516000916001600160a01b038516917fddf252ad1be2c89b69c2b068fc378daa952ba7f163c4a11628f55a4df523b3ef9181900360200190a35050565b505050565b6000610d1783836040518060400160405280601e81526020017f536166654d6174683a207375627472616374696f6e206f766572666c6f770000815250610c2656fe45524332303a207472616e7366657220746f20746865207a65726f206164647265737345524332303a206275726e20616d6f756e7420657863656564732062616c616e63654f776e61626c653a206e6577206f776e657220697320746865207a65726f206164647265737345524332303a20617070726f766520746f20746865207a65726f206164647265737345524332303a207472616e7366657220616d6f756e7420657863656564732062616c616e636545524332303a207472616e7366657220616d6f756e74206578636565647320616c6c6f77616e63654f776e61626c653a2063616c6c6572206973206e6f7420746865206f776e657245524332303a206275726e2066726f6d20746865207a65726f206164647265737345524332303a207472616e736665722066726f6d20746865207a65726f206164647265737345524332303a20617070726f76652066726f6d20746865207a65726f206164647265737345524332303a2064656372656173656420616c6c6f77616e63652062656c6f77207a65726fa2646970667358221220f1ac81afec8ee7186c18bf8841711431e2965f878d83733e78b99013e0b29c8f64736f6c634300060c003343616e6e6f74207769746864726177206d6f7265207468616e206465706f7369746564a2646970667358221220963f24f0b89baee6c205ed6d4674c3454f1ac6b1aff4d229c299b6f92ba5235664736f6c634300060c0033",
  "immutableReferences": {},
  "source": "//SPDX-License-Identifier: UNLICENSED\npragma solidity ^0.6.0;\npragma experimental ABIEncoderV2;\n\nimport '@nomiclabs/buidler/console.sol';\nimport '@openzeppelin/contracts/math/SafeMath.sol';\nimport '@openzeppelin/contracts/utils/ReentrancyGuard.sol';\nimport '@openzeppelin/contracts/utils/Pausable.sol';\nimport '@openzeppelin/contracts/access/Ownable.sol';\nimport './interfaces/IAave.sol';\nimport './interfaces/IDai.sol';\nimport './interfaces/IRealitio.sol';\nimport './interfaces/IUniswapV2Router02.sol';\nimport './Token.sol';\n\n/// @title The MagicBet market instance\n/// @notice This contract is the framework of each new market\ncontract MBMarket is Ownable, Pausable, ReentrancyGuard {\n    using SafeMath for uint256;\n\n    enum States {WAITING, OPEN, LOCKED, WITHDRAW}\n\n    ////////////////////////////////////\n    //////// VARIABLES /////////////////\n    ////////////////////////////////////\n\n    uint256 public constant UNRESOLVED_OUTCOME_RESULT = type(uint256).max;\n    uint256 public constant ORACLE_TIMEOUT_TIME = 4 weeks;\n    bool private isInitialized = false;\n\n    //////// Externals ////////\n    Dai public dai;\n    IaToken public aToken;\n    IAaveLendingPool public aaveLendingPool;\n    IRealitio public realitio;\n    IUniswapV2Router02 public uniswapRouter;\n\n    //////// Market Details ////////\n    uint256 public maxInterest = 0; // for the front end\n    uint256 public marketOpeningTime; // when the market can opened for bets\n    uint256 public marketLockingTime; // when the market is no longer open for bets\n    uint256 public marketResolutionTime; // the time the realitio market is able to be answered, uint32 inside Realitio\n    bytes32 public questionId; // the question ID of the question on realitio\n    string public eventName;\n    string[] public outcomeNames;\n    Token[] public tokenAddresses;\n    uint256 public numberOfOutcomes;\n\n    //////// Betting variables ////////\n    // totalBetsPerOutcome and betsWithdrawnPerOutcome keep track of the remaining 'principal'\n    mapping(uint256 => uint256) public totalBetsPerOutcome;\n    mapping(uint256 => uint256) public betsWithdrawnPerOutcome;\n    mapping(uint256 => uint256) public usersPerOutcome;\n    mapping(uint256 => uint256[]) private betAmountsArray;\n    mapping(uint256 => uint256[]) private timestampsArray;\n\n    uint256 public totalBets; // equivalent to 'max bets' goes up with each new bet but does not go down as winnings are withdrawn\n    uint256 public betsWithdrawn; // totalBets less - betsWithdrawn should always be equal to outstanding bets\n    uint256 public totalSponsoredMoney; // additional sponsored money that cannot win\n    mapping(address => uint256) public sponsoredMoney;\n    address[] public participants;\n\n    //////// Market resolution variables ////////\n    uint256 public winningOutcome;\n\n    ////////////////////////////////////\n    //////// CONSTRUCTOR ///////////////\n    ////////////////////////////////////\n    function initialize(\n        Dai _daiAddress,\n        address[3] memory _aaveAddresses,\n        IRealitio _realitioAddress,\n        IUniswapV2Router02 _uniswapRouter,\n        string memory _eventName,\n        uint256[4] memory _marketTimes,\n        address _arbitrator,\n        string memory _realitioQuestion,\n        string[] memory _outcomeNamesArray\n    ) public {\n        require(!isInitialized, 'Contract already initialized.');\n\n        winningOutcome = UNRESOLVED_OUTCOME_RESULT;\n\n        // externals\n        dai = _daiAddress;\n        aToken = IaToken(_aaveAddresses[0]);\n        aaveLendingPool = IAaveLendingPool(_aaveAddresses[1]);\n        realitio = _realitioAddress;\n        uniswapRouter = _uniswapRouter;\n\n        // approvals\n        dai.approve(_aaveAddresses[2], type(uint256).max);\n\n        // pass arguments to public variables\n        eventName = _eventName;\n        marketOpeningTime = _marketTimes[0];\n        marketLockingTime = _marketTimes[1];\n        marketResolutionTime = uint32(_marketTimes[2]);\n        numberOfOutcomes = _outcomeNamesArray.length;\n\n        // create the tokens\n        for (uint256 i = 0; i < numberOfOutcomes; i++) {\n            _createTokenContract(_outcomeNamesArray[i]);\n        }\n\n        // Create the question on Realitio\n        uint256 _templateId = 2;\n        uint256 _nonce = now; // <- should probably change this to zero for mainnet\n        questionId = _postQuestion(\n            _templateId,\n            _realitioQuestion,\n            _arbitrator,\n            uint32(_marketTimes[3]),\n            uint32(marketResolutionTime),\n            _nonce\n        );\n    }\n\n    ////////////////////////////////////\n    //////// EVENTS ////////////////////\n    ////////////////////////////////////\n    event ParticipantEntered(address indexed participant);\n    event ParticipantWithdrawn(address indexed participant);\n    event StateChanged(States state);\n    event WinnerSelected(address indexed winner);\n\n    ////////////////////////////////////\n    //////// INITIAL SETUP /////////////\n    ////////////////////////////////////\n\n    function _createTokenContract(string memory _outcomeName) internal {\n        outcomeNames.push(_outcomeName);\n        Token tokenContract = new Token({_tokenName: _outcomeName});\n        tokenAddresses.push(tokenContract);\n    }\n\n    ////////////////////////////////////\n    //////// MODIFIERS /////////////////\n    ////////////////////////////////////\n    modifier checkState(States requiredState) {\n        require(getCurrentState() == requiredState, 'function cannot be called at this time');\n        _;\n    }\n\n    ////////////////////////////////////\n    ////////// VIEW FUNCTIONS //////////\n    ////////////////////////////////////\n    function getCurrentState() public view returns (States) {\n        if (now < marketOpeningTime) {\n            return States.WAITING;\n        }\n\n        if (now >= marketOpeningTime && now < marketLockingTime) {\n            return States.OPEN;\n        }\n\n        if (winningOutcome == UNRESOLVED_OUTCOME_RESULT && now < (marketResolutionTime.add(ORACLE_TIMEOUT_TIME))) {\n            return States.LOCKED;\n        }\n\n        return States.WITHDRAW;\n    }\n\n    function getOutcomeNames() external view returns (string[] memory) {\n        return outcomeNames;\n    }\n\n    function getTokenAddresses() external view returns (Token[] memory) {\n        return tokenAddresses;\n    }\n\n    function getParticipants() external view returns (address[] memory) {\n        return participants;\n    }\n\n    function getBetAmountsArray(uint256 _outcome) external view returns (uint256[] memory) {\n        return betAmountsArray[_outcome];\n    }\n\n    function getTimestampsArray(uint256 _outcome) external view returns (uint256[] memory) {\n        return timestampsArray[_outcome];\n    }\n\n    function getMarketSize() public view returns (uint256) {\n        return participants.length;\n    }\n\n    function getMaxTotalInterest() public view returns (uint256) {\n        if (maxInterest > 0) {\n            return maxInterest;\n        } else {\n            return getTotalInterest();\n        }\n    }\n\n    function getTotalInterest() public view returns (uint256) {\n        uint256 _remainingBet = totalBets.sub(betsWithdrawn);\n        uint256 _totalAdaibalances = aToken.balanceOf(address(this));\n        uint256 _totalInterest = _totalAdaibalances.sub(_remainingBet);\n        return _totalInterest;\n    }\n\n    function getEstimatedETHforDAI(uint256 daiAmount) public view returns (uint256[] memory) {\n        address[] memory path = _getDAIforETHpath();\n        return uniswapRouter.getAmountsIn(daiAmount, path);\n    }\n\n    ////////////////////////////////////\n    //////// REALIITO FUNCTIONS ////////\n    ////////////////////////////////////\n\n    /// @notice posts the market question onto realit.io\n    /// @param template_id always 2\n    /// @param question string passed to realitio\n    /// @param arbitrator = kleros\n    /// @param timeout how long answer can be challenged until finalised\n    /// @param opening_ts when the question can first be answered\n    /// @param nonce nonce\n    /// @return the ID of the question on realitio\n    function _postQuestion(\n        uint256 template_id,\n        string memory question,\n        address arbitrator,\n        uint32 timeout,\n        uint32 opening_ts,\n        uint256 nonce\n    ) internal returns (bytes32) {\n        return realitio.askQuestion(template_id, question, arbitrator, timeout, opening_ts, nonce);\n    }\n\n    /// @notice determines the winning outcome from realitio\n    /// @dev this function call will revert if it has not yet resolved\n    /// @return the winning outcome of the event\n    function _determineWinner() internal view returns (uint256) {\n        bytes32 _winningOutcome = realitio.resultFor(questionId);\n        return uint256(_winningOutcome);\n    }\n\n    /// @notice Function called by determineWinner to see if question has been finalized\n    /// @return whether or not the question has been finalized on realitio\n    function _isQuestionFinalized() internal view returns (bool) {\n        return realitio.isFinalized(questionId);\n    }\n\n    ////////////////////////////////////\n    /////// EXTERNAL DAI CALLS /////////\n    ////////////////////////////////////\n\n    /// @notice common function for all outgoing DAI transfers\n    /// @param _to address to send to\n    /// @param _amount amount to send\n    function _sendCash(address _to, uint256 _amount) internal {\n        require(dai.transfer(_to, _amount), 'Cash transfer failed');\n    }\n\n    /// @notice common function for all incoming DAI transfers\n    /// @param _from address that is receiving cash\n    /// @param _amount amount to recieve\n    function _receiveCash(\n        address _from,\n        uint256 _amount,\n        uint256 _uniswapDeadline\n    ) internal {\n        if (msg.value > 0) {\n            _swapETHForExactTokenWithUniswap(_amount, _uniswapDeadline);\n            return;\n        }\n\n        require(dai.transferFrom(_from, address(this), _amount), 'Cash transfer failed');\n    }\n\n    ////////////////////////////////////\n    /////// EXTERNAL AAVE CALLS ////////\n    ////////////////////////////////////\n\n    /// @notice swap Dai for aDai\n    function _sendToAave(uint256 _dai) internal {\n        aaveLendingPool.deposit(address(dai), _dai, 0);\n    }\n\n    /// @notice swap aDai for Dai\n    function _redeemFromAave(uint256 _dai) internal {\n        aToken.redeem(_dai);\n    }\n\n    ////////////////////////////////////\n    //////// EXTERNAL FUNCTIONS ////////\n    ////////////////////////////////////\n\n    function placeBet(\n        uint256 _outcome,\n        uint256 _dai,\n        uint256 _uniswapDeadline // set to 0 if paying in DAI\n    ) external payable checkState(States.OPEN) whenNotPaused {\n        _placeBet(_outcome, _dai);\n        _receiveCash(msg.sender, _dai, _uniswapDeadline);\n        _sendToAave(_dai);\n    }\n\n    function determineWinner() external whenNotPaused {\n        require(_isQuestionFinalized(), 'Oracle has not finalised');\n        winningOutcome = _determineWinner();\n    }\n\n    function withdraw() external checkState(States.WITHDRAW) whenNotPaused nonReentrant {\n        if (maxInterest == 0) {\n            maxInterest = getTotalInterest();\n        }\n\n        if (totalBetsPerOutcome[winningOutcome] > 0) {\n            _payoutWinnings();\n        } else {\n            _payoutWinningsInvalid();\n        }\n\n        _burnUsersTokens();\n    }\n\n    function sponsorEvent(uint256 sponsorAmount) external {\n        dai.transferFrom(msg.sender, address(this), sponsorAmount);\n        _sendToAave(sponsorAmount);\n        sponsoredMoney[msg.sender] = sponsoredMoney[msg.sender].add(sponsorAmount);\n        totalSponsoredMoney = totalSponsoredMoney.add(sponsorAmount);\n    }\n\n    function withdrawSponsorMoney(uint256 withdrawAmount) external {\n        sponsoredMoney[msg.sender] = sponsoredMoney[msg.sender].sub(\n            withdrawAmount,\n            'Cannot withdraw more than deposited'\n        );\n        totalSponsoredMoney = totalSponsoredMoney.sub(withdrawAmount);\n\n        _redeemFromAave(withdrawAmount);\n        dai.transfer(msg.sender, withdrawAmount);\n    }\n\n    ////////////////////////////////////\n    //////// INTERNAL FUNCTIONS ////////\n    ////////////////////////////////////\n\n    /// @notice returns winning user's share of interest\n    /// @param _totalBetAmount total bet among all outcomes\n    /// @param _userBetOutcomeAmount total bet on winning outcome\n    /// @return users's share of the interest\n    function _calculateWinnings(uint256 _totalBetAmount, uint256 _userBetOutcomeAmount)\n        internal\n        view\n        returns (uint256)\n    {\n        uint256 winnings = 0;\n\n        if (_totalBetAmount > 0) {\n            uint256 _totalInterest = getTotalInterest();\n            winnings = (_totalInterest.mul(_userBetOutcomeAmount)).div(_totalBetAmount);\n        }\n\n        return winnings;\n    }\n\n    function _getUserBetsAllOutcomes() internal view returns (uint256) {\n        // get total bet across all outcomes\n        uint256 _userBetsAllOutcomes;\n        for (uint256 i = 0; i < numberOfOutcomes; i++) {\n            Token _token = Token(tokenAddresses[i]);\n            uint256 _userBetThisOutcome = _token.balanceOf(msg.sender);\n            _userBetsAllOutcomes = _userBetsAllOutcomes.add(_userBetThisOutcome);\n        }\n        return _userBetsAllOutcomes;\n    }\n\n    function _getWinningsGivenOutcome(uint256 _outcome) internal view returns (uint256) {\n        Token _token = Token(tokenAddresses[_outcome]);\n        uint256 _userBetOnOutcome = _token.balanceOf(msg.sender);\n        uint256 _totalRemainingBetsOnOutcome = totalBetsPerOutcome[_outcome].sub(betsWithdrawnPerOutcome[_outcome]);\n        return _calculateWinnings(_totalRemainingBetsOnOutcome, _userBetOnOutcome);\n    }\n\n    function _payoutWinnings() internal {\n        uint256 _winnings = _getWinningsGivenOutcome(winningOutcome);\n        uint256 _daiToSend = _winnings.add(_getUserBetsAllOutcomes());\n\n        // externals\n        if (_daiToSend > 0) {\n            _redeemFromAave(_daiToSend);\n            _sendCash(msg.sender, _daiToSend);\n        }\n    }\n\n    function _payoutWinningsInvalid() internal {\n        uint256 _winningsInvalid = _calculateWinnings(totalBets.sub(betsWithdrawn), _getUserBetsAllOutcomes());\n        uint256 _daiToSend = _winningsInvalid.add(_getUserBetsAllOutcomes());\n\n        // externals\n        if (_daiToSend > 0) {\n            _redeemFromAave(_daiToSend);\n            _sendCash(msg.sender, _daiToSend);\n        }\n    }\n\n    function _placeBet(uint256 _outcome, uint256 _dai) internal {\n        Token _token = tokenAddresses[_outcome];\n\n        betAmountsArray[_outcome].push(_dai);\n        timestampsArray[_outcome].push(now);\n\n        if (_token.balanceOf(msg.sender) == 0) {\n            participants.push(msg.sender);\n            usersPerOutcome[_outcome] = usersPerOutcome[_outcome].add(1);\n        }\n\n        _token.mint(msg.sender, _dai);\n        totalBets = totalBets.add(_dai);\n        totalBetsPerOutcome[_outcome] = totalBetsPerOutcome[_outcome].add(_dai);\n\n        emit ParticipantEntered(msg.sender);\n    }\n\n    function _burnUsersTokens() internal {\n        for (uint256 i = 0; i < numberOfOutcomes; i++) {\n            Token _token = Token(tokenAddresses[i]);\n            uint256 _userBetThisOutcome = _token.balanceOf(msg.sender);\n            if (_userBetThisOutcome > 0) {\n                betsWithdrawnPerOutcome[i] = betsWithdrawnPerOutcome[i].add(_userBetThisOutcome);\n                betsWithdrawn = betsWithdrawn.add(_userBetThisOutcome);\n                _token.burn(msg.sender, _userBetThisOutcome);\n            }\n        }\n    }\n\n    function _swapETHForExactTokenWithUniswap(uint256 daiAmount, uint256 deadline) private {\n        address[] memory path = _getDAIforETHpath();\n\n        uniswapRouter.swapETHForExactTokens{value: msg.value}(daiAmount, path, address(this), deadline);\n\n        (bool success, ) = msg.sender.call{value: address(this).balance}(''); // refund leftover ETH\n        require(success, 'Refund of ETH failed');\n    }\n\n    function _getDAIforETHpath() private view returns (address[] memory) {\n        address[] memory path = new address[](2);\n        path[0] = uniswapRouter.WETH();\n        path[1] = address(dai);\n\n        return path;\n    }\n\n    ////////////////////////////////////\n    ///// BOILERPLATE FUNCTIONS ////////\n    ////////////////////////////////////\n    function disableContract() public onlyOwner whenNotPaused returns (bool) {\n        // onlyOwner ensures only factory can pause\n        _pause();\n    }\n\n    function enableContract() public onlyOwner whenPaused returns (bool) {\n        // onlyOwner ensures only factory can unpause\n        _unpause();\n    }\n\n    receive() external payable {}\n\n    fallback() external payable {}\n}\n",
  "sourcePath": "/Users/brenfife/Desktop/MagicBet-Contracts/contracts/MBMarket.sol",
  "compiler": {
    "name": "solc",
    "version": "0.6.12+commit.27d51765.Emscripten.clang"
  },
  "schemaVersion": "3.2.3",
  "updatedAt": "2020-08-19T03:35:10.125Z",
  "devdoc": {
    "kind": "dev",
    "methods": {
      "owner()": {
        "details": "Returns the address of the current owner."
      },
      "paused()": {
        "details": "Returns true if the contract is paused, and false otherwise."
      },
      "renounceOwnership()": {
        "details": "Leaves the contract without owner. It will not be possible to call `onlyOwner` functions anymore. Can only be called by the current owner. NOTE: Renouncing ownership will leave the contract without an owner, thereby removing any functionality that is only available to the owner."
      },
      "transferOwnership(address)": {
        "details": "Transfers ownership of the contract to a new account (`newOwner`). Can only be called by the current owner."
      }
    },
    "title": "The MagicBet market instance",
    "version": 1
  },
  "userdoc": {
    "kind": "user",
    "methods": {},
    "notice": "This contract is the framework of each new market",
    "version": 1
  }
}