{
  "contractName": "MBMarketFactory",
  "abi": [
    {
      "inputs": [
        {
          "internalType": "contract Dai",
          "name": "_daiAddress",
          "type": "address"
        },
        {
          "internalType": "contract IaToken",
          "name": "_aTokenAddress",
          "type": "address"
        },
        {
          "internalType": "contract IAaveLendingPool",
          "name": "_aaveLpAddress",
          "type": "address"
        },
        {
          "internalType": "contract IAaveLendingPoolCore",
          "name": "_aaveLpcoreAddress",
          "type": "address"
        },
        {
          "internalType": "contract IRealitio",
          "name": "_realitioAddress",
          "type": "address"
        },
        {
          "internalType": "contract IUniswapV2Router02",
          "name": "_uniswapRouter",
          "type": "address"
        }
      ],
      "stateMutability": "nonpayable",
      "type": "constructor"
    },
    {
      "anonymous": false,
      "inputs": [
        {
          "indexed": false,
          "internalType": "address",
          "name": "contractAddress",
          "type": "address"
        }
      ],
      "name": "MarketCreated",
      "type": "event"
    },
    {
      "anonymous": false,
      "inputs": [
        {
          "indexed": true,
          "internalType": "address",
          "name": "previousOwner",
          "type": "address"
        },
        {
          "indexed": true,
          "internalType": "address",
          "name": "newOwner",
          "type": "address"
        }
      ],
      "name": "OwnershipTransferred",
      "type": "event"
    },
    {
      "anonymous": false,
      "inputs": [
        {
          "indexed": false,
          "internalType": "address",
          "name": "account",
          "type": "address"
        }
      ],
      "name": "Paused",
      "type": "event"
    },
    {
      "anonymous": false,
      "inputs": [
        {
          "indexed": false,
          "internalType": "address",
          "name": "account",
          "type": "address"
        }
      ],
      "name": "Unpaused",
      "type": "event"
    },
    {
      "inputs": [],
      "name": "aToken",
      "outputs": [
        {
          "internalType": "contract IaToken",
          "name": "",
          "type": "address"
        }
      ],
      "stateMutability": "view",
      "type": "function"
    },
    {
      "inputs": [],
      "name": "aaveLendingPool",
      "outputs": [
        {
          "internalType": "contract IAaveLendingPool",
          "name": "",
          "type": "address"
        }
      ],
      "stateMutability": "view",
      "type": "function"
    },
    {
      "inputs": [],
      "name": "aaveLendingPoolCore",
      "outputs": [
        {
          "internalType": "contract IAaveLendingPoolCore",
          "name": "",
          "type": "address"
        }
      ],
      "stateMutability": "view",
      "type": "function"
    },
    {
      "inputs": [],
      "name": "dai",
      "outputs": [
        {
          "internalType": "contract Dai",
          "name": "",
          "type": "address"
        }
      ],
      "stateMutability": "view",
      "type": "function"
    },
    {
      "inputs": [],
      "name": "libraryAddress",
      "outputs": [
        {
          "internalType": "address",
          "name": "",
          "type": "address"
        }
      ],
      "stateMutability": "view",
      "type": "function"
    },
    {
      "inputs": [
        {
          "internalType": "address",
          "name": "",
          "type": "address"
        }
      ],
      "name": "mappingOfMarkets",
      "outputs": [
        {
          "internalType": "bool",
          "name": "",
          "type": "bool"
        }
      ],
      "stateMutability": "view",
      "type": "function"
    },
    {
      "inputs": [
        {
          "internalType": "uint256",
          "name": "",
          "type": "uint256"
        }
      ],
      "name": "marketAddresses",
      "outputs": [
        {
          "internalType": "address payable",
          "name": "",
          "type": "address"
        }
      ],
      "stateMutability": "view",
      "type": "function"
    },
    {
      "inputs": [],
      "name": "mostRecentContract",
      "outputs": [
        {
          "internalType": "address",
          "name": "",
          "type": "address"
        }
      ],
      "stateMutability": "view",
      "type": "function"
    },
    {
      "inputs": [],
      "name": "owner",
      "outputs": [
        {
          "internalType": "address",
          "name": "",
          "type": "address"
        }
      ],
      "stateMutability": "view",
      "type": "function"
    },
    {
      "inputs": [],
      "name": "paused",
      "outputs": [
        {
          "internalType": "bool",
          "name": "",
          "type": "bool"
        }
      ],
      "stateMutability": "view",
      "type": "function"
    },
    {
      "inputs": [],
      "name": "realitio",
      "outputs": [
        {
          "internalType": "contract IRealitio",
          "name": "",
          "type": "address"
        }
      ],
      "stateMutability": "view",
      "type": "function"
    },
    {
      "inputs": [],
      "name": "renounceOwnership",
      "outputs": [],
      "stateMutability": "nonpayable",
      "type": "function"
    },
    {
      "inputs": [
        {
          "internalType": "address",
          "name": "newOwner",
          "type": "address"
        }
      ],
      "name": "transferOwnership",
      "outputs": [],
      "stateMutability": "nonpayable",
      "type": "function"
    },
    {
      "inputs": [],
      "name": "uniswapRouter",
      "outputs": [
        {
          "internalType": "contract IUniswapV2Router02",
          "name": "",
          "type": "address"
        }
      ],
      "stateMutability": "view",
      "type": "function"
    },
    {
      "inputs": [
        {
          "internalType": "address",
          "name": "_libraryAddress",
          "type": "address"
        }
      ],
      "name": "setLibraryAddress",
      "outputs": [],
      "stateMutability": "nonpayable",
      "type": "function"
    },
    {
      "inputs": [
        {
          "internalType": "string",
          "name": "_eventName",
          "type": "string"
        },
        {
          "internalType": "uint256",
          "name": "_marketOpeningTime",
          "type": "uint256"
        },
        {
          "internalType": "uint256",
          "name": "_marketLockingTime",
          "type": "uint256"
        },
        {
          "internalType": "uint32",
          "name": "_marketResolutionTime",
          "type": "uint32"
        },
        {
          "internalType": "uint32",
          "name": "_timeout",
          "type": "uint32"
        },
        {
          "internalType": "address",
          "name": "_arbitrator",
          "type": "address"
        },
        {
          "internalType": "string",
          "name": "_realitioQuestion",
          "type": "string"
        },
        {
          "internalType": "string[]",
          "name": "_outcomeNamesArray",
          "type": "string[]"
        }
      ],
      "name": "createMarket",
      "outputs": [
        {
          "internalType": "contract MBMarket",
          "name": "",
          "type": "address"
        }
      ],
      "stateMutability": "nonpayable",
      "type": "function"
    },
    {
      "inputs": [],
      "name": "getMarkets",
      "outputs": [
        {
          "internalType": "address payable[]",
          "name": "",
          "type": "address[]"
        }
      ],
      "stateMutability": "view",
      "type": "function"
    },
    {
      "inputs": [
        {
          "internalType": "address payable",
          "name": "marketAddress",
          "type": "address"
        }
      ],
      "name": "disableMarket",
      "outputs": [
        {
          "internalType": "bool",
          "name": "",
          "type": "bool"
        }
      ],
      "stateMutability": "nonpayable",
      "type": "function"
    },
    {
      "inputs": [
        {
          "internalType": "address payable",
          "name": "marketAddress",
          "type": "address"
        }
      ],
      "name": "enableMarket",
      "outputs": [
        {
          "internalType": "bool",
          "name": "",
          "type": "bool"
        }
      ],
      "stateMutability": "nonpayable",
      "type": "function"
    }
  ],
  "bytecode": "0x60806040523480156200001157600080fd5b50604051620010723803806200107283398101604081905262000034916200010e565b6000620000406200010a565b600080546001600160a01b0319166001600160a01b0383169081178255604051929350917f8be0079c531659141344cd1fd0a4f28419497f9722a3daafe3b4186f6b6457e0908290a3506000805460ff60a01b19169055600280546001600160a01b03199081166001600160a01b0398891617909155600380548216968816969096179095556004805486169487169490941790935560058054851692861692909217909155600680548416918516919091179055600780549092169216919091179055620001ba565b3390565b60008060008060008060c0878903121562000127578182fd5b86516200013481620001a1565b60208801519096506200014781620001a1565b60408801519095506200015a81620001a1565b60608801519094506200016d81620001a1565b60808801519093506200018081620001a1565b60a08801519092506200019381620001a1565b809150509295509295509295565b6001600160a01b0381168114620001b757600080fd5b50565b610ea880620001ca6000396000f3fe608060405234801561001057600080fd5b50600436106101215760003560e01c8063a0c1f15e116100ad578063e9d337b811610071578063e9d337b8146101f2578063ec2c9016146101fa578063f2fde38b1461020f578063f4b9fa7514610222578063f55a898c1461022a57610121565b8063a0c1f15e146101bf578063b816f513146101c7578063bc8802a2146101cf578063d3f8fb81146101d7578063e35a609d146101ea57610121565b8063715018a6116100f4578063715018a614610181578063735de9f714610189578063799d972714610191578063810fa05d146101a45780638da5cb5b146101b757610121565b8063350293a1146101265780633ca558331461014f5780634863ba17146101575780635c975abb1461016c575b600080fd5b610139610134366004610b71565b61023d565b6040516101469190610c60565b60405180910390f35b610139610264565b61016a610165366004610a61565b610273565b005b6101746102d3565b6040516101469190610cc1565b61016a6102e3565b610139610362565b61013961019f366004610aa4565b610371565b6101746101b2366004610a61565b6104b3565b610139610563565b610139610572565b610139610581565b610139610590565b6101746101e5366004610a61565b61059f565b6101396105b4565b6101396105c3565b6102026105d2565b6040516101469190610c74565b61016a61021d366004610a61565b610634565b6101396106ea565b610174610238366004610a61565b6106f9565b6009818154811061024a57fe5b6000918252602090912001546001600160a01b0316905081565b6005546001600160a01b031681565b61027b61076b565b6000546001600160a01b039081169116146102b15760405162461bcd60e51b81526004016102a890610dfe565b60405180910390fd5b600180546001600160a01b0319166001600160a01b0392909216919091179055565b600054600160a01b900460ff1690565b6102eb61076b565b6000546001600160a01b039081169116146103185760405162461bcd60e51b81526004016102a890610dfe565b600080546040516001600160a01b03909116907f8be0079c531659141344cd1fd0a4f28419497f9722a3daafe3b4186f6b6457e0908390a3600080546001600160a01b0319169055565b6007546001600160a01b031681565b600061037b61076b565b6000546001600160a01b039081169116146103a85760405162461bcd60e51b81526004016102a890610dfe565b600054600160a01b900460ff16156103d25760405162461bcd60e51b81526004016102a890610dd4565b6001546000906103ea906001600160a01b031661076f565b6009805460018181019092557f6e1540171b6c0c960b71a7020d9f60077f6af931a8bbf590da0223dacf75c7af0180546001600160a01b0384166001600160a01b0319918216811790925560008281526008602052604090819020805460ff1916909417909355600a80549091169091179055519091507fb27af04ab132a0b6bba5de2a84bbbadcc31c20c33932936a992ae6ff951259c39061048e908390610c60565b60405180910390a16104a68a8a8a8a8a8a8a8a6107c1565b9998505050505050505050565b60006104bd61076b565b6000546001600160a01b039081169116146104ea5760405162461bcd60e51b81526004016102a890610dfe565b816001600160a01b031663367edd326040518163ffffffff1660e01b8152600401602060405180830381600087803b15801561052557600080fd5b505af1158015610539573d6000803e3d6000fd5b505050506040513d601f19601f8201168201806040525081019061055d9190610a84565b92915050565b6000546001600160a01b031690565b6003546001600160a01b031681565b6001546001600160a01b031681565b6006546001600160a01b031681565b60086020526000908152604090205460ff1681565b600a546001600160a01b031681565b6004546001600160a01b031681565b6060600980548060200260200160405190810160405280929190818152602001828054801561062a57602002820191906000526020600020905b81546001600160a01b0316815260019091019060200180831161060c575b5050505050905090565b61063c61076b565b6000546001600160a01b039081169116146106695760405162461bcd60e51b81526004016102a890610dfe565b6001600160a01b03811661068f5760405162461bcd60e51b81526004016102a890610d8e565b600080546040516001600160a01b03808516939216917f8be0079c531659141344cd1fd0a4f28419497f9722a3daafe3b4186f6b6457e091a3600080546001600160a01b0319166001600160a01b0392909216919091179055565b6002546001600160a01b031681565b600061070361076b565b6000546001600160a01b039081169116146107305760405162461bcd60e51b81526004016102a890610dfe565b816001600160a01b031663894ba8336040518163ffffffff1660e01b8152600401602060405180830381600087803b15801561052557600080fd5b3390565b6000808260601b9050604051733d602d80600a3d3981f3363d3d373d3d3d363d7360601b81528160148201526e5af43d82803e903d91602b57fd5bf360881b60288201526037816000f0949350505050565b6009805460001981019081106107d357fe5b9060005260206000200160009054906101000a90046001600160a01b03166001600160a01b03166326f0f254600260009054906101000a90046001600160a01b03166040518060600160405280600360009054906101000a90046001600160a01b03166001600160a01b03166001600160a01b03168152602001600460009054906101000a90046001600160a01b03166001600160a01b03166001600160a01b03168152602001600560009054906101000a90046001600160a01b03166001600160a01b03166001600160a01b0316815250600660009054906101000a90046001600160a01b0316600760009054906101000a90046001600160a01b03168d60405180608001604052808f81526020018e81526020018d63ffffffff1681526020018c63ffffffff168152508a8a8a6040518a63ffffffff1660e01b815260040161092699989796959493929190610ccc565b600060405180830381600087803b15801561094057600080fd5b505af1158015610954573d6000803e3d6000fd5b505050505050505050505050565b803561055d81610e5a565b600082601f83011261097d578081fd5b813567ffffffffffffffff811115610993578182fd5b60206109a28182840201610e33565b828152925080830184820160005b848110156109d9576109c7888584358a01016109e4565b835291830191908301906001016109b0565b505050505092915050565b600082601f8301126109f4578081fd5b813567ffffffffffffffff811115610a0a578182fd5b610a1d601f8201601f1916602001610e33565b9150808252836020828501011115610a3457600080fd5b8060208401602084013760009082016020015292915050565b803563ffffffff8116811461055d57600080fd5b600060208284031215610a72578081fd5b8135610a7d81610e5a565b9392505050565b600060208284031215610a95578081fd5b81518015158114610a7d578182fd5b600080600080600080600080610100898b031215610ac0578384fd5b883567ffffffffffffffff80821115610ad7578586fd5b610ae38c838d016109e4565b995060208b0135985060408b01359750610b008c60608d01610a4d565b9650610b0f8c60808d01610a4d565b9550610b1e8c60a08d01610962565b945060c08b0135915080821115610b33578384fd5b610b3f8c838d016109e4565b935060e08b0135915080821115610b54578283fd5b50610b618b828c0161096d565b9150509295985092959890939650565b600060208284031215610b82578081fd5b5035919050565b6001600160a01b03169052565b60008282518085526020808601955080818302840101818601855b84811015610bdf57601f19868403018952610bcd838351610c15565b98840198925090830190600101610bb1565b5090979650505050505050565b8060005b6004811015610c0f578151845260209384019390910190600101610bf0565b50505050565b60008151808452815b81811015610c3a57602081850181015186830182015201610c1e565b81811115610c4b5782602083870101525b50601f01601f19169290920160200192915050565b6001600160a01b0391909116815260200190565b6020808252825182820181905260009190848201906040850190845b81811015610cb55783516001600160a01b031683529284019291840191600101610c90565b50909695505050505050565b901515815260200190565b6001600160a01b038a16815260006101c060208084018c845b6003811015610d0957610cf9838351610b89565b9183019190830190600101610ce5565b50505050610d1a608084018b610b89565b610d2760a084018a610b89565b8060c0840152610d3981840189610c15565b9050610d4860e0840188610bec565b610d56610160840187610b89565b828103610180840152610d698186610c15565b90508281036101a0840152610d7e8185610b96565b9c9b505050505050505050505050565b60208082526026908201527f4f776e61626c653a206e6577206f776e657220697320746865207a65726f206160408201526564647265737360d01b606082015260800190565b60208082526010908201526f14185d5cd8589b194e881c185d5cd95960821b604082015260600190565b6020808252818101527f4f776e61626c653a2063616c6c6572206973206e6f7420746865206f776e6572604082015260600190565b60405181810167ffffffffffffffff81118282101715610e5257600080fd5b604052919050565b6001600160a01b0381168114610e6f57600080fd5b5056fea26469706673582212200951e9626f173fcf108475680ff34222d99bab342e1d2c1140f674b92c6b092964736f6c634300060c0033",
  "immutableReferences": {},
  "source": "//SPDX-License-Identifier: UNLICENSED\npragma solidity ^0.6.0;\npragma experimental ABIEncoderV2;\n\nimport '@openzeppelin/contracts/access/Ownable.sol';\nimport '@openzeppelin/contracts/utils/Pausable.sol';\n\nimport './MBMarket.sol';\nimport './lib/CloneFactory.sol';\nimport './interfaces/IAave.sol';\nimport './interfaces/IDai.sol';\nimport './interfaces/IRealitio.sol';\nimport './interfaces/IUniswapV2Router02.sol';\n\n/// @title The MagicBet factory\n/// @notice This contract allows for generating new market instances\ncontract MBMarketFactory is CloneFactory, Ownable, Pausable {\n    address public libraryAddress;\n\n    Dai public dai;\n    IaToken public aToken;\n    IAaveLendingPool public aaveLendingPool;\n    IAaveLendingPoolCore public aaveLendingPoolCore;\n    IRealitio public realitio;\n    IUniswapV2Router02 public uniswapRouter;\n\n    mapping(address => bool) public mappingOfMarkets;\n    address payable[] public marketAddresses;\n    address public mostRecentContract;\n\n    event MarketCreated(address contractAddress);\n\n    constructor(\n        Dai _daiAddress,\n        IaToken _aTokenAddress,\n        IAaveLendingPool _aaveLpAddress,\n        IAaveLendingPoolCore _aaveLpcoreAddress,\n        IRealitio _realitioAddress,\n        IUniswapV2Router02 _uniswapRouter\n    ) public {\n        dai = _daiAddress;\n        aToken = _aTokenAddress;\n        aaveLendingPool = _aaveLpAddress;\n        aaveLendingPoolCore = _aaveLpcoreAddress;\n        realitio = _realitioAddress;\n        uniswapRouter = _uniswapRouter;\n    }\n\n    /// @notice This function sets the library for fut\n    function setLibraryAddress(address _libraryAddress) public onlyOwner {\n        libraryAddress = _libraryAddress;\n    }\n\n    /// @notice This contract is the framework of each new market\n    /// @dev Currently, only owners can generate the markets\n    /// @param _eventName The event name\n    /// @param _marketOpeningTime When the market opens\n    /// @param _marketLockingTime When the market locks\n    /// @param _marketResolutionTime When the market is set to resolve\n    /// @param _timeout The timeout period\n    /// @param _arbitrator The arbitrator address\n    /// @param _realitioQuestion The question, formatted to suit how realitio required\n    /// @param _outcomeNamesArray The outcomes of this event\n    function createMarket(\n        string memory _eventName,\n        uint256 _marketOpeningTime,\n        uint256 _marketLockingTime,\n        uint32 _marketResolutionTime,\n        uint32 _timeout,\n        address _arbitrator,\n        string memory _realitioQuestion,\n        string[] memory _outcomeNamesArray\n    ) public virtual onlyOwner whenNotPaused returns (MBMarket) {\n        address payable newAddress = payable(createClone(libraryAddress));\n\n        marketAddresses.push(newAddress);\n        mappingOfMarkets[newAddress] = true;\n        mostRecentContract = newAddress;\n        emit MarketCreated(address(newAddress));\n\n        _initLatestMarket(\n            _eventName,\n            _marketOpeningTime,\n            _marketLockingTime,\n            _marketResolutionTime,\n            _timeout,\n            _arbitrator,\n            _realitioQuestion,\n            _outcomeNamesArray\n        );\n\n        return MBMarket(newAddress);\n    }\n\n    function getMarkets() public view returns (address payable[] memory) {\n        return marketAddresses;\n    }\n\n    function disableMarket(address payable marketAddress) public onlyOwner returns (bool) {\n        return MBMarket(marketAddress).disableContract();\n    }\n\n    function enableMarket(address payable marketAddress) public onlyOwner returns (bool) {\n        return MBMarket(marketAddress).enableContract();\n    }\n\n    function _initLatestMarket(\n        string memory _eventName,\n        uint256 _marketOpeningTime,\n        uint256 _marketLockingTime,\n        uint32 _marketResolutionTime,\n        uint32 _timeout,\n        address _arbitrator,\n        string memory _realitioQuestion,\n        string[] memory _outcomeNamesArray\n    ) private {\n        MBMarket(marketAddresses[marketAddresses.length - 1]).initialize({\n            _daiAddress: dai,\n            _aaveAddresses: [address(aToken), address(aaveLendingPool), address(aaveLendingPoolCore)],\n            _realitioAddress: realitio,\n            _uniswapRouter: uniswapRouter,\n            _eventName: _eventName,\n            _marketTimes: [_marketOpeningTime, _marketLockingTime, _marketResolutionTime, _timeout],\n            _arbitrator: _arbitrator,\n            _realitioQuestion: _realitioQuestion,\n            _outcomeNamesArray: _outcomeNamesArray\n        });\n    }\n}\n",
  "sourcePath": "/Users/brenfife/Desktop/MagicBet-Contracts/contracts/MBMarketFactory.sol",
  "compiler": {
    "name": "solc",
    "version": "0.6.12+commit.27d51765.Emscripten.clang"
  },
  "schemaVersion": "3.2.3",
  "updatedAt": "2020-08-19T03:35:10.152Z",
  "devdoc": {
    "kind": "dev",
    "methods": {
      "createMarket(string,uint256,uint256,uint32,uint32,address,string,string[])": {
        "details": "Currently, only owners can generate the markets",
        "params": {
          "_arbitrator": "The arbitrator address",
          "_eventName": "The event name",
          "_marketLockingTime": "When the market locks",
          "_marketOpeningTime": "When the market opens",
          "_marketResolutionTime": "When the market is set to resolve",
          "_outcomeNamesArray": "The outcomes of this event",
          "_realitioQuestion": "The question, formatted to suit how realitio required",
          "_timeout": "The timeout period"
        }
      },
      "owner()": {
        "details": "Returns the address of the current owner."
      },
      "paused()": {
        "details": "Returns true if the contract is paused, and false otherwise."
      },
      "renounceOwnership()": {
        "details": "Leaves the contract without owner. It will not be possible to call `onlyOwner` functions anymore. Can only be called by the current owner. NOTE: Renouncing ownership will leave the contract without an owner, thereby removing any functionality that is only available to the owner."
      },
      "transferOwnership(address)": {
        "details": "Transfers ownership of the contract to a new account (`newOwner`). Can only be called by the current owner."
      }
    },
    "title": "The MagicBet factory",
    "version": 1
  },
  "userdoc": {
    "kind": "user",
    "methods": {
      "createMarket(string,uint256,uint256,uint32,uint32,address,string,string[])": {
        "notice": "This contract is the framework of each new market"
      },
      "setLibraryAddress(address)": {
        "notice": "This function sets the library for fut"
      }
    },
    "notice": "This contract allows for generating new market instances",
    "version": 1
  }
}