{
  "contractName": "MBMarket",
  "abi": [
    {
      "anonymous": false,
      "inputs": [
        {
          "indexed": true,
          "internalType": "address",
          "name": "previousOwner",
          "type": "address"
        },
        {
          "indexed": true,
          "internalType": "address",
          "name": "newOwner",
          "type": "address"
        }
      ],
      "name": "OwnershipTransferred",
      "type": "event"
    },
    {
      "anonymous": false,
      "inputs": [
        {
          "indexed": true,
          "internalType": "address",
          "name": "participant",
          "type": "address"
        }
      ],
      "name": "ParticipantEntered",
      "type": "event"
    },
    {
      "anonymous": false,
      "inputs": [
        {
          "indexed": true,
          "internalType": "address",
          "name": "participant",
          "type": "address"
        }
      ],
      "name": "ParticipantWithdrawn",
      "type": "event"
    },
    {
      "anonymous": false,
      "inputs": [
        {
          "indexed": false,
          "internalType": "address",
          "name": "account",
          "type": "address"
        }
      ],
      "name": "Paused",
      "type": "event"
    },
    {
      "anonymous": false,
      "inputs": [
        {
          "indexed": false,
          "internalType": "enum MBMarket.States",
          "name": "state",
          "type": "uint8"
        }
      ],
      "name": "StateChanged",
      "type": "event"
    },
    {
      "anonymous": false,
      "inputs": [
        {
          "indexed": false,
          "internalType": "address",
          "name": "account",
          "type": "address"
        }
      ],
      "name": "Unpaused",
      "type": "event"
    },
    {
      "anonymous": false,
      "inputs": [
        {
          "indexed": true,
          "internalType": "address",
          "name": "winner",
          "type": "address"
        }
      ],
      "name": "WinnerSelected",
      "type": "event"
    },
    {
      "stateMutability": "payable",
      "type": "fallback"
    },
    {
      "inputs": [],
      "name": "ORACLE_TIMEOUT_TIME",
      "outputs": [
        {
          "internalType": "uint256",
          "name": "",
          "type": "uint256"
        }
      ],
      "stateMutability": "view",
      "type": "function"
    },
    {
      "inputs": [],
      "name": "UNRESOLVED_OUTCOME_RESULT",
      "outputs": [
        {
          "internalType": "uint256",
          "name": "",
          "type": "uint256"
        }
      ],
      "stateMutability": "view",
      "type": "function"
    },
    {
      "inputs": [],
      "name": "aToken",
      "outputs": [
        {
          "internalType": "contract IaToken",
          "name": "",
          "type": "address"
        }
      ],
      "stateMutability": "view",
      "type": "function"
    },
    {
      "inputs": [],
      "name": "aaveLendingPool",
      "outputs": [
        {
          "internalType": "contract IAaveLendingPool",
          "name": "",
          "type": "address"
        }
      ],
      "stateMutability": "view",
      "type": "function"
    },
    {
      "inputs": [],
      "name": "betsWithdrawn",
      "outputs": [
        {
          "internalType": "uint256",
          "name": "",
          "type": "uint256"
        }
      ],
      "stateMutability": "view",
      "type": "function"
    },
    {
      "inputs": [
        {
          "internalType": "uint256",
          "name": "",
          "type": "uint256"
        }
      ],
      "name": "betsWithdrawnPerOutcome",
      "outputs": [
        {
          "internalType": "uint256",
          "name": "",
          "type": "uint256"
        }
      ],
      "stateMutability": "view",
      "type": "function"
    },
    {
      "inputs": [],
      "name": "dai",
      "outputs": [
        {
          "internalType": "contract Dai",
          "name": "",
          "type": "address"
        }
      ],
      "stateMutability": "view",
      "type": "function"
    },
    {
      "inputs": [],
      "name": "eventName",
      "outputs": [
        {
          "internalType": "string",
          "name": "",
          "type": "string"
        }
      ],
      "stateMutability": "view",
      "type": "function"
    },
    {
      "inputs": [],
      "name": "marketLockingTime",
      "outputs": [
        {
          "internalType": "uint256",
          "name": "",
          "type": "uint256"
        }
      ],
      "stateMutability": "view",
      "type": "function"
    },
    {
      "inputs": [],
      "name": "marketOpeningTime",
      "outputs": [
        {
          "internalType": "uint256",
          "name": "",
          "type": "uint256"
        }
      ],
      "stateMutability": "view",
      "type": "function"
    },
    {
      "inputs": [],
      "name": "marketResolutionTime",
      "outputs": [
        {
          "internalType": "uint256",
          "name": "",
          "type": "uint256"
        }
      ],
      "stateMutability": "view",
      "type": "function"
    },
    {
      "inputs": [],
      "name": "maxInterest",
      "outputs": [
        {
          "internalType": "uint256",
          "name": "",
          "type": "uint256"
        }
      ],
      "stateMutability": "view",
      "type": "function"
    },
    {
      "inputs": [],
      "name": "numberOfOutcomes",
      "outputs": [
        {
          "internalType": "uint256",
          "name": "",
          "type": "uint256"
        }
      ],
      "stateMutability": "view",
      "type": "function"
    },
    {
      "inputs": [
        {
          "internalType": "uint256",
          "name": "",
          "type": "uint256"
        }
      ],
      "name": "outcomeNames",
      "outputs": [
        {
          "internalType": "string",
          "name": "",
          "type": "string"
        }
      ],
      "stateMutability": "view",
      "type": "function"
    },
    {
      "inputs": [],
      "name": "owner",
      "outputs": [
        {
          "internalType": "address",
          "name": "",
          "type": "address"
        }
      ],
      "stateMutability": "view",
      "type": "function"
    },
    {
      "inputs": [
        {
          "internalType": "uint256",
          "name": "",
          "type": "uint256"
        }
      ],
      "name": "participants",
      "outputs": [
        {
          "internalType": "address",
          "name": "",
          "type": "address"
        }
      ],
      "stateMutability": "view",
      "type": "function"
    },
    {
      "inputs": [],
      "name": "paused",
      "outputs": [
        {
          "internalType": "bool",
          "name": "",
          "type": "bool"
        }
      ],
      "stateMutability": "view",
      "type": "function"
    },
    {
      "inputs": [],
      "name": "questionId",
      "outputs": [
        {
          "internalType": "bytes32",
          "name": "",
          "type": "bytes32"
        }
      ],
      "stateMutability": "view",
      "type": "function"
    },
    {
      "inputs": [],
      "name": "realitio",
      "outputs": [
        {
          "internalType": "contract IRealitio",
          "name": "",
          "type": "address"
        }
      ],
      "stateMutability": "view",
      "type": "function"
    },
    {
      "inputs": [],
      "name": "renounceOwnership",
      "outputs": [],
      "stateMutability": "nonpayable",
      "type": "function"
    },
    {
      "inputs": [
        {
          "internalType": "uint256",
          "name": "",
          "type": "uint256"
        }
      ],
      "name": "tokenAddresses",
      "outputs": [
        {
          "internalType": "contract Token",
          "name": "",
          "type": "address"
        }
      ],
      "stateMutability": "view",
      "type": "function"
    },
    {
      "inputs": [],
      "name": "totalBets",
      "outputs": [
        {
          "internalType": "uint256",
          "name": "",
          "type": "uint256"
        }
      ],
      "stateMutability": "view",
      "type": "function"
    },
    {
      "inputs": [
        {
          "internalType": "uint256",
          "name": "",
          "type": "uint256"
        }
      ],
      "name": "totalBetsPerOutcome",
      "outputs": [
        {
          "internalType": "uint256",
          "name": "",
          "type": "uint256"
        }
      ],
      "stateMutability": "view",
      "type": "function"
    },
    {
      "inputs": [
        {
          "internalType": "address",
          "name": "newOwner",
          "type": "address"
        }
      ],
      "name": "transferOwnership",
      "outputs": [],
      "stateMutability": "nonpayable",
      "type": "function"
    },
    {
      "inputs": [],
      "name": "uniswapRouter",
      "outputs": [
        {
          "internalType": "contract IUniswapV2Router02",
          "name": "",
          "type": "address"
        }
      ],
      "stateMutability": "view",
      "type": "function"
    },
    {
      "inputs": [
        {
          "internalType": "uint256",
          "name": "",
          "type": "uint256"
        }
      ],
      "name": "usersPerOutcome",
      "outputs": [
        {
          "internalType": "uint256",
          "name": "",
          "type": "uint256"
        }
      ],
      "stateMutability": "view",
      "type": "function"
    },
    {
      "inputs": [],
      "name": "winningOutcome",
      "outputs": [
        {
          "internalType": "uint256",
          "name": "",
          "type": "uint256"
        }
      ],
      "stateMutability": "view",
      "type": "function"
    },
    {
      "stateMutability": "payable",
      "type": "receive"
    },
    {
      "inputs": [
        {
          "internalType": "contract Dai",
          "name": "_daiAddress",
          "type": "address"
        },
        {
          "internalType": "address[3]",
          "name": "_aaveAddresses",
          "type": "address[3]"
        },
        {
          "internalType": "contract IRealitio",
          "name": "_realitioAddress",
          "type": "address"
        },
        {
          "internalType": "contract IUniswapV2Router02",
          "name": "_uniswapRouter",
          "type": "address"
        },
        {
          "internalType": "string",
          "name": "_eventName",
          "type": "string"
        },
        {
          "internalType": "uint256[4]",
          "name": "_marketTimes",
          "type": "uint256[4]"
        },
        {
          "internalType": "address",
          "name": "_arbitrator",
          "type": "address"
        },
        {
          "internalType": "string",
          "name": "_realitioQuestion",
          "type": "string"
        },
        {
          "internalType": "string[]",
          "name": "_outcomeNamesArray",
          "type": "string[]"
        }
      ],
      "name": "initialize",
      "outputs": [],
      "stateMutability": "nonpayable",
      "type": "function"
    },
    {
      "inputs": [],
      "name": "getCurrentState",
      "outputs": [
        {
          "internalType": "enum MBMarket.States",
          "name": "",
          "type": "uint8"
        }
      ],
      "stateMutability": "view",
      "type": "function"
    },
    {
      "inputs": [],
      "name": "getOutcomeNames",
      "outputs": [
        {
          "internalType": "string[]",
          "name": "",
          "type": "string[]"
        }
      ],
      "stateMutability": "view",
      "type": "function"
    },
    {
      "inputs": [],
      "name": "getTokenAddresses",
      "outputs": [
        {
          "internalType": "contract Token[]",
          "name": "",
          "type": "address[]"
        }
      ],
      "stateMutability": "view",
      "type": "function"
    },
    {
      "inputs": [],
      "name": "getParticipants",
      "outputs": [
        {
          "internalType": "address[]",
          "name": "",
          "type": "address[]"
        }
      ],
      "stateMutability": "view",
      "type": "function"
    },
    {
      "inputs": [
        {
          "internalType": "uint256",
          "name": "_outcome",
          "type": "uint256"
        }
      ],
      "name": "getBetAmountsArray",
      "outputs": [
        {
          "internalType": "uint256[]",
          "name": "",
          "type": "uint256[]"
        }
      ],
      "stateMutability": "view",
      "type": "function"
    },
    {
      "inputs": [
        {
          "internalType": "uint256",
          "name": "_outcome",
          "type": "uint256"
        }
      ],
      "name": "getTimestampsArray",
      "outputs": [
        {
          "internalType": "uint256[]",
          "name": "",
          "type": "uint256[]"
        }
      ],
      "stateMutability": "view",
      "type": "function"
    },
    {
      "inputs": [],
      "name": "getMarketSize",
      "outputs": [
        {
          "internalType": "uint256",
          "name": "",
          "type": "uint256"
        }
      ],
      "stateMutability": "view",
      "type": "function"
    },
    {
      "inputs": [],
      "name": "getMaxTotalInterest",
      "outputs": [
        {
          "internalType": "uint256",
          "name": "",
          "type": "uint256"
        }
      ],
      "stateMutability": "view",
      "type": "function"
    },
    {
      "inputs": [],
      "name": "getTotalInterest",
      "outputs": [
        {
          "internalType": "uint256",
          "name": "",
          "type": "uint256"
        }
      ],
      "stateMutability": "view",
      "type": "function"
    },
    {
      "inputs": [
        {
          "internalType": "uint256",
          "name": "daiAmount",
          "type": "uint256"
        }
      ],
      "name": "getEstimatedETHforDAI",
      "outputs": [
        {
          "internalType": "uint256[]",
          "name": "",
          "type": "uint256[]"
        }
      ],
      "stateMutability": "view",
      "type": "function"
    },
    {
      "inputs": [
        {
          "internalType": "uint256",
          "name": "_outcome",
          "type": "uint256"
        },
        {
          "internalType": "uint256",
          "name": "_dai",
          "type": "uint256"
        },
        {
          "internalType": "uint256",
          "name": "_uniswapDeadline",
          "type": "uint256"
        }
      ],
      "name": "placeBet",
      "outputs": [],
      "stateMutability": "payable",
      "type": "function"
    },
    {
      "inputs": [],
      "name": "determineWinner",
      "outputs": [],
      "stateMutability": "nonpayable",
      "type": "function"
    },
    {
      "inputs": [],
      "name": "withdraw",
      "outputs": [],
      "stateMutability": "nonpayable",
      "type": "function"
    },
    {
      "inputs": [],
      "name": "disableContract",
      "outputs": [
        {
          "internalType": "bool",
          "name": "",
          "type": "bool"
        }
      ],
      "stateMutability": "nonpayable",
      "type": "function"
    },
    {
      "inputs": [],
      "name": "enableContract",
      "outputs": [
        {
          "internalType": "bool",
          "name": "",
          "type": "bool"
        }
      ],
      "stateMutability": "nonpayable",
      "type": "function"
    }
  ],
  "bytecode": "0x60806040526002805460ff19169055600060075534801561001f57600080fd5b5060006100336001600160e01b0361009316565b600080546001600160a01b0319166001600160a01b0383169081178255604051929350917f8be0079c531659141344cd1fd0a4f28419497f9722a3daafe3b4186f6b6457e0908290a3506000805460ff60a01b1916905560018055610097565b3390565b61420280620000a76000396000f3fe6080604052600436106200029b5760003560e01c8063894ba8331162000163578063e14dedfd11620000c7578063e9d337b81162000085578063e9d337b8146200071f578063ee8c24b81462000737578063f1f9c33e146200075e578063f2fde38b1462000776578063f4b9fa75146200079b578063fd27b51e14620007b357620002a3565b8063e14dedfd146200068e578063e54f4fe314620006a6578063e5df8b8414620006be578063e71c969714620006e3578063e8f033c914620006fa57620002a3565b8063ada8b83d1162000121578063ada8b83d14620005d5578063b06a5c5214620005fa578063bc8802a21462000612578063befa1e2f146200062a578063c56f338c1462000642578063cb704955146200066757620002a3565b8063894ba833146200055d5780638da5cb5b14620005755780639b34ae03146200058d5780639d7c7d3914620005a5578063a0c1f15e14620005bd57620002a3565b806349200d77116200020b5780635c975abb11620001c95780635c975abb14620004b1578063715018a614620004c9578063735de9f714620004e15780638043c9c014620004f9578063807535cc146200051157806382633028146200054557620002a3565b806349200d77146200041d5780634b8755ca14620004355780634ecc79f7146200044d578063519709c414620004655780635aa68ac0146200048a57620002a3565b806333b16d93116200025957806333b16d93146200036b57806335c1d3491462000383578063367edd3214620003b7578063378aa70114620003de5780633ccfd60b146200040557620002a3565b806305801f0b14620002a55780630b60365c14620002e2578063232ea3ad14620002fa57806326f0f254146200031257806327acae74146200033757620002a3565b36620002a357005b005b348015620002b257600080fd5b50620002ca620002c4366004620027f4565b620007cb565b604051620002d9919062002a4f565b60405180910390f35b348015620002ef57600080fd5b50620002ca620007dd565b3480156200030757600080fd5b50620002ca620008a4565b3480156200031f57600080fd5b50620002a362000331366004620026ed565b620008aa565b3480156200034457600080fd5b506200035c62000356366004620027f4565b62000a6f565b604051620002d9919062002a6d565b3480156200037857600080fd5b50620002a362000b1a565b3480156200039057600080fd5b50620003a8620003a2366004620027f4565b62000b7f565b604051620002d99190620028cc565b348015620003c457600080fd5b50620003cf62000ba7565b604051620002d9919062002a44565b348015620003eb57600080fd5b50620003f662000c19565b604051620002d9919062002a58565b3480156200041257600080fd5b50620002a362000c91565b3480156200042a57600080fd5b50620002ca62000d7b565b3480156200044257600080fd5b50620002ca62000d81565b3480156200045a57600080fd5b50620002ca62000d87565b3480156200047257600080fd5b50620002ca62000484366004620027f4565b62000d8d565b3480156200049757600080fd5b50620004a262000d9f565b604051620002d9919062002942565b348015620004be57600080fd5b50620003cf62000e03565b348015620004d657600080fd5b50620002a362000e13565b348015620004ee57600080fd5b50620003a862000e97565b3480156200050657600080fd5b506200035c62000ea6565b3480156200051e57600080fd5b506200053662000530366004620027f4565b62000f04565b604051620002d9919062002a0a565b3480156200055257600080fd5b50620002ca62000f68565b3480156200056a57600080fd5b50620003cf62000f6e565b3480156200058257600080fd5b50620003a862000fe1565b3480156200059a57600080fd5b50620002ca62000ff0565b348015620005b257600080fd5b50620002ca62000ff6565b348015620005ca57600080fd5b50620003a86200101e565b348015620005e257600080fd5b5062000536620005f4366004620027f4565b6200102d565b3480156200060757600080fd5b50620002ca620010ce565b3480156200061f57600080fd5b50620003a8620010d4565b3480156200063757600080fd5b50620002ca620010e3565b3480156200064f57600080fd5b50620002ca62000661366004620027f4565b620010e9565b3480156200067457600080fd5b506200067f620010fb565b604051620002d99190620029a6565b3480156200069b57600080fd5b50620002ca620011d9565b348015620006b357600080fd5b50620002ca620011df565b348015620006cb57600080fd5b50620003a8620006dd366004620027f4565b620011e5565b620002a3620006f43660046200280d565b620011f3565b3480156200070757600080fd5b506200053662000719366004620027f4565b62001283565b3480156200072c57600080fd5b50620003a8620012e5565b3480156200074457600080fd5b506200074f620012f4565b604051620002d9919062002957565b3480156200076b57600080fd5b50620002ca62001356565b3480156200078357600080fd5b50620002a362000795366004620025d8565b6200135d565b348015620007a857600080fd5b50620003a86200141b565b348015620007c057600080fd5b50620002ca6200142f565b60106020526000908152604090205481565b600080620007f96016546015546200143590919063ffffffff16565b6003546040516370a0823160e01b81529192506000916001600160a01b03909116906370a082319062000831903090600401620028cc565b60206040518083038186803b1580156200084a57600080fd5b505afa1580156200085f573d6000803e3d6000fd5b505050506040513d601f19601f82011682018060405250810190620008859190620026d4565b905060006200089b828463ffffffff6200143516565b93505050505b90565b600a5481565b60025460ff1615620008d95760405162461bcd60e51b8152600401620008d09062002bfd565b60405180910390fd5b600019601881905560028054610100600160a81b0319166101006001600160a01b038d8116820292909217928390558b51600380546001600160a01b031990811692851692909217905560208d01516004805483169185169190911781556005805483168e8616179055600680549092168c8516179091556040808e0151905163095ea7b360e01b8152929094049092169363095ea7b3936200097f93909201620028e0565b602060405180830381600087803b1580156200099a57600080fd5b505af1158015620009af573d6000803e3d6000fd5b505050506040513d601f19601f82011682018060405250810190620009d59190620026b2565b508451620009eb90600c9060208801906200237b565b5083516008556020840151600955604084015163ffffffff16600a558051600f5560005b600f5481101562000a425762000a3982828151811062000a2b57fe5b602002602001015162001482565b60010162000a0f565b5060024262000a5f8285878960036020020151600a548662001557565b600b555050505050505050505050565b600d818154811062000a7d57fe5b600091825260209182902001805460408051601f600260001961010060018716150201909416939093049283018590048502810185019091528181529350909183018282801562000b125780601f1062000ae65761010080835404028352916020019162000b12565b820191906000526020600020905b81548152906001019060200180831162000af457829003601f168201915b505050505081565b600054600160a01b900460ff161562000b475760405162461bcd60e51b8152600401620008d09062002b92565b62000b51620015f5565b62000b705760405162461bcd60e51b8152600401620008d09062002b2d565b62000b7a62001683565b601855565b6017818154811062000b8d57fe5b6000918252602090912001546001600160a01b0316905081565b600062000bb362001715565b6000546001600160a01b0390811691161462000be35760405162461bcd60e51b8152600401620008d09062002c34565b600054600160a01b900460ff1662000c0f5760405162461bcd60e51b8152600401620008d09062002a82565b620008a162001719565b600060085442101562000c2f57506000620008a1565b600854421015801562000c43575060095442105b1562000c5257506001620008a1565b60001960185414801562000c7c5750600a5462000c79906224ea0063ffffffff6200179616565b42105b1562000c8b57506002620008a1565b50600390565b60038062000c9e62000c19565b600381111562000caa57fe5b1462000cca5760405162461bcd60e51b8152600401620008d09062002c69565b600054600160a01b900460ff161562000cf75760405162461bcd60e51b8152600401620008d09062002b92565b6002600154141562000d1d5760405162461bcd60e51b8152600401620008d09062002cdd565b600260015560075462000d385762000d34620007dd565b6007555b6018546000908152601060205260409020541562000d605762000d5a620017be565b62000d6a565b62000d6a62001811565b62000d7462001840565b5060018055565b600f5481565b60095481565b60085481565b60126020526000908152604090205481565b6060601780548060200260200160405190810160405280929190818152602001828054801562000df957602002820191906000526020600020905b81546001600160a01b0316815260019091019060200180831162000dda575b5050505050905090565b600054600160a01b900460ff1690565b62000e1d62001715565b6000546001600160a01b0390811691161462000e4d5760405162461bcd60e51b8152600401620008d09062002c34565b600080546040516001600160a01b03909116907f8be0079c531659141344cd1fd0a4f28419497f9722a3daafe3b4186f6b6457e0908390a3600080546001600160a01b0319169055565b6006546001600160a01b031681565b600c805460408051602060026001851615610100026000190190941693909304601f8101849004840282018401909252818152929183018282801562000b125780601f1062000ae65761010080835404028352916020019162000b12565b60008181526013602090815260409182902080548351818402810184019094528084526060939283018282801562000f5c57602002820191906000526020600020905b81548152602001906001019080831162000f47575b50505050509050919050565b60075481565b600062000f7a62001715565b6000546001600160a01b0390811691161462000faa5760405162461bcd60e51b8152600401620008d09062002c34565b600054600160a01b900460ff161562000fd75760405162461bcd60e51b8152600401620008d09062002b92565b620008a1620019b3565b6000546001600160a01b031690565b60185481565b600754600090156200100c5750600754620008a1565b62001016620007dd565b9050620008a1565b6003546001600160a01b031681565b6060806200103a62001a1e565b6006546040516307c0329d60e21b81529192506001600160a01b031690631f00ca74906200106f908690859060040162002d14565b60006040518083038186803b1580156200108857600080fd5b505afa1580156200109d573d6000803e3d6000fd5b505050506040513d6000823e601f3d908101601f19168201604052620010c7919081019062002616565b9392505050565b600b5481565b6005546001600160a01b031681565b60155481565b60116020526000908152604090205481565b6060600d805480602002602001604051908101604052809291908181526020016000905b82821015620011d05760008481526020908190208301805460408051601f6002600019610100600187161502019094169390930492830185900485028101850190915281815292830182828015620011bb5780601f106200118f57610100808354040283529160200191620011bb565b820191906000526020600020905b8154815290600101906020018083116200119d57829003601f168201915b5050505050815260200190600101906200111f565b50505050905090565b60165481565b60001981565b600e818154811062000b8d57fe5b6001806200120062000c19565b60038111156200120c57fe5b146200122c5760405162461bcd60e51b8152600401620008d09062002c69565b600054600160a01b900460ff1615620012595760405162461bcd60e51b8152600401620008d09062002b92565b62001265848462001b20565b6200127233848462001d50565b6200127d8362001e1d565b50505050565b60008181526014602090815260409182902080548351818402810184019094528084526060939283018282801562000f5c576020028201919060005260206000209081548152602001906001019080831162000f475750505050509050919050565b6004546001600160a01b031681565b6060600e80548060200260200160405190810160405280929190818152602001828054801562000df9576020028201919060005260206000209081546001600160a01b0316815260019091019060200180831162000dda575050505050905090565b6224ea0081565b6200136762001715565b6000546001600160a01b03908116911614620013975760405162461bcd60e51b8152600401620008d09062002c34565b6001600160a01b038116620013c05760405162461bcd60e51b8152600401620008d09062002ab0565b600080546040516001600160a01b03808516939216917f8be0079c531659141344cd1fd0a4f28419497f9722a3daafe3b4186f6b6457e091a3600080546001600160a01b0319166001600160a01b0392909216919091179055565b60025461010090046001600160a01b031681565b60175490565b60006200147983836040518060400160405280601e81526020017f536166654d6174683a207375627472616374696f6e206f766572666c6f77000081525062001e92565b90505b92915050565b600d80546001810182556000919091528151620014c7917fd7b6990105719101dabeb77144f2a3385c8033acd3af97e9423a695e81ad1eb5019060208401906200237b565b50600081604051620014d99062002400565b620014e5919062002a6d565b604051809103906000f08015801562001502573d6000803e3d6000fd5b50600e80546001810182556000919091527fbb7b4a454dc3493923482f07822329ed19e8244eff582cc204f8554c3620c3fd0180546001600160a01b0319166001600160a01b03929092169190911790555050565b60055460405163762c38fd60e01b81526000916001600160a01b03169063762c38fd9062001594908a908a908a908a908a908a9060040162002d6e565b602060405180830381600087803b158015620015af57600080fd5b505af1158015620015c4573d6000803e3d6000fd5b505050506040513d601f19601f82011682018060405250810190620015ea9190620026d4565b979650505050505050565b600554600b54604051633fc6a14f60e11b81526000926001600160a01b031691637f8d429e916200162a919060040162002a4f565b60206040518083038186803b1580156200164357600080fd5b505afa15801562001658573d6000803e3d6000fd5b505050506040513d601f19601f820116820180604052508101906200167e9190620026b2565b905090565b600554600b5460405163684e62bf60e11b815260009283926001600160a01b039091169163d09cc57e91620016bb9160040162002a4f565b60206040518083038186803b158015620016d457600080fd5b505afa158015620016e9573d6000803e3d6000fd5b505050506040513d601f19601f820116820180604052508101906200170f9190620026d4565b91505090565b3390565b600054600160a01b900460ff16620017455760405162461bcd60e51b8152600401620008d09062002a82565b6000805460ff60a01b191690557f5db9ee0a495bf2e6ff9c91a7834c1ba4fdd244a5e8aa4e537bd38aeae4b073aa6200177d62001715565b6040516200178c9190620028cc565b60405180910390a1565b600082820183811015620014795760405162461bcd60e51b8152600401620008d09062002af6565b6000620017cd60185462001ec1565b90506000620017ed620017df62001faa565b839063ffffffff6200179616565b905080156200180d57620018018162002082565b6200180d3382620020b4565b5050565b6000620017cd620018306016546015546200143590919063ffffffff16565b6200183a62001faa565b62002161565b60005b600f54811015620019b0576000600e82815481106200185e57fe5b60009182526020822001546040516370a0823160e01b81526001600160a01b03909116925082906370a08231906200189b903390600401620028cc565b60206040518083038186803b158015620018b457600080fd5b505afa158015620018c9573d6000803e3d6000fd5b505050506040513d601f19601f82011682018060405250810190620018ef9190620026d4565b90508015620019a55760008381526011602052604090205462001919908263ffffffff6200179616565b6000848152601160205260409020556016546200193d908263ffffffff6200179616565b601655604051632770a7eb60e21b81526001600160a01b03831690639dc29fac90620019709033908590600401620028e0565b600060405180830381600087803b1580156200198b57600080fd5b505af1158015620019a0573d6000803e3d6000fd5b505050505b505060010162001843565b50565b600054600160a01b900460ff1615620019e05760405162461bcd60e51b8152600401620008d09062002b92565b6000805460ff60a01b1916600160a01b1790557f62e78cea01bee320cd4e420270b5ea74000d11b0c9f74754ebdbfc544b05a2586200177d62001715565b6040805160028082526060808301845292839291906020830190803683375050600654604080516315ab88c960e31b815290519394506001600160a01b039091169263ad5c464892506004808301926020929190829003018186803b15801562001a8757600080fd5b505afa15801562001a9c573d6000803e3d6000fd5b505050506040513d601f19601f8201168201806040525081019062001ac29190620025f7565b8160008151811062001ad057fe5b6001600160a01b0392831660209182029290920101526002548251610100909104909116908290600190811062001b0357fe5b6001600160a01b0390921660209283029190910190910152905090565b6000600e838154811062001b3057fe5b60009182526020808320909101548583526013825260408084208054600181810183559186528486200187905587855260148452818520805491820181558552929093204292019190915590516370a0823160e01b81526001600160a01b03909116915081906370a082319062001bac903390600401620028cc565b60206040518083038186803b15801562001bc557600080fd5b505afa15801562001bda573d6000803e3d6000fd5b505050506040513d601f19601f8201168201806040525081019062001c009190620026d4565b62001c73576017805460018181019092557fc624b66cc0138b8fabc209247f72d758e1cf3343756d543badbf24212bed8c150180546001600160a01b0319163317905560008481526012602052604090205462001c639163ffffffff6200179616565b6000848152601260205260409020555b6040516340c10f1960e01b81526001600160a01b038216906340c10f199062001ca39033908690600401620028e0565b600060405180830381600087803b15801562001cbe57600080fd5b505af115801562001cd3573d6000803e3d6000fd5b505060155462001ced925090508363ffffffff6200179616565b60155560008381526010602052604090205462001d11908363ffffffff6200179616565b60008481526010602052604080822092909255905133917fef3b3ae531a4f494c95e537ec1fe385cfe5c1146cb4c1d850b24bad38595804991a2505050565b341562001d695762001d6382826200219d565b62001e18565b6002546040516323b872dd60e01b81526101009091046001600160a01b0316906323b872dd9062001da390869030908790600401620028f9565b602060405180830381600087803b15801562001dbe57600080fd5b505af115801562001dd3573d6000803e3d6000fd5b505050506040513d601f19601f8201168201806040525081019062001df99190620026b2565b62001e185760405162461bcd60e51b8152600401620008d09062002caf565b505050565b60048054600254604051636968703360e11b81526001600160a01b039283169363d2d0e0669362001e5b93610100900416918691600091016200291d565b600060405180830381600087803b15801562001e7657600080fd5b505af115801562001e8b573d6000803e3d6000fd5b5050505050565b6000818484111562001eb95760405162461bcd60e51b8152600401620008d0919062002a6d565b505050900390565b600080600e838154811062001ed257fe5b60009182526020822001546040516370a0823160e01b81526001600160a01b03909116925082906370a082319062001f0f903390600401620028cc565b60206040518083038186803b15801562001f2857600080fd5b505afa15801562001f3d573d6000803e3d6000fd5b505050506040513d601f19601f8201168201806040525081019062001f639190620026d4565b6000858152601160209081526040808320546010909252822054929350909162001f939163ffffffff6200143516565b905062001fa1818362002161565b95945050505050565b600080805b600f548110156200207c576000600e828154811062001fca57fe5b60009182526020822001546040516370a0823160e01b81526001600160a01b03909116925082906370a082319062002007903390600401620028cc565b60206040518083038186803b1580156200202057600080fd5b505afa15801562002035573d6000803e3d6000fd5b505050506040513d601f19601f820116820180604052508101906200205b9190620026d4565b90506200206f848263ffffffff6200179616565b9350505060010162001faf565b50905090565b60035460405163db006a7560e01b81526001600160a01b039091169063db006a759062001e5b90849060040162002a4f565b60025460405163a9059cbb60e01b81526101009091046001600160a01b03169063a9059cbb90620020ec9085908590600401620028e0565b602060405180830381600087803b1580156200210757600080fd5b505af11580156200211c573d6000803e3d6000fd5b505050506040513d601f19601f82011682018060405250810190620021429190620026b2565b6200180d5760405162461bcd60e51b8152600401620008d09062002caf565b60008083156200147957600062002177620007dd565b905062001fa18562002190838763ffffffff620022c216565b9063ffffffff6200230216565b6060620021a962001a1e565b60065460405163fb3bdb4160e01b81529192506001600160a01b03169063fb3bdb41903490620021e490879086903090899060040162002d37565b6000604051808303818588803b158015620021fe57600080fd5b505af115801562002213573d6000803e3d6000fd5b50505050506040513d6000823e601f3d908101601f191682016040526200223e919081019062002616565b506000336001600160a01b0316476040516200225a90620008a1565b60006040518083038185875af1925050503d806000811462002299576040519150601f19603f3d011682016040523d82523d6000602084013e6200229e565b606091505b50509050806200127d5760405162461bcd60e51b8152600401620008d09062002b64565b600082620022d3575060006200147c565b82820282848281620022e157fe5b0414620014795760405162461bcd60e51b8152600401620008d09062002bbc565b60006200147983836040518060400160405280601a81526020017f536166654d6174683a206469766973696f6e206279207a65726f00000000000081525060008183620023645760405162461bcd60e51b8152600401620008d0919062002a6d565b5060008385816200237157fe5b0495945050505050565b828054600181600116156101000203166002900490600052602060002090601f016020900481019282601f10620023be57805160ff1916838001178555620023ee565b82800160010185558215620023ee579182015b82811115620023ee578251825591602001919060010190620023d1565b50620023fc9291506200240e565b5090565b6113b28062002e1b83390190565b620008a191905b80821115620023fc576000815560010162002415565b80356200147c8162002e04565b600082601f83011262002449578081fd5b62002455606062002dbb565b90508082846060850111156200246a57600080fd5b60005b60038110156200249a578135620024848162002e04565b835260209283019291909101906001016200246d565b50505092915050565b600082601f830112620024b4578081fd5b8135620024cb620024c58262002de3565b62002dbb565b818152915060208083019084810160005b848110156200250957620024f6888484358a01016200256a565b84529282019290820190600101620024dc565b505050505092915050565b600082601f83011262002525578081fd5b62002531608062002dbb565b90508082846080850111156200254657600080fd5b60005b60048110156200249a57813583526020928301929091019060010162002549565b600082601f8301126200257b578081fd5b813567ffffffffffffffff81111562002592578182fd5b620025a7601f8201601f191660200162002dbb565b9150808252836020828501011115620025bf57600080fd5b8060208401602084013760009082016020015292915050565b600060208284031215620025ea578081fd5b8135620014798162002e04565b60006020828403121562002609578081fd5b8151620014798162002e04565b6000602080838503121562002629578182fd5b825167ffffffffffffffff81111562002640578283fd5b80840185601f82011262002652578384fd5b8051915062002665620024c58362002de3565b828152838101908285018585028401860189101562002682578687fd5b8693505b84841015620026a657805183526001939093019291850191850162002686565b50979650505050505050565b600060208284031215620026c4578081fd5b8151801515811462001479578182fd5b600060208284031215620026e6578081fd5b5051919050565b60008060008060008060008060006101c08a8c0312156200270c578485fd5b620027188b8b6200242b565b9850620027298b60208c0162002438565b97506200273a8b60808c016200242b565b96506200274b8b60a08c016200242b565b955060c08a013567ffffffffffffffff8082111562002768578687fd5b620027768d838e016200256a565b9650620027878d60e08e0162002514565b9550620027998d6101608e016200242b565b94506101808c0135915080821115620027b0578384fd5b620027be8d838e016200256a565b93506101a08c0135915080821115620027d5578283fd5b50620027e48c828d01620024a3565b9150509295985092959850929598565b60006020828403121562002806578081fd5b5035919050565b60008060006060848603121562002822578283fd5b505081359360208301359350604090920135919050565b6000815180845260208085019450808401835b83811015620028735781516001600160a01b0316875295820195908201906001016200284c565b509495945050505050565b60008151808452815b81811015620028a55760208185018101518683018201520162002887565b81811115620028b75782602083870101525b50601f01601f19169290920160200192915050565b6001600160a01b0391909116815260200190565b6001600160a01b03929092168252602082015260400190565b6001600160a01b039384168152919092166020820152604081019190915260600190565b6001600160a01b03939093168352602083019190915261ffff16604082015260600190565b60006020825262001479602083018462002839565b6020808252825182820181905260009190848201906040850190845b818110156200299a5783516001600160a01b03168352928401929184019160010162002973565b50909695505050505050565b6000602080830181845280855180835260408601915060408482028701019250838701855b82811015620029fd57603f19888603018452620029ea8583516200287e565b94509285019290850190600101620029cb565b5092979650505050505050565b6020808252825182820181905260009190848201906040850190845b818110156200299a5783518352928401929184019160010162002a26565b901515815260200190565b90815260200190565b602081016004831062002a6757fe5b91905290565b6000602082526200147960208301846200287e565b60208082526014908201527314185d5cd8589b194e881b9bdd081c185d5cd95960621b604082015260600190565b60208082526026908201527f4f776e61626c653a206e6577206f776e657220697320746865207a65726f206160408201526564647265737360d01b606082015260800190565b6020808252601b908201527f536166654d6174683a206164646974696f6e206f766572666c6f770000000000604082015260600190565b60208082526018908201527f4f7261636c6520686173206e6f742066696e616c697365640000000000000000604082015260600190565b6020808252601490820152731499599d5b99081bd9881155120819985a5b195960621b604082015260600190565b60208082526010908201526f14185d5cd8589b194e881c185d5cd95960821b604082015260600190565b60208082526021908201527f536166654d6174683a206d756c7469706c69636174696f6e206f766572666c6f6040820152607760f81b606082015260800190565b6020808252601d908201527f436f6e747261637420616c726561647920696e697469616c697a65642e000000604082015260600190565b6020808252818101527f4f776e61626c653a2063616c6c6572206973206e6f7420746865206f776e6572604082015260600190565b60208082526026908201527f66756e6374696f6e2063616e6e6f742062652063616c6c656420617420746869604082015265732074696d6560d01b606082015260800190565b60208082526014908201527310d85cda081d1c985b9cd9995c8819985a5b195960621b604082015260600190565b6020808252601f908201527f5265656e7472616e637947756172643a207265656e7472616e742063616c6c00604082015260600190565b60008382526040602083015262002d2f604083018462002839565b949350505050565b60008582526080602083015262002d52608083018662002839565b6001600160a01b03949094166040830152506060015292915050565b600087825260c0602083015262002d8960c08301886200287e565b6001600160a01b039690961660408301525063ffffffff938416606082015291909216608082015260a0015292915050565b60405181810167ffffffffffffffff8111828210171562002ddb57600080fd5b604052919050565b600067ffffffffffffffff82111562002dfa578081fd5b5060209081020190565b6001600160a01b0381168114620019b057600080fdfe60806040523480156200001157600080fd5b50604051620013b2380380620013b2833981810160405260208110156200003757600080fd5b81019080805160405193929190846401000000008211156200005857600080fd5b9083019060208201858111156200006e57600080fd5b82516401000000008111828201881017156200008957600080fd5b82525081516020918201929091019080838360005b83811015620000b85781810151838201526020016200009e565b50505050905090810190601f168015620000e65780820380516001836020036101000a031916815260200191505b5060408181019052600281526126a160f11b60208083019190915285518695509193506200011c925060039190850190620001b9565b50805162000132906004906020840190620001b9565b50506005805460ff19166012179055506000620001576001600160e01b03620001b416565b60058054610100600160a81b0319166101006001600160a01b03841690810291909117909155604051919250906000907f8be0079c531659141344cd1fd0a4f28419497f9722a3daafe3b4186f6b6457e0908290a350506200025b565b335b90565b828054600181600116156101000203166002900490600052602060002090601f016020900481019282601f10620001fc57805160ff19168380011785556200022c565b828001600101855582156200022c579182015b828111156200022c5782518255916020019190600101906200020f565b506200023a9291506200023e565b5090565b620001b691905b808211156200023a576000815560010162000245565b611147806200026b6000396000f3fe6080604052600436106100f75760003560e01c8063715018a61161008a578063a457c2d711610059578063a457c2d7146103a5578063a9059cbb146103de578063dd62ed3e14610417578063f2fde38b14610452576100fe565b8063715018a6146103115780638da5cb5b1461032657806395d89b41146103575780639dc29fac1461036c576100fe565b8063313ce567116100c6578063313ce56714610241578063395093511461026c57806340c10f19146102a557806370a08231146102de576100fe565b806306fdde0314610100578063095ea7b31461018a57806318160ddd146101d757806323b872dd146101fe576100fe565b366100fe57005b005b34801561010c57600080fd5b50610115610485565b6040805160208082528351818301528351919283929083019185019080838360005b8381101561014f578181015183820152602001610137565b50505050905090810190601f16801561017c5780820380516001836020036101000a031916815260200191505b509250505060405180910390f35b34801561019657600080fd5b506101c3600480360360408110156101ad57600080fd5b506001600160a01b03813516906020013561051b565b604080519115158252519081900360200190f35b3480156101e357600080fd5b506101ec610538565b60408051918252519081900360200190f35b34801561020a57600080fd5b506101c36004803603606081101561022157600080fd5b506001600160a01b0381358116916020810135909116906040013561053e565b34801561024d57600080fd5b506102566105cb565b6040805160ff9092168252519081900360200190f35b34801561027857600080fd5b506101c36004803603604081101561028f57600080fd5b506001600160a01b0381351690602001356105d4565b3480156102b157600080fd5b506100fe600480360360408110156102c857600080fd5b506001600160a01b038135169060200135610628565b3480156102ea57600080fd5b506101ec6004803603602081101561030157600080fd5b50356001600160a01b0316610693565b34801561031d57600080fd5b506100fe6106ae565b34801561033257600080fd5b5061033b61075b565b604080516001600160a01b039092168252519081900360200190f35b34801561036357600080fd5b5061011561076f565b34801561037857600080fd5b506100fe6004803603604081101561038f57600080fd5b506001600160a01b0381351690602001356107d0565b3480156103b157600080fd5b506101c3600480360360408110156103c857600080fd5b506001600160a01b038135169060200135610837565b3480156103ea57600080fd5b506101c36004803603604081101561040157600080fd5b506001600160a01b0381351690602001356108a5565b34801561042357600080fd5b506101ec6004803603604081101561043a57600080fd5b506001600160a01b03813581169160200135166108b9565b34801561045e57600080fd5b506100fe6004803603602081101561047557600080fd5b50356001600160a01b03166108e4565b60038054604080516020601f60026000196101006001881615020190951694909404938401819004810282018101909252828152606093909290918301828280156105115780601f106104e657610100808354040283529160200191610511565b820191906000526020600020905b8154815290600101906020018083116104f457829003601f168201915b5050505050905090565b600061052f6105286109ed565b84846109f1565b50600192915050565b60025490565b600061054b848484610add565b6105c1846105576109ed565b6105bc8560405180606001604052806028815260200161103b602891396001600160a01b038a166000908152600160205260408120906105956109ed565b6001600160a01b03168152602081019190915260400160002054919063ffffffff610c4416565b6109f1565b5060019392505050565b60055460ff1690565b600061052f6105e16109ed565b846105bc85600160006105f26109ed565b6001600160a01b03908116825260208083019390935260409182016000908120918c16815292529020549063ffffffff610cdb16565b6106306109ed565b60055461010090046001600160a01b03908116911614610685576040805162461bcd60e51b81526020600482018190526024820152600080516020611063833981519152604482015290519081900360640190fd5b61068f8282610d3c565b5050565b6001600160a01b031660009081526020819052604090205490565b6106b66109ed565b60055461010090046001600160a01b0390811691161461070b576040805162461bcd60e51b81526020600482018190526024820152600080516020611063833981519152604482015290519081900360640190fd5b60055460405160009161010090046001600160a01b0316907f8be0079c531659141344cd1fd0a4f28419497f9722a3daafe3b4186f6b6457e0908390a360058054610100600160a81b0319169055565b60055461010090046001600160a01b031690565b60048054604080516020601f60026000196101006001881615020190951694909404938401819004810282018101909252828152606093909290918301828280156105115780601f106104e657610100808354040283529160200191610511565b6107d86109ed565b60055461010090046001600160a01b0390811691161461082d576040805162461bcd60e51b81526020600482018190526024820152600080516020611063833981519152604482015290519081900360640190fd5b61068f8282610e38565b600061052f6108446109ed565b846105bc856040518060600160405280602581526020016110ed602591396001600061086e6109ed565b6001600160a01b03908116825260208083019390935260409182016000908120918d1681529252902054919063ffffffff610c4416565b600061052f6108b26109ed565b8484610add565b6001600160a01b03918216600090815260016020908152604080832093909416825291909152205490565b6108ec6109ed565b60055461010090046001600160a01b03908116911614610941576040805162461bcd60e51b81526020600482018190526024820152600080516020611063833981519152604482015290519081900360640190fd5b6001600160a01b0381166109865760405162461bcd60e51b8152600401808060200182810382526026815260200180610fcd6026913960400191505060405180910390fd5b6005546040516001600160a01b0380841692610100900416907f8be0079c531659141344cd1fd0a4f28419497f9722a3daafe3b4186f6b6457e090600090a3600580546001600160a01b0390921661010002610100600160a81b0319909216919091179055565b3390565b6001600160a01b038316610a365760405162461bcd60e51b81526004018080602001828103825260248152602001806110c96024913960400191505060405180910390fd5b6001600160a01b038216610a7b5760405162461bcd60e51b8152600401808060200182810382526022815260200180610ff36022913960400191505060405180910390fd5b6001600160a01b03808416600081815260016020908152604080832094871680845294825291829020859055815185815291517f8c5be1e5ebec7d5bd14f71427d1e84f3dd0314c0f7b2291e5b200ac8c7c3b9259281900390910190a3505050565b6001600160a01b038316610b225760405162461bcd60e51b81526004018080602001828103825260258152602001806110a46025913960400191505060405180910390fd5b6001600160a01b038216610b675760405162461bcd60e51b8152600401808060200182810382526023815260200180610f886023913960400191505060405180910390fd5b610b72838383610f40565b610bb581604051806060016040528060268152602001611015602691396001600160a01b038616600090815260208190526040902054919063ffffffff610c4416565b6001600160a01b038085166000908152602081905260408082209390935590841681522054610bea908263ffffffff610cdb16565b6001600160a01b038084166000818152602081815260409182902094909455805185815290519193928716927fddf252ad1be2c89b69c2b068fc378daa952ba7f163c4a11628f55a4df523b3ef92918290030190a3505050565b60008184841115610cd35760405162461bcd60e51b81526004018080602001828103825283818151815260200191508051906020019080838360005b83811015610c98578181015183820152602001610c80565b50505050905090810190601f168015610cc55780820380516001836020036101000a031916815260200191505b509250505060405180910390fd5b505050900390565b600082820183811015610d35576040805162461bcd60e51b815260206004820152601b60248201527f536166654d6174683a206164646974696f6e206f766572666c6f770000000000604482015290519081900360640190fd5b9392505050565b6001600160a01b038216610d97576040805162461bcd60e51b815260206004820152601f60248201527f45524332303a206d696e7420746f20746865207a65726f206164647265737300604482015290519081900360640190fd5b610da360008383610f40565b600254610db6908263ffffffff610cdb16565b6002556001600160a01b038216600090815260208190526040902054610de2908263ffffffff610cdb16565b6001600160a01b0383166000818152602081815260408083209490945583518581529351929391927fddf252ad1be2c89b69c2b068fc378daa952ba7f163c4a11628f55a4df523b3ef9281900390910190a35050565b6001600160a01b038216610e7d5760405162461bcd60e51b81526004018080602001828103825260218152602001806110836021913960400191505060405180910390fd5b610e8982600083610f40565b610ecc81604051806060016040528060228152602001610fab602291396001600160a01b038516600090815260208190526040902054919063ffffffff610c4416565b6001600160a01b038316600090815260208190526040902055600254610ef8908263ffffffff610f4516565b6002556040805182815290516000916001600160a01b038516917fddf252ad1be2c89b69c2b068fc378daa952ba7f163c4a11628f55a4df523b3ef9181900360200190a35050565b505050565b6000610d3583836040518060400160405280601e81526020017f536166654d6174683a207375627472616374696f6e206f766572666c6f770000815250610c4456fe45524332303a207472616e7366657220746f20746865207a65726f206164647265737345524332303a206275726e20616d6f756e7420657863656564732062616c616e63654f776e61626c653a206e6577206f776e657220697320746865207a65726f206164647265737345524332303a20617070726f766520746f20746865207a65726f206164647265737345524332303a207472616e7366657220616d6f756e7420657863656564732062616c616e636545524332303a207472616e7366657220616d6f756e74206578636565647320616c6c6f77616e63654f776e61626c653a2063616c6c6572206973206e6f7420746865206f776e657245524332303a206275726e2066726f6d20746865207a65726f206164647265737345524332303a207472616e736665722066726f6d20746865207a65726f206164647265737345524332303a20617070726f76652066726f6d20746865207a65726f206164647265737345524332303a2064656372656173656420616c6c6f77616e63652062656c6f77207a65726fa26469706673582212209afe7f213cc02a61ed8d3c20879dbaf98ec26ac888bdc1217855a5f7e212b40f64736f6c634300060a0033a264697066735822122025bb5df39328d5a564ff84c510ca7a061e25f8c3ae25d8a3ab24c0bef915f61664736f6c634300060a0033",
  "immutableReferences": {},
  "source": "//SPDX-License-Identifier: UNLICENSED\npragma solidity ^0.6.0;\npragma experimental ABIEncoderV2;\n\nimport '@nomiclabs/buidler/console.sol';\nimport '@openzeppelin/contracts/math/SafeMath.sol';\nimport '@openzeppelin/contracts/utils/ReentrancyGuard.sol';\nimport '@openzeppelin/contracts/utils/Pausable.sol';\nimport '@openzeppelin/contracts/access/Ownable.sol';\nimport './interfaces/IAave.sol';\nimport './interfaces/IDai.sol';\nimport './interfaces/IRealitio.sol';\nimport './interfaces/IUniswapV2Router02.sol';\nimport './Token.sol';\n\n/// @title The MagicBet market instance\n/// @notice This contract is the framework of each new market\ncontract MBMarket is Ownable, Pausable, ReentrancyGuard {\n    using SafeMath for uint256;\n\n    enum States {WAITING, OPEN, LOCKED, WITHDRAW}\n\n    ////////////////////////////////////\n    //////// VARIABLES /////////////////\n    ////////////////////////////////////\n\n    uint256 public constant UNRESOLVED_OUTCOME_RESULT = type(uint256).max;\n    uint256 public constant ORACLE_TIMEOUT_TIME = 4 weeks;\n    bool private isInitialized = false;\n\n    //////// Externals ////////\n    Dai public dai;\n    IaToken public aToken;\n    IAaveLendingPool public aaveLendingPool;\n    IRealitio public realitio;\n    IUniswapV2Router02 public uniswapRouter;\n\n    //////// Market Details ////////\n    uint256 public maxInterest = 0; // for the front end\n    uint256 public marketOpeningTime; // when the market can opened for bets\n    uint256 public marketLockingTime; // when the market is no longer open for bets\n    uint256 public marketResolutionTime; // the time the realitio market is able to be answered, uint32 inside Realitio\n    bytes32 public questionId; // the question ID of the question on realitio\n    string public eventName;\n    string[] public outcomeNames;\n    Token[] public tokenAddresses;\n    uint256 public numberOfOutcomes;\n\n    //////// Betting variables ////////\n    // totalBetsPerOutcome and betsWithdrawnPerOutcome keep track of the remaining 'principal'\n    mapping(uint256 => uint256) public totalBetsPerOutcome;\n    mapping(uint256 => uint256) public betsWithdrawnPerOutcome;\n    mapping(uint256 => uint256) public usersPerOutcome;\n    mapping(uint256 => uint256[]) private betAmountsArray;\n    mapping(uint256 => uint256[]) private timestampsArray;\n\n    uint256 public totalBets;\n    uint256 public betsWithdrawn;\n    address[] public participants;\n\n    //////// Market resolution variables ////////\n    uint256 public winningOutcome;\n\n    ////////////////////////////////////\n    //////// CONSTRUCTOR ///////////////\n    ////////////////////////////////////\n    function initialize(\n        Dai _daiAddress,\n        address[3] memory _aaveAddresses,\n        IRealitio _realitioAddress,\n        IUniswapV2Router02 _uniswapRouter,\n        string memory _eventName,\n        uint256[4] memory _marketTimes,\n        address _arbitrator,\n        string memory _realitioQuestion,\n        string[] memory _outcomeNamesArray\n    ) public {\n        require(!isInitialized, 'Contract already initialized.');\n\n        winningOutcome = UNRESOLVED_OUTCOME_RESULT;\n\n        // externals\n        dai = _daiAddress;\n        aToken = IaToken(_aaveAddresses[0]);\n        aaveLendingPool = IAaveLendingPool(_aaveAddresses[1]);\n        realitio = _realitioAddress;\n        uniswapRouter = _uniswapRouter;\n\n        // approvals\n        dai.approve(_aaveAddresses[2], type(uint256).max);\n\n        // pass arguments to public variables\n        eventName = _eventName;\n        marketOpeningTime = _marketTimes[0];\n        marketLockingTime = _marketTimes[1];\n        marketResolutionTime = uint32(_marketTimes[2]);\n        numberOfOutcomes = _outcomeNamesArray.length;\n\n        // create the tokens\n        for (uint256 i = 0; i < numberOfOutcomes; i++) {\n            _createTokenContract(_outcomeNamesArray[i]);\n        }\n\n        // Create the question on Realitio\n        uint256 _templateId = 2;\n        uint256 _nonce = now; // <- should probably change this to zero for mainnet\n        questionId = _postQuestion(\n            _templateId,\n            _realitioQuestion,\n            _arbitrator,\n            uint32(_marketTimes[3]),\n            uint32(marketResolutionTime),\n            _nonce\n        );\n    }\n\n    ////////////////////////////////////\n    //////// EVENTS ////////////////////\n    ////////////////////////////////////\n    event ParticipantEntered(address indexed participant);\n    event ParticipantWithdrawn(address indexed participant);\n    event StateChanged(States state);\n    event WinnerSelected(address indexed winner);\n\n    ////////////////////////////////////\n    //////// INITIAL SETUP /////////////\n    ////////////////////////////////////\n\n    function _createTokenContract(string memory _outcomeName) internal {\n        outcomeNames.push(_outcomeName);\n        Token tokenContract = new Token({_tokenName: _outcomeName});\n        tokenAddresses.push(tokenContract);\n    }\n\n    ////////////////////////////////////\n    //////// MODIFIERS /////////////////\n    ////////////////////////////////////\n    modifier checkState(States requiredState) {\n        require(getCurrentState() == requiredState, 'function cannot be called at this time');\n        _;\n    }\n\n    ////////////////////////////////////\n    ////////// VIEW FUNCTIONS //////////\n    ////////////////////////////////////\n    function getCurrentState() public view returns (States) {\n        if (now < marketOpeningTime) {\n            return States.WAITING;\n        }\n\n        if (now >= marketOpeningTime && now < marketLockingTime) {\n            return States.OPEN;\n        }\n\n        if (winningOutcome == UNRESOLVED_OUTCOME_RESULT && now < (marketResolutionTime.add(ORACLE_TIMEOUT_TIME))) {\n            return States.LOCKED;\n        }\n\n        return States.WITHDRAW;\n    }\n\n    function getOutcomeNames() external view returns (string[] memory) {\n        return outcomeNames;\n    }\n\n    function getTokenAddresses() external view returns (Token[] memory) {\n        return tokenAddresses;\n    }\n\n    function getParticipants() external view returns (address[] memory) {\n        return participants;\n    }\n\n    function getBetAmountsArray(uint256 _outcome) external view returns (uint256[] memory) {\n        return betAmountsArray[_outcome];\n    }\n\n    function getTimestampsArray(uint256 _outcome) external view returns (uint256[] memory) {\n        return timestampsArray[_outcome];\n    }\n\n    function getMarketSize() public view returns (uint256) {\n        return participants.length;\n    }\n\n    function getMaxTotalInterest() public view returns (uint256) {\n        if (maxInterest > 0) {\n            return maxInterest;\n        } else {\n            return getTotalInterest();\n        }\n    }\n\n    function getTotalInterest() public view returns (uint256) {\n        uint256 _remainingBet = totalBets.sub(betsWithdrawn);\n        uint256 _totalAdaibalances = aToken.balanceOf(address(this));\n        uint256 _totalInterest = _totalAdaibalances.sub(_remainingBet);\n        return _totalInterest;\n    }\n\n    function getEstimatedETHforDAI(uint256 daiAmount) public view returns (uint256[] memory) {\n        address[] memory path = _getDAIforETHpath();\n        return uniswapRouter.getAmountsIn(daiAmount, path);\n    }\n\n    ////////////////////////////////////\n    //////// REALIITO FUNCTIONS ////////\n    ////////////////////////////////////\n\n    /// @notice posts the market question onto realit.io\n    /// @param template_id always 2\n    /// @param question string passed to realitio\n    /// @param arbitrator = kleros\n    /// @param timeout how long answer can be challenged until finalised\n    /// @param opening_ts when the question can first be answered\n    /// @param nonce nonce\n    /// @return the ID of the question on realitio\n    function _postQuestion(\n        uint256 template_id,\n        string memory question,\n        address arbitrator,\n        uint32 timeout,\n        uint32 opening_ts,\n        uint256 nonce\n    ) internal returns (bytes32) {\n        return realitio.askQuestion(template_id, question, arbitrator, timeout, opening_ts, nonce);\n    }\n\n    /// @notice determines the winning outcome from realitio\n    /// @dev this function call will revert if it has not yet resolved\n    /// @return the winning outcome of the event\n    function _determineWinner() internal view returns (uint256) {\n        bytes32 _winningOutcome = realitio.resultFor(questionId);\n        return uint256(_winningOutcome);\n    }\n\n    /// @notice Function called by determineWinner to see if question has been finalized\n    /// @return whether or not the question has been finalized on realitio\n    function _isQuestionFinalized() internal view returns (bool) {\n        return realitio.isFinalized(questionId);\n    }\n\n    ////////////////////////////////////\n    /////// EXTERNAL DAI CALLS /////////\n    ////////////////////////////////////\n\n    /// @notice common function for all outgoing DAI transfers\n    /// @param _to address to send to\n    /// @param _amount amount to send\n    function _sendCash(address _to, uint256 _amount) internal {\n        require(dai.transfer(_to, _amount), 'Cash transfer failed');\n    }\n\n    /// @notice common function for all incoming DAI transfers\n    /// @param _from address that is receiving cash\n    /// @param _amount amount to recieve\n    function _receiveCash(\n        address _from,\n        uint256 _amount,\n        uint256 _uniswapDeadline\n    ) internal {\n        if (msg.value > 0) {\n            _swapETHForExactTokenWithUniswap(_amount, _uniswapDeadline);\n            return;\n        }\n\n        require(dai.transferFrom(_from, address(this), _amount), 'Cash transfer failed');\n    }\n\n    ////////////////////////////////////\n    /////// EXTERNAL AAVE CALLS ////////\n    ////////////////////////////////////\n\n    /// @notice swap Dai for aDai\n    function _sendToAave(uint256 _dai) internal {\n        aaveLendingPool.deposit(address(dai), _dai, 0);\n    }\n\n    /// @notice swap aDai for Dai\n    function _redeemFromAave(uint256 _dai) internal {\n        aToken.redeem(_dai);\n    }\n\n    ////////////////////////////////////\n    //////// EXTERNAL FUNCTIONS ////////\n    ////////////////////////////////////\n\n    function placeBet(\n        uint256 _outcome,\n        uint256 _dai,\n        uint256 _uniswapDeadline // set to 0 if paying in DAI\n    ) external payable checkState(States.OPEN) whenNotPaused {\n        _placeBet(_outcome, _dai);\n        _receiveCash(msg.sender, _dai, _uniswapDeadline);\n        _sendToAave(_dai);\n    }\n\n    function determineWinner() external whenNotPaused {\n        require(_isQuestionFinalized(), 'Oracle has not finalised');\n        winningOutcome = _determineWinner();\n    }\n\n    function withdraw() external checkState(States.WITHDRAW) whenNotPaused nonReentrant {\n        if (maxInterest == 0) {\n            maxInterest = getTotalInterest();\n        }\n\n        if (totalBetsPerOutcome[winningOutcome] > 0) {\n            _payoutWinnings();\n        } else {\n            _payoutWinningsInvalid();\n        }\n\n        _burnUsersTokens();\n    }\n\n    ////////////////////////////////////\n    //////// INTERNAL FUNCTIONS ////////\n    ////////////////////////////////////\n\n    /// @notice returns winning user's share of interest\n    /// @param _totalBetAmount total bet among all outcomes\n    /// @param _userBetOutcomeAmount total bet on winning outcome\n    /// @return users's share of the interest\n    function _calculateWinnings(uint256 _totalBetAmount, uint256 _userBetOutcomeAmount)\n        internal\n        view\n        returns (uint256)\n    {\n        uint256 winnings = 0;\n\n        if (_totalBetAmount > 0) {\n            uint256 _totalInterest = getTotalInterest();\n            winnings = (_totalInterest.mul(_userBetOutcomeAmount)).div(_totalBetAmount);\n        }\n\n        return winnings;\n    }\n\n    function _getUserBetsAllOutcomes() internal view returns (uint256) {\n        // get total bet across all outcomes\n        uint256 _userBetsAllOutcomes;\n        for (uint256 i = 0; i < numberOfOutcomes; i++) {\n            Token _token = Token(tokenAddresses[i]);\n            uint256 _userBetThisOutcome = _token.balanceOf(msg.sender);\n            _userBetsAllOutcomes = _userBetsAllOutcomes.add(_userBetThisOutcome);\n        }\n        return _userBetsAllOutcomes;\n    }\n\n    function _getWinningsGivenOutcome(uint256 _outcome) internal view returns (uint256) {\n        Token _token = Token(tokenAddresses[_outcome]);\n        uint256 _userBetOnOutcome = _token.balanceOf(msg.sender);\n        uint256 _totalRemainingBetsOnOutcome = totalBetsPerOutcome[_outcome].sub(betsWithdrawnPerOutcome[_outcome]);\n        return _calculateWinnings(_totalRemainingBetsOnOutcome, _userBetOnOutcome);\n    }\n\n    function _payoutWinnings() internal {\n        uint256 _winnings = _getWinningsGivenOutcome(winningOutcome);\n        uint256 _daiToSend = _winnings.add(_getUserBetsAllOutcomes());\n\n        // externals\n        if (_daiToSend > 0) {\n            _redeemFromAave(_daiToSend);\n            _sendCash(msg.sender, _daiToSend);\n        }\n    }\n\n    function _payoutWinningsInvalid() internal {\n        uint256 _winningsInvalid = _calculateWinnings(totalBets.sub(betsWithdrawn), _getUserBetsAllOutcomes());\n        uint256 _daiToSend = _winningsInvalid.add(_getUserBetsAllOutcomes());\n\n        // externals\n        if (_daiToSend > 0) {\n            _redeemFromAave(_daiToSend);\n            _sendCash(msg.sender, _daiToSend);\n        }\n    }\n\n    function _placeBet(uint256 _outcome, uint256 _dai) internal {\n        Token _token = tokenAddresses[_outcome];\n\n        betAmountsArray[_outcome].push(_dai);\n        timestampsArray[_outcome].push(now);\n\n        if (_token.balanceOf(msg.sender) == 0) {\n            participants.push(msg.sender);\n            usersPerOutcome[_outcome] = usersPerOutcome[_outcome].add(1);\n        }\n\n        _token.mint(msg.sender, _dai);\n        totalBets = totalBets.add(_dai);\n        totalBetsPerOutcome[_outcome] = totalBetsPerOutcome[_outcome].add(_dai);\n\n        emit ParticipantEntered(msg.sender);\n    }\n\n    function _burnUsersTokens() internal {\n        for (uint256 i = 0; i < numberOfOutcomes; i++) {\n            Token _token = Token(tokenAddresses[i]);\n            uint256 _userBetThisOutcome = _token.balanceOf(msg.sender);\n            if (_userBetThisOutcome > 0) {\n                betsWithdrawnPerOutcome[i] = betsWithdrawnPerOutcome[i].add(_userBetThisOutcome);\n                betsWithdrawn = betsWithdrawn.add(_userBetThisOutcome);\n                _token.burn(msg.sender, _userBetThisOutcome);\n            }\n        }\n    }\n\n    function _swapETHForExactTokenWithUniswap(uint256 daiAmount, uint256 deadline) private {\n        address[] memory path = _getDAIforETHpath();\n\n        uniswapRouter.swapETHForExactTokens{value: msg.value}(daiAmount, path, address(this), deadline);\n\n        (bool success, ) = msg.sender.call{value: address(this).balance}(''); // refund leftover ETH\n        require(success, 'Refund of ETH failed');\n    }\n\n    function _getDAIforETHpath() private view returns (address[] memory) {\n        address[] memory path = new address[](2);\n        path[0] = uniswapRouter.WETH();\n        path[1] = address(dai);\n\n        return path;\n    }\n\n    ////////////////////////////////////\n    ///// BOILERPLATE FUNCTIONS ////////\n    ////////////////////////////////////\n    function disableContract() public onlyOwner whenNotPaused returns (bool) {\n        // onlyOwner ensures only factory can pause\n        _pause();\n    }\n\n    function enableContract() public onlyOwner whenPaused returns (bool) {\n        // onlyOwner ensures only factory can unpause\n        _unpause();\n    }\n\n    receive() external payable {}\n\n    fallback() external payable {}\n}\n",
  "sourcePath": "/Users/billy/code/cryptocurrencies/ethereum/ethglobal-2020/BetTogether/BetTogether-Contracts/contracts/MBMarket.sol",
  "compiler": {
    "name": "solc",
    "version": "0.6.10+commit.00c0fcaf.Emscripten.clang"
  },
  "schemaVersion": "3.1.0",
  "updatedAt": "2020-08-08T11:11:29.363Z",
  "networkType": "ethereum",
  "devdoc": {
    "methods": {
      "owner()": {
        "details": "Returns the address of the current owner."
      },
      "paused()": {
        "details": "Returns true if the contract is paused, and false otherwise."
      },
      "renounceOwnership()": {
        "details": "Leaves the contract without owner. It will not be possible to call `onlyOwner` functions anymore. Can only be called by the current owner. NOTE: Renouncing ownership will leave the contract without an owner, thereby removing any functionality that is only available to the owner."
      },
      "transferOwnership(address)": {
        "details": "Transfers ownership of the contract to a new account (`newOwner`). Can only be called by the current owner."
      }
    },
    "title": "The MagicBet market instance"
  },
  "userdoc": {
    "methods": {
      "UNRESOLVED_OUTCOME_RESULT()": {
        "notice": "///////////////////////////////// ///// VARIABLES ///////////////// /////////////////////////////////"
      },
      "dai()": {
        "notice": "///// Externals ////////"
      },
      "disableContract()": {
        "notice": "///////////////////////////////// // BOILERPLATE FUNCTIONS //////// /////////////////////////////////"
      },
      "getCurrentState()": {
        "notice": "///////////////////////////////// /////// VIEW FUNCTIONS ////////// /////////////////////////////////"
      },
      "initialize(address,address[3],address,address,string,uint256[4],address,string,string[])": {
        "notice": "///////////////////////////////// ///// CONSTRUCTOR /////////////// /////////////////////////////////"
      },
      "maxInterest()": {
        "notice": "///// Market Details ////////"
      },
      "placeBet(uint256,uint256,uint256)": {
        "notice": "///////////////////////////////// ///// EXTERNAL FUNCTIONS //////// /////////////////////////////////"
      },
      "totalBetsPerOutcome(uint256)": {
        "notice": "///// Betting variables ////////"
      },
      "winningOutcome()": {
        "notice": "///// Market resolution variables ////////"
      }
    },
    "notice": "This contract is the framework of each new market"
  }
}