{
  "contractName": "MBMarket",
  "abi": [
    {
      "inputs": [
        {
          "internalType": "contract Dai",
          "name": "_daiAddress",
          "type": "address"
        },
        {
          "internalType": "address[3]",
          "name": "_aaveAddresses",
          "type": "address[3]"
        },
        {
          "internalType": "contract IRealitio",
          "name": "_realitioAddress",
          "type": "address"
        },
        {
          "internalType": "contract IUniswapV2Router02",
          "name": "_uniswapRouter",
          "type": "address"
        },
        {
          "internalType": "string",
          "name": "_eventName",
          "type": "string"
        },
        {
          "internalType": "uint256[4]",
          "name": "_marketTimes",
          "type": "uint256[4]"
        },
        {
          "internalType": "address",
          "name": "_arbitrator",
          "type": "address"
        },
        {
          "internalType": "string",
          "name": "_realitioQuestion",
          "type": "string"
        },
        {
          "internalType": "string[]",
          "name": "_outcomeNamesArray",
          "type": "string[]"
        },
        {
          "internalType": "address",
          "name": "_owner",
          "type": "address"
        }
      ],
      "stateMutability": "nonpayable",
      "type": "constructor"
    },
    {
      "anonymous": false,
      "inputs": [
        {
          "indexed": true,
          "internalType": "address",
          "name": "previousOwner",
          "type": "address"
        },
        {
          "indexed": true,
          "internalType": "address",
          "name": "newOwner",
          "type": "address"
        }
      ],
      "name": "OwnershipTransferred",
      "type": "event"
    },
    {
      "anonymous": false,
      "inputs": [
        {
          "indexed": true,
          "internalType": "address",
          "name": "participant",
          "type": "address"
        }
      ],
      "name": "ParticipantEntered",
      "type": "event"
    },
    {
      "anonymous": false,
      "inputs": [
        {
          "indexed": true,
          "internalType": "address",
          "name": "participant",
          "type": "address"
        }
      ],
      "name": "ParticipantWithdrawn",
      "type": "event"
    },
    {
      "anonymous": false,
      "inputs": [
        {
          "indexed": false,
          "internalType": "address",
          "name": "account",
          "type": "address"
        }
      ],
      "name": "Paused",
      "type": "event"
    },
    {
      "anonymous": false,
      "inputs": [
        {
          "indexed": false,
          "internalType": "enum MBMarket.States",
          "name": "state",
          "type": "uint8"
        }
      ],
      "name": "StateChanged",
      "type": "event"
    },
    {
      "anonymous": false,
      "inputs": [
        {
          "indexed": false,
          "internalType": "address",
          "name": "account",
          "type": "address"
        }
      ],
      "name": "Unpaused",
      "type": "event"
    },
    {
      "anonymous": false,
      "inputs": [
        {
          "indexed": true,
          "internalType": "address",
          "name": "winner",
          "type": "address"
        }
      ],
      "name": "WinnerSelected",
      "type": "event"
    },
    {
      "stateMutability": "payable",
      "type": "fallback"
    },
    {
      "inputs": [],
      "name": "ORACLE_TIMEOUT_TIME",
      "outputs": [
        {
          "internalType": "uint256",
          "name": "",
          "type": "uint256"
        }
      ],
      "stateMutability": "view",
      "type": "function"
    },
    {
      "inputs": [],
      "name": "UNRESOLVED_OUTCOME_RESULT",
      "outputs": [
        {
          "internalType": "uint256",
          "name": "",
          "type": "uint256"
        }
      ],
      "stateMutability": "view",
      "type": "function"
    },
    {
      "inputs": [],
      "name": "aToken",
      "outputs": [
        {
          "internalType": "contract IaToken",
          "name": "",
          "type": "address"
        }
      ],
      "stateMutability": "view",
      "type": "function"
    },
    {
      "inputs": [],
      "name": "aaveLendingPool",
      "outputs": [
        {
          "internalType": "contract IAaveLendingPool",
          "name": "",
          "type": "address"
        }
      ],
      "stateMutability": "view",
      "type": "function"
    },
    {
      "inputs": [],
      "name": "betsWithdrawn",
      "outputs": [
        {
          "internalType": "uint256",
          "name": "",
          "type": "uint256"
        }
      ],
      "stateMutability": "view",
      "type": "function"
    },
    {
      "inputs": [
        {
          "internalType": "uint256",
          "name": "",
          "type": "uint256"
        }
      ],
      "name": "betsWithdrawnPerOutcome",
      "outputs": [
        {
          "internalType": "uint256",
          "name": "",
          "type": "uint256"
        }
      ],
      "stateMutability": "view",
      "type": "function"
    },
    {
      "inputs": [],
      "name": "dai",
      "outputs": [
        {
          "internalType": "contract Dai",
          "name": "",
          "type": "address"
        }
      ],
      "stateMutability": "view",
      "type": "function"
    },
    {
      "inputs": [],
      "name": "eventName",
      "outputs": [
        {
          "internalType": "string",
          "name": "",
          "type": "string"
        }
      ],
      "stateMutability": "view",
      "type": "function"
    },
    {
      "inputs": [],
      "name": "marketLockingTime",
      "outputs": [
        {
          "internalType": "uint256",
          "name": "",
          "type": "uint256"
        }
      ],
      "stateMutability": "view",
      "type": "function"
    },
    {
      "inputs": [],
      "name": "marketOpeningTime",
      "outputs": [
        {
          "internalType": "uint256",
          "name": "",
          "type": "uint256"
        }
      ],
      "stateMutability": "view",
      "type": "function"
    },
    {
      "inputs": [],
      "name": "marketResolutionTime",
      "outputs": [
        {
          "internalType": "uint256",
          "name": "",
          "type": "uint256"
        }
      ],
      "stateMutability": "view",
      "type": "function"
    },
    {
      "inputs": [],
      "name": "maxInterest",
      "outputs": [
        {
          "internalType": "uint256",
          "name": "",
          "type": "uint256"
        }
      ],
      "stateMutability": "view",
      "type": "function"
    },
    {
      "inputs": [],
      "name": "numberOfOutcomes",
      "outputs": [
        {
          "internalType": "uint256",
          "name": "",
          "type": "uint256"
        }
      ],
      "stateMutability": "view",
      "type": "function"
    },
    {
      "inputs": [
        {
          "internalType": "uint256",
          "name": "",
          "type": "uint256"
        }
      ],
      "name": "outcomeNames",
      "outputs": [
        {
          "internalType": "string",
          "name": "",
          "type": "string"
        }
      ],
      "stateMutability": "view",
      "type": "function"
    },
    {
      "inputs": [],
      "name": "owner",
      "outputs": [
        {
          "internalType": "address",
          "name": "",
          "type": "address"
        }
      ],
      "stateMutability": "view",
      "type": "function"
    },
    {
      "inputs": [
        {
          "internalType": "uint256",
          "name": "",
          "type": "uint256"
        }
      ],
      "name": "participants",
      "outputs": [
        {
          "internalType": "address",
          "name": "",
          "type": "address"
        }
      ],
      "stateMutability": "view",
      "type": "function"
    },
    {
      "inputs": [],
      "name": "paused",
      "outputs": [
        {
          "internalType": "bool",
          "name": "",
          "type": "bool"
        }
      ],
      "stateMutability": "view",
      "type": "function"
    },
    {
      "inputs": [],
      "name": "questionId",
      "outputs": [
        {
          "internalType": "bytes32",
          "name": "",
          "type": "bytes32"
        }
      ],
      "stateMutability": "view",
      "type": "function"
    },
    {
      "inputs": [],
      "name": "realitio",
      "outputs": [
        {
          "internalType": "contract IRealitio",
          "name": "",
          "type": "address"
        }
      ],
      "stateMutability": "view",
      "type": "function"
    },
    {
      "inputs": [],
      "name": "renounceOwnership",
      "outputs": [],
      "stateMutability": "nonpayable",
      "type": "function"
    },
    {
      "inputs": [
        {
          "internalType": "uint256",
          "name": "",
          "type": "uint256"
        }
      ],
      "name": "tokenAddresses",
      "outputs": [
        {
          "internalType": "contract Token",
          "name": "",
          "type": "address"
        }
      ],
      "stateMutability": "view",
      "type": "function"
    },
    {
      "inputs": [],
      "name": "totalBets",
      "outputs": [
        {
          "internalType": "uint256",
          "name": "",
          "type": "uint256"
        }
      ],
      "stateMutability": "view",
      "type": "function"
    },
    {
      "inputs": [
        {
          "internalType": "uint256",
          "name": "",
          "type": "uint256"
        }
      ],
      "name": "totalBetsPerOutcome",
      "outputs": [
        {
          "internalType": "uint256",
          "name": "",
          "type": "uint256"
        }
      ],
      "stateMutability": "view",
      "type": "function"
    },
    {
      "inputs": [
        {
          "internalType": "address",
          "name": "newOwner",
          "type": "address"
        }
      ],
      "name": "transferOwnership",
      "outputs": [],
      "stateMutability": "nonpayable",
      "type": "function"
    },
    {
      "inputs": [],
      "name": "uniswapRouter",
      "outputs": [
        {
          "internalType": "contract IUniswapV2Router02",
          "name": "",
          "type": "address"
        }
      ],
      "stateMutability": "view",
      "type": "function"
    },
    {
      "inputs": [
        {
          "internalType": "uint256",
          "name": "",
          "type": "uint256"
        }
      ],
      "name": "usersPerOutcome",
      "outputs": [
        {
          "internalType": "uint256",
          "name": "",
          "type": "uint256"
        }
      ],
      "stateMutability": "view",
      "type": "function"
    },
    {
      "inputs": [],
      "name": "winningOutcome",
      "outputs": [
        {
          "internalType": "uint256",
          "name": "",
          "type": "uint256"
        }
      ],
      "stateMutability": "view",
      "type": "function"
    },
    {
      "stateMutability": "payable",
      "type": "receive"
    },
    {
      "inputs": [],
      "name": "getCurrentState",
      "outputs": [
        {
          "internalType": "enum MBMarket.States",
          "name": "",
          "type": "uint8"
        }
      ],
      "stateMutability": "view",
      "type": "function"
    },
    {
      "inputs": [],
      "name": "getOutcomeNames",
      "outputs": [
        {
          "internalType": "string[]",
          "name": "",
          "type": "string[]"
        }
      ],
      "stateMutability": "view",
      "type": "function"
    },
    {
      "inputs": [],
      "name": "getTokenAddresses",
      "outputs": [
        {
          "internalType": "contract Token[]",
          "name": "",
          "type": "address[]"
        }
      ],
      "stateMutability": "view",
      "type": "function"
    },
    {
      "inputs": [],
      "name": "getParticipants",
      "outputs": [
        {
          "internalType": "address[]",
          "name": "",
          "type": "address[]"
        }
      ],
      "stateMutability": "view",
      "type": "function"
    },
    {
      "inputs": [
        {
          "internalType": "uint256",
          "name": "_outcome",
          "type": "uint256"
        }
      ],
      "name": "getBetAmountsArray",
      "outputs": [
        {
          "internalType": "uint256[]",
          "name": "",
          "type": "uint256[]"
        }
      ],
      "stateMutability": "view",
      "type": "function"
    },
    {
      "inputs": [
        {
          "internalType": "uint256",
          "name": "_outcome",
          "type": "uint256"
        }
      ],
      "name": "getTimestampsArray",
      "outputs": [
        {
          "internalType": "uint256[]",
          "name": "",
          "type": "uint256[]"
        }
      ],
      "stateMutability": "view",
      "type": "function"
    },
    {
      "inputs": [],
      "name": "getMarketSize",
      "outputs": [
        {
          "internalType": "uint256",
          "name": "",
          "type": "uint256"
        }
      ],
      "stateMutability": "view",
      "type": "function"
    },
    {
      "inputs": [
        {
          "internalType": "uint256",
          "name": "_outcome",
          "type": "uint256"
        }
      ],
      "name": "getParticipantsBet",
      "outputs": [
        {
          "internalType": "uint256",
          "name": "",
          "type": "uint256"
        }
      ],
      "stateMutability": "view",
      "type": "function"
    },
    {
      "inputs": [],
      "name": "getMaxTotalInterest",
      "outputs": [
        {
          "internalType": "uint256",
          "name": "",
          "type": "uint256"
        }
      ],
      "stateMutability": "view",
      "type": "function"
    },
    {
      "inputs": [],
      "name": "getTotalInterest",
      "outputs": [
        {
          "internalType": "uint256",
          "name": "",
          "type": "uint256"
        }
      ],
      "stateMutability": "view",
      "type": "function"
    },
    {
      "inputs": [
        {
          "internalType": "uint256",
          "name": "_outcome",
          "type": "uint256"
        }
      ],
      "name": "getWinningsGivenOutcome",
      "outputs": [
        {
          "internalType": "uint256",
          "name": "",
          "type": "uint256"
        }
      ],
      "stateMutability": "view",
      "type": "function"
    },
    {
      "inputs": [],
      "name": "getWinningsInvalid",
      "outputs": [
        {
          "internalType": "uint256",
          "name": "",
          "type": "uint256"
        }
      ],
      "stateMutability": "view",
      "type": "function"
    },
    {
      "inputs": [
        {
          "internalType": "uint256",
          "name": "ethAmount",
          "type": "uint256"
        }
      ],
      "name": "getEstimatedETHforDAI",
      "outputs": [
        {
          "internalType": "uint256[]",
          "name": "",
          "type": "uint256[]"
        }
      ],
      "stateMutability": "view",
      "type": "function"
    },
    {
      "inputs": [
        {
          "internalType": "uint256",
          "name": "daiAmount",
          "type": "uint256"
        }
      ],
      "name": "getEstimatedDAIforETH",
      "outputs": [
        {
          "internalType": "uint256[]",
          "name": "",
          "type": "uint256[]"
        }
      ],
      "stateMutability": "view",
      "type": "function"
    },
    {
      "inputs": [],
      "name": "getUserBetsAllOutcomes",
      "outputs": [
        {
          "internalType": "uint256",
          "name": "",
          "type": "uint256"
        }
      ],
      "stateMutability": "view",
      "type": "function"
    },
    {
      "inputs": [
        {
          "internalType": "uint256",
          "name": "_outcome",
          "type": "uint256"
        },
        {
          "internalType": "uint256",
          "name": "_dai",
          "type": "uint256"
        }
      ],
      "name": "placeBet",
      "outputs": [],
      "stateMutability": "payable",
      "type": "function"
    },
    {
      "inputs": [],
      "name": "determineWinner",
      "outputs": [],
      "stateMutability": "nonpayable",
      "type": "function"
    },
    {
      "inputs": [],
      "name": "withdraw",
      "outputs": [],
      "stateMutability": "nonpayable",
      "type": "function"
    },
    {
      "inputs": [],
      "name": "disableContract",
      "outputs": [
        {
          "internalType": "bool",
          "name": "",
          "type": "bool"
        }
      ],
      "stateMutability": "nonpayable",
      "type": "function"
    },
    {
      "inputs": [],
      "name": "enableContract",
      "outputs": [
        {
          "internalType": "bool",
          "name": "",
          "type": "bool"
        }
      ],
      "stateMutability": "nonpayable",
      "type": "function"
    }
  ],
  "bytecode": "0x608060405260006007556000196018553480156200001c57600080fd5b50604051620043ad380380620043ad8339810160408190526200003f9162000741565b6000620000546001600160e01b036200025816565b600080546001600160a01b0319166001600160a01b0383169081178255604051929350916000805160206200438d833981519152908290a3506000805460ff60a01b19169055600180556001600160a01b0381163314620000c357620000c3816001600160e01b036200025d16565b600280546001600160a01b03199081166001600160a01b038d811691909117928390558b5160038054841691831691909117905560208c01516004805484169183169190911781556005805484168d8416179055600680549093168b8316179092556040808d0151905163095ea7b360e01b8152939091169263095ea7b39262000153929160001991016200088b565b602060405180830381600087803b1580156200016e57600080fd5b505af115801562000183573d6000803e3d6000fd5b505050506040513d601f19601f82011682018060405250810190620001a99190620006ff565b508551620001bf90600c9060208901906200048f565b5084516008556020850151600955604085015163ffffffff16600a558151600f5560005b600f548110156200021c5762000213838281518110620001ff57fe5b60200260200101516200031c60201b60201c565b600101620001e3565b50600242620002428286888a60036020020151600a54866001600160e01b03620003f116565b600b5550620009f49a5050505050505050505050565b335b90565b620002706001600160e01b036200025816565b6000546001600160a01b03908116911614620002a95760405162461bcd60e51b8152600401620002a090620008ff565b60405180910390fd5b6001600160a01b038116620002d25760405162461bcd60e51b8152600401620002a090620008b9565b600080546040516001600160a01b03808516939216916000805160206200438d83398151915291a3600080546001600160a01b0319166001600160a01b0392909216919091179055565b600d8054600181018255600091909152815162000361917fd7b6990105719101dabeb77144f2a3385c8033acd3af97e9423a695e81ad1eb5019060208401906200048f565b50600081604051620003739062000514565b6200037f9190620008a4565b604051809103906000f0801580156200039c573d6000803e3d6000fd5b50600e80546001810182556000919091527fbb7b4a454dc3493923482f07822329ed19e8244eff582cc204f8554c3620c3fd0180546001600160a01b0319166001600160a01b03929092169190911790555050565b60055460405163762c38fd60e01b81526000916001600160a01b03169063762c38fd906200042e908a908a908a908a908a908a9060040162000934565b602060405180830381600087803b1580156200044957600080fd5b505af11580156200045e573d6000803e3d6000fd5b505050506040513d601f19601f8201168201806040525081019062000484919062000728565b979650505050505050565b828054600181600116156101000203166002900490600052602060002090601f016020900481019282601f10620004d257805160ff191683800117855562000502565b8280016001018555821562000502579182015b8281111562000502578251825591602001919060010190620004e5565b506200051092915062000522565b5090565b6113b28062002fdb83390190565b6200025a91905b8082111562000510576000815560010162000529565b80516200054c81620009db565b92915050565b600082601f83011262000563578081fd5b6200056f606062000981565b90508082846060850111156200058457600080fd5b60005b6003811015620005b45781516200059e81620009db565b8352602092830192919091019060010162000587565b50505092915050565b600082601f830112620005ce578081fd5b81516001600160401b03811115620005e4578182fd5b6020620005f5818284020162000981565b828152925080830184820160005b8481101562000630576200061d888584518a010162000691565b8352918301919083019060010162000603565b505050505092915050565b600082601f8301126200064c578081fd5b62000658608062000981565b90508082846080850111156200066d57600080fd5b60005b6004811015620005b457815183526020928301929091019060010162000670565b600082601f830112620006a2578081fd5b81516001600160401b03811115620006b8578182fd5b620006cd601f8201601f191660200162000981565b9150808252836020828501011115620006e557600080fd5b620006f8816020840160208601620009a8565b5092915050565b60006020828403121562000711578081fd5b8151801515811462000721578182fd5b9392505050565b6000602082840312156200073a578081fd5b5051919050565b6000806000806000806000806000806101e08b8d03121562000761578586fd5b6200076d8c8c6200053f565b99506200077e8c60208d0162000552565b98506200078f8c60808d016200053f565b9750620007a08c60a08d016200053f565b60c08c01519097506001600160401b0380821115620007bd578788fd5b620007cb8e838f0162000691565b9750620007dc8e60e08f016200063b565b9650620007ee8e6101608f016200053f565b95506101808d015191508082111562000805578485fd5b620008138e838f0162000691565b94506101a08d01519150808211156200082a578384fd5b50620008398d828e01620005bd565b9250506200084c8c6101c08d016200053f565b90509295989b9194979a5092959850565b6000815180845262000877816020860160208601620009a8565b601f01601f19169290920160200192915050565b6001600160a01b03929092168252602082015260400190565b6000602082526200072160208301846200085d565b60208082526026908201527f4f776e61626c653a206e6577206f776e657220697320746865207a65726f206160408201526564647265737360d01b606082015260800190565b6020808252818101527f4f776e61626c653a2063616c6c6572206973206e6f7420746865206f776e6572604082015260600190565b600087825260c060208301526200094f60c08301886200085d565b6001600160a01b039690961660408301525063ffffffff938416606082015291909216608082015260a0015292915050565b6040518181016001600160401b0381118282101715620009a057600080fd5b604052919050565b60005b83811015620009c5578181015183820152602001620009ab565b83811115620009d5576000848401525b50505050565b6001600160a01b0381168114620009f157600080fd5b50565b6125d78062000a046000396000f3fe60806040526004361061028c5760003560e01c8063826330281161015a578063c56f338c116100c1578063e9d337b81161007a578063e9d337b8146106e5578063ee8c24b8146106fa578063f1f9c33e1461071c578063f2fde38b14610731578063f4b9fa7514610751578063fd27b51e1461076657610293565b8063c56f338c14610639578063cb70495514610659578063e14dedfd1461067b578063e54f4fe314610690578063e5df8b84146106a5578063e8f033c9146106c557610293565b8063a0c1f15e11610113578063a0c1f15e146105a5578063ada8b83d146105ba578063b06a5c52146105da578063bc8802a2146105ef578063befa1e2f14610604578063c4d8dc581461061957610293565b80638263302814610527578063894ba8331461053c5780638da5cb5b146105515780639b34ae03146105665780639d7c7d391461057b578063a055ccc51461059057610293565b80634afe62b5116101fe5780635c975abb116101b75780635c975abb1461049e5780636b9ae9ca146104b3578063715018a6146104c8578063735de9f7146104dd5780638043c9c0146104f2578063807535cc1461050757610293565b80634afe62b5146103f25780634b8755ca146104055780634ecc79f71461041a578063519709c41461042f578063561a5aca1461044f5780635aa68ac01461047c57610293565b806333b16d931161025057806333b16d931461034257806335c1d34914610357578063367edd3214610384578063378aa701146103a65780633ccfd60b146103c857806349200d77146103dd57610293565b806305801f0b146102955780630b60365c146102cb578063149b5d58146102e0578063232ea3ad1461030057806327acae741461031557610293565b3661029357005b005b3480156102a157600080fd5b506102b56102b0366004612024565b61077b565b6040516102c29190612264565b60405180910390f35b3480156102d757600080fd5b506102b561078d565b3480156102ec57600080fd5b506102b56102fb366004612024565b61084a565b34801561030c57600080fd5b506102b56108ed565b34801561032157600080fd5b50610335610330366004612024565b6108f3565b6040516102c29190612281565b34801561034e57600080fd5b50610293610999565b34801561036357600080fd5b50610377610372366004612024565b6109fd565b6040516102c291906120eb565b34801561039057600080fd5b50610399610a24565b6040516102c29190612259565b3480156103b257600080fd5b506103bb610a8c565b6040516102c2919061226d565b3480156103d457600080fd5b50610293610afa565b3480156103e957600080fd5b506102b5610bcd565b61029361040036600461203c565b610bd3565b34801561041157600080fd5b506102b5610c52565b34801561042657600080fd5b506102b5610c58565b34801561043b57600080fd5b506102b561044a366004612024565b610c5e565b34801561045b57600080fd5b5061046f61046a366004612024565b610c70565b6040516102c29190612221565b34801561048857600080fd5b50610491610d02565b6040516102c29190612161565b3480156104aa57600080fd5b50610399610d64565b3480156104bf57600080fd5b506102b5610d74565b3480156104d457600080fd5b50610293610e41565b3480156104e957600080fd5b50610377610ec0565b3480156104fe57600080fd5b50610335610ecf565b34801561051357600080fd5b5061046f610522366004612024565b610f2a565b34801561053357600080fd5b506102b5610f8c565b34801561054857600080fd5b50610399610f92565b34801561055d57600080fd5b50610377610ffb565b34801561057257600080fd5b506102b561100a565b34801561058757600080fd5b506102b5611010565b34801561059c57600080fd5b506102b5611033565b3480156105b157600080fd5b50610377611061565b3480156105c657600080fd5b5061046f6105d5366004612024565b611070565b3480156105e657600080fd5b506102b56110ae565b3480156105fb57600080fd5b506103776110b4565b34801561061057600080fd5b506102b56110c3565b34801561062557600080fd5b506102b5610634366004612024565b6110c9565b34801561064557600080fd5b506102b5610654366004612024565b6111a7565b34801561066557600080fd5b5061066e6111b9565b6040516102c291906121c1565b34801561068757600080fd5b506102b5611291565b34801561069c57600080fd5b506102b5611297565b3480156106b157600080fd5b506103776106c0366004612024565b61129d565b3480156106d157600080fd5b5061046f6106e0366004612024565b6112aa565b3480156106f157600080fd5b5061037761130a565b34801561070657600080fd5b5061070f611319565b6040516102c29190612174565b34801561072857600080fd5b506102b5611379565b34801561073d57600080fd5b5061029361074c366004611f1c565b611380565b34801561075d57600080fd5b50610377611436565b34801561077257600080fd5b506102b5611445565b60106020526000908152604090205481565b6000806107a760165460155461144b90919063ffffffff16565b6003546040516370a0823160e01b81529192506000916001600160a01b03909116906370a08231906107dd9030906004016120eb565b60206040518083038186803b1580156107f557600080fd5b505afa158015610809573d6000803e3d6000fd5b505050506040513d601f19601f8201168201806040525081019061082d919061200c565b90506000610841828463ffffffff61144b16565b93505050505b90565b600080600e838154811061085a57fe5b6000918252602090912001546040516370a0823160e01b81526001600160a01b03909116915081906370a08231906108969033906004016120eb565b60206040518083038186803b1580156108ae57600080fd5b505afa1580156108c2573d6000803e3d6000fd5b505050506040513d601f19601f820116820180604052508101906108e6919061200c565b9392505050565b600a5481565b600d818154811061090057fe5b600091825260209182902001805460408051601f60026000196101006001871615020190941693909304928301859004850281018501909152818152935090918301828280156109915780601f1061096657610100808354040283529160200191610991565b820191906000526020600020905b81548152906001019060200180831161097457829003601f168201915b505050505081565b600054600160a01b900460ff16156109cc5760405162461bcd60e51b81526004016109c3906123a4565b60405180910390fd5b6109d4611496565b6109f05760405162461bcd60e51b81526004016109c39061233f565b6109f8611519565b601855565b60178181548110610a0a57fe5b6000918252602090912001546001600160a01b0316905081565b6000610a2e6115a5565b6000546001600160a01b03908116911614610a5b5760405162461bcd60e51b81526004016109c39061240f565b600054600160a01b900460ff16610a845760405162461bcd60e51b81526004016109c390612294565b6108476115a9565b6000600854421015610aa057506000610847565b6008544210158015610ab3575060095442105b15610ac057506001610847565b600019601854148015610ae75750600a54610ae4906224ea0063ffffffff61161f16565b42105b15610af457506002610847565b50600390565b600380610b05610a8c565b6003811115610b1057fe5b14610b2d5760405162461bcd60e51b81526004016109c390612444565b600054600160a01b900460ff1615610b575760405162461bcd60e51b81526004016109c3906123a4565b60026001541415610b7a5760405162461bcd60e51b81526004016109c3906124b8565b6002600155600754610b9257610b8e61078d565b6007555b60185460009081526010602052604090205415610bb657610bb1611644565b610bbe565b610bbe61168c565b610bc6611696565b5060018055565b600f5481565b600180610bde610a8c565b6003811115610be957fe5b14610c065760405162461bcd60e51b81526004016109c390612444565b600054600160a01b900460ff1615610c305760405162461bcd60e51b81526004016109c3906123a4565b610c3a83836117f7565b610c443383611a15565b610c4d82611acb565b505050565b60095481565b60085481565b60126020526000908152604090205481565b606080610c7b611b37565b60065460405163d06ca61f60e01b81529192506001600160a01b03169063d06ca61f90610cae90869085906004016124ef565b60006040518083038186803b158015610cc657600080fd5b505afa158015610cda573d6000803e3d6000fd5b505050506040513d6000823e601f3d908101601f191682016040526108e69190810190611f54565b60606017805480602002602001604051908101604052809291908181526020018280548015610d5a57602002820191906000526020600020905b81546001600160a01b03168152600190910190602001808311610d3c575b5050505050905090565b600054600160a01b900460ff1690565b600080805b600f54811015610e3b576000600e8281548110610d9257fe5b60009182526020822001546040516370a0823160e01b81526001600160a01b03909116925082906370a0823190610dcd9033906004016120eb565b60206040518083038186803b158015610de557600080fd5b505afa158015610df9573d6000803e3d6000fd5b505050506040513d601f19601f82011682018060405250810190610e1d919061200c565b9050610e2f848263ffffffff61161f16565b93505050600101610d79565b50905090565b610e496115a5565b6000546001600160a01b03908116911614610e765760405162461bcd60e51b81526004016109c39061240f565b600080546040516001600160a01b03909116907f8be0079c531659141344cd1fd0a4f28419497f9722a3daafe3b4186f6b6457e0908390a3600080546001600160a01b0319169055565b6006546001600160a01b031681565b600c805460408051602060026001851615610100026000190190941693909304601f810184900484028201840190925281815292918301828280156109915780601f1061096657610100808354040283529160200191610991565b600081815260136020908152604091829020805483518184028101840190945280845260609392830182828015610f8057602002820191906000526020600020905b815481526020019060010190808311610f6c575b50505050509050919050565b60075481565b6000610f9c6115a5565b6000546001600160a01b03908116911614610fc95760405162461bcd60e51b81526004016109c39061240f565b600054600160a01b900460ff1615610ff35760405162461bcd60e51b81526004016109c3906123a4565b610847611c2c565b6000546001600160a01b031690565b60185481565b600754600090156110245750600754610847565b61102c61078d565b9050610847565b600061105c61104f60165460155461144b90919063ffffffff16565b611057610d74565b611c92565b905090565b6003546001600160a01b031681565b60608061107b611b37565b6006546040516307c0329d60e21b81529192506001600160a01b031690631f00ca7490610cae90869085906004016124ef565b600b5481565b6005546001600160a01b031681565b60155481565b600080600e83815481106110d957fe5b60009182526020822001546040516370a0823160e01b81526001600160a01b03909116925082906370a08231906111149033906004016120eb565b60206040518083038186803b15801561112c57600080fd5b505afa158015611140573d6000803e3d6000fd5b505050506040513d601f19601f82011682018060405250810190611164919061200c565b600085815260116020908152604080832054601090925282205492935090916111929163ffffffff61144b16565b905061119e8183611c92565b95945050505050565b60116020526000908152604090205481565b6060600d805480602002602001604051908101604052809291908181526020016000905b828210156112885760008481526020908190208301805460408051601f60026000196101006001871615020190941693909304928301859004850281018501909152818152928301828280156112745780601f1061124957610100808354040283529160200191611274565b820191906000526020600020905b81548152906001019060200180831161125757829003601f168201915b5050505050815260200190600101906111dd565b50505050905090565b60165481565b60001981565b600e8181548110610a0a57fe5b600081815260146020908152604091829020805483518184028101840190945280845260609392830182828015610f805760200282019190600052602060002090815481526020019060010190808311610f6c5750505050509050919050565b6004546001600160a01b031681565b6060600e805480602002602001604051908101604052809291908181526020018280548015610d5a576020028201919060005260206000209081546001600160a01b03168152600190910190602001808311610d3c575050505050905090565b6224ea0081565b6113886115a5565b6000546001600160a01b039081169116146113b55760405162461bcd60e51b81526004016109c39061240f565b6001600160a01b0381166113db5760405162461bcd60e51b81526004016109c3906122c2565b600080546040516001600160a01b03808516939216917f8be0079c531659141344cd1fd0a4f28419497f9722a3daafe3b4186f6b6457e091a3600080546001600160a01b0319166001600160a01b0392909216919091179055565b6002546001600160a01b031681565b60175490565b600061148d83836040518060400160405280601e81526020017f536166654d6174683a207375627472616374696f6e206f766572666c6f770000815250611cc7565b90505b92915050565b600554600b54604051633fc6a14f60e11b81526000926001600160a01b031691637f8d429e916114c99190600401612264565b60206040518083038186803b1580156114e157600080fd5b505afa1580156114f5573d6000803e3d6000fd5b505050506040513d601f19601f8201168201806040525081019061105c9190611fec565b600554600b5460405163684e62bf60e11b815260009283926001600160a01b039091169163d09cc57e9161154f91600401612264565b60206040518083038186803b15801561156757600080fd5b505afa15801561157b573d6000803e3d6000fd5b505050506040513d601f19601f8201168201806040525081019061159f919061200c565b91505090565b3390565b600054600160a01b900460ff166115d25760405162461bcd60e51b81526004016109c390612294565b6000805460ff60a01b191690557f5db9ee0a495bf2e6ff9c91a7834c1ba4fdd244a5e8aa4e537bd38aeae4b073aa6116086115a5565b60405161161591906120eb565b60405180910390a1565b60008282018381101561148d5760405162461bcd60e51b81526004016109c390612308565b60006116516018546110c9565b9050600061166d611660610d74565b839063ffffffff61161f16565b905080156116885761167e81611cf3565b6116883382611d23565b5050565b6000611651611033565b60005b600f548110156117f4576000600e82815481106116b257fe5b60009182526020822001546040516370a0823160e01b81526001600160a01b03909116925082906370a08231906116ed9033906004016120eb565b60206040518083038186803b15801561170557600080fd5b505afa158015611719573d6000803e3d6000fd5b505050506040513d601f19601f8201168201806040525081019061173d919061200c565b905080156117ea57600083815260116020526040902054611764908263ffffffff61161f16565b600084815260116020526040902055601654611786908263ffffffff61161f16565b601655604051632770a7eb60e21b81526001600160a01b03831690639dc29fac906117b790339085906004016120ff565b600060405180830381600087803b1580156117d157600080fd5b505af11580156117e5573d6000803e3d6000fd5b505050505b5050600101611699565b50565b6000600e838154811061180657fe5b60009182526020808320909101548583526013825260408084208054600181810183559186528486200187905587855260148452818520805491820181558552929093204292019190915590516370a0823160e01b81526001600160a01b03909116915081906370a08231906118809033906004016120eb565b60206040518083038186803b15801561189857600080fd5b505afa1580156118ac573d6000803e3d6000fd5b505050506040513d601f19601f820116820180604052508101906118d0919061200c565b611940576017805460018181019092557fc624b66cc0138b8fabc209247f72d758e1cf3343756d543badbf24212bed8c150180546001600160a01b031916331790556000848152601260205260409020546119309163ffffffff61161f16565b6000848152601260205260409020555b6040516340c10f1960e01b81526001600160a01b038216906340c10f199061196e90339086906004016120ff565b600060405180830381600087803b15801561198857600080fd5b505af115801561199c573d6000803e3d6000fd5b50506015546119b4925090508363ffffffff61161f16565b6015556000838152601060205260409020546119d6908363ffffffff61161f16565b60008481526010602052604080822092909255905133917fef3b3ae531a4f494c95e537ec1fe385cfe5c1146cb4c1d850b24bad38595804991a2505050565b3415611a2957611a2481611d55565b611688565b6002546040516323b872dd60e01b81526001600160a01b03909116906323b872dd90611a5d90859030908690600401612118565b602060405180830381600087803b158015611a7757600080fd5b505af1158015611a8b573d6000803e3d6000fd5b505050506040513d601f19601f82011682018060405250810190611aaf9190611fec565b6116885760405162461bcd60e51b81526004016109c39061248a565b60048054600254604051636968703360e11b81526001600160a01b039283169363d2d0e06693611b0293169186916000910161213c565b600060405180830381600087803b158015611b1c57600080fd5b505af1158015611b30573d6000803e3d6000fd5b5050505050565b6040805160028082526060808301845292839291906020830190803683375050600654604080516315ab88c960e31b815290519394506001600160a01b039091169263ad5c464892506004808301926020929190829003018186803b158015611b9f57600080fd5b505afa158015611bb3573d6000803e3d6000fd5b505050506040513d601f19601f82011682018060405250810190611bd79190611f38565b81600081518110611be457fe5b6001600160a01b039283166020918202929092010152600254825191169082906001908110611c0f57fe5b6001600160a01b0390921660209283029190910190910152905090565b600054600160a01b900460ff1615611c565760405162461bcd60e51b81526004016109c3906123a4565b6000805460ff60a01b1916600160a01b1790557f62e78cea01bee320cd4e420270b5ea74000d11b0c9f74754ebdbfc544b05a2586116086115a5565b600080831561148d576000611ca561078d565b905061119e85611cbb838763ffffffff611e6e16565b9063ffffffff611ea816565b60008184841115611ceb5760405162461bcd60e51b81526004016109c39190612281565b505050900390565b60035460405163db006a7560e01b81526001600160a01b039091169063db006a7590611b02908490600401612264565b60025460405163a9059cbb60e01b81526001600160a01b039091169063a9059cbb90611a5d90859085906004016120ff565b6060611d5f611b37565b60065460405163fb3bdb4160e01b81529192506001600160a01b03169063fb3bdb41903490611d9b90869086903090600f420190600401612510565b6000604051808303818588803b158015611db457600080fd5b505af1158015611dc8573d6000803e3d6000fd5b50505050506040513d6000823e601f3d908101601f19168201604052611df19190810190611f54565b506000336001600160a01b031647604051611e0b90610847565b60006040518083038185875af1925050503d8060008114611e48576040519150601f19603f3d011682016040523d82523d6000602084013e611e4d565b606091505b5050905080610c4d5760405162461bcd60e51b81526004016109c390612376565b600082611e7d57506000611490565b82820282848281611e8a57fe5b041461148d5760405162461bcd60e51b81526004016109c3906123ce565b600061148d83836040518060400160405280601a81526020017f536166654d6174683a206469766973696f6e206279207a65726f00000000000081525060008183611f065760405162461bcd60e51b81526004016109c39190612281565b506000838581611f1257fe5b0495945050505050565b600060208284031215611f2d578081fd5b813561148d8161258c565b600060208284031215611f49578081fd5b815161148d8161258c565b60006020808385031215611f66578182fd5b825167ffffffffffffffff811115611f7c578283fd5b80840185601f820112611f8d578384fd5b80519150611fa2611f9d8361256c565b612545565b8281528381019082850185850284018601891015611fbe578687fd5b8693505b84841015611fe0578051835260019390930192918501918501611fc2565b50979650505050505050565b600060208284031215611ffd578081fd5b8151801515811461148d578182fd5b60006020828403121561201d578081fd5b5051919050565b600060208284031215612035578081fd5b5035919050565b6000806040838503121561204e578081fd5b50508035926020909101359150565b6000815180845260208085019450808401835b838110156120955781516001600160a01b031687529582019590820190600101612070565b509495945050505050565b60008151808452815b818110156120c5576020818501810151868301820152016120a9565b818111156120d65782602083870101525b50601f01601f19169290920160200192915050565b6001600160a01b0391909116815260200190565b6001600160a01b03929092168252602082015260400190565b6001600160a01b039384168152919092166020820152604081019190915260600190565b6001600160a01b03939093168352602083019190915261ffff16604082015260600190565b60006020825261148d602083018461205d565b6020808252825182820181905260009190848201906040850190845b818110156121b55783516001600160a01b031683529284019291840191600101612190565b50909695505050505050565b6000602080830181845280855180835260408601915060408482028701019250838701855b8281101561221457603f198886030184526122028583516120a0565b945092850192908501906001016121e6565b5092979650505050505050565b6020808252825182820181905260009190848201906040850190845b818110156121b55783518352928401929184019160010161223d565b901515815260200190565b90815260200190565b602081016004831061227b57fe5b91905290565b60006020825261148d60208301846120a0565b60208082526014908201527314185d5cd8589b194e881b9bdd081c185d5cd95960621b604082015260600190565b60208082526026908201527f4f776e61626c653a206e6577206f776e657220697320746865207a65726f206160408201526564647265737360d01b606082015260800190565b6020808252601b908201527f536166654d6174683a206164646974696f6e206f766572666c6f770000000000604082015260600190565b60208082526018908201527f4f7261636c6520686173206e6f742066696e616c697365640000000000000000604082015260600190565b6020808252601490820152731499599d5b99081bd9881155120819985a5b195960621b604082015260600190565b60208082526010908201526f14185d5cd8589b194e881c185d5cd95960821b604082015260600190565b60208082526021908201527f536166654d6174683a206d756c7469706c69636174696f6e206f766572666c6f6040820152607760f81b606082015260800190565b6020808252818101527f4f776e61626c653a2063616c6c6572206973206e6f7420746865206f776e6572604082015260600190565b60208082526026908201527f66756e6374696f6e2063616e6e6f742062652063616c6c656420617420746869604082015265732074696d6560d01b606082015260800190565b60208082526014908201527310d85cda081d1c985b9cd9995c8819985a5b195960621b604082015260600190565b6020808252601f908201527f5265656e7472616e637947756172643a207265656e7472616e742063616c6c00604082015260600190565b600083825260406020830152612508604083018461205d565b949350505050565b600085825260806020830152612529608083018661205d565b6001600160a01b03949094166040830152506060015292915050565b60405181810167ffffffffffffffff8111828210171561256457600080fd5b604052919050565b600067ffffffffffffffff821115612582578081fd5b5060209081020190565b6001600160a01b03811681146117f457600080fdfea2646970667358221220287fc84db5608cc6edd05742903a4718302cb7d1e326bbd62f35e0dd576599fb64736f6c634300060a003360806040523480156200001157600080fd5b50604051620013b2380380620013b2833981810160405260208110156200003757600080fd5b81019080805160405193929190846401000000008211156200005857600080fd5b9083019060208201858111156200006e57600080fd5b82516401000000008111828201881017156200008957600080fd5b82525081516020918201929091019080838360005b83811015620000b85781810151838201526020016200009e565b50505050905090810190601f168015620000e65780820380516001836020036101000a031916815260200191505b5060408181019052600281526126a160f11b60208083019190915285518695509193506200011c925060039190850190620001b9565b50805162000132906004906020840190620001b9565b50506005805460ff19166012179055506000620001576001600160e01b03620001b416565b60058054610100600160a81b0319166101006001600160a01b03841690810291909117909155604051919250906000907f8be0079c531659141344cd1fd0a4f28419497f9722a3daafe3b4186f6b6457e0908290a350506200025b565b335b90565b828054600181600116156101000203166002900490600052602060002090601f016020900481019282601f10620001fc57805160ff19168380011785556200022c565b828001600101855582156200022c579182015b828111156200022c5782518255916020019190600101906200020f565b506200023a9291506200023e565b5090565b620001b691905b808211156200023a576000815560010162000245565b611147806200026b6000396000f3fe6080604052600436106100f75760003560e01c8063715018a61161008a578063a457c2d711610059578063a457c2d7146103a5578063a9059cbb146103de578063dd62ed3e14610417578063f2fde38b14610452576100fe565b8063715018a6146103115780638da5cb5b1461032657806395d89b41146103575780639dc29fac1461036c576100fe565b8063313ce567116100c6578063313ce56714610241578063395093511461026c57806340c10f19146102a557806370a08231146102de576100fe565b806306fdde0314610100578063095ea7b31461018a57806318160ddd146101d757806323b872dd146101fe576100fe565b366100fe57005b005b34801561010c57600080fd5b50610115610485565b6040805160208082528351818301528351919283929083019185019080838360005b8381101561014f578181015183820152602001610137565b50505050905090810190601f16801561017c5780820380516001836020036101000a031916815260200191505b509250505060405180910390f35b34801561019657600080fd5b506101c3600480360360408110156101ad57600080fd5b506001600160a01b03813516906020013561051b565b604080519115158252519081900360200190f35b3480156101e357600080fd5b506101ec610538565b60408051918252519081900360200190f35b34801561020a57600080fd5b506101c36004803603606081101561022157600080fd5b506001600160a01b0381358116916020810135909116906040013561053e565b34801561024d57600080fd5b506102566105cb565b6040805160ff9092168252519081900360200190f35b34801561027857600080fd5b506101c36004803603604081101561028f57600080fd5b506001600160a01b0381351690602001356105d4565b3480156102b157600080fd5b506100fe600480360360408110156102c857600080fd5b506001600160a01b038135169060200135610628565b3480156102ea57600080fd5b506101ec6004803603602081101561030157600080fd5b50356001600160a01b0316610693565b34801561031d57600080fd5b506100fe6106ae565b34801561033257600080fd5b5061033b61075b565b604080516001600160a01b039092168252519081900360200190f35b34801561036357600080fd5b5061011561076f565b34801561037857600080fd5b506100fe6004803603604081101561038f57600080fd5b506001600160a01b0381351690602001356107d0565b3480156103b157600080fd5b506101c3600480360360408110156103c857600080fd5b506001600160a01b038135169060200135610837565b3480156103ea57600080fd5b506101c36004803603604081101561040157600080fd5b506001600160a01b0381351690602001356108a5565b34801561042357600080fd5b506101ec6004803603604081101561043a57600080fd5b506001600160a01b03813581169160200135166108b9565b34801561045e57600080fd5b506100fe6004803603602081101561047557600080fd5b50356001600160a01b03166108e4565b60038054604080516020601f60026000196101006001881615020190951694909404938401819004810282018101909252828152606093909290918301828280156105115780601f106104e657610100808354040283529160200191610511565b820191906000526020600020905b8154815290600101906020018083116104f457829003601f168201915b5050505050905090565b600061052f6105286109ed565b84846109f1565b50600192915050565b60025490565b600061054b848484610add565b6105c1846105576109ed565b6105bc8560405180606001604052806028815260200161103b602891396001600160a01b038a166000908152600160205260408120906105956109ed565b6001600160a01b03168152602081019190915260400160002054919063ffffffff610c4416565b6109f1565b5060019392505050565b60055460ff1690565b600061052f6105e16109ed565b846105bc85600160006105f26109ed565b6001600160a01b03908116825260208083019390935260409182016000908120918c16815292529020549063ffffffff610cdb16565b6106306109ed565b60055461010090046001600160a01b03908116911614610685576040805162461bcd60e51b81526020600482018190526024820152600080516020611063833981519152604482015290519081900360640190fd5b61068f8282610d3c565b5050565b6001600160a01b031660009081526020819052604090205490565b6106b66109ed565b60055461010090046001600160a01b0390811691161461070b576040805162461bcd60e51b81526020600482018190526024820152600080516020611063833981519152604482015290519081900360640190fd5b60055460405160009161010090046001600160a01b0316907f8be0079c531659141344cd1fd0a4f28419497f9722a3daafe3b4186f6b6457e0908390a360058054610100600160a81b0319169055565b60055461010090046001600160a01b031690565b60048054604080516020601f60026000196101006001881615020190951694909404938401819004810282018101909252828152606093909290918301828280156105115780601f106104e657610100808354040283529160200191610511565b6107d86109ed565b60055461010090046001600160a01b0390811691161461082d576040805162461bcd60e51b81526020600482018190526024820152600080516020611063833981519152604482015290519081900360640190fd5b61068f8282610e38565b600061052f6108446109ed565b846105bc856040518060600160405280602581526020016110ed602591396001600061086e6109ed565b6001600160a01b03908116825260208083019390935260409182016000908120918d1681529252902054919063ffffffff610c4416565b600061052f6108b26109ed565b8484610add565b6001600160a01b03918216600090815260016020908152604080832093909416825291909152205490565b6108ec6109ed565b60055461010090046001600160a01b03908116911614610941576040805162461bcd60e51b81526020600482018190526024820152600080516020611063833981519152604482015290519081900360640190fd5b6001600160a01b0381166109865760405162461bcd60e51b8152600401808060200182810382526026815260200180610fcd6026913960400191505060405180910390fd5b6005546040516001600160a01b0380841692610100900416907f8be0079c531659141344cd1fd0a4f28419497f9722a3daafe3b4186f6b6457e090600090a3600580546001600160a01b0390921661010002610100600160a81b0319909216919091179055565b3390565b6001600160a01b038316610a365760405162461bcd60e51b81526004018080602001828103825260248152602001806110c96024913960400191505060405180910390fd5b6001600160a01b038216610a7b5760405162461bcd60e51b8152600401808060200182810382526022815260200180610ff36022913960400191505060405180910390fd5b6001600160a01b03808416600081815260016020908152604080832094871680845294825291829020859055815185815291517f8c5be1e5ebec7d5bd14f71427d1e84f3dd0314c0f7b2291e5b200ac8c7c3b9259281900390910190a3505050565b6001600160a01b038316610b225760405162461bcd60e51b81526004018080602001828103825260258152602001806110a46025913960400191505060405180910390fd5b6001600160a01b038216610b675760405162461bcd60e51b8152600401808060200182810382526023815260200180610f886023913960400191505060405180910390fd5b610b72838383610f40565b610bb581604051806060016040528060268152602001611015602691396001600160a01b038616600090815260208190526040902054919063ffffffff610c4416565b6001600160a01b038085166000908152602081905260408082209390935590841681522054610bea908263ffffffff610cdb16565b6001600160a01b038084166000818152602081815260409182902094909455805185815290519193928716927fddf252ad1be2c89b69c2b068fc378daa952ba7f163c4a11628f55a4df523b3ef92918290030190a3505050565b60008184841115610cd35760405162461bcd60e51b81526004018080602001828103825283818151815260200191508051906020019080838360005b83811015610c98578181015183820152602001610c80565b50505050905090810190601f168015610cc55780820380516001836020036101000a031916815260200191505b509250505060405180910390fd5b505050900390565b600082820183811015610d35576040805162461bcd60e51b815260206004820152601b60248201527f536166654d6174683a206164646974696f6e206f766572666c6f770000000000604482015290519081900360640190fd5b9392505050565b6001600160a01b038216610d97576040805162461bcd60e51b815260206004820152601f60248201527f45524332303a206d696e7420746f20746865207a65726f206164647265737300604482015290519081900360640190fd5b610da360008383610f40565b600254610db6908263ffffffff610cdb16565b6002556001600160a01b038216600090815260208190526040902054610de2908263ffffffff610cdb16565b6001600160a01b0383166000818152602081815260408083209490945583518581529351929391927fddf252ad1be2c89b69c2b068fc378daa952ba7f163c4a11628f55a4df523b3ef9281900390910190a35050565b6001600160a01b038216610e7d5760405162461bcd60e51b81526004018080602001828103825260218152602001806110836021913960400191505060405180910390fd5b610e8982600083610f40565b610ecc81604051806060016040528060228152602001610fab602291396001600160a01b038516600090815260208190526040902054919063ffffffff610c4416565b6001600160a01b038316600090815260208190526040902055600254610ef8908263ffffffff610f4516565b6002556040805182815290516000916001600160a01b038516917fddf252ad1be2c89b69c2b068fc378daa952ba7f163c4a11628f55a4df523b3ef9181900360200190a35050565b505050565b6000610d3583836040518060400160405280601e81526020017f536166654d6174683a207375627472616374696f6e206f766572666c6f770000815250610c4456fe45524332303a207472616e7366657220746f20746865207a65726f206164647265737345524332303a206275726e20616d6f756e7420657863656564732062616c616e63654f776e61626c653a206e6577206f776e657220697320746865207a65726f206164647265737345524332303a20617070726f766520746f20746865207a65726f206164647265737345524332303a207472616e7366657220616d6f756e7420657863656564732062616c616e636545524332303a207472616e7366657220616d6f756e74206578636565647320616c6c6f77616e63654f776e61626c653a2063616c6c6572206973206e6f7420746865206f776e657245524332303a206275726e2066726f6d20746865207a65726f206164647265737345524332303a207472616e736665722066726f6d20746865207a65726f206164647265737345524332303a20617070726f76652066726f6d20746865207a65726f206164647265737345524332303a2064656372656173656420616c6c6f77616e63652062656c6f77207a65726fa26469706673582212207f9c3b0197cb2a21c2d5dafed42d3fd8c385e7f2830b352e74526bc7d3bc958f64736f6c634300060a00338be0079c531659141344cd1fd0a4f28419497f9722a3daafe3b4186f6b6457e0",
  "immutableReferences": {},
  "source": "//SPDX-License-Identifier: UNLICENSED\npragma solidity ^0.6.0;\npragma experimental ABIEncoderV2;\n\nimport '@nomiclabs/buidler/console.sol';\nimport '@openzeppelin/contracts/math/SafeMath.sol';\nimport '@openzeppelin/contracts/utils/ReentrancyGuard.sol';\nimport '@openzeppelin/contracts/utils/Pausable.sol';\nimport '@openzeppelin/contracts/access/Ownable.sol';\nimport './interfaces/IAave.sol';\nimport './interfaces/IDai.sol';\nimport './interfaces/IRealitio.sol';\nimport './interfaces/IUniswapV2Router02.sol';\nimport './Token.sol';\n\n/// @title The MagicBet market instance\n/// @notice This contract is the framework of each new market\ncontract MBMarket is Ownable, Pausable, ReentrancyGuard {\n    using SafeMath for uint256;\n\n    enum States {WAITING, OPEN, LOCKED, WITHDRAW}\n\n    ////////////////////////////////////\n    //////// VARIABLES /////////////////\n    ////////////////////////////////////\n\n    uint256 public constant UNRESOLVED_OUTCOME_RESULT = type(uint256).max;\n    uint256 public constant ORACLE_TIMEOUT_TIME = 4 weeks;\n\n    //////// Externals ////////\n    Dai public dai;\n    IaToken public aToken;\n    IAaveLendingPool public aaveLendingPool;\n    IRealitio public realitio;\n    IUniswapV2Router02 public uniswapRouter;\n\n    //////// Market Details ////////\n    uint256 public maxInterest = 0; // for the front end\n    uint256 public marketOpeningTime; // when the market can opened for bets\n    uint256 public marketLockingTime; // when the market is no longer open for bets\n    uint256 public marketResolutionTime; // the time the realitio market is able to be answered, uint32 inside Realitio\n    bytes32 public questionId; // the question ID of the question on realitio\n    string public eventName;\n    string[] public outcomeNames;\n    Token[] public tokenAddresses;\n    uint256 public numberOfOutcomes;\n\n    //////// Betting variables ////////\n    // totalBetsPerOutcome and betsWithdrawnPerOutcome keep track of the remaining 'principal'\n    mapping(uint256 => uint256) public totalBetsPerOutcome;\n    mapping(uint256 => uint256) public betsWithdrawnPerOutcome;\n    mapping(uint256 => uint256) public usersPerOutcome;\n    mapping(uint256 => uint256[]) private betAmountsArray;\n    mapping(uint256 => uint256[]) private timestampsArray;\n\n    uint256 public totalBets;\n    uint256 public betsWithdrawn;\n    address[] public participants;\n\n    //////// Market resolution variables ////////\n    uint256 public winningOutcome = UNRESOLVED_OUTCOME_RESULT;\n\n    ////////////////////////////////////\n    //////// CONSTRUCTOR ///////////////\n    ////////////////////////////////////\n    constructor(\n        Dai _daiAddress,\n        address[3] memory _aaveAddresses,\n        IRealitio _realitioAddress,\n        IUniswapV2Router02 _uniswapRouter,\n        string memory _eventName,\n        uint256[4] memory _marketTimes,\n        address _arbitrator,\n        string memory _realitioQuestion,\n        string[] memory _outcomeNamesArray,\n        address _owner\n    ) public {\n        if (_owner != msg.sender) {\n            transferOwnership(_owner);\n        }\n        // externals\n        dai = _daiAddress;\n        aToken = IaToken(_aaveAddresses[0]);\n        aaveLendingPool = IAaveLendingPool(_aaveAddresses[1]);\n        realitio = _realitioAddress;\n        uniswapRouter = _uniswapRouter;\n\n        // approvals\n        dai.approve(_aaveAddresses[2], type(uint256).max);\n\n        // pass arguments to public variables\n        eventName = _eventName;\n        marketOpeningTime = _marketTimes[0];\n        marketLockingTime = _marketTimes[1];\n        marketResolutionTime = uint32(_marketTimes[2]);\n        numberOfOutcomes = _outcomeNamesArray.length;\n\n        // create the tokens\n        for (uint256 i = 0; i < numberOfOutcomes; i++) {\n            _createTokenContract(_outcomeNamesArray[i]);\n        }\n\n        // Create the question on Realitio\n        uint256 _templateId = 2;\n        uint256 _nonce = now; // <- should probably change this to zero for mainnet\n        questionId = _postQuestion(\n            _templateId,\n            _realitioQuestion,\n            _arbitrator,\n            uint32(_marketTimes[3]),\n            uint32(marketResolutionTime),\n            _nonce\n        );\n    }\n\n    ////////////////////////////////////\n    //////// EVENTS ////////////////////\n    ////////////////////////////////////\n    event ParticipantEntered(address indexed participant);\n    event ParticipantWithdrawn(address indexed participant);\n    event StateChanged(States state);\n    event WinnerSelected(address indexed winner);\n\n    ////////////////////////////////////\n    //////// INITIAL SETUP /////////////\n    ////////////////////////////////////\n\n    function _createTokenContract(string memory _outcomeName) internal {\n        outcomeNames.push(_outcomeName);\n        Token tokenContract = new Token({_tokenName: _outcomeName});\n        tokenAddresses.push(tokenContract);\n    }\n\n    ////////////////////////////////////\n    //////// MODIFIERS /////////////////\n    ////////////////////////////////////\n    modifier checkState(States requiredState) {\n        require(getCurrentState() == requiredState, 'function cannot be called at this time');\n        _;\n    }\n\n    ////////////////////////////////////\n    ////////// VIEW FUNCTIONS //////////\n    ////////////////////////////////////\n    function getCurrentState() public view returns (States) {\n        if (now < marketOpeningTime) {\n            return States.WAITING;\n        }\n\n        if (now >= marketOpeningTime && now < marketLockingTime) {\n            return States.OPEN;\n        }\n\n        if (winningOutcome == UNRESOLVED_OUTCOME_RESULT && now < (marketResolutionTime.add(ORACLE_TIMEOUT_TIME))) {\n            return States.LOCKED;\n        }\n\n        return States.WITHDRAW;\n    }\n\n    function getOutcomeNames() external view returns (string[] memory) {\n        return outcomeNames;\n    }\n\n    function getTokenAddresses() external view returns (Token[] memory) {\n        return tokenAddresses;\n    }\n\n    function getParticipants() external view returns (address[] memory) {\n        return participants;\n    }\n\n    function getBetAmountsArray(uint256 _outcome) external view returns (uint256[] memory) {\n        return betAmountsArray[_outcome];\n    }\n\n    function getTimestampsArray(uint256 _outcome) external view returns (uint256[] memory) {\n        return timestampsArray[_outcome];\n    }\n\n    function getMarketSize() public view returns (uint256) {\n        return participants.length;\n    }\n\n    function getParticipantsBet(uint256 _outcome) public view returns (uint256) {\n        Token _token = Token(tokenAddresses[_outcome]);\n        return _token.balanceOf(msg.sender);\n    }\n\n    function getMaxTotalInterest() public view returns (uint256) {\n        if (maxInterest > 0) {\n            return maxInterest;\n        } else {\n            return getTotalInterest();\n        }\n    }\n\n    function getTotalInterest() public view returns (uint256) {\n        uint256 _remainingBet = totalBets.sub(betsWithdrawn);\n        uint256 _totalAdaibalances = aToken.balanceOf(address(this));\n        uint256 _totalInterest = _totalAdaibalances.sub(_remainingBet);\n        return _totalInterest;\n    }\n\n    function getWinningsGivenOutcome(uint256 _outcome) public view returns (uint256) {\n        Token _token = Token(tokenAddresses[_outcome]);\n        uint256 _userBetOnOutcome = _token.balanceOf(msg.sender);\n        uint256 _totalRemainingBetsOnOutcome = totalBetsPerOutcome[_outcome].sub(betsWithdrawnPerOutcome[_outcome]);\n        return _calculateWinnings(_totalRemainingBetsOnOutcome, _userBetOnOutcome);\n    }\n\n    /// @dev If invalid outcome, simply pay out interest in proportion to bets across all tokenAddresses\n    /// @dev i.e. as if all the outcomes 'won'\n    function getWinningsInvalid() public view returns (uint256) {\n        return _calculateWinnings(totalBets.sub(betsWithdrawn), getUserBetsAllOutcomes());\n    }\n\n    function getEstimatedETHforDAI(uint256 ethAmount) public view returns (uint256[] memory) {\n        address[] memory path = _getDAIforETHpath();\n        return uniswapRouter.getAmountsIn(ethAmount, path);\n    }\n\n    function getEstimatedDAIforETH(uint256 daiAmount) public view returns (uint256[] memory) {\n        address[] memory path = _getDAIforETHpath();\n        return uniswapRouter.getAmountsOut(daiAmount, path);\n    }\n\n    /// @notice returns winning user's share of interest\n    /// @param _totalBetAmount total bet among all outcomes\n    /// @param _userBetOutcomeAmount total bet on winning outcome\n    /// @return users's share of the interest\n    function _calculateWinnings(uint256 _totalBetAmount, uint256 _userBetOutcomeAmount)\n        internal\n        view\n        returns (uint256)\n    {\n        uint256 winnings = 0;\n\n        if (_totalBetAmount > 0) {\n            uint256 _totalInterest = getTotalInterest();\n            winnings = (_totalInterest.mul(_userBetOutcomeAmount)).div(_totalBetAmount);\n        }\n\n        return winnings;\n    }\n\n    function getUserBetsAllOutcomes() public view returns (uint256) {\n        // get total bet across all outcomes\n        uint256 _userBetsAllOutcomes;\n        for (uint256 i = 0; i < numberOfOutcomes; i++) {\n            Token _token = Token(tokenAddresses[i]);\n            uint256 _userBetThisOutcome = _token.balanceOf(msg.sender);\n            _userBetsAllOutcomes = _userBetsAllOutcomes.add(_userBetThisOutcome);\n        }\n        return _userBetsAllOutcomes;\n    }\n\n    ////////////////////////////////////\n    //////// REALIITO FUNCTIONS ////////\n    ////////////////////////////////////\n\n    /// @notice posts the market question onto realit.io\n    /// @param template_id always 2\n    /// @param question string passed to realitio\n    /// @param arbitrator = kleros\n    /// @param timeout how long answer can be challenged until finalised\n    /// @param opening_ts when the question can first be answered\n    /// @param nonce nonce\n    /// @return the ID of the question on realitio\n    function _postQuestion(\n        uint256 template_id,\n        string memory question,\n        address arbitrator,\n        uint32 timeout,\n        uint32 opening_ts,\n        uint256 nonce\n    ) internal returns (bytes32) {\n        return realitio.askQuestion(template_id, question, arbitrator, timeout, opening_ts, nonce);\n    }\n\n    /// @notice determines the winning outcome from realitio\n    /// @dev this function call will revert if it has not yet resolved\n    /// @return the winning outcome of the event\n    function _determineWinner() internal view returns (uint256) {\n        bytes32 _winningOutcome = realitio.resultFor(questionId);\n        return uint256(_winningOutcome);\n    }\n\n    /// @notice Function called by determineWinner to see if question has been finalized\n    /// @return whether or not the question has been finalized on realitio\n    function _isQuestionFinalized() internal view returns (bool) {\n        return realitio.isFinalized(questionId);\n    }\n\n    ////////////////////////////////////\n    /////// EXTERNAL DAI CALLS /////////\n    ////////////////////////////////////\n\n    /// @notice common function for all outgoing DAI transfers\n    /// @param _to address to send to\n    /// @param _amount amount to send\n    function _sendCash(address _to, uint256 _amount) internal {\n        require(dai.transfer(_to, _amount), 'Cash transfer failed');\n    }\n\n    /// @notice common function for all incoming DAI transfers\n    /// @param _from address that is receiving cash\n    /// @param _amount amount to recieve\n    function _receiveCash(address _from, uint256 _amount) internal {\n        if (msg.value > 0) {\n            _swapETHForExactTokenWithUniswap(_amount);\n            return;\n        }\n\n        require(dai.transferFrom(_from, address(this), _amount), 'Cash transfer failed');\n    }\n\n    ////////////////////////////////////\n    /////// EXTERNAL AAVE CALLS ////////\n    ////////////////////////////////////\n\n    /// @notice swap Dai for aDai\n    function _sendToAave(uint256 _dai) internal {\n        aaveLendingPool.deposit(address(dai), _dai, 0);\n    }\n\n    /// @notice swap aDai for Dai\n    function _redeemFromAave(uint256 _dai) internal {\n        aToken.redeem(_dai);\n    }\n\n    ////////////////////////////////////\n    //////// EXTERNAL FUNCTIONS ////////\n    ////////////////////////////////////\n\n    function placeBet(uint256 _outcome, uint256 _dai) external payable checkState(States.OPEN) whenNotPaused {\n        _placeBet(_outcome, _dai);\n        _receiveCash(msg.sender, _dai);\n        _sendToAave(_dai);\n    }\n\n    function determineWinner() external whenNotPaused {\n        require(_isQuestionFinalized(), 'Oracle has not finalised');\n        winningOutcome = _determineWinner();\n    }\n\n    function withdraw() external checkState(States.WITHDRAW) whenNotPaused nonReentrant {\n        if (maxInterest == 0) {\n            maxInterest = getTotalInterest();\n        }\n\n        if (totalBetsPerOutcome[winningOutcome] > 0) {\n            _payoutWinnings();\n        } else {\n            _payoutWinningsInvalid();\n        }\n\n        _burnUsersTokens();\n    }\n\n    ////////////////////////////////////\n    //////// INTERNAL FUNCTIONS ////////\n    ////////////////////////////////////\n    function _payoutWinnings() internal {\n        uint256 _winnings = getWinningsGivenOutcome(winningOutcome);\n        uint256 _daiToSend = _winnings.add(getUserBetsAllOutcomes());\n\n        // externals\n        if (_daiToSend > 0) {\n            _redeemFromAave(_daiToSend);\n            _sendCash(msg.sender, _daiToSend);\n        }\n    }\n\n    function _payoutWinningsInvalid() internal {\n        uint256 _winningsInvalid = getWinningsInvalid();\n        uint256 _daiToSend = _winningsInvalid.add(getUserBetsAllOutcomes());\n\n        // externals\n        if (_daiToSend > 0) {\n            _redeemFromAave(_daiToSend);\n            _sendCash(msg.sender, _daiToSend);\n        }\n    }\n\n    function _placeBet(uint256 _outcome, uint256 _dai) internal {\n        Token _token = tokenAddresses[_outcome];\n\n        betAmountsArray[_outcome].push(_dai);\n        timestampsArray[_outcome].push(now);\n\n        if (_token.balanceOf(msg.sender) == 0) {\n            participants.push(msg.sender);\n            usersPerOutcome[_outcome] = usersPerOutcome[_outcome].add(1);\n        }\n\n        _token.mint(msg.sender, _dai);\n        totalBets = totalBets.add(_dai);\n        totalBetsPerOutcome[_outcome] = totalBetsPerOutcome[_outcome].add(_dai);\n\n        emit ParticipantEntered(msg.sender);\n    }\n\n    function _burnUsersTokens() internal {\n        for (uint256 i = 0; i < numberOfOutcomes; i++) {\n            Token _token = Token(tokenAddresses[i]);\n            uint256 _userBetThisOutcome = _token.balanceOf(msg.sender);\n            if (_userBetThisOutcome > 0) {\n                betsWithdrawnPerOutcome[i] = betsWithdrawnPerOutcome[i].add(_userBetThisOutcome);\n                betsWithdrawn = betsWithdrawn.add(_userBetThisOutcome);\n                _token.burn(msg.sender, _userBetThisOutcome);\n            }\n        }\n    }\n\n    function _swapETHForExactTokenWithUniswap(uint256 daiAmount) private {\n        address[] memory path = _getDAIforETHpath();\n\n        uniswapRouter.swapETHForExactTokens{value: msg.value}(daiAmount, path, address(this), now + 15);\n\n        (bool success, ) = msg.sender.call{value: address(this).balance}(''); // refund leftover ETH\n        require(success, 'Refund of ETH failed');\n    }\n\n    function _getDAIforETHpath() private view returns (address[] memory) {\n        address[] memory path = new address[](2);\n        path[0] = uniswapRouter.WETH();\n        path[1] = address(dai);\n\n        return path;\n    }\n\n    ////////////////////////////////////\n    ///// BOILERPLATE FUNCTIONS ////////\n    ////////////////////////////////////\n    function disableContract() public onlyOwner whenNotPaused returns (bool) {\n        _pause();\n    }\n\n    function enableContract() public onlyOwner whenPaused returns (bool) {\n        _unpause();\n    }\n\n    receive() external payable {}\n\n    fallback() external payable {}\n}\n",
  "sourcePath": "/Users/brenfife/Desktop/MagicBet-Contracts/contracts/MBMarket.sol",
  "compiler": {
    "name": "solc",
    "version": "0.6.10+commit.00c0fcaf.Emscripten.clang"
  },
  "schemaVersion": "3.2.0",
  "updatedAt": "2020-07-08T17:28:39.839Z",
  "devdoc": {
    "methods": {
      "getWinningsInvalid()": {
        "details": "If invalid outcome, simply pay out interest in proportion to bets across all tokenAddressesi.e. as if all the outcomes 'won'"
      },
      "owner()": {
        "details": "Returns the address of the current owner."
      },
      "paused()": {
        "details": "Returns true if the contract is paused, and false otherwise."
      },
      "renounceOwnership()": {
        "details": "Leaves the contract without owner. It will not be possible to call `onlyOwner` functions anymore. Can only be called by the current owner. NOTE: Renouncing ownership will leave the contract without an owner, thereby removing any functionality that is only available to the owner."
      },
      "transferOwnership(address)": {
        "details": "Transfers ownership of the contract to a new account (`newOwner`). Can only be called by the current owner."
      }
    },
    "title": "The MagicBet market instance"
  },
  "userdoc": {
    "methods": {
      "UNRESOLVED_OUTCOME_RESULT()": {
        "notice": "///////////////////////////////// ///// VARIABLES ///////////////// /////////////////////////////////"
      },
      "constructor": "///////////////////////////////// ///// CONSTRUCTOR /////////////// /////////////////////////////////",
      "dai()": {
        "notice": "///// Externals ////////"
      },
      "disableContract()": {
        "notice": "///////////////////////////////// // BOILERPLATE FUNCTIONS //////// /////////////////////////////////"
      },
      "getCurrentState()": {
        "notice": "///////////////////////////////// /////// VIEW FUNCTIONS ////////// /////////////////////////////////"
      },
      "maxInterest()": {
        "notice": "///// Market Details ////////"
      },
      "placeBet(uint256,uint256)": {
        "notice": "///////////////////////////////// ///// EXTERNAL FUNCTIONS //////// /////////////////////////////////"
      },
      "totalBetsPerOutcome(uint256)": {
        "notice": "///// Betting variables ////////"
      },
      "winningOutcome()": {
        "notice": "///// Market resolution variables ////////"
      }
    },
    "notice": "This contract is the framework of each new market"
  }
}