{
  "contractName": "MBMarket",
  "abi": [
    {
      "inputs": [
        {
          "internalType": "contract Dai",
          "name": "_daiAddress",
          "type": "address"
        },
        {
          "internalType": "address[3]",
          "name": "_aaveAddresses",
          "type": "address[3]"
        },
        {
          "internalType": "contract IRealitio",
          "name": "_realitioAddress",
          "type": "address"
        },
        {
          "internalType": "contract IUniswapV2Router01",
          "name": "_uniswapRouter",
          "type": "address"
        },
        {
          "internalType": "string",
          "name": "_eventName",
          "type": "string"
        },
        {
          "internalType": "uint256[4]",
          "name": "_marketTimes",
          "type": "uint256[4]"
        },
        {
          "internalType": "address",
          "name": "_arbitrator",
          "type": "address"
        },
        {
          "internalType": "string",
          "name": "_realitioQuestion",
          "type": "string"
        },
        {
          "internalType": "string[]",
          "name": "_outcomeNamesArray",
          "type": "string[]"
        },
        {
          "internalType": "address",
          "name": "_owner",
          "type": "address"
        }
      ],
      "stateMutability": "nonpayable",
      "type": "constructor"
    },
    {
      "anonymous": false,
      "inputs": [
        {
          "indexed": true,
          "internalType": "address",
          "name": "previousOwner",
          "type": "address"
        },
        {
          "indexed": true,
          "internalType": "address",
          "name": "newOwner",
          "type": "address"
        }
      ],
      "name": "OwnershipTransferred",
      "type": "event"
    },
    {
      "anonymous": false,
      "inputs": [
        {
          "indexed": true,
          "internalType": "address",
          "name": "participant",
          "type": "address"
        }
      ],
      "name": "ParticipantEntered",
      "type": "event"
    },
    {
      "anonymous": false,
      "inputs": [
        {
          "indexed": true,
          "internalType": "address",
          "name": "participant",
          "type": "address"
        }
      ],
      "name": "ParticipantWithdrawn",
      "type": "event"
    },
    {
      "anonymous": false,
      "inputs": [
        {
          "indexed": false,
          "internalType": "address",
          "name": "account",
          "type": "address"
        }
      ],
      "name": "Paused",
      "type": "event"
    },
    {
      "anonymous": false,
      "inputs": [
        {
          "indexed": false,
          "internalType": "enum MBMarket.States",
          "name": "state",
          "type": "uint8"
        }
      ],
      "name": "StateChanged",
      "type": "event"
    },
    {
      "anonymous": false,
      "inputs": [
        {
          "indexed": false,
          "internalType": "address",
          "name": "account",
          "type": "address"
        }
      ],
      "name": "Unpaused",
      "type": "event"
    },
    {
      "anonymous": false,
      "inputs": [
        {
          "indexed": true,
          "internalType": "address",
          "name": "winner",
          "type": "address"
        }
      ],
      "name": "WinnerSelected",
      "type": "event"
    },
    {
      "stateMutability": "payable",
      "type": "fallback"
    },
    {
      "inputs": [],
      "name": "aToken",
      "outputs": [
        {
          "internalType": "contract IaToken",
          "name": "",
          "type": "address"
        }
      ],
      "stateMutability": "view",
      "type": "function"
    },
    {
      "inputs": [],
      "name": "aaveLendingPool",
      "outputs": [
        {
          "internalType": "contract IAaveLendingPool",
          "name": "",
          "type": "address"
        }
      ],
      "stateMutability": "view",
      "type": "function"
    },
    {
      "inputs": [],
      "name": "betsWithdrawn",
      "outputs": [
        {
          "internalType": "uint256",
          "name": "",
          "type": "uint256"
        }
      ],
      "stateMutability": "view",
      "type": "function"
    },
    {
      "inputs": [
        {
          "internalType": "uint256",
          "name": "",
          "type": "uint256"
        }
      ],
      "name": "betsWithdrawnPerOutcome",
      "outputs": [
        {
          "internalType": "uint256",
          "name": "",
          "type": "uint256"
        }
      ],
      "stateMutability": "view",
      "type": "function"
    },
    {
      "inputs": [],
      "name": "dai",
      "outputs": [
        {
          "internalType": "contract Dai",
          "name": "",
          "type": "address"
        }
      ],
      "stateMutability": "view",
      "type": "function"
    },
    {
      "inputs": [],
      "name": "eventName",
      "outputs": [
        {
          "internalType": "string",
          "name": "",
          "type": "string"
        }
      ],
      "stateMutability": "view",
      "type": "function"
    },
    {
      "inputs": [],
      "name": "marketLockingTime",
      "outputs": [
        {
          "internalType": "uint256",
          "name": "",
          "type": "uint256"
        }
      ],
      "stateMutability": "view",
      "type": "function"
    },
    {
      "inputs": [],
      "name": "marketOpeningTime",
      "outputs": [
        {
          "internalType": "uint256",
          "name": "",
          "type": "uint256"
        }
      ],
      "stateMutability": "view",
      "type": "function"
    },
    {
      "inputs": [],
      "name": "marketOpeningTimeActual",
      "outputs": [
        {
          "internalType": "uint256",
          "name": "",
          "type": "uint256"
        }
      ],
      "stateMutability": "view",
      "type": "function"
    },
    {
      "inputs": [],
      "name": "marketResolutionTime",
      "outputs": [
        {
          "internalType": "uint32",
          "name": "",
          "type": "uint32"
        }
      ],
      "stateMutability": "view",
      "type": "function"
    },
    {
      "inputs": [],
      "name": "maxInterest",
      "outputs": [
        {
          "internalType": "uint256",
          "name": "",
          "type": "uint256"
        }
      ],
      "stateMutability": "view",
      "type": "function"
    },
    {
      "inputs": [],
      "name": "numberOfOutcomes",
      "outputs": [
        {
          "internalType": "uint256",
          "name": "",
          "type": "uint256"
        }
      ],
      "stateMutability": "view",
      "type": "function"
    },
    {
      "inputs": [
        {
          "internalType": "uint256",
          "name": "",
          "type": "uint256"
        }
      ],
      "name": "outcomeNames",
      "outputs": [
        {
          "internalType": "string",
          "name": "",
          "type": "string"
        }
      ],
      "stateMutability": "view",
      "type": "function"
    },
    {
      "inputs": [],
      "name": "owner",
      "outputs": [
        {
          "internalType": "address",
          "name": "",
          "type": "address"
        }
      ],
      "stateMutability": "view",
      "type": "function"
    },
    {
      "inputs": [
        {
          "internalType": "uint256",
          "name": "",
          "type": "uint256"
        }
      ],
      "name": "participants",
      "outputs": [
        {
          "internalType": "address",
          "name": "",
          "type": "address"
        }
      ],
      "stateMutability": "view",
      "type": "function"
    },
    {
      "inputs": [],
      "name": "paused",
      "outputs": [
        {
          "internalType": "bool",
          "name": "",
          "type": "bool"
        }
      ],
      "stateMutability": "view",
      "type": "function"
    },
    {
      "inputs": [],
      "name": "questionId",
      "outputs": [
        {
          "internalType": "bytes32",
          "name": "",
          "type": "bytes32"
        }
      ],
      "stateMutability": "view",
      "type": "function"
    },
    {
      "inputs": [],
      "name": "questionResolvedInvalid",
      "outputs": [
        {
          "internalType": "bool",
          "name": "",
          "type": "bool"
        }
      ],
      "stateMutability": "view",
      "type": "function"
    },
    {
      "inputs": [],
      "name": "realitio",
      "outputs": [
        {
          "internalType": "contract IRealitio",
          "name": "",
          "type": "address"
        }
      ],
      "stateMutability": "view",
      "type": "function"
    },
    {
      "inputs": [],
      "name": "renounceOwnership",
      "outputs": [],
      "stateMutability": "nonpayable",
      "type": "function"
    },
    {
      "inputs": [],
      "name": "state",
      "outputs": [
        {
          "internalType": "enum MBMarket.States",
          "name": "",
          "type": "uint8"
        }
      ],
      "stateMutability": "view",
      "type": "function"
    },
    {
      "inputs": [
        {
          "internalType": "uint256",
          "name": "",
          "type": "uint256"
        }
      ],
      "name": "tokenAddresses",
      "outputs": [
        {
          "internalType": "contract Token",
          "name": "",
          "type": "address"
        }
      ],
      "stateMutability": "view",
      "type": "function"
    },
    {
      "inputs": [],
      "name": "totalBets",
      "outputs": [
        {
          "internalType": "uint256",
          "name": "",
          "type": "uint256"
        }
      ],
      "stateMutability": "view",
      "type": "function"
    },
    {
      "inputs": [
        {
          "internalType": "uint256",
          "name": "",
          "type": "uint256"
        }
      ],
      "name": "totalBetsPerOutcome",
      "outputs": [
        {
          "internalType": "uint256",
          "name": "",
          "type": "uint256"
        }
      ],
      "stateMutability": "view",
      "type": "function"
    },
    {
      "inputs": [
        {
          "internalType": "address",
          "name": "",
          "type": "address"
        }
      ],
      "name": "totalBetsPerUser",
      "outputs": [
        {
          "internalType": "uint256",
          "name": "",
          "type": "uint256"
        }
      ],
      "stateMutability": "view",
      "type": "function"
    },
    {
      "inputs": [
        {
          "internalType": "address",
          "name": "newOwner",
          "type": "address"
        }
      ],
      "name": "transferOwnership",
      "outputs": [],
      "stateMutability": "nonpayable",
      "type": "function"
    },
    {
      "inputs": [],
      "name": "uniswapRouter",
      "outputs": [
        {
          "internalType": "contract IUniswapV2Router01",
          "name": "",
          "type": "address"
        }
      ],
      "stateMutability": "view",
      "type": "function"
    },
    {
      "inputs": [
        {
          "internalType": "uint256",
          "name": "",
          "type": "uint256"
        }
      ],
      "name": "usersPerOutcome",
      "outputs": [
        {
          "internalType": "uint256",
          "name": "",
          "type": "uint256"
        }
      ],
      "stateMutability": "view",
      "type": "function"
    },
    {
      "inputs": [],
      "name": "winningOutcome",
      "outputs": [
        {
          "internalType": "uint256",
          "name": "",
          "type": "uint256"
        }
      ],
      "stateMutability": "view",
      "type": "function"
    },
    {
      "inputs": [
        {
          "internalType": "address",
          "name": "",
          "type": "address"
        }
      ],
      "name": "withdrawnBool",
      "outputs": [
        {
          "internalType": "bool",
          "name": "",
          "type": "bool"
        }
      ],
      "stateMutability": "view",
      "type": "function"
    },
    {
      "stateMutability": "payable",
      "type": "receive"
    },
    {
      "inputs": [
        {
          "internalType": "string",
          "name": "_eventName",
          "type": "string"
        }
      ],
      "name": "setEventName",
      "outputs": [],
      "stateMutability": "nonpayable",
      "type": "function"
    },
    {
      "inputs": [
        {
          "internalType": "uint256",
          "name": "_outcome",
          "type": "uint256"
        }
      ],
      "name": "getBetAmountsArray",
      "outputs": [
        {
          "internalType": "uint256[]",
          "name": "",
          "type": "uint256[]"
        }
      ],
      "stateMutability": "view",
      "type": "function"
    },
    {
      "inputs": [
        {
          "internalType": "uint256",
          "name": "_outcome",
          "type": "uint256"
        }
      ],
      "name": "getTimestampsArray",
      "outputs": [
        {
          "internalType": "uint256[]",
          "name": "",
          "type": "uint256[]"
        }
      ],
      "stateMutability": "view",
      "type": "function"
    },
    {
      "inputs": [],
      "name": "getMarketSize",
      "outputs": [
        {
          "internalType": "uint256",
          "name": "",
          "type": "uint256"
        }
      ],
      "stateMutability": "view",
      "type": "function"
    },
    {
      "inputs": [
        {
          "internalType": "uint256",
          "name": "_outcome",
          "type": "uint256"
        }
      ],
      "name": "getParticipantsBet",
      "outputs": [
        {
          "internalType": "uint256",
          "name": "",
          "type": "uint256"
        }
      ],
      "stateMutability": "view",
      "type": "function"
    },
    {
      "inputs": [],
      "name": "getMaxTotalInterest",
      "outputs": [
        {
          "internalType": "uint256",
          "name": "",
          "type": "uint256"
        }
      ],
      "stateMutability": "view",
      "type": "function"
    },
    {
      "inputs": [],
      "name": "getTotalInterest",
      "outputs": [
        {
          "internalType": "uint256",
          "name": "",
          "type": "uint256"
        }
      ],
      "stateMutability": "view",
      "type": "function"
    },
    {
      "inputs": [
        {
          "internalType": "uint256",
          "name": "_outcome",
          "type": "uint256"
        }
      ],
      "name": "getWinningsGivenOutcome",
      "outputs": [
        {
          "internalType": "uint256",
          "name": "",
          "type": "uint256"
        }
      ],
      "stateMutability": "view",
      "type": "function"
    },
    {
      "inputs": [],
      "name": "getWinningsInvalid",
      "outputs": [
        {
          "internalType": "uint256",
          "name": "",
          "type": "uint256"
        }
      ],
      "stateMutability": "view",
      "type": "function"
    },
    {
      "inputs": [
        {
          "internalType": "uint256",
          "name": "ethAmount",
          "type": "uint256"
        }
      ],
      "name": "getEstimatedETHforDAI",
      "outputs": [
        {
          "internalType": "uint256[]",
          "name": "",
          "type": "uint256[]"
        }
      ],
      "stateMutability": "view",
      "type": "function"
    },
    {
      "inputs": [
        {
          "internalType": "uint256",
          "name": "daiAmount",
          "type": "uint256"
        }
      ],
      "name": "getEstimatedDAIforETH",
      "outputs": [
        {
          "internalType": "uint256[]",
          "name": "",
          "type": "uint256[]"
        }
      ],
      "stateMutability": "view",
      "type": "function"
    },
    {
      "inputs": [
        {
          "internalType": "uint256",
          "name": "_outcome",
          "type": "uint256"
        },
        {
          "internalType": "uint256",
          "name": "_dai",
          "type": "uint256"
        }
      ],
      "name": "placeBet",
      "outputs": [],
      "stateMutability": "payable",
      "type": "function"
    },
    {
      "inputs": [],
      "name": "determineWinner",
      "outputs": [],
      "stateMutability": "nonpayable",
      "type": "function"
    },
    {
      "inputs": [],
      "name": "incrementState",
      "outputs": [],
      "stateMutability": "nonpayable",
      "type": "function"
    },
    {
      "inputs": [],
      "name": "circuitBreaker",
      "outputs": [],
      "stateMutability": "nonpayable",
      "type": "function"
    },
    {
      "inputs": [],
      "name": "withdraw",
      "outputs": [],
      "stateMutability": "nonpayable",
      "type": "function"
    },
    {
      "inputs": [],
      "name": "disableContract",
      "outputs": [
        {
          "internalType": "bool",
          "name": "",
          "type": "bool"
        }
      ],
      "stateMutability": "nonpayable",
      "type": "function"
    },
    {
      "inputs": [],
      "name": "enableContract",
      "outputs": [
        {
          "internalType": "bool",
          "name": "",
          "type": "bool"
        }
      ],
      "stateMutability": "nonpayable",
      "type": "function"
    }
  ],
  "bytecode": "0x60806040526045601b55601c805460ff191660011790553480156200002357600080fd5b506040516200492238038062004922833981016040819052620000469162000b0c565b60006200005b6001600160e01b036200029f16565b600080546001600160a01b0319166001600160a01b03831690811782556040519293509160008051602062004902833981519152908290a3506000805461ffff60a01b1916600160a81b1790556001600160a01b0381163314620000cd57620000cd816001600160e01b03620002a416565b600180546001600160a01b0319166001600160a01b038c161790558860006020020151600280546001600160a01b0319166001600160a01b039092169190911790558860016020020151600380546001600160a01b03199081166001600160a01b03938416179091556004805482168b8416179055600580549091168983161790556001541663095ea7b38a60026020020151600160ff1b6040518363ffffffff1660e01b81526004016200018492919062000c6a565b602060405180830381600087803b1580156200019f57600080fd5b505af1158015620001b4573d6000803e3d6000fd5b505050506040513d601f19601f82011682018060405250810190620001da919062000aca565b508551620001f090600c90602089019062000860565b50845160075560208501516009556040850151600a805463ffffffff191663ffffffff9092169190911790558151600f5560005b600f548110156200025d57620002548382815181106200024057fe5b60200260200101516200036360201b60201c565b60010162000224565b50600242620002898286888a60036020020151600a5463ffffffff16866001600160e01b03620004ed16565b600b555062000e589a5050505050505050505050565b335b90565b620002b76001600160e01b036200029f16565b6000546001600160a01b03908116911614620002f05760405162461bcd60e51b8152600401620002e79062000d1d565b60405180910390fd5b6001600160a01b038116620003195760405162461bcd60e51b8152600401620002e79062000cad565b600080546040516001600160a01b03808516939216916000805160206200490283398151915291a3600080546001600160a01b0319166001600160a01b0392909216919091179055565b60008060105460ff1660048111156200037857fe5b146200039157620003916001600160e01b036200058c16565b8060048111156200039e57fe5b60105460ff166004811115620003b057fe5b14620003d05760405162461bcd60e51b8152600401620002e79062000d52565b600d8054600181018255600091909152825162000415917fd7b6990105719101dabeb77144f2a3385c8033acd3af97e9423a695e81ad1eb50190602085019062000860565b506000826040516200042790620008e5565b62000433919062000c98565b604051809103906000f08015801562000450573d6000803e3d6000fd5b50600e805460018101825560008290527fbb7b4a454dc3493923482f07822329ed19e8244eff582cc204f8554c3620c3fd0180546001600160a01b0319166001600160a01b038416179055600f5490549192501415620004e85760105460ff166004811115620004bc57fe5b6001016004811115620004cb57fe5b6010805460ff19166001836004811115620004e257fe5b02179055505b505050565b6004805460405163762c38fd60e01b81526000926001600160a01b039092169163762c38fd916200052b918b918b918b918b918b918b910162000d98565b602060405180830381600087803b1580156200054657600080fd5b505af11580156200055b573d6000803e3d6000fd5b505050506040513d601f19601f8201168201806040525081019062000581919062000af3565b979650505050505050565b600054600160a01b900460ff1615620005b95760405162461bcd60e51b8152600401620002e79062000cf3565b600160105460ff166004811115620005cd57fe5b148015620005dc575042600754105b80620006065750600260105460ff166004811115620005f757fe5b14801562000606575042600954105b80620006325750600360105460ff1660048111156200062157fe5b148015620006325750601b54604514155b156200070957600160105460ff1660048111156200064c57fe5b14156200065857426008555b600360105460ff1660048111156200066c57fe5b14156200068a57620006866001600160e01b036200070b16565b6006555b60105460ff1660048111156200069c57fe5b6001016004811115620006ab57fe5b6010805460ff19166001836004811115620006c257fe5b02179055506010546040517f551dc40198cc79684bb69e4931dba4ac16e4598792ee1c0a5000aeea366d7bb691620007009160ff9091169062000c83565b60405180910390a15b565b6000806200072c601854601754620007de60201b620013db1790919060201c565b6002546040516370a0823160e01b81529192506000916001600160a01b03909116906370a08231906200076490309060040162000c56565b60206040518083038186803b1580156200077d57600080fd5b505afa15801562000792573d6000803e3d6000fd5b505050506040513d601f19601f82011682018060405250810190620007b8919062000af3565b90506000620007d68383620007de60201b620013db1790919060201c565b935050505090565b60006200082883836040518060400160405280601e81526020017f536166654d6174683a207375627472616374696f6e206f766572666c6f7700008152506200083160201b60201c565b90505b92915050565b60008184841115620008585760405162461bcd60e51b8152600401620002e7919062000c98565b505050900390565b828054600181600116156101000203166002900490600052602060002090601f016020900481019282601f10620008a357805160ff1916838001178555620008d3565b82800160010185558215620008d3579182015b82811115620008d3578251825591602001919060010190620008b6565b50620008e1929150620008f3565b5090565b6113b2806200355083390190565b620002a191905b80821115620008e15760008155600101620008fa565b80516200082b8162000e3f565b600082601f8301126200092e578081fd5b6200093a606062000de5565b90508082846060850111156200094f57600080fd5b60005b60038110156200097f578151620009698162000e3f565b8352602092830192919091019060010162000952565b50505092915050565b600082601f83011262000999578081fd5b81516001600160401b03811115620009af578182fd5b6020620009c0818284020162000de5565b828152925080830184820160005b84811015620009fb57620009e8888584518a010162000a5c565b83529183019190830190600101620009ce565b505050505092915050565b600082601f83011262000a17578081fd5b62000a23608062000de5565b905080828460808501111562000a3857600080fd5b60005b60048110156200097f57815183526020928301929091019060010162000a3b565b600082601f83011262000a6d578081fd5b81516001600160401b0381111562000a83578182fd5b62000a98601f8201601f191660200162000de5565b915080825283602082850101111562000ab057600080fd5b62000ac381602084016020860162000e0c565b5092915050565b60006020828403121562000adc578081fd5b8151801515811462000aec578182fd5b9392505050565b60006020828403121562000b05578081fd5b5051919050565b6000806000806000806000806000806101e08b8d03121562000b2c578586fd5b62000b388c8c62000910565b995062000b498c60208d016200091d565b985062000b5a8c60808d0162000910565b975062000b6b8c60a08d0162000910565b60c08c01519097506001600160401b038082111562000b88578788fd5b62000b968e838f0162000a5c565b975062000ba78e60e08f0162000a06565b965062000bb98e6101608f0162000910565b95506101808d015191508082111562000bd0578485fd5b62000bde8e838f0162000a5c565b94506101a08d015191508082111562000bf5578384fd5b5062000c048d828e0162000988565b92505062000c178c6101c08d0162000910565b90509295989b9194979a5092959850565b6000815180845262000c4281602086016020860162000e0c565b601f01601f19169290920160200192915050565b6001600160a01b0391909116815260200190565b6001600160a01b03929092168252602082015260400190565b602081016005831062000c9257fe5b91905290565b60006020825262000828602083018462000c28565b60208082526026908201527f4f776e61626c653a206e6577206f776e657220697320746865207a65726f206160408201526564647265737360d01b606082015260800190565b60208082526010908201526f14185d5cd8589b194e881c185d5cd95960821b604082015260600190565b6020808252818101527f4f776e61626c653a2063616c6c6572206973206e6f7420746865206f776e6572604082015260600190565b60208082526026908201527f66756e6374696f6e2063616e6e6f742062652063616c6c656420617420746869604082015265732074696d6560d01b606082015260800190565b600087825260c0602083015262000db360c083018862000c28565b6001600160a01b039690961660408301525063ffffffff938416606082015291909216608082015260a0015292915050565b6040518181016001600160401b038111828210171562000e0457600080fd5b604052919050565b60005b8381101562000e2957818101518382015260200162000e0f565b8381111562000e39576000848401525b50505050565b6001600160a01b038116811462000e5557600080fd5b50565b6126e88062000e686000396000f3fe6080604052600436106102975760003560e01c8063894ba8331161015a578063c19d93fb116100c1578063e8f033c91161007a578063e8f033c91461070e578063e9d337b81461072e578063ee72b06d14610743578063f2fde38b14610758578063f4b9fa7514610778578063fd27b51e1461078d5761029e565b8063c19d93fb14610657578063c4d8dc5814610679578063c56f338c14610699578063d844ab5f146106b9578063e14dedfd146106d9578063e5df8b84146106ee5761029e565b8063a055ccc511610113578063a055ccc5146105ce578063a0c1f15e146105e3578063ada8b83d146105f8578063b06a5c5214610618578063bc8802a21461062d578063befa1e2f146106425761029e565b8063894ba8331461053a5780638da5cb5b1461054f578063906d624114610564578063991d4f5d146105845780639b34ae03146105a45780639d7c7d39146105b95761029e565b806349200d77116101fe5780635c975abb116101b75780635c975abb146104b1578063715018a6146104c6578063735de9f7146104db5780638043c9c0146104f0578063807535cc1461050557806382633028146105255761029e565b806349200d77146104125780634afe62b5146104275780634b8755ca1461043a5780634ecc79f71461044f578063519709c414610464578063561a5aca146104845761029e565b806333b16d931161025057806333b16d931461036f57806335c1d34914610384578063367edd32146103b15780633ccfd60b146103d35780633eac5540146103e857806347254f4f146103fd5761029e565b806305801f0b146102a05780630b60365c146102d6578063149b5d58146102eb57806316efd9411461030b578063232ea3ad1461032057806327acae74146103425761029e565b3661029e57005b005b3480156102ac57600080fd5b506102c06102bb3660046121c0565b6107a2565b6040516102cd9190612301565b60405180910390f35b3480156102e257600080fd5b506102c06107b4565b3480156102f757600080fd5b506102c06103063660046121c0565b610871565b34801561031757600080fd5b5061029e610914565b34801561032c57600080fd5b5061033561096a565b6040516102cd9190612642565b34801561034e57600080fd5b5061036261035d3660046121c0565b610976565b6040516102cd919061231e565b34801561037b57600080fd5b5061029e610a1c565b34801561039057600080fd5b506103a461039f3660046121c0565b610ab2565b6040516102cd919061223c565b3480156103bd57600080fd5b506103c6610ad9565b6040516102cd91906122f6565b3480156103df57600080fd5b5061029e610b41565b3480156103f457600080fd5b506102c0610c80565b34801561040957600080fd5b506103c6610c86565b34801561041e57600080fd5b506102c0610c8f565b61029e6104353660046121d8565b610c95565b34801561044657600080fd5b506102c0610d3c565b34801561045b57600080fd5b506102c0610d42565b34801561047057600080fd5b506102c061047f3660046121c0565b610d48565b34801561049057600080fd5b506104a461049f3660046121c0565b610d5a565b6040516102cd91906122b2565b3480156104bd57600080fd5b506103c6610dec565b3480156104d257600080fd5b5061029e610dfc565b3480156104e757600080fd5b506103a4610e7b565b3480156104fc57600080fd5b50610362610e8a565b34801561051157600080fd5b506104a46105203660046121c0565b610ee5565b34801561053157600080fd5b506102c0610f47565b34801561054657600080fd5b506103c6610f4d565b34801561055b57600080fd5b506103a4610fb6565b34801561057057600080fd5b506103c661057f36600461204e565b610fc5565b34801561059057600080fd5b5061029e61059f366004612156565b610fda565b3480156105b057600080fd5b506102c061101b565b3480156105c557600080fd5b506102c0611021565b3480156105da57600080fd5b506102c0611054565b3480156105ef57600080fd5b506103a461108a565b34801561060457600080fd5b506104a46106133660046121c0565b611099565b34801561062457600080fd5b506102c06110d7565b34801561063957600080fd5b506103a46110dd565b34801561064e57600080fd5b506102c06110ec565b34801561066357600080fd5b5061066c6110f2565b6040516102cd919061230a565b34801561068557600080fd5b506102c06106943660046121c0565b6110fb565b3480156106a557600080fd5b506102c06106b43660046121c0565b61110c565b3480156106c557600080fd5b506102c06106d436600461204e565b61111e565b3480156106e557600080fd5b506102c0611130565b3480156106fa57600080fd5b506103a46107093660046121c0565b611136565b34801561071a57600080fd5b506104a46107293660046121c0565b611143565b34801561073a57600080fd5b506103a46111a3565b34801561074f57600080fd5b5061029e6111b2565b34801561076457600080fd5b5061029e61077336600461204e565b611310565b34801561078457600080fd5b506103a46113c6565b34801561079957600080fd5b506102c06113d5565b60136020526000908152604090205481565b6000806107ce6018546017546113db90919063ffffffff16565b6002546040516370a0823160e01b81529192506000916001600160a01b03909116906370a082319061080490309060040161223c565b60206040518083038186803b15801561081c57600080fd5b505afa158015610830573d6000803e3d6000fd5b505050506040513d601f19601f82011682018060405250810190610854919061213e565b90506000610868828463ffffffff6113db16565b93505050505b90565b600080600e838154811061088157fe5b6000918252602090912001546040516370a0823160e01b81526001600160a01b03909116915081906370a08231906108bd90339060040161223c565b60206040518083038186803b1580156108d557600080fd5b505afa1580156108e9573d6000803e3d6000fd5b505050506040513d601f19601f8201168201806040525081019061090d919061213e565b9392505050565b600a546224ea0063ffffffff9182160116421161094c5760405162461bcd60e51b81526004016109439061251e565b60405180910390fd5b601c805460ff19908116600117909155601080549091166004179055565b600a5463ffffffff1681565b600d818154811061098357fe5b600091825260209182902001805460408051601f6002600019610100600187161502019094169390930492830185900485028101850190915281815293509091830182828015610a145780601f106109e957610100808354040283529160200191610a14565b820191906000526020600020905b8154815290600101906020018083116109f757829003601f168201915b505050505081565b600054600160a01b900460ff1615610a465760405162461bcd60e51b815260040161094390612453565b610a4e61141d565b610a6a5760405162461bcd60e51b81526004016109439061241c565b610a726114a2565b601b81905560001914801590610a985750601b5460009081526013602052604090205415155b15610aa857601c805460ff191690555b610ab06111b2565b565b60198181548110610abf57fe5b6000918252602090912001546001600160a01b0316905081565b6000610ae361152b565b6000546001600160a01b03908116911614610b105760405162461bcd60e51b8152600401610943906124e9565b600054600160a01b900460ff16610b395760405162461bcd60e51b815260040161094390612371565b61086e61152f565b60048060105460ff166004811115610b5557fe5b14610b6257610b626111b2565b806004811115610b6e57fe5b60105460ff166004811115610b7f57fe5b14610b9c5760405162461bcd60e51b815260040161094390612541565b600054600160a01b900460ff1615610bc65760405162461bcd60e51b815260040161094390612453565b600054600160a81b900460ff16610bef5760405162461bcd60e51b8152600401610943906125b5565b6000805460ff60a81b19168155338152601a602052604090205460ff1615610c295760405162461bcd60e51b81526004016109439061247d565b336000908152601a60205260409020805460ff19166001179055601c5460ff16610c5a57610c5561159b565b610c62565b610c626115ec565b610c6a6115f6565b506000805460ff60a81b1916600160a81b179055565b60085481565b601c5460ff1681565b600f5481565b60028060105460ff166004811115610ca957fe5b14610cb657610cb66111b2565b806004811115610cc257fe5b60105460ff166004811115610cd357fe5b14610cf05760405162461bcd60e51b815260040161094390612541565b600054600160a01b900460ff1615610d1a5760405162461bcd60e51b815260040161094390612453565b610d248383611787565b610d2e33836119d3565b610d3782611a89565b505050565b60095481565b60075481565b60166020526000908152604090205481565b606080610d65611af7565b60055460405163d06ca61f60e01b81529192506001600160a01b03169063d06ca61f90610d9890869085906004016125ec565b60006040518083038186803b158015610db057600080fd5b505afa158015610dc4573d6000803e3d6000fd5b505050506040513d6000823e601f3d908101601f1916820160405261090d9190810190612086565b600054600160a01b900460ff1690565b610e0461152b565b6000546001600160a01b03908116911614610e315760405162461bcd60e51b8152600401610943906124e9565b600080546040516001600160a01b03909116907f8be0079c531659141344cd1fd0a4f28419497f9722a3daafe3b4186f6b6457e0908390a3600080546001600160a01b0319169055565b6005546001600160a01b031681565b600c805460408051602060026001851615610100026000190190941693909304601f81018490048402820184019092528181529291830182828015610a145780601f106109e957610100808354040283529160200191610a14565b600081815260116020908152604091829020805483518184028101840190945280845260609392830182828015610f3b57602002820191906000526020600020905b815481526020019060010190808311610f27575b50505050509050919050565b60065481565b6000610f5761152b565b6000546001600160a01b03908116911614610f845760405162461bcd60e51b8152600401610943906124e9565b600054600160a01b900460ff1615610fae5760405162461bcd60e51b815260040161094390612453565b61086e611beb565b6000546001600160a01b031690565b601a6020526000908152604090205460ff1681565b610fe261152b565b6000546001600160a01b0390811691161461100f5760405162461bcd60e51b8152600401610943906124e9565b610d37600c8383611fb6565b601b5481565b6000600460105460ff16600481111561103657fe5b1415611045575060065461086e565b61104d6107b4565b905061086e565b60006110856110706018546017546113db90919063ffffffff16565b33600090815260146020526040902054611c51565b905090565b6002546001600160a01b031681565b6060806110a4611af7565b6005546040516307c0329d60e21b81529192506001600160a01b031690631f00ca7490610d9890869085906004016125ec565b600b5481565b6004546001600160a01b031681565b60175481565b60105460ff1681565b600061110682611c8f565b92915050565b60156020526000908152604090205481565b60146020526000908152604090205481565b60185481565b600e8181548110610abf57fe5b600081815260126020908152604091829020805483518184028101840190945280845260609392830182828015610f3b5760200282019190600052602060002090815481526020019060010190808311610f275750505050509050919050565b6003546001600160a01b031681565b600054600160a01b900460ff16156111dc5760405162461bcd60e51b815260040161094390612453565b600160105460ff1660048111156111ef57fe5b1480156111fd575042600754105b806112245750600260105460ff16600481111561121657fe5b148015611224575042600954105b8061124d5750600360105460ff16600481111561123d57fe5b14801561124d5750601b54604514155b15610ab057600160105460ff16600481111561126557fe5b141561127057426008555b600360105460ff16600481111561128357fe5b1415611295576112916107b4565b6006555b60105460ff1660048111156112a657fe5b60010160048111156112b457fe5b6010805460ff191660018360048111156112ca57fe5b02179055506010546040517f551dc40198cc79684bb69e4931dba4ac16e4598792ee1c0a5000aeea366d7bb6916113069160ff9091169061230a565b60405180910390a1565b61131861152b565b6000546001600160a01b039081169116146113455760405162461bcd60e51b8152600401610943906124e9565b6001600160a01b03811661136b5760405162461bcd60e51b81526004016109439061239f565b600080546040516001600160a01b03808516939216917f8be0079c531659141344cd1fd0a4f28419497f9722a3daafe3b4186f6b6457e091a3600080546001600160a01b0319166001600160a01b0392909216919091179055565b6001546001600160a01b031681565b60195490565b600061090d83836040518060400160405280601e81526020017f536166654d6174683a207375627472616374696f6e206f766572666c6f770000815250611d64565b60048054600b54604051633fc6a14f60e11b81526000936001600160a01b0390931692637f8d429e9261145292909101612301565b60206040518083038186803b15801561146a57600080fd5b505afa15801561147e573d6000803e3d6000fd5b505050506040513d601f19601f82011682018060405250810190611085919061211e565b60048054600b5460405163684e62bf60e11b815260009384936001600160a01b03169263d09cc57e926114d59201612301565b60206040518083038186803b1580156114ed57600080fd5b505afa158015611501573d6000803e3d6000fd5b505050506040513d601f19601f82011682018060405250810190611525919061213e565b91505090565b3390565b600054600160a01b900460ff166115585760405162461bcd60e51b815260040161094390612371565b6000805460ff60a01b191690557f5db9ee0a495bf2e6ff9c91a7834c1ba4fdd244a5e8aa4e537bd38aeae4b073aa61158e61152b565b604051611306919061223c565b60006115a8601b54611c8f565b33600090815260146020526040812054919250906115cd90839063ffffffff611d9016565b905080156115e8576115de81611db5565b6115e83382611de5565b5050565b60006115a8611054565b6000805b600f54811015611755576000600e828154811061161357fe5b60009182526020822001546040516370a0823160e01b81526001600160a01b03909116925082906370a082319061164e90339060040161223c565b60206040518083038186803b15801561166657600080fd5b505afa15801561167a573d6000803e3d6000fd5b505050506040513d601f19601f8201168201806040525081019061169e919061213e565b9050801561174b576116b6848263ffffffff611d9016565b6000848152601560205260409020549094506116d8908263ffffffff611d9016565b600084815260156020526040908190209190915551632770a7eb60e21b81526001600160a01b03831690639dc29fac906117189033908590600401612250565b600060405180830381600087803b15801561173257600080fd5b505af1158015611746573d6000803e3d6000fd5b505050505b50506001016115fa565b5033600090815260146020526040902054811461176e57fe5b601854611781908263ffffffff611d9016565b60185550565b6000828152601160209081526040808320805460018181018355918552838520018590558584526012835290832080549182018155835290822042910155600e8054849081106117d357fe5b6000918252602090912001546040516370a0823160e01b81526001600160a01b03909116915081906370a082319061180f90339060040161223c565b60206040518083038186803b15801561182757600080fd5b505afa15801561183b573d6000803e3d6000fd5b505050506040513d601f19601f8201168201806040525081019061185f919061213e565b6118cf576019805460018181019092557f944998273e477b495144fb8794c914197f3ccb46be2900f4698fd0ef743c96950180546001600160a01b031916331790556000848152601660205260409020546118bf9163ffffffff611d9016565b6000848152601660205260409020555b60405133907fef3b3ae531a4f494c95e537ec1fe385cfe5c1146cb4c1d850b24bad38595804990600090a26040516340c10f1960e01b81526001600160a01b038216906340c10f19906119289033908690600401612250565b600060405180830381600087803b15801561194257600080fd5b505af1158015611956573d6000803e3d6000fd5b505060175461196e925090508363ffffffff611d9016565b601755600083815260136020526040902054611990908363ffffffff611d9016565b6000848152601360209081526040808320939093553382526014905220546119be908363ffffffff611d9016565b33600090815260146020526040902055505050565b34156119e7576119e281611e17565b6115e8565b6001546040516323b872dd60e01b81526001600160a01b03909116906323b872dd90611a1b90859030908690600401612269565b602060405180830381600087803b158015611a3557600080fd5b505af1158015611a49573d6000803e3d6000fd5b505050506040513d601f19601f82011682018060405250810190611a6d919061211e565b6115e85760405162461bcd60e51b815260040161094390612587565b600354600154604051636968703360e11b81526001600160a01b039283169263d2d0e06692611ac292911690859060009060040161228d565b600060405180830381600087803b158015611adc57600080fd5b505af1158015611af0573d6000803e3d6000fd5b5050505050565b6040805160028082526060808301845292839291906020830190803683375050600554604080516315ab88c960e31b815290519394506001600160a01b039091169263ad5c464892506004808301926020929190829003018186803b158015611b5f57600080fd5b505afa158015611b73573d6000803e3d6000fd5b505050506040513d601f19601f82011682018060405250810190611b97919061206a565b81600081518110611ba457fe5b6001600160a01b0392831660209182029290920101526001805483519216918391908110611bce57fe5b6001600160a01b0390921660209283029190910190910152905090565b600054600160a01b900460ff1615611c155760405162461bcd60e51b815260040161094390612453565b6000805460ff60a01b1916600160a01b1790557f62e78cea01bee320cd4e420270b5ea74000d11b0c9f74754ebdbfc544b05a25861158e61152b565b600080831561090d576000611c646107b4565b9050611c8685611c7a838763ffffffff611f0816565b9063ffffffff611f4216565b95945050505050565b600080600e8381548110611c9f57fe5b60009182526020822001546040516370a0823160e01b81526001600160a01b03909116925082906370a0823190611cda90339060040161223c565b60206040518083038186803b158015611cf257600080fd5b505afa158015611d06573d6000803e3d6000fd5b505050506040513d601f19601f82011682018060405250810190611d2a919061213e565b60008581526015602090815260408083205460139092528220549293509091611d589163ffffffff6113db16565b9050611c868183611c51565b60008184841115611d885760405162461bcd60e51b8152600401610943919061231e565b505050900390565b60008282018381101561090d5760405162461bcd60e51b8152600401610943906123e5565b60025460405163db006a7560e01b81526001600160a01b039091169063db006a7590611ac2908490600401612301565b60015460405163a9059cbb60e01b81526001600160a01b039091169063a9059cbb90611a1b9085908590600401612250565b6060611e21611af7565b60055460405163fb3bdb4160e01b81529192506001600160a01b03169063fb3bdb41903490611e5d90869086903090600f42019060040161260d565b6000604051808303818588803b158015611e7657600080fd5b505af1158015611e8a573d6000803e3d6000fd5b50505050506040513d6000823e601f3d908101601f19168201604052611eb39190810190612086565b50336001600160a01b031647604051611ecb9061086e565b60006040518083038185875af1925050503d8060008114611af0576040519150601f19603f3d011682016040523d82523d6000602084013e611af0565b600082611f1757506000611106565b82820282848281611f2457fe5b041461090d5760405162461bcd60e51b8152600401610943906124a8565b600061090d83836040518060400160405280601a81526020017f536166654d6174683a206469766973696f6e206279207a65726f00000000000081525060008183611fa05760405162461bcd60e51b8152600401610943919061231e565b506000838581611fac57fe5b0495945050505050565b828054600181600116156101000203166002900490600052602060002090601f016020900481019282601f10611ff75782800160ff19823516178555612024565b82800160010185558215612024579182015b82811115612024578235825591602001919060010190612009565b50612030929150612034565b5090565b61086e91905b80821115612030576000815560010161203a565b60006020828403121561205f578081fd5b813561090d8161269a565b60006020828403121561207b578081fd5b815161090d8161269a565b60006020808385031215612098578182fd5b825167ffffffffffffffff8111156120ae578283fd5b80840185601f8201126120bf578384fd5b805191506120d46120cf8361267a565b612653565b82815283810190828501858502840186018910156120f0578687fd5b8693505b848410156121125780518352600193909301929185019185016120f4565b50979650505050505050565b60006020828403121561212f578081fd5b8151801515811461090d578182fd5b60006020828403121561214f578081fd5b5051919050565b60008060208385031215612168578081fd5b823567ffffffffffffffff8082111561217f578283fd5b81850186601f820112612190578384fd5b80359250818311156121a0578384fd5b8660208483010111156121b1578384fd5b60200196919550909350505050565b6000602082840312156121d1578081fd5b5035919050565b600080604083850312156121ea578182fd5b50508035926020909101359150565b6000815180845260208085019450808401835b838110156122315781516001600160a01b03168752958201959082019060010161220c565b509495945050505050565b6001600160a01b0391909116815260200190565b6001600160a01b03929092168252602082015260400190565b6001600160a01b039384168152919092166020820152604081019190915260600190565b6001600160a01b03939093168352602083019190915261ffff16604082015260600190565b6020808252825182820181905260009190848201906040850190845b818110156122ea578351835292840192918401916001016122ce565b50909695505050505050565b901515815260200190565b90815260200190565b602081016005831061231857fe5b91905290565b6000602080835283518082850152825b8181101561234a5785810183015185820160400152820161232e565b8181111561235b5783604083870101525b50601f01601f1916929092016040019392505050565b60208082526014908201527314185d5cd8589b194e881b9bdd081c185d5cd95960621b604082015260600190565b60208082526026908201527f4f776e61626c653a206e6577206f776e657220697320746865207a65726f206160408201526564647265737360d01b606082015260800190565b6020808252601b908201527f536166654d6174683a206164646974696f6e206f766572666c6f770000000000604082015260600190565b60208082526018908201527f4f7261636c6520686173206e6f742066696e616c697365640000000000000000604082015260600190565b60208082526010908201526f14185d5cd8589b194e881c185d5cd95960821b604082015260600190565b60208082526011908201527020b63932b0b23c903bb4ba34323930bbb760791b604082015260600190565b60208082526021908201527f536166654d6174683a206d756c7469706c69636174696f6e206f766572666c6f6040820152607760f81b606082015260800190565b6020808252818101527f4f776e61626c653a2063616c6c6572206973206e6f7420746865206f776e6572604082015260600190565b602080825260099082015268546f6f206561726c7960b81b604082015260600190565b60208082526026908201527f66756e6374696f6e2063616e6e6f742062652063616c6c656420617420746869604082015265732074696d6560d01b606082015260800190565b60208082526014908201527310d85cda081d1c985b9cd9995c8819985a5b195960621b604082015260600190565b6020808252601f908201527f5265656e7472616e637947756172643a207265656e7472616e742063616c6c00604082015260600190565b60008382526040602083015261260560408301846121f9565b949350505050565b60008582526080602083015261262660808301866121f9565b6001600160a01b03949094166040830152506060015292915050565b63ffffffff91909116815260200190565b60405181810167ffffffffffffffff8111828210171561267257600080fd5b604052919050565b600067ffffffffffffffff821115612690578081fd5b5060209081020190565b6001600160a01b03811681146126af57600080fd5b5056fea2646970667358221220b2a2acd7573526b04b5be15b8657d92399e523cce72b25ff854753fed0ab563364736f6c6343000607003360806040523480156200001157600080fd5b50604051620013b2380380620013b2833981810160405260208110156200003757600080fd5b81019080805160405193929190846401000000008211156200005857600080fd5b9083019060208201858111156200006e57600080fd5b82516401000000008111828201881017156200008957600080fd5b82525081516020918201929091019080838360005b83811015620000b85781810151838201526020016200009e565b50505050905090810190601f168015620000e65780820380516001836020036101000a031916815260200191505b5060408181019052600281526126a160f11b60208083019190915285518695509193506200011c925060039190850190620001b9565b50805162000132906004906020840190620001b9565b50506005805460ff19166012179055506000620001576001600160e01b03620001b416565b60058054610100600160a81b0319166101006001600160a01b03841690810291909117909155604051919250906000907f8be0079c531659141344cd1fd0a4f28419497f9722a3daafe3b4186f6b6457e0908290a350506200025b565b335b90565b828054600181600116156101000203166002900490600052602060002090601f016020900481019282601f10620001fc57805160ff19168380011785556200022c565b828001600101855582156200022c579182015b828111156200022c5782518255916020019190600101906200020f565b506200023a9291506200023e565b5090565b620001b691905b808211156200023a576000815560010162000245565b611147806200026b6000396000f3fe6080604052600436106100f75760003560e01c8063715018a61161008a578063a457c2d711610059578063a457c2d7146103a5578063a9059cbb146103de578063dd62ed3e14610417578063f2fde38b14610452576100fe565b8063715018a6146103115780638da5cb5b1461032657806395d89b41146103575780639dc29fac1461036c576100fe565b8063313ce567116100c6578063313ce56714610241578063395093511461026c57806340c10f19146102a557806370a08231146102de576100fe565b806306fdde0314610100578063095ea7b31461018a57806318160ddd146101d757806323b872dd146101fe576100fe565b366100fe57005b005b34801561010c57600080fd5b50610115610485565b6040805160208082528351818301528351919283929083019185019080838360005b8381101561014f578181015183820152602001610137565b50505050905090810190601f16801561017c5780820380516001836020036101000a031916815260200191505b509250505060405180910390f35b34801561019657600080fd5b506101c3600480360360408110156101ad57600080fd5b506001600160a01b03813516906020013561051b565b604080519115158252519081900360200190f35b3480156101e357600080fd5b506101ec610538565b60408051918252519081900360200190f35b34801561020a57600080fd5b506101c36004803603606081101561022157600080fd5b506001600160a01b0381358116916020810135909116906040013561053e565b34801561024d57600080fd5b506102566105cb565b6040805160ff9092168252519081900360200190f35b34801561027857600080fd5b506101c36004803603604081101561028f57600080fd5b506001600160a01b0381351690602001356105d4565b3480156102b157600080fd5b506100fe600480360360408110156102c857600080fd5b506001600160a01b038135169060200135610628565b3480156102ea57600080fd5b506101ec6004803603602081101561030157600080fd5b50356001600160a01b0316610693565b34801561031d57600080fd5b506100fe6106ae565b34801561033257600080fd5b5061033b61075b565b604080516001600160a01b039092168252519081900360200190f35b34801561036357600080fd5b5061011561076f565b34801561037857600080fd5b506100fe6004803603604081101561038f57600080fd5b506001600160a01b0381351690602001356107d0565b3480156103b157600080fd5b506101c3600480360360408110156103c857600080fd5b506001600160a01b038135169060200135610837565b3480156103ea57600080fd5b506101c36004803603604081101561040157600080fd5b506001600160a01b0381351690602001356108a5565b34801561042357600080fd5b506101ec6004803603604081101561043a57600080fd5b506001600160a01b03813581169160200135166108b9565b34801561045e57600080fd5b506100fe6004803603602081101561047557600080fd5b50356001600160a01b03166108e4565b60038054604080516020601f60026000196101006001881615020190951694909404938401819004810282018101909252828152606093909290918301828280156105115780601f106104e657610100808354040283529160200191610511565b820191906000526020600020905b8154815290600101906020018083116104f457829003601f168201915b5050505050905090565b600061052f6105286109ed565b84846109f1565b50600192915050565b60025490565b600061054b848484610add565b6105c1846105576109ed565b6105bc8560405180606001604052806028815260200161103b602891396001600160a01b038a166000908152600160205260408120906105956109ed565b6001600160a01b03168152602081019190915260400160002054919063ffffffff610c4416565b6109f1565b5060019392505050565b60055460ff1690565b600061052f6105e16109ed565b846105bc85600160006105f26109ed565b6001600160a01b03908116825260208083019390935260409182016000908120918c16815292529020549063ffffffff610cdb16565b6106306109ed565b60055461010090046001600160a01b03908116911614610685576040805162461bcd60e51b81526020600482018190526024820152600080516020611063833981519152604482015290519081900360640190fd5b61068f8282610d3c565b5050565b6001600160a01b031660009081526020819052604090205490565b6106b66109ed565b60055461010090046001600160a01b0390811691161461070b576040805162461bcd60e51b81526020600482018190526024820152600080516020611063833981519152604482015290519081900360640190fd5b60055460405160009161010090046001600160a01b0316907f8be0079c531659141344cd1fd0a4f28419497f9722a3daafe3b4186f6b6457e0908390a360058054610100600160a81b0319169055565b60055461010090046001600160a01b031690565b60048054604080516020601f60026000196101006001881615020190951694909404938401819004810282018101909252828152606093909290918301828280156105115780601f106104e657610100808354040283529160200191610511565b6107d86109ed565b60055461010090046001600160a01b0390811691161461082d576040805162461bcd60e51b81526020600482018190526024820152600080516020611063833981519152604482015290519081900360640190fd5b61068f8282610e38565b600061052f6108446109ed565b846105bc856040518060600160405280602581526020016110ed602591396001600061086e6109ed565b6001600160a01b03908116825260208083019390935260409182016000908120918d1681529252902054919063ffffffff610c4416565b600061052f6108b26109ed565b8484610add565b6001600160a01b03918216600090815260016020908152604080832093909416825291909152205490565b6108ec6109ed565b60055461010090046001600160a01b03908116911614610941576040805162461bcd60e51b81526020600482018190526024820152600080516020611063833981519152604482015290519081900360640190fd5b6001600160a01b0381166109865760405162461bcd60e51b8152600401808060200182810382526026815260200180610fcd6026913960400191505060405180910390fd5b6005546040516001600160a01b0380841692610100900416907f8be0079c531659141344cd1fd0a4f28419497f9722a3daafe3b4186f6b6457e090600090a3600580546001600160a01b0390921661010002610100600160a81b0319909216919091179055565b3390565b6001600160a01b038316610a365760405162461bcd60e51b81526004018080602001828103825260248152602001806110c96024913960400191505060405180910390fd5b6001600160a01b038216610a7b5760405162461bcd60e51b8152600401808060200182810382526022815260200180610ff36022913960400191505060405180910390fd5b6001600160a01b03808416600081815260016020908152604080832094871680845294825291829020859055815185815291517f8c5be1e5ebec7d5bd14f71427d1e84f3dd0314c0f7b2291e5b200ac8c7c3b9259281900390910190a3505050565b6001600160a01b038316610b225760405162461bcd60e51b81526004018080602001828103825260258152602001806110a46025913960400191505060405180910390fd5b6001600160a01b038216610b675760405162461bcd60e51b8152600401808060200182810382526023815260200180610f886023913960400191505060405180910390fd5b610b72838383610f40565b610bb581604051806060016040528060268152602001611015602691396001600160a01b038616600090815260208190526040902054919063ffffffff610c4416565b6001600160a01b038085166000908152602081905260408082209390935590841681522054610bea908263ffffffff610cdb16565b6001600160a01b038084166000818152602081815260409182902094909455805185815290519193928716927fddf252ad1be2c89b69c2b068fc378daa952ba7f163c4a11628f55a4df523b3ef92918290030190a3505050565b60008184841115610cd35760405162461bcd60e51b81526004018080602001828103825283818151815260200191508051906020019080838360005b83811015610c98578181015183820152602001610c80565b50505050905090810190601f168015610cc55780820380516001836020036101000a031916815260200191505b509250505060405180910390fd5b505050900390565b600082820183811015610d35576040805162461bcd60e51b815260206004820152601b60248201527f536166654d6174683a206164646974696f6e206f766572666c6f770000000000604482015290519081900360640190fd5b9392505050565b6001600160a01b038216610d97576040805162461bcd60e51b815260206004820152601f60248201527f45524332303a206d696e7420746f20746865207a65726f206164647265737300604482015290519081900360640190fd5b610da360008383610f40565b600254610db6908263ffffffff610cdb16565b6002556001600160a01b038216600090815260208190526040902054610de2908263ffffffff610cdb16565b6001600160a01b0383166000818152602081815260408083209490945583518581529351929391927fddf252ad1be2c89b69c2b068fc378daa952ba7f163c4a11628f55a4df523b3ef9281900390910190a35050565b6001600160a01b038216610e7d5760405162461bcd60e51b81526004018080602001828103825260218152602001806110836021913960400191505060405180910390fd5b610e8982600083610f40565b610ecc81604051806060016040528060228152602001610fab602291396001600160a01b038516600090815260208190526040902054919063ffffffff610c4416565b6001600160a01b038316600090815260208190526040902055600254610ef8908263ffffffff610f4516565b6002556040805182815290516000916001600160a01b038516917fddf252ad1be2c89b69c2b068fc378daa952ba7f163c4a11628f55a4df523b3ef9181900360200190a35050565b505050565b6000610d3583836040518060400160405280601e81526020017f536166654d6174683a207375627472616374696f6e206f766572666c6f770000815250610c4456fe45524332303a207472616e7366657220746f20746865207a65726f206164647265737345524332303a206275726e20616d6f756e7420657863656564732062616c616e63654f776e61626c653a206e6577206f776e657220697320746865207a65726f206164647265737345524332303a20617070726f766520746f20746865207a65726f206164647265737345524332303a207472616e7366657220616d6f756e7420657863656564732062616c616e636545524332303a207472616e7366657220616d6f756e74206578636565647320616c6c6f77616e63654f776e61626c653a2063616c6c6572206973206e6f7420746865206f776e657245524332303a206275726e2066726f6d20746865207a65726f206164647265737345524332303a207472616e736665722066726f6d20746865207a65726f206164647265737345524332303a20617070726f76652066726f6d20746865207a65726f206164647265737345524332303a2064656372656173656420616c6c6f77616e63652062656c6f77207a65726fa2646970667358221220c6e614da6886746c111453fca80fceaa85c2db0e8de8a73c0f689d20c65728b464736f6c634300060700338be0079c531659141344cd1fd0a4f28419497f9722a3daafe3b4186f6b6457e0",
  "immutableReferences": {},
  "source": "//SPDX-License-Identifier: UNLICENSED\npragma solidity ^0.6.0;\npragma experimental ABIEncoderV2;\n\nimport '@nomiclabs/buidler/console.sol';\nimport '@openzeppelin/contracts/math/SafeMath.sol';\nimport '@openzeppelin/contracts/utils/ReentrancyGuard.sol';\nimport '@openzeppelin/contracts/utils/Pausable.sol';\nimport '@openzeppelin/contracts/access/Ownable.sol';\nimport './interfaces/IAave.sol';\nimport './interfaces/IDai.sol';\nimport './interfaces/IRealitio.sol';\nimport './interfaces/IUniswapV2Router01.sol';\nimport './Token.sol';\n\n/// @title The MagicBet market instance\n/// @notice This contract is the framework of each new market\ncontract MBMarket is Ownable, Pausable, ReentrancyGuard {\n    using SafeMath for uint256;\n\n    ////////////////////////////////////\n    //////// VARIABLES /////////////////\n    ////////////////////////////////////\n\n    //////// Externals ////////\n    Dai public dai;\n    IaToken public aToken;\n    IAaveLendingPool public aaveLendingPool;\n    IRealitio public realitio;\n    IUniswapV2Router01 public uniswapRouter;\n\n    //////// Market Details ////////\n    uint256 public maxInterest; //for the front end\n    uint256 public marketOpeningTime; // when the market can opened for bets\n    uint256 public marketOpeningTimeActual; //when the market is actually opened\n    uint256 public marketLockingTime; // when the market is no longer open for bets\n    uint32 public marketResolutionTime; // the time the realitio market is able to be answered, uint32 cos Realitio needs it\n    bytes32 public questionId; // the question ID of the question on realitio\n    string public eventName;\n    string[] public outcomeNames;\n    Token[] public tokenAddresses;\n    uint256 public numberOfOutcomes;\n    enum States {SETUP, WAITING, OPEN, LOCKED, WITHDRAW}\n    States public state;\n\n    /// Betting variables\n    mapping(uint256 => uint256[]) private betAmountsArray;\n    mapping(uint256 => uint256[]) private timestampsArray;\n    mapping(uint256 => uint256) public totalBetsPerOutcome;\n    mapping(address => uint256) public totalBetsPerUser;\n    mapping(uint256 => uint256) public betsWithdrawnPerOutcome;\n    mapping(uint256 => uint256) public usersPerOutcome;\n    uint256 public totalBets;\n    uint256 public betsWithdrawn;\n    address[] public participants;\n\n    //////// Market resolution variables ////////\n    mapping(address => bool) public withdrawnBool; //so participants can only withdraw once\n    uint256 public winningOutcome = 69; // start with incorrect winning outcome\n    bool public questionResolvedInvalid = true; // default to true\n\n    ////////////////////////////////////\n    //////// CONSTRUCTOR ///////////////\n    ////////////////////////////////////\n    constructor(\n        Dai _daiAddress,\n        address[3] memory _aaveAddresses,\n        IRealitio _realitioAddress,\n        IUniswapV2Router01 _uniswapRouter,\n        string memory _eventName,\n        uint256[4] memory _marketTimes,\n        address _arbitrator,\n        string memory _realitioQuestion,\n        string[] memory _outcomeNamesArray,\n        address _owner\n    ) public {\n        if (_owner != msg.sender) {\n            transferOwnership(_owner);\n        }\n        // Externals\n        dai = _daiAddress;\n        aToken = IaToken(_aaveAddresses[0]);\n        aaveLendingPool = IAaveLendingPool(_aaveAddresses[1]);\n        realitio = _realitioAddress;\n        uniswapRouter = _uniswapRouter;\n\n        // Approvals\n        dai.approve(_aaveAddresses[2], 2**255);\n\n        // Pass arguments to public variables\n\n        eventName = _eventName;\n        marketOpeningTime = _marketTimes[0];\n        marketLockingTime = _marketTimes[1];\n        marketResolutionTime = uint32(_marketTimes[2]);\n        numberOfOutcomes = _outcomeNamesArray.length;\n\n        //create the tokens\n        for (uint256 i = 0; i < numberOfOutcomes; i++) {\n            _createTokenContract(_outcomeNamesArray[i]);\n        }\n\n        // Create the question on Realitio\n        uint256 _templateId = 2;\n        uint256 _nonce = now; // <- should probably change this to zero for mainnet\n        questionId = _postQuestion(\n            _templateId,\n            _realitioQuestion,\n            _arbitrator,\n            uint32(_marketTimes[3]),\n            marketResolutionTime,\n            _nonce\n        );\n    }\n\n    ////////////////////////////////////\n    //////// EVENTS ////////////////////\n    ////////////////////////////////////\n    event ParticipantEntered(address indexed participant);\n    event ParticipantWithdrawn(address indexed participant);\n    event StateChanged(States state);\n    event WinnerSelected(address indexed winner);\n\n    ////////////////////////////////////\n    //////// INITIAL SETUP /////////////\n    ////////////////////////////////////\n    // you cannot pass an array of strings as an argument\n    // string manipulation is also difficult, so it is not easy to parse the relevant\n    // ... info from the _realitioQuestion string. So, manually set this info\n    // probably redundant, the front end can store this, just adding in case\n\n    function setEventName(string calldata _eventName) external onlyOwner {\n        eventName = _eventName;\n    }\n\n    function _createTokenContract(string memory _outcomeName) internal checkState(States.SETUP) {\n        outcomeNames.push(_outcomeName);\n        Token tokenContract = new Token({_tokenName: _outcomeName});\n        tokenAddresses.push(tokenContract);\n\n        if (tokenAddresses.length == numberOfOutcomes) {\n            state = States(uint256(state) + 1);\n        }\n    }\n\n    ////////////////////////////////////\n    //////// MODIFIERS /////////////////\n    ////////////////////////////////////\n    modifier checkState(States currentState) {\n        if (state != currentState) {\n            incrementState();\n        }\n\n        require(state == currentState, 'function cannot be called at this time');\n        _;\n    }\n\n    ////////////////////////////////////\n    ////////// VIEW FUNCTIONS //////////\n    ////////////////////////////////////\n    function getBetAmountsArray(uint256 _outcome) external view returns (uint256[] memory) {\n        return betAmountsArray[_outcome];\n    }\n\n    function getTimestampsArray(uint256 _outcome) external view returns (uint256[] memory) {\n        return timestampsArray[_outcome];\n    }\n\n    function getMarketSize() public view returns (uint256) {\n        return participants.length;\n    }\n\n    function getParticipantsBet(uint256 _outcome) public view returns (uint256) {\n        Token _token = Token(tokenAddresses[_outcome]);\n        return _token.balanceOf(msg.sender);\n    }\n\n    function getMaxTotalInterest() public view returns (uint256) {\n        if (state == States.WITHDRAW) {\n            return maxInterest;\n        } else {\n            return getTotalInterest();\n        }\n    }\n\n    function getTotalInterest() public view returns (uint256) {\n        uint256 _remainingBet = totalBets.sub(betsWithdrawn);\n        uint256 _totalAdaibalances = aToken.balanceOf(address(this));\n        uint256 _totalInterest = _totalAdaibalances.sub(_remainingBet);\n        return _totalInterest;\n    }\n\n    function getWinningsGivenOutcome(uint256 _outcome) external view returns (uint256) {\n        return _getWinningsGivenOutcome(_outcome);\n    }\n\n    function _getWinningsGivenOutcome(uint256 _outcome) internal view returns (uint256) {\n        Token _token = Token(tokenAddresses[_outcome]);\n        uint256 _userBetOnOutcome = _token.balanceOf(msg.sender);\n        uint256 _totalRemainingBetsOnOutcome = totalBetsPerOutcome[_outcome].sub(betsWithdrawnPerOutcome[_outcome]);\n        return _calculateWinnings(_totalRemainingBetsOnOutcome, _userBetOnOutcome);\n    }\n\n    /// @dev If invalid outcome, simply pay out interest in proportion to bets across all tokenAddresses\n    /// @dev i.e. as if all the outcomes 'won'\n    function getWinningsInvalid() public view returns (uint256) {\n        return _calculateWinnings(totalBets.sub(betsWithdrawn), totalBetsPerUser[msg.sender]);\n    }\n\n    function getEstimatedETHforDAI(uint256 ethAmount) public view returns (uint256[] memory) {\n        address[] memory path = _getDAIforETHpath();\n\n        return uniswapRouter.getAmountsIn(ethAmount, path);\n    }\n\n    function getEstimatedDAIforETH(uint256 daiAmount) public view returns (uint256[] memory) {\n        address[] memory path = _getDAIforETHpath();\n\n        return uniswapRouter.getAmountsOut(daiAmount, path);\n    }\n\n    /// @notice returns winning user's share of interest\n    /// @param _totalBetAmount total bet among all outcomes\n    /// @param _userBetOutcomeAmount total bet on winning outcome\n    /// @return users's share of the interest\n    function _calculateWinnings(uint256 _totalBetAmount, uint256 _userBetOutcomeAmount)\n        internal\n        view\n        returns (uint256)\n    {\n        uint256 winnings;\n        if (_totalBetAmount > 0) {\n            uint256 _totalInterest = getTotalInterest();\n            winnings = (_totalInterest.mul(_userBetOutcomeAmount)).div(_totalBetAmount);\n        }\n        return winnings;\n    }\n\n    // need the interest rate for this\n    // function getEstimatedReturn(uint _outcome) returns (uint) {\n    //     uint _timeLocked = marketResolutionTime.\n    // }\n\n    ////////////////////////////////////\n    //////// REALIITO FUNCTIONS ////////\n    ////////////////////////////////////\n\n    /// @notice posts the market question onto realit.io\n    /// @param template_id always 2\n    /// @param question string passed to realitio\n    /// @param arbitrator = kleros\n    /// @param timeout how long answer can be challenged until finalised\n    /// @param opening_ts when the question can first be answered\n    /// @param nonce nonce\n    /// @return the ID of the question on realitio\n    function _postQuestion(\n        uint256 template_id,\n        string memory question,\n        address arbitrator,\n        uint32 timeout,\n        uint32 opening_ts,\n        uint256 nonce\n    ) internal returns (bytes32) {\n        return realitio.askQuestion(template_id, question, arbitrator, timeout, opening_ts, nonce);\n    }\n\n    /// @notice determines the winning outcome from realitio\n    /// @dev this function call will revert if it has not yet resolved\n    /// @return the winning outcome of the event\n    function _determineWinner() internal view returns (uint256) {\n        bytes32 _winningOutcome = realitio.resultFor(questionId);\n        return uint256(_winningOutcome);\n    }\n\n    /// @notice Function called by determineWinner to see if question has been finalized\n    /// @return whether or not the question has been finalized on realitio\n    function _isQuestionFinalized() internal view returns (bool) {\n        return realitio.isFinalized(questionId);\n    }\n\n    ////////////////////////////////////\n    /////// EXTERNAL DAI CALLS /////////\n    ////////////////////////////////////\n\n    /// @notice common function for all outgoing DAI transfers\n    /// @param _to address to send to\n    /// @param _amount amount to send\n    function _sendCash(address _to, uint256 _amount) internal {\n        require(dai.transfer(_to, _amount), 'Cash transfer failed');\n    }\n\n    /// @notice common function for all incoming DAI transfers\n    /// @param _from address that is receiving cash\n    /// @param _amount amount to recieve\n    function _receiveCash(address _from, uint256 _amount) internal {\n        if (msg.value > 0) {\n            _swapETHForExactTokenWithUniswap(_amount);\n            return;\n        }\n\n        require(dai.transferFrom(_from, address(this), _amount), 'Cash transfer failed');\n    }\n\n    ////////////////////////////////////\n    /////// EXTERNAL AAVE CALLS ////////\n    ////////////////////////////////////\n\n    /// @notice swap Dai for aDai\n    function _sendToAave(uint256 _dai) internal {\n        aaveLendingPool.deposit(address(dai), _dai, 0);\n    }\n\n    /// @notice swap aDai for Dai\n    function _redeemFromAave(uint256 _dai) internal {\n        aToken.redeem(_dai);\n    }\n\n    ////////////////////////////////////\n    //////// EXTERNAL FUNCTIONS ////////\n    ////////////////////////////////////\n\n    function placeBet(uint256 _outcome, uint256 _dai) external payable checkState(States.OPEN) whenNotPaused {\n        _placeBet(_outcome, _dai);\n        _receiveCash(msg.sender, _dai);\n        _sendToAave(_dai);\n    }\n\n    function determineWinner() external whenNotPaused {\n        require(_isQuestionFinalized(), 'Oracle has not finalised');\n        winningOutcome = _determineWinner();\n        if (winningOutcome != ((2**256) - 1) && totalBetsPerOutcome[winningOutcome] > 0) {\n            questionResolvedInvalid = false;\n        }\n        incrementState();\n    }\n\n    /// @dev keep this public as it's called by determineWinner\n    /// @dev not onlyOwner, can be called by anyone, this is fine\n    function incrementState() public whenNotPaused {\n        if (\n            ((state == States.WAITING) && (marketOpeningTime < now)) ||\n            ((state == States.OPEN) && (marketLockingTime < now)) ||\n            ((state == States.LOCKED) && (winningOutcome != 69))\n        ) {\n            if (state == States.WAITING) {\n                marketOpeningTimeActual = now;\n            }\n            if (state == States.LOCKED) {\n                maxInterest = getTotalInterest();\n            }\n            state = States(uint256(state) + 1);\n            emit StateChanged(state);\n        }\n    }\n\n    /// @dev change state to WITHDRAW to lock contract and return all funds\n    /// @dev in case Oracle never resolves\n    function circuitBreaker() external {\n        require(now > (marketResolutionTime + 4 weeks), 'Too early');\n        questionResolvedInvalid = true;\n        state = States.WITHDRAW;\n    }\n\n    function withdraw() external checkState(States.WITHDRAW) whenNotPaused nonReentrant {\n        require(!withdrawnBool[msg.sender], 'Already withdrawn');\n        withdrawnBool[msg.sender] = true;\n        if (!questionResolvedInvalid) {\n            _payoutWinnings();\n        } else {\n            _payoutWinningsInvalid();\n        }\n        _burnUsersTokens();\n    }\n\n    ////////////////////////////////////\n    //////// INTERNAL FUNCTIONS ////////\n    ////////////////////////////////////\n    function _payoutWinnings() internal {\n        uint256 _winnings = _getWinningsGivenOutcome(winningOutcome);\n        uint256 _daiToSend = _winnings.add(totalBetsPerUser[msg.sender]);\n        // externals\n        if (_daiToSend > 0) {\n            _redeemFromAave(_daiToSend);\n            _sendCash(msg.sender, _daiToSend);\n        }\n    }\n\n    function _payoutWinningsInvalid() internal {\n        uint256 _winningsInvalid = getWinningsInvalid();\n        uint256 _daiToSend = _winningsInvalid.add(totalBetsPerUser[msg.sender]);\n        // externals\n        if (_daiToSend > 0) {\n            _redeemFromAave(_daiToSend);\n            _sendCash(msg.sender, _daiToSend);\n        }\n    }\n\n    function _placeBet(uint256 _outcome, uint256 _dai) internal {\n        betAmountsArray[_outcome].push(_dai);\n        timestampsArray[_outcome].push(now);\n        Token _token = Token(tokenAddresses[_outcome]);\n        if (_token.balanceOf(msg.sender) == 0) {\n            participants.push(msg.sender);\n            usersPerOutcome[_outcome] = usersPerOutcome[_outcome].add(1);\n        }\n        emit ParticipantEntered(msg.sender);\n        _token.mint(msg.sender, _dai);\n        totalBets = totalBets.add(_dai);\n        totalBetsPerOutcome[_outcome] = totalBetsPerOutcome[_outcome].add(_dai);\n        totalBetsPerUser[msg.sender] = totalBetsPerUser[msg.sender].add(_dai);\n    }\n\n    function _burnUsersTokens() internal {\n        uint256 _userBetsAllOutcomes;\n        for (uint256 i = 0; i < numberOfOutcomes; i++) {\n            Token _token = Token(tokenAddresses[i]);\n            uint256 _userBetThisOutcome = _token.balanceOf(msg.sender);\n            if (_userBetThisOutcome > 0) {\n                _userBetsAllOutcomes = _userBetsAllOutcomes.add(_userBetThisOutcome);\n                betsWithdrawnPerOutcome[i] = betsWithdrawnPerOutcome[i].add(_userBetThisOutcome);\n                _token.burn(msg.sender, _userBetThisOutcome);\n            }\n        }\n        assert(_userBetsAllOutcomes == totalBetsPerUser[msg.sender]);\n        betsWithdrawn = betsWithdrawn.add(_userBetsAllOutcomes);\n    }\n\n    function _swapETHForExactTokenWithUniswap(uint256 daiAmount) private {\n        address[] memory path = _getDAIforETHpath();\n\n        uniswapRouter.swapETHForExactTokens.value(msg.value)(daiAmount, path, address(this), now + 15);\n        msg.sender.call.value(address(this).balance)(''); // refund leftover ETH\n    }\n\n    function _getDAIforETHpath() private view returns (address[] memory) {\n        address[] memory path = new address[](2);\n        path[0] = uniswapRouter.WETH();\n        path[1] = address(dai);\n\n        return path;\n    }\n\n    ////////////////////////////////////\n    ///// BOILERPLATE FUNCTIONS ////////\n    ////////////////////////////////////\n    function disableContract() public onlyOwner whenNotPaused returns (bool) {\n        _pause();\n    }\n\n    function enableContract() public onlyOwner whenPaused returns (bool) {\n        _unpause();\n    }\n\n    receive() external payable {}\n\n    fallback() external payable {}\n}\n",
  "sourcePath": "/Users/brenfife/Desktop/MagicBet-Contracts/contracts/MBMarket.sol",
  "compiler": {
    "name": "solc",
    "version": "0.6.7+commit.b8d736ae.Emscripten.clang"
  },
  "schemaVersion": "3.2.0",
  "updatedAt": "2020-06-19T18:22:41.038Z",
  "devdoc": {
    "methods": {
      "circuitBreaker()": {
        "details": "change state to WITHDRAW to lock contract and return all fundsin case Oracle never resolves"
      },
      "getWinningsInvalid()": {
        "details": "If invalid outcome, simply pay out interest in proportion to bets across all tokenAddressesi.e. as if all the outcomes 'won'"
      },
      "incrementState()": {
        "details": "keep this public as it's called by determineWinnernot onlyOwner, can be called by anyone, this is fine"
      },
      "owner()": {
        "details": "Returns the address of the current owner."
      },
      "paused()": {
        "details": "Returns true if the contract is paused, and false otherwise."
      },
      "renounceOwnership()": {
        "details": "Leaves the contract without owner. It will not be possible to call `onlyOwner` functions anymore. Can only be called by the current owner.     * NOTE: Renouncing ownership will leave the contract without an owner, thereby removing any functionality that is only available to the owner."
      },
      "transferOwnership(address)": {
        "details": "Transfers ownership of the contract to a new account (`newOwner`). Can only be called by the current owner."
      }
    },
    "title": "The MagicBet market instance"
  },
  "userdoc": {
    "methods": {
      "constructor": "///////////////////////////////// ///// CONSTRUCTOR /////////////// /////////////////////////////////",
      "disableContract()": {
        "notice": "///////////////////////////////// // BOILERPLATE FUNCTIONS //////// /////////////////////////////////"
      },
      "getBetAmountsArray(uint256)": {
        "notice": "///////////////////////////////// /////// VIEW FUNCTIONS ////////// /////////////////////////////////"
      },
      "placeBet(uint256,uint256)": {
        "notice": "///////////////////////////////// ///// EXTERNAL FUNCTIONS //////// /////////////////////////////////"
      },
      "setEventName(string)": {
        "notice": "///////////////////////////////// ///// INITIAL SETUP ///////////// /////////////////////////////////"
      }
    },
    "notice": "This contract is the framework of each new market"
  }
}