{
  "contractName": "MBMarket",
  "abi": [
    {
      "anonymous": false,
      "inputs": [
        {
          "indexed": true,
          "internalType": "address",
          "name": "previousOwner",
          "type": "address"
        },
        {
          "indexed": true,
          "internalType": "address",
          "name": "newOwner",
          "type": "address"
        }
      ],
      "name": "OwnershipTransferred",
      "type": "event"
    },
    {
      "anonymous": false,
      "inputs": [
        {
          "indexed": true,
          "internalType": "address",
          "name": "participant",
          "type": "address"
        }
      ],
      "name": "ParticipantEntered",
      "type": "event"
    },
    {
      "anonymous": false,
      "inputs": [
        {
          "indexed": true,
          "internalType": "address",
          "name": "participant",
          "type": "address"
        }
      ],
      "name": "ParticipantWithdrawn",
      "type": "event"
    },
    {
      "anonymous": false,
      "inputs": [
        {
          "indexed": false,
          "internalType": "address",
          "name": "account",
          "type": "address"
        }
      ],
      "name": "Paused",
      "type": "event"
    },
    {
      "anonymous": false,
      "inputs": [
        {
          "indexed": false,
          "internalType": "enum MBMarket.States",
          "name": "state",
          "type": "uint8"
        }
      ],
      "name": "StateChanged",
      "type": "event"
    },
    {
      "anonymous": false,
      "inputs": [
        {
          "indexed": false,
          "internalType": "address",
          "name": "account",
          "type": "address"
        }
      ],
      "name": "Unpaused",
      "type": "event"
    },
    {
      "anonymous": false,
      "inputs": [
        {
          "indexed": true,
          "internalType": "address",
          "name": "winner",
          "type": "address"
        }
      ],
      "name": "WinnerSelected",
      "type": "event"
    },
    {
      "stateMutability": "payable",
      "type": "fallback"
    },
    {
      "inputs": [],
      "name": "ORACLE_TIMEOUT_TIME",
      "outputs": [
        {
          "internalType": "uint256",
          "name": "",
          "type": "uint256"
        }
      ],
      "stateMutability": "view",
      "type": "function"
    },
    {
      "inputs": [],
      "name": "UNRESOLVED_OUTCOME_RESULT",
      "outputs": [
        {
          "internalType": "uint256",
          "name": "",
          "type": "uint256"
        }
      ],
      "stateMutability": "view",
      "type": "function"
    },
    {
      "inputs": [],
      "name": "aToken",
      "outputs": [
        {
          "internalType": "contract IaToken",
          "name": "",
          "type": "address"
        }
      ],
      "stateMutability": "view",
      "type": "function"
    },
    {
      "inputs": [],
      "name": "aaveLendingPool",
      "outputs": [
        {
          "internalType": "contract IAaveLendingPool",
          "name": "",
          "type": "address"
        }
      ],
      "stateMutability": "view",
      "type": "function"
    },
    {
      "inputs": [],
      "name": "betsWithdrawn",
      "outputs": [
        {
          "internalType": "uint256",
          "name": "",
          "type": "uint256"
        }
      ],
      "stateMutability": "view",
      "type": "function"
    },
    {
      "inputs": [
        {
          "internalType": "uint256",
          "name": "",
          "type": "uint256"
        }
      ],
      "name": "betsWithdrawnPerOutcome",
      "outputs": [
        {
          "internalType": "uint256",
          "name": "",
          "type": "uint256"
        }
      ],
      "stateMutability": "view",
      "type": "function"
    },
    {
      "inputs": [],
      "name": "dai",
      "outputs": [
        {
          "internalType": "contract Dai",
          "name": "",
          "type": "address"
        }
      ],
      "stateMutability": "view",
      "type": "function"
    },
    {
      "inputs": [],
      "name": "eventName",
      "outputs": [
        {
          "internalType": "string",
          "name": "",
          "type": "string"
        }
      ],
      "stateMutability": "view",
      "type": "function"
    },
    {
      "inputs": [],
      "name": "marketLockingTime",
      "outputs": [
        {
          "internalType": "uint256",
          "name": "",
          "type": "uint256"
        }
      ],
      "stateMutability": "view",
      "type": "function"
    },
    {
      "inputs": [],
      "name": "marketOpeningTime",
      "outputs": [
        {
          "internalType": "uint256",
          "name": "",
          "type": "uint256"
        }
      ],
      "stateMutability": "view",
      "type": "function"
    },
    {
      "inputs": [],
      "name": "marketResolutionTime",
      "outputs": [
        {
          "internalType": "uint256",
          "name": "",
          "type": "uint256"
        }
      ],
      "stateMutability": "view",
      "type": "function"
    },
    {
      "inputs": [],
      "name": "maxInterest",
      "outputs": [
        {
          "internalType": "uint256",
          "name": "",
          "type": "uint256"
        }
      ],
      "stateMutability": "view",
      "type": "function"
    },
    {
      "inputs": [],
      "name": "numberOfOutcomes",
      "outputs": [
        {
          "internalType": "uint256",
          "name": "",
          "type": "uint256"
        }
      ],
      "stateMutability": "view",
      "type": "function"
    },
    {
      "inputs": [
        {
          "internalType": "uint256",
          "name": "",
          "type": "uint256"
        }
      ],
      "name": "outcomeNames",
      "outputs": [
        {
          "internalType": "string",
          "name": "",
          "type": "string"
        }
      ],
      "stateMutability": "view",
      "type": "function"
    },
    {
      "inputs": [],
      "name": "owner",
      "outputs": [
        {
          "internalType": "address",
          "name": "",
          "type": "address"
        }
      ],
      "stateMutability": "view",
      "type": "function"
    },
    {
      "inputs": [
        {
          "internalType": "uint256",
          "name": "",
          "type": "uint256"
        }
      ],
      "name": "participants",
      "outputs": [
        {
          "internalType": "address",
          "name": "",
          "type": "address"
        }
      ],
      "stateMutability": "view",
      "type": "function"
    },
    {
      "inputs": [],
      "name": "paused",
      "outputs": [
        {
          "internalType": "bool",
          "name": "",
          "type": "bool"
        }
      ],
      "stateMutability": "view",
      "type": "function"
    },
    {
      "inputs": [],
      "name": "questionId",
      "outputs": [
        {
          "internalType": "bytes32",
          "name": "",
          "type": "bytes32"
        }
      ],
      "stateMutability": "view",
      "type": "function"
    },
    {
      "inputs": [],
      "name": "realitio",
      "outputs": [
        {
          "internalType": "contract IRealitio",
          "name": "",
          "type": "address"
        }
      ],
      "stateMutability": "view",
      "type": "function"
    },
    {
      "inputs": [],
      "name": "renounceOwnership",
      "outputs": [],
      "stateMutability": "nonpayable",
      "type": "function"
    },
    {
      "inputs": [
        {
          "internalType": "uint256",
          "name": "",
          "type": "uint256"
        }
      ],
      "name": "tokenAddresses",
      "outputs": [
        {
          "internalType": "contract Token",
          "name": "",
          "type": "address"
        }
      ],
      "stateMutability": "view",
      "type": "function"
    },
    {
      "inputs": [],
      "name": "totalBets",
      "outputs": [
        {
          "internalType": "uint256",
          "name": "",
          "type": "uint256"
        }
      ],
      "stateMutability": "view",
      "type": "function"
    },
    {
      "inputs": [
        {
          "internalType": "uint256",
          "name": "",
          "type": "uint256"
        }
      ],
      "name": "totalBetsPerOutcome",
      "outputs": [
        {
          "internalType": "uint256",
          "name": "",
          "type": "uint256"
        }
      ],
      "stateMutability": "view",
      "type": "function"
    },
    {
      "inputs": [
        {
          "internalType": "address",
          "name": "newOwner",
          "type": "address"
        }
      ],
      "name": "transferOwnership",
      "outputs": [],
      "stateMutability": "nonpayable",
      "type": "function"
    },
    {
      "inputs": [],
      "name": "uniswapRouter",
      "outputs": [
        {
          "internalType": "contract IUniswapV2Router02",
          "name": "",
          "type": "address"
        }
      ],
      "stateMutability": "view",
      "type": "function"
    },
    {
      "inputs": [
        {
          "internalType": "uint256",
          "name": "",
          "type": "uint256"
        }
      ],
      "name": "usersPerOutcome",
      "outputs": [
        {
          "internalType": "uint256",
          "name": "",
          "type": "uint256"
        }
      ],
      "stateMutability": "view",
      "type": "function"
    },
    {
      "inputs": [],
      "name": "winningOutcome",
      "outputs": [
        {
          "internalType": "uint256",
          "name": "",
          "type": "uint256"
        }
      ],
      "stateMutability": "view",
      "type": "function"
    },
    {
      "stateMutability": "payable",
      "type": "receive"
    },
    {
      "inputs": [
        {
          "internalType": "contract Dai",
          "name": "_daiAddress",
          "type": "address"
        },
        {
          "internalType": "address[3]",
          "name": "_aaveAddresses",
          "type": "address[3]"
        },
        {
          "internalType": "contract IRealitio",
          "name": "_realitioAddress",
          "type": "address"
        },
        {
          "internalType": "contract IUniswapV2Router02",
          "name": "_uniswapRouter",
          "type": "address"
        },
        {
          "internalType": "string",
          "name": "_eventName",
          "type": "string"
        },
        {
          "internalType": "uint256[4]",
          "name": "_marketTimes",
          "type": "uint256[4]"
        },
        {
          "internalType": "address",
          "name": "_arbitrator",
          "type": "address"
        },
        {
          "internalType": "string",
          "name": "_realitioQuestion",
          "type": "string"
        },
        {
          "internalType": "string[]",
          "name": "_outcomeNamesArray",
          "type": "string[]"
        }
      ],
      "name": "initialize",
      "outputs": [],
      "stateMutability": "nonpayable",
      "type": "function"
    },
    {
      "inputs": [],
      "name": "getCurrentState",
      "outputs": [
        {
          "internalType": "enum MBMarket.States",
          "name": "",
          "type": "uint8"
        }
      ],
      "stateMutability": "view",
      "type": "function"
    },
    {
      "inputs": [],
      "name": "getOutcomeNames",
      "outputs": [
        {
          "internalType": "string[]",
          "name": "",
          "type": "string[]"
        }
      ],
      "stateMutability": "view",
      "type": "function"
    },
    {
      "inputs": [],
      "name": "getTokenAddresses",
      "outputs": [
        {
          "internalType": "contract Token[]",
          "name": "",
          "type": "address[]"
        }
      ],
      "stateMutability": "view",
      "type": "function"
    },
    {
      "inputs": [],
      "name": "getParticipants",
      "outputs": [
        {
          "internalType": "address[]",
          "name": "",
          "type": "address[]"
        }
      ],
      "stateMutability": "view",
      "type": "function"
    },
    {
      "inputs": [
        {
          "internalType": "uint256",
          "name": "_outcome",
          "type": "uint256"
        }
      ],
      "name": "getBetAmountsArray",
      "outputs": [
        {
          "internalType": "uint256[]",
          "name": "",
          "type": "uint256[]"
        }
      ],
      "stateMutability": "view",
      "type": "function"
    },
    {
      "inputs": [
        {
          "internalType": "uint256",
          "name": "_outcome",
          "type": "uint256"
        }
      ],
      "name": "getTimestampsArray",
      "outputs": [
        {
          "internalType": "uint256[]",
          "name": "",
          "type": "uint256[]"
        }
      ],
      "stateMutability": "view",
      "type": "function"
    },
    {
      "inputs": [],
      "name": "getMarketSize",
      "outputs": [
        {
          "internalType": "uint256",
          "name": "",
          "type": "uint256"
        }
      ],
      "stateMutability": "view",
      "type": "function"
    },
    {
      "inputs": [
        {
          "internalType": "uint256",
          "name": "_outcome",
          "type": "uint256"
        }
      ],
      "name": "getParticipantsBet",
      "outputs": [
        {
          "internalType": "uint256",
          "name": "",
          "type": "uint256"
        }
      ],
      "stateMutability": "view",
      "type": "function"
    },
    {
      "inputs": [],
      "name": "getMaxTotalInterest",
      "outputs": [
        {
          "internalType": "uint256",
          "name": "",
          "type": "uint256"
        }
      ],
      "stateMutability": "view",
      "type": "function"
    },
    {
      "inputs": [],
      "name": "getTotalInterest",
      "outputs": [
        {
          "internalType": "uint256",
          "name": "",
          "type": "uint256"
        }
      ],
      "stateMutability": "view",
      "type": "function"
    },
    {
      "inputs": [
        {
          "internalType": "uint256",
          "name": "_outcome",
          "type": "uint256"
        }
      ],
      "name": "getWinningsGivenOutcome",
      "outputs": [
        {
          "internalType": "uint256",
          "name": "",
          "type": "uint256"
        }
      ],
      "stateMutability": "view",
      "type": "function"
    },
    {
      "inputs": [],
      "name": "getWinningsInvalid",
      "outputs": [
        {
          "internalType": "uint256",
          "name": "",
          "type": "uint256"
        }
      ],
      "stateMutability": "view",
      "type": "function"
    },
    {
      "inputs": [
        {
          "internalType": "uint256",
          "name": "ethAmount",
          "type": "uint256"
        }
      ],
      "name": "getEstimatedETHforDAI",
      "outputs": [
        {
          "internalType": "uint256[]",
          "name": "",
          "type": "uint256[]"
        }
      ],
      "stateMutability": "view",
      "type": "function"
    },
    {
      "inputs": [
        {
          "internalType": "uint256",
          "name": "daiAmount",
          "type": "uint256"
        }
      ],
      "name": "getEstimatedDAIforETH",
      "outputs": [
        {
          "internalType": "uint256[]",
          "name": "",
          "type": "uint256[]"
        }
      ],
      "stateMutability": "view",
      "type": "function"
    },
    {
      "inputs": [],
      "name": "getUserBetsAllOutcomes",
      "outputs": [
        {
          "internalType": "uint256",
          "name": "",
          "type": "uint256"
        }
      ],
      "stateMutability": "view",
      "type": "function"
    },
    {
      "inputs": [
        {
          "internalType": "uint256",
          "name": "_outcome",
          "type": "uint256"
        },
        {
          "internalType": "uint256",
          "name": "_dai",
          "type": "uint256"
        },
        {
          "internalType": "uint256",
          "name": "_uniswapDeadline",
          "type": "uint256"
        }
      ],
      "name": "placeBet",
      "outputs": [],
      "stateMutability": "payable",
      "type": "function"
    },
    {
      "inputs": [],
      "name": "determineWinner",
      "outputs": [],
      "stateMutability": "nonpayable",
      "type": "function"
    },
    {
      "inputs": [],
      "name": "withdraw",
      "outputs": [],
      "stateMutability": "nonpayable",
      "type": "function"
    },
    {
      "inputs": [],
      "name": "disableContract",
      "outputs": [
        {
          "internalType": "bool",
          "name": "",
          "type": "bool"
        }
      ],
      "stateMutability": "nonpayable",
      "type": "function"
    },
    {
      "inputs": [],
      "name": "enableContract",
      "outputs": [
        {
          "internalType": "bool",
          "name": "",
          "type": "bool"
        }
      ],
      "stateMutability": "nonpayable",
      "type": "function"
    }
  ],
  "bytecode": "0x60806040526002805460ff19169055600060075534801561001f57600080fd5b5060006100336001600160e01b0361009316565b600080546001600160a01b0319166001600160a01b0383169081178255604051929350917f8be0079c531659141344cd1fd0a4f28419497f9722a3daafe3b4186f6b6457e0908290a3506000805460ff60a01b1916905560018055610097565b3390565b6143d480620000a76000396000f3fe608060405260043610620002d75760003560e01c8063894ba833116200017b578063cb70495511620000d3578063e9d337b81162000085578063e9d337b814620007fa578063ee8c24b81462000812578063f1f9c33e1462000839578063f2fde38b1462000851578063f4b9fa751462000876578063fd27b51e146200088e57620002df565b8063cb7049551462000742578063e14dedfd1462000769578063e54f4fe31462000781578063e5df8b841462000799578063e71c969714620007be578063e8f033c914620007d557620002df565b8063ada8b83d116200012d578063ada8b83d146200068b578063b06a5c5214620006b0578063bc8802a214620006c8578063befa1e2f14620006e0578063c4d8dc5814620006f8578063c56f338c146200071d57620002df565b8063894ba83314620005fb5780638da5cb5b14620006135780639b34ae03146200062b5780639d7c7d391462000643578063a055ccc5146200065b578063a0c1f15e146200067357620002df565b80634b8755ca116200022f5780636b9ae9ca11620001e15780636b9ae9ca146200055e578063715018a61462000576578063735de9f7146200058e5780638043c9c014620005a6578063807535cc14620005be5780638263302814620005e357620002df565b80634b8755ca14620004965780634ecc79f714620004ae578063519709c414620004c6578063561a5aca14620004eb5780635aa68ac0146200051f5780635c975abb146200054657620002df565b806333b16d93116200028957806333b16d9314620003cc57806335c1d34914620003e4578063367edd321462000418578063378aa701146200043f5780633ccfd60b146200046657806349200d77146200047e57620002df565b806305801f0b14620002e15780630b60365c146200031e578063149b5d581462000336578063232ea3ad146200035b57806326f0f254146200037357806327acae74146200039857620002df565b36620002df57005b005b348015620002ee57600080fd5b506200030662000300366004620029c6565b620008a6565b60405162000315919062002c21565b60405180910390f35b3480156200032b57600080fd5b5062000306620008b8565b3480156200034357600080fd5b506200030662000355366004620029c6565b6200097f565b3480156200036857600080fd5b506200030662000a29565b3480156200038057600080fd5b50620002df62000392366004620028bf565b62000a2f565b348015620003a557600080fd5b50620003bd620003b7366004620029c6565b62000bf4565b60405162000315919062002c3f565b348015620003d957600080fd5b50620002df62000c9f565b348015620003f157600080fd5b506200040962000403366004620029c6565b62000d04565b60405162000315919062002a9e565b3480156200042557600080fd5b506200043062000d2c565b60405162000315919062002c16565b3480156200044c57600080fd5b506200045762000d9e565b60405162000315919062002c2a565b3480156200047357600080fd5b50620002df62000e16565b3480156200048b57600080fd5b506200030662000f00565b348015620004a357600080fd5b506200030662000f06565b348015620004bb57600080fd5b506200030662000f0c565b348015620004d357600080fd5b5062000306620004e5366004620029c6565b62000f12565b348015620004f857600080fd5b50620005106200050a366004620029c6565b62000f24565b60405162000315919062002bdc565b3480156200052c57600080fd5b506200053762000fbe565b60405162000315919062002b14565b3480156200055357600080fd5b506200043062001022565b3480156200056b57600080fd5b506200030662001032565b3480156200058357600080fd5b50620002df6200110a565b3480156200059b57600080fd5b50620004096200118e565b348015620005b357600080fd5b50620003bd6200119d565b348015620005cb57600080fd5b5062000510620005dd366004620029c6565b620011fb565b348015620005f057600080fd5b50620003066200125f565b3480156200060857600080fd5b506200043062001265565b3480156200062057600080fd5b5062000409620012d8565b3480156200063857600080fd5b5062000306620012e7565b3480156200065057600080fd5b5062000306620012ed565b3480156200066857600080fd5b506200030662001315565b3480156200068057600080fd5b506200040962001349565b3480156200069857600080fd5b5062000510620006aa366004620029c6565b62001358565b348015620006bd57600080fd5b50620003066200139a565b348015620006d557600080fd5b5062000409620013a0565b348015620006ed57600080fd5b5062000306620013af565b3480156200070557600080fd5b506200030662000717366004620029c6565b620013b5565b3480156200072a57600080fd5b50620003066200073c366004620029c6565b6200149e565b3480156200074f57600080fd5b506200075a620014b0565b60405162000315919062002b78565b3480156200077657600080fd5b50620003066200158e565b3480156200078e57600080fd5b506200030662001594565b348015620007a657600080fd5b5062000409620007b8366004620029c6565b6200159a565b620002df620007cf366004620029df565b620015a8565b348015620007e257600080fd5b5062000510620007f4366004620029c6565b62001638565b3480156200080757600080fd5b50620004096200169a565b3480156200081f57600080fd5b506200082a620016a9565b60405162000315919062002b29565b3480156200084657600080fd5b50620003066200170b565b3480156200085e57600080fd5b50620002df62000870366004620027aa565b62001712565b3480156200088357600080fd5b5062000409620017d0565b3480156200089b57600080fd5b5062000306620017e4565b60106020526000908152604090205481565b600080620008d4601654601554620017ea90919063ffffffff16565b6003546040516370a0823160e01b81529192506000916001600160a01b03909116906370a08231906200090c90309060040162002a9e565b60206040518083038186803b1580156200092557600080fd5b505afa1580156200093a573d6000803e3d6000fd5b505050506040513d601f19601f82011682018060405250810190620009609190620028a6565b9050600062000976828463ffffffff620017ea16565b93505050505b90565b600080600e83815481106200099057fe5b6000918252602090912001546040516370a0823160e01b81526001600160a01b03909116915081906370a0823190620009ce90339060040162002a9e565b60206040518083038186803b158015620009e757600080fd5b505afa158015620009fc573d6000803e3d6000fd5b505050506040513d601f19601f8201168201806040525081019062000a229190620028a6565b9392505050565b600a5481565b60025460ff161562000a5e5760405162461bcd60e51b815260040162000a559062002dcf565b60405180910390fd5b600019601881905560028054610100600160a81b0319166101006001600160a01b038d8116820292909217928390558b51600380546001600160a01b031990811692851692909217905560208d01516004805483169185169190911781556005805483168e8616179055600680549092168c8516179091556040808e0151905163095ea7b360e01b8152929094049092169363095ea7b39362000b049390920162002ab2565b602060405180830381600087803b15801562000b1f57600080fd5b505af115801562000b34573d6000803e3d6000fd5b505050506040513d601f19601f8201168201806040525081019062000b5a919062002884565b50845162000b7090600c9060208801906200254d565b5083516008556020840151600955604084015163ffffffff16600a558051600f5560005b600f5481101562000bc75762000bbe82828151811062000bb057fe5b602002602001015162001837565b60010162000b94565b5060024262000be48285878960036020020151600a54866200190c565b600b555050505050505050505050565b600d818154811062000c0257fe5b600091825260209182902001805460408051601f600260001961010060018716150201909416939093049283018590048502810185019091528181529350909183018282801562000c975780601f1062000c6b5761010080835404028352916020019162000c97565b820191906000526020600020905b81548152906001019060200180831162000c7957829003601f168201915b505050505081565b600054600160a01b900460ff161562000ccc5760405162461bcd60e51b815260040162000a559062002d64565b62000cd6620019aa565b62000cf55760405162461bcd60e51b815260040162000a559062002cff565b62000cff62001a33565b601855565b6017818154811062000d1257fe5b6000918252602090912001546001600160a01b0316905081565b600062000d3862001ac5565b6000546001600160a01b0390811691161462000d685760405162461bcd60e51b815260040162000a559062002e06565b600054600160a01b900460ff1662000d945760405162461bcd60e51b815260040162000a559062002c54565b6200097c62001ac9565b600060085442101562000db4575060006200097c565b600854421015801562000dc8575060095442105b1562000dd7575060016200097c565b60001960185414801562000e015750600a5462000dfe906224ea0063ffffffff62001b4616565b42105b1562000e10575060026200097c565b50600390565b60038062000e2362000d9e565b600381111562000e2f57fe5b1462000e4f5760405162461bcd60e51b815260040162000a559062002e3b565b600054600160a01b900460ff161562000e7c5760405162461bcd60e51b815260040162000a559062002d64565b6002600154141562000ea25760405162461bcd60e51b815260040162000a559062002eaf565b600260015560075462000ebd5762000eb9620008b8565b6007555b6018546000908152601060205260409020541562000ee55762000edf62001b6e565b62000eef565b62000eef62001bc1565b62000ef962001bcd565b5060018055565b600f5481565b60095481565b60085481565b60126020526000908152604090205481565b60608062000f3162001d40565b60065460405163d06ca61f60e01b81529192506001600160a01b03169063d06ca61f9062000f66908690859060040162002ee6565b60006040518083038186803b15801562000f7f57600080fd5b505afa15801562000f94573d6000803e3d6000fd5b505050506040513d6000823e601f3d908101601f1916820160405262000a229190810190620027e8565b606060178054806020026020016040519081016040528092919081815260200182805480156200101857602002820191906000526020600020905b81546001600160a01b0316815260019091019060200180831162000ff9575b5050505050905090565b600054600160a01b900460ff1690565b600080805b600f5481101562001104576000600e82815481106200105257fe5b60009182526020822001546040516370a0823160e01b81526001600160a01b03909116925082906370a08231906200108f90339060040162002a9e565b60206040518083038186803b158015620010a857600080fd5b505afa158015620010bd573d6000803e3d6000fd5b505050506040513d601f19601f82011682018060405250810190620010e39190620028a6565b9050620010f7848263ffffffff62001b4616565b9350505060010162001037565b50905090565b6200111462001ac5565b6000546001600160a01b03908116911614620011445760405162461bcd60e51b815260040162000a559062002e06565b600080546040516001600160a01b03909116907f8be0079c531659141344cd1fd0a4f28419497f9722a3daafe3b4186f6b6457e0908390a3600080546001600160a01b0319169055565b6006546001600160a01b031681565b600c805460408051602060026001851615610100026000190190941693909304601f8101849004840282018401909252818152929183018282801562000c975780601f1062000c6b5761010080835404028352916020019162000c97565b6000818152601360209081526040918290208054835181840281018401909452808452606093928301828280156200125357602002820191906000526020600020905b8154815260200190600101908083116200123e575b50505050509050919050565b60075481565b60006200127162001ac5565b6000546001600160a01b03908116911614620012a15760405162461bcd60e51b815260040162000a559062002e06565b600054600160a01b900460ff1615620012ce5760405162461bcd60e51b815260040162000a559062002d64565b6200097c62001e42565b6000546001600160a01b031690565b60185481565b600754600090156200130357506007546200097c565b6200130d620008b8565b90506200097c565b60006200134462001334601654601554620017ea90919063ffffffff16565b6200133e62001032565b62001ead565b905090565b6003546001600160a01b031681565b6060806200136562001d40565b6006546040516307c0329d60e21b81529192506001600160a01b031690631f00ca749062000f66908690859060040162002ee6565b600b5481565b6005546001600160a01b031681565b60155481565b600080600e8381548110620013c657fe5b60009182526020822001546040516370a0823160e01b81526001600160a01b03909116925082906370a08231906200140390339060040162002a9e565b60206040518083038186803b1580156200141c57600080fd5b505afa15801562001431573d6000803e3d6000fd5b505050506040513d601f19601f82011682018060405250810190620014579190620028a6565b60008581526011602090815260408083205460109092528220549293509091620014879163ffffffff620017ea16565b905062001495818362001ead565b95945050505050565b60116020526000908152604090205481565b6060600d805480602002602001604051908101604052809291908181526020016000905b82821015620015855760008481526020908190208301805460408051601f6002600019610100600187161502019094169390930492830185900485028101850190915281815292830182828015620015705780601f10620015445761010080835404028352916020019162001570565b820191906000526020600020905b8154815290600101906020018083116200155257829003601f168201915b505050505081526020019060010190620014d4565b50505050905090565b60165481565b60001981565b600e818154811062000d1257fe5b600180620015b562000d9e565b6003811115620015c157fe5b14620015e15760405162461bcd60e51b815260040162000a559062002e3b565b600054600160a01b900460ff16156200160e5760405162461bcd60e51b815260040162000a559062002d64565b6200161a848462001ee9565b6200162733848462002119565b6200163283620021e6565b50505050565b6000818152601460209081526040918290208054835181840281018401909452808452606093928301828280156200125357602002820191906000526020600020908154815260200190600101908083116200123e5750505050509050919050565b6004546001600160a01b031681565b6060600e80548060200260200160405190810160405280929190818152602001828054801562001018576020028201919060005260206000209081546001600160a01b0316815260019091019060200180831162000ff9575050505050905090565b6224ea0081565b6200171c62001ac5565b6000546001600160a01b039081169116146200174c5760405162461bcd60e51b815260040162000a559062002e06565b6001600160a01b038116620017755760405162461bcd60e51b815260040162000a559062002c82565b600080546040516001600160a01b03808516939216917f8be0079c531659141344cd1fd0a4f28419497f9722a3daafe3b4186f6b6457e091a3600080546001600160a01b0319166001600160a01b0392909216919091179055565b60025461010090046001600160a01b031681565b60175490565b60006200182e83836040518060400160405280601e81526020017f536166654d6174683a207375627472616374696f6e206f766572666c6f7700008152506200225b565b90505b92915050565b600d805460018101825560009190915281516200187c917fd7b6990105719101dabeb77144f2a3385c8033acd3af97e9423a695e81ad1eb5019060208401906200254d565b506000816040516200188e90620025d2565b6200189a919062002c3f565b604051809103906000f080158015620018b7573d6000803e3d6000fd5b50600e80546001810182556000919091527fbb7b4a454dc3493923482f07822329ed19e8244eff582cc204f8554c3620c3fd0180546001600160a01b0319166001600160a01b03929092169190911790555050565b60055460405163762c38fd60e01b81526000916001600160a01b03169063762c38fd9062001949908a908a908a908a908a908a9060040162002f40565b602060405180830381600087803b1580156200196457600080fd5b505af115801562001979573d6000803e3d6000fd5b505050506040513d601f19601f820116820180604052508101906200199f9190620028a6565b979650505050505050565b600554600b54604051633fc6a14f60e11b81526000926001600160a01b031691637f8d429e91620019df919060040162002c21565b60206040518083038186803b158015620019f857600080fd5b505afa15801562001a0d573d6000803e3d6000fd5b505050506040513d601f19601f8201168201806040525081019062001344919062002884565b600554600b5460405163684e62bf60e11b815260009283926001600160a01b039091169163d09cc57e9162001a6b9160040162002c21565b60206040518083038186803b15801562001a8457600080fd5b505afa15801562001a99573d6000803e3d6000fd5b505050506040513d601f19601f8201168201806040525081019062001abf9190620028a6565b91505090565b3390565b600054600160a01b900460ff1662001af55760405162461bcd60e51b815260040162000a559062002c54565b6000805460ff60a01b191690557f5db9ee0a495bf2e6ff9c91a7834c1ba4fdd244a5e8aa4e537bd38aeae4b073aa62001b2d62001ac5565b60405162001b3c919062002a9e565b60405180910390a1565b6000828201838110156200182e5760405162461bcd60e51b815260040162000a559062002cc8565b600062001b7d601854620013b5565b9050600062001b9d62001b8f62001032565b839063ffffffff62001b4616565b9050801562001bbd5762001bb1816200228a565b62001bbd3382620022bc565b5050565b600062001b7d62001315565b60005b600f5481101562001d3d576000600e828154811062001beb57fe5b60009182526020822001546040516370a0823160e01b81526001600160a01b03909116925082906370a082319062001c2890339060040162002a9e565b60206040518083038186803b15801562001c4157600080fd5b505afa15801562001c56573d6000803e3d6000fd5b505050506040513d601f19601f8201168201806040525081019062001c7c9190620028a6565b9050801562001d325760008381526011602052604090205462001ca6908263ffffffff62001b4616565b60008481526011602052604090205560165462001cca908263ffffffff62001b4616565b601655604051632770a7eb60e21b81526001600160a01b03831690639dc29fac9062001cfd903390859060040162002ab2565b600060405180830381600087803b15801562001d1857600080fd5b505af115801562001d2d573d6000803e3d6000fd5b505050505b505060010162001bd0565b50565b6040805160028082526060808301845292839291906020830190803683375050600654604080516315ab88c960e31b815290519394506001600160a01b039091169263ad5c464892506004808301926020929190829003018186803b15801562001da957600080fd5b505afa15801562001dbe573d6000803e3d6000fd5b505050506040513d601f19601f8201168201806040525081019062001de49190620027c9565b8160008151811062001df257fe5b6001600160a01b0392831660209182029290920101526002548251610100909104909116908290600190811062001e2557fe5b6001600160a01b0390921660209283029190910190910152905090565b600054600160a01b900460ff161562001e6f5760405162461bcd60e51b815260040162000a559062002d64565b6000805460ff60a01b1916600160a01b1790557f62e78cea01bee320cd4e420270b5ea74000d11b0c9f74754ebdbfc544b05a25862001b2d62001ac5565b60008083156200182e57600062001ec3620008b8565b9050620014958562001edc838763ffffffff6200236916565b9063ffffffff620023a916565b6000600e838154811062001ef957fe5b60009182526020808320909101548583526013825260408084208054600181810183559186528486200187905587855260148452818520805491820181558552929093204292019190915590516370a0823160e01b81526001600160a01b03909116915081906370a082319062001f7590339060040162002a9e565b60206040518083038186803b15801562001f8e57600080fd5b505afa15801562001fa3573d6000803e3d6000fd5b505050506040513d601f19601f8201168201806040525081019062001fc99190620028a6565b6200203c576017805460018181019092557fc624b66cc0138b8fabc209247f72d758e1cf3343756d543badbf24212bed8c150180546001600160a01b031916331790556000848152601260205260409020546200202c9163ffffffff62001b4616565b6000848152601260205260409020555b6040516340c10f1960e01b81526001600160a01b038216906340c10f19906200206c903390869060040162002ab2565b600060405180830381600087803b1580156200208757600080fd5b505af11580156200209c573d6000803e3d6000fd5b5050601554620020b6925090508363ffffffff62001b4616565b601555600083815260106020526040902054620020da908363ffffffff62001b4616565b60008481526010602052604080822092909255905133917fef3b3ae531a4f494c95e537ec1fe385cfe5c1146cb4c1d850b24bad38595804991a2505050565b341562002132576200212c8282620023ed565b620021e1565b6002546040516323b872dd60e01b81526101009091046001600160a01b0316906323b872dd906200216c9086903090879060040162002acb565b602060405180830381600087803b1580156200218757600080fd5b505af11580156200219c573d6000803e3d6000fd5b505050506040513d601f19601f82011682018060405250810190620021c2919062002884565b620021e15760405162461bcd60e51b815260040162000a559062002e81565b505050565b60048054600254604051636968703360e11b81526001600160a01b039283169363d2d0e0669362002224936101009004169186916000910162002aef565b600060405180830381600087803b1580156200223f57600080fd5b505af115801562002254573d6000803e3d6000fd5b5050505050565b60008184841115620022825760405162461bcd60e51b815260040162000a55919062002c3f565b505050900390565b60035460405163db006a7560e01b81526001600160a01b039091169063db006a75906200222490849060040162002c21565b60025460405163a9059cbb60e01b81526101009091046001600160a01b03169063a9059cbb90620022f4908590859060040162002ab2565b602060405180830381600087803b1580156200230f57600080fd5b505af115801562002324573d6000803e3d6000fd5b505050506040513d601f19601f820116820180604052508101906200234a919062002884565b62001bbd5760405162461bcd60e51b815260040162000a559062002e81565b6000826200237a5750600062001831565b828202828482816200238857fe5b04146200182e5760405162461bcd60e51b815260040162000a559062002d8e565b60006200182e83836040518060400160405280601a81526020017f536166654d6174683a206469766973696f6e206279207a65726f00000000000081525062002512565b6060620023f962001d40565b60065460405163fb3bdb4160e01b81529192506001600160a01b03169063fb3bdb419034906200243490879086903090899060040162002f09565b6000604051808303818588803b1580156200244e57600080fd5b505af115801562002463573d6000803e3d6000fd5b50505050506040513d6000823e601f3d908101601f191682016040526200248e9190810190620027e8565b506000336001600160a01b031647604051620024aa906200097c565b60006040518083038185875af1925050503d8060008114620024e9576040519150601f19603f3d011682016040523d82523d6000602084013e620024ee565b606091505b5050905080620016325760405162461bcd60e51b815260040162000a559062002d36565b60008183620025365760405162461bcd60e51b815260040162000a55919062002c3f565b5060008385816200254357fe5b0495945050505050565b828054600181600116156101000203166002900490600052602060002090601f016020900481019282601f106200259057805160ff1916838001178555620025c0565b82800160010185558215620025c0579182015b82811115620025c0578251825591602001919060010190620025a3565b50620025ce929150620025e0565b5090565b6113b28062002fed83390190565b6200097c91905b80821115620025ce5760008155600101620025e7565b8035620018318162002fd6565b600082601f8301126200261b578081fd5b62002627606062002f8d565b90508082846060850111156200263c57600080fd5b60005b60038110156200266c578135620026568162002fd6565b835260209283019291909101906001016200263f565b50505092915050565b600082601f83011262002686578081fd5b81356200269d620026978262002fb5565b62002f8d565b818152915060208083019084810160005b84811015620026db57620026c8888484358a01016200273c565b84529282019290820190600101620026ae565b505050505092915050565b600082601f830112620026f7578081fd5b62002703608062002f8d565b90508082846080850111156200271857600080fd5b60005b60048110156200266c5781358352602092830192909101906001016200271b565b600082601f8301126200274d578081fd5b813567ffffffffffffffff81111562002764578182fd5b62002779601f8201601f191660200162002f8d565b91508082528360208285010111156200279157600080fd5b8060208401602084013760009082016020015292915050565b600060208284031215620027bc578081fd5b81356200182e8162002fd6565b600060208284031215620027db578081fd5b81516200182e8162002fd6565b60006020808385031215620027fb578182fd5b825167ffffffffffffffff81111562002812578283fd5b80840185601f82011262002824578384fd5b8051915062002837620026978362002fb5565b828152838101908285018585028401860189101562002854578687fd5b8693505b848410156200287857805183526001939093019291850191850162002858565b50979650505050505050565b60006020828403121562002896578081fd5b815180151581146200182e578182fd5b600060208284031215620028b8578081fd5b5051919050565b60008060008060008060008060006101c08a8c031215620028de578485fd5b620028ea8b8b620025fd565b9850620028fb8b60208c016200260a565b97506200290c8b60808c01620025fd565b96506200291d8b60a08c01620025fd565b955060c08a013567ffffffffffffffff808211156200293a578687fd5b620029488d838e016200273c565b9650620029598d60e08e01620026e6565b95506200296b8d6101608e01620025fd565b94506101808c013591508082111562002982578384fd5b620029908d838e016200273c565b93506101a08c0135915080821115620029a7578283fd5b50620029b68c828d0162002675565b9150509295985092959850929598565b600060208284031215620029d8578081fd5b5035919050565b600080600060608486031215620029f4578283fd5b505081359360208301359350604090920135919050565b6000815180845260208085019450808401835b8381101562002a455781516001600160a01b03168752958201959082019060010162002a1e565b509495945050505050565b60008151808452815b8181101562002a775760208185018101518683018201520162002a59565b8181111562002a895782602083870101525b50601f01601f19169290920160200192915050565b6001600160a01b0391909116815260200190565b6001600160a01b03929092168252602082015260400190565b6001600160a01b039384168152919092166020820152604081019190915260600190565b6001600160a01b03939093168352602083019190915261ffff16604082015260600190565b6000602082526200182e602083018462002a0b565b6020808252825182820181905260009190848201906040850190845b8181101562002b6c5783516001600160a01b03168352928401929184019160010162002b45565b50909695505050505050565b6000602080830181845280855180835260408601915060408482028701019250838701855b8281101562002bcf57603f1988860301845262002bbc85835162002a50565b9450928501929085019060010162002b9d565b5092979650505050505050565b6020808252825182820181905260009190848201906040850190845b8181101562002b6c5783518352928401929184019160010162002bf8565b901515815260200190565b90815260200190565b602081016004831062002c3957fe5b91905290565b6000602082526200182e602083018462002a50565b60208082526014908201527314185d5cd8589b194e881b9bdd081c185d5cd95960621b604082015260600190565b60208082526026908201527f4f776e61626c653a206e6577206f776e657220697320746865207a65726f206160408201526564647265737360d01b606082015260800190565b6020808252601b908201527f536166654d6174683a206164646974696f6e206f766572666c6f770000000000604082015260600190565b60208082526018908201527f4f7261636c6520686173206e6f742066696e616c697365640000000000000000604082015260600190565b6020808252601490820152731499599d5b99081bd9881155120819985a5b195960621b604082015260600190565b60208082526010908201526f14185d5cd8589b194e881c185d5cd95960821b604082015260600190565b60208082526021908201527f536166654d6174683a206d756c7469706c69636174696f6e206f766572666c6f6040820152607760f81b606082015260800190565b6020808252601d908201527f436f6e747261637420616c726561647920696e697469616c697a65642e000000604082015260600190565b6020808252818101527f4f776e61626c653a2063616c6c6572206973206e6f7420746865206f776e6572604082015260600190565b60208082526026908201527f66756e6374696f6e2063616e6e6f742062652063616c6c656420617420746869604082015265732074696d6560d01b606082015260800190565b60208082526014908201527310d85cda081d1c985b9cd9995c8819985a5b195960621b604082015260600190565b6020808252601f908201527f5265656e7472616e637947756172643a207265656e7472616e742063616c6c00604082015260600190565b60008382526040602083015262002f01604083018462002a0b565b949350505050565b60008582526080602083015262002f24608083018662002a0b565b6001600160a01b03949094166040830152506060015292915050565b600087825260c0602083015262002f5b60c083018862002a50565b6001600160a01b039690961660408301525063ffffffff938416606082015291909216608082015260a0015292915050565b60405181810167ffffffffffffffff8111828210171562002fad57600080fd5b604052919050565b600067ffffffffffffffff82111562002fcc578081fd5b5060209081020190565b6001600160a01b038116811462001d3d57600080fdfe60806040523480156200001157600080fd5b50604051620013b2380380620013b2833981810160405260208110156200003757600080fd5b81019080805160405193929190846401000000008211156200005857600080fd5b9083019060208201858111156200006e57600080fd5b82516401000000008111828201881017156200008957600080fd5b82525081516020918201929091019080838360005b83811015620000b85781810151838201526020016200009e565b50505050905090810190601f168015620000e65780820380516001836020036101000a031916815260200191505b5060408181019052600281526126a160f11b60208083019190915285518695509193506200011c925060039190850190620001b9565b50805162000132906004906020840190620001b9565b50506005805460ff19166012179055506000620001576001600160e01b03620001b416565b60058054610100600160a81b0319166101006001600160a01b03841690810291909117909155604051919250906000907f8be0079c531659141344cd1fd0a4f28419497f9722a3daafe3b4186f6b6457e0908290a350506200025b565b335b90565b828054600181600116156101000203166002900490600052602060002090601f016020900481019282601f10620001fc57805160ff19168380011785556200022c565b828001600101855582156200022c579182015b828111156200022c5782518255916020019190600101906200020f565b506200023a9291506200023e565b5090565b620001b691905b808211156200023a576000815560010162000245565b611147806200026b6000396000f3fe6080604052600436106100f75760003560e01c8063715018a61161008a578063a457c2d711610059578063a457c2d7146103a5578063a9059cbb146103de578063dd62ed3e14610417578063f2fde38b14610452576100fe565b8063715018a6146103115780638da5cb5b1461032657806395d89b41146103575780639dc29fac1461036c576100fe565b8063313ce567116100c6578063313ce56714610241578063395093511461026c57806340c10f19146102a557806370a08231146102de576100fe565b806306fdde0314610100578063095ea7b31461018a57806318160ddd146101d757806323b872dd146101fe576100fe565b366100fe57005b005b34801561010c57600080fd5b50610115610485565b6040805160208082528351818301528351919283929083019185019080838360005b8381101561014f578181015183820152602001610137565b50505050905090810190601f16801561017c5780820380516001836020036101000a031916815260200191505b509250505060405180910390f35b34801561019657600080fd5b506101c3600480360360408110156101ad57600080fd5b506001600160a01b03813516906020013561051b565b604080519115158252519081900360200190f35b3480156101e357600080fd5b506101ec610538565b60408051918252519081900360200190f35b34801561020a57600080fd5b506101c36004803603606081101561022157600080fd5b506001600160a01b0381358116916020810135909116906040013561053e565b34801561024d57600080fd5b506102566105cb565b6040805160ff9092168252519081900360200190f35b34801561027857600080fd5b506101c36004803603604081101561028f57600080fd5b506001600160a01b0381351690602001356105d4565b3480156102b157600080fd5b506100fe600480360360408110156102c857600080fd5b506001600160a01b038135169060200135610628565b3480156102ea57600080fd5b506101ec6004803603602081101561030157600080fd5b50356001600160a01b0316610693565b34801561031d57600080fd5b506100fe6106ae565b34801561033257600080fd5b5061033b61075b565b604080516001600160a01b039092168252519081900360200190f35b34801561036357600080fd5b5061011561076f565b34801561037857600080fd5b506100fe6004803603604081101561038f57600080fd5b506001600160a01b0381351690602001356107d0565b3480156103b157600080fd5b506101c3600480360360408110156103c857600080fd5b506001600160a01b038135169060200135610837565b3480156103ea57600080fd5b506101c36004803603604081101561040157600080fd5b506001600160a01b0381351690602001356108a5565b34801561042357600080fd5b506101ec6004803603604081101561043a57600080fd5b506001600160a01b03813581169160200135166108b9565b34801561045e57600080fd5b506100fe6004803603602081101561047557600080fd5b50356001600160a01b03166108e4565b60038054604080516020601f60026000196101006001881615020190951694909404938401819004810282018101909252828152606093909290918301828280156105115780601f106104e657610100808354040283529160200191610511565b820191906000526020600020905b8154815290600101906020018083116104f457829003601f168201915b5050505050905090565b600061052f6105286109ed565b84846109f1565b50600192915050565b60025490565b600061054b848484610add565b6105c1846105576109ed565b6105bc8560405180606001604052806028815260200161103b602891396001600160a01b038a166000908152600160205260408120906105956109ed565b6001600160a01b03168152602081019190915260400160002054919063ffffffff610c4416565b6109f1565b5060019392505050565b60055460ff1690565b600061052f6105e16109ed565b846105bc85600160006105f26109ed565b6001600160a01b03908116825260208083019390935260409182016000908120918c16815292529020549063ffffffff610cdb16565b6106306109ed565b60055461010090046001600160a01b03908116911614610685576040805162461bcd60e51b81526020600482018190526024820152600080516020611063833981519152604482015290519081900360640190fd5b61068f8282610d3c565b5050565b6001600160a01b031660009081526020819052604090205490565b6106b66109ed565b60055461010090046001600160a01b0390811691161461070b576040805162461bcd60e51b81526020600482018190526024820152600080516020611063833981519152604482015290519081900360640190fd5b60055460405160009161010090046001600160a01b0316907f8be0079c531659141344cd1fd0a4f28419497f9722a3daafe3b4186f6b6457e0908390a360058054610100600160a81b0319169055565b60055461010090046001600160a01b031690565b60048054604080516020601f60026000196101006001881615020190951694909404938401819004810282018101909252828152606093909290918301828280156105115780601f106104e657610100808354040283529160200191610511565b6107d86109ed565b60055461010090046001600160a01b0390811691161461082d576040805162461bcd60e51b81526020600482018190526024820152600080516020611063833981519152604482015290519081900360640190fd5b61068f8282610e38565b600061052f6108446109ed565b846105bc856040518060600160405280602581526020016110ed602591396001600061086e6109ed565b6001600160a01b03908116825260208083019390935260409182016000908120918d1681529252902054919063ffffffff610c4416565b600061052f6108b26109ed565b8484610add565b6001600160a01b03918216600090815260016020908152604080832093909416825291909152205490565b6108ec6109ed565b60055461010090046001600160a01b03908116911614610941576040805162461bcd60e51b81526020600482018190526024820152600080516020611063833981519152604482015290519081900360640190fd5b6001600160a01b0381166109865760405162461bcd60e51b8152600401808060200182810382526026815260200180610fcd6026913960400191505060405180910390fd5b6005546040516001600160a01b0380841692610100900416907f8be0079c531659141344cd1fd0a4f28419497f9722a3daafe3b4186f6b6457e090600090a3600580546001600160a01b0390921661010002610100600160a81b0319909216919091179055565b3390565b6001600160a01b038316610a365760405162461bcd60e51b81526004018080602001828103825260248152602001806110c96024913960400191505060405180910390fd5b6001600160a01b038216610a7b5760405162461bcd60e51b8152600401808060200182810382526022815260200180610ff36022913960400191505060405180910390fd5b6001600160a01b03808416600081815260016020908152604080832094871680845294825291829020859055815185815291517f8c5be1e5ebec7d5bd14f71427d1e84f3dd0314c0f7b2291e5b200ac8c7c3b9259281900390910190a3505050565b6001600160a01b038316610b225760405162461bcd60e51b81526004018080602001828103825260258152602001806110a46025913960400191505060405180910390fd5b6001600160a01b038216610b675760405162461bcd60e51b8152600401808060200182810382526023815260200180610f886023913960400191505060405180910390fd5b610b72838383610f40565b610bb581604051806060016040528060268152602001611015602691396001600160a01b038616600090815260208190526040902054919063ffffffff610c4416565b6001600160a01b038085166000908152602081905260408082209390935590841681522054610bea908263ffffffff610cdb16565b6001600160a01b038084166000818152602081815260409182902094909455805185815290519193928716927fddf252ad1be2c89b69c2b068fc378daa952ba7f163c4a11628f55a4df523b3ef92918290030190a3505050565b60008184841115610cd35760405162461bcd60e51b81526004018080602001828103825283818151815260200191508051906020019080838360005b83811015610c98578181015183820152602001610c80565b50505050905090810190601f168015610cc55780820380516001836020036101000a031916815260200191505b509250505060405180910390fd5b505050900390565b600082820183811015610d35576040805162461bcd60e51b815260206004820152601b60248201527f536166654d6174683a206164646974696f6e206f766572666c6f770000000000604482015290519081900360640190fd5b9392505050565b6001600160a01b038216610d97576040805162461bcd60e51b815260206004820152601f60248201527f45524332303a206d696e7420746f20746865207a65726f206164647265737300604482015290519081900360640190fd5b610da360008383610f40565b600254610db6908263ffffffff610cdb16565b6002556001600160a01b038216600090815260208190526040902054610de2908263ffffffff610cdb16565b6001600160a01b0383166000818152602081815260408083209490945583518581529351929391927fddf252ad1be2c89b69c2b068fc378daa952ba7f163c4a11628f55a4df523b3ef9281900390910190a35050565b6001600160a01b038216610e7d5760405162461bcd60e51b81526004018080602001828103825260218152602001806110836021913960400191505060405180910390fd5b610e8982600083610f40565b610ecc81604051806060016040528060228152602001610fab602291396001600160a01b038516600090815260208190526040902054919063ffffffff610c4416565b6001600160a01b038316600090815260208190526040902055600254610ef8908263ffffffff610f4516565b6002556040805182815290516000916001600160a01b038516917fddf252ad1be2c89b69c2b068fc378daa952ba7f163c4a11628f55a4df523b3ef9181900360200190a35050565b505050565b6000610d3583836040518060400160405280601e81526020017f536166654d6174683a207375627472616374696f6e206f766572666c6f770000815250610c4456fe45524332303a207472616e7366657220746f20746865207a65726f206164647265737345524332303a206275726e20616d6f756e7420657863656564732062616c616e63654f776e61626c653a206e6577206f776e657220697320746865207a65726f206164647265737345524332303a20617070726f766520746f20746865207a65726f206164647265737345524332303a207472616e7366657220616d6f756e7420657863656564732062616c616e636545524332303a207472616e7366657220616d6f756e74206578636565647320616c6c6f77616e63654f776e61626c653a2063616c6c6572206973206e6f7420746865206f776e657245524332303a206275726e2066726f6d20746865207a65726f206164647265737345524332303a207472616e736665722066726f6d20746865207a65726f206164647265737345524332303a20617070726f76652066726f6d20746865207a65726f206164647265737345524332303a2064656372656173656420616c6c6f77616e63652062656c6f77207a65726fa26469706673582212207f9c3b0197cb2a21c2d5dafed42d3fd8c385e7f2830b352e74526bc7d3bc958f64736f6c634300060a0033a26469706673582212203ce32a5fd8b83eae820c452a6372dfa686cff70182208f45176259764d03a9e564736f6c634300060a0033",
  "immutableReferences": {},
  "source": "//SPDX-License-Identifier: UNLICENSED\npragma solidity ^0.6.0;\npragma experimental ABIEncoderV2;\n\nimport '@nomiclabs/buidler/console.sol';\nimport '@openzeppelin/contracts/math/SafeMath.sol';\nimport '@openzeppelin/contracts/utils/ReentrancyGuard.sol';\nimport '@openzeppelin/contracts/utils/Pausable.sol';\nimport '@openzeppelin/contracts/access/Ownable.sol';\nimport './interfaces/IAave.sol';\nimport './interfaces/IDai.sol';\nimport './interfaces/IRealitio.sol';\nimport './interfaces/IUniswapV2Router02.sol';\nimport './Token.sol';\n\n/// @title The MagicBet market instance\n/// @notice This contract is the framework of each new market\ncontract MBMarket is Ownable, Pausable, ReentrancyGuard {\n    using SafeMath for uint256;\n\n    enum States {WAITING, OPEN, LOCKED, WITHDRAW}\n\n    ////////////////////////////////////\n    //////// VARIABLES /////////////////\n    ////////////////////////////////////\n\n    uint256 public constant UNRESOLVED_OUTCOME_RESULT = type(uint256).max;\n    uint256 public constant ORACLE_TIMEOUT_TIME = 4 weeks;\n    bool private isInitialized = false;\n\n    //////// Externals ////////\n    Dai public dai;\n    IaToken public aToken;\n    IAaveLendingPool public aaveLendingPool;\n    IRealitio public realitio;\n    IUniswapV2Router02 public uniswapRouter;\n\n    //////// Market Details ////////\n    uint256 public maxInterest = 0; // for the front end\n    uint256 public marketOpeningTime; // when the market can opened for bets\n    uint256 public marketLockingTime; // when the market is no longer open for bets\n    uint256 public marketResolutionTime; // the time the realitio market is able to be answered, uint32 inside Realitio\n    bytes32 public questionId; // the question ID of the question on realitio\n    string public eventName;\n    string[] public outcomeNames;\n    Token[] public tokenAddresses;\n    uint256 public numberOfOutcomes;\n\n    //////// Betting variables ////////\n    // totalBetsPerOutcome and betsWithdrawnPerOutcome keep track of the remaining 'principal'\n    mapping(uint256 => uint256) public totalBetsPerOutcome;\n    mapping(uint256 => uint256) public betsWithdrawnPerOutcome;\n    mapping(uint256 => uint256) public usersPerOutcome;\n    mapping(uint256 => uint256[]) private betAmountsArray;\n    mapping(uint256 => uint256[]) private timestampsArray;\n\n    uint256 public totalBets;\n    uint256 public betsWithdrawn;\n    address[] public participants;\n\n    //////// Market resolution variables ////////\n    uint256 public winningOutcome;\n\n    ////////////////////////////////////\n    //////// CONSTRUCTOR ///////////////\n    ////////////////////////////////////\n    function initialize(\n        Dai _daiAddress,\n        address[3] memory _aaveAddresses,\n        IRealitio _realitioAddress,\n        IUniswapV2Router02 _uniswapRouter,\n        string memory _eventName,\n        uint256[4] memory _marketTimes,\n        address _arbitrator,\n        string memory _realitioQuestion,\n        string[] memory _outcomeNamesArray\n    ) public {\n        require(!isInitialized, 'Contract already initialized.');\n\n        winningOutcome = UNRESOLVED_OUTCOME_RESULT;\n\n        // externals\n        dai = _daiAddress;\n        aToken = IaToken(_aaveAddresses[0]);\n        aaveLendingPool = IAaveLendingPool(_aaveAddresses[1]);\n        realitio = _realitioAddress;\n        uniswapRouter = _uniswapRouter;\n\n        // approvals\n        dai.approve(_aaveAddresses[2], type(uint256).max);\n\n        // pass arguments to public variables\n        eventName = _eventName;\n        marketOpeningTime = _marketTimes[0];\n        marketLockingTime = _marketTimes[1];\n        marketResolutionTime = uint32(_marketTimes[2]);\n        numberOfOutcomes = _outcomeNamesArray.length;\n\n        // create the tokens\n        for (uint256 i = 0; i < numberOfOutcomes; i++) {\n            _createTokenContract(_outcomeNamesArray[i]);\n        }\n\n        // Create the question on Realitio\n        uint256 _templateId = 2;\n        uint256 _nonce = now; // <- should probably change this to zero for mainnet\n        questionId = _postQuestion(\n            _templateId,\n            _realitioQuestion,\n            _arbitrator,\n            uint32(_marketTimes[3]),\n            uint32(marketResolutionTime),\n            _nonce\n        );\n    }\n\n    ////////////////////////////////////\n    //////// EVENTS ////////////////////\n    ////////////////////////////////////\n    event ParticipantEntered(address indexed participant);\n    event ParticipantWithdrawn(address indexed participant);\n    event StateChanged(States state);\n    event WinnerSelected(address indexed winner);\n\n    ////////////////////////////////////\n    //////// INITIAL SETUP /////////////\n    ////////////////////////////////////\n\n    function _createTokenContract(string memory _outcomeName) internal {\n        outcomeNames.push(_outcomeName);\n        Token tokenContract = new Token({_tokenName: _outcomeName});\n        tokenAddresses.push(tokenContract);\n    }\n\n    ////////////////////////////////////\n    //////// MODIFIERS /////////////////\n    ////////////////////////////////////\n    modifier checkState(States requiredState) {\n        require(getCurrentState() == requiredState, 'function cannot be called at this time');\n        _;\n    }\n\n    ////////////////////////////////////\n    ////////// VIEW FUNCTIONS //////////\n    ////////////////////////////////////\n    function getCurrentState() public view returns (States) {\n        if (now < marketOpeningTime) {\n            return States.WAITING;\n        }\n\n        if (now >= marketOpeningTime && now < marketLockingTime) {\n            return States.OPEN;\n        }\n\n        if (winningOutcome == UNRESOLVED_OUTCOME_RESULT && now < (marketResolutionTime.add(ORACLE_TIMEOUT_TIME))) {\n            return States.LOCKED;\n        }\n\n        return States.WITHDRAW;\n    }\n\n    function getOutcomeNames() external view returns (string[] memory) {\n        return outcomeNames;\n    }\n\n    function getTokenAddresses() external view returns (Token[] memory) {\n        return tokenAddresses;\n    }\n\n    function getParticipants() external view returns (address[] memory) {\n        return participants;\n    }\n\n    function getBetAmountsArray(uint256 _outcome) external view returns (uint256[] memory) {\n        return betAmountsArray[_outcome];\n    }\n\n    function getTimestampsArray(uint256 _outcome) external view returns (uint256[] memory) {\n        return timestampsArray[_outcome];\n    }\n\n    function getMarketSize() public view returns (uint256) {\n        return participants.length;\n    }\n\n    function getParticipantsBet(uint256 _outcome) public view returns (uint256) {\n        Token _token = Token(tokenAddresses[_outcome]);\n        return _token.balanceOf(msg.sender);\n    }\n\n    function getMaxTotalInterest() public view returns (uint256) {\n        if (maxInterest > 0) {\n            return maxInterest;\n        } else {\n            return getTotalInterest();\n        }\n    }\n\n    function getTotalInterest() public view returns (uint256) {\n        uint256 _remainingBet = totalBets.sub(betsWithdrawn);\n        uint256 _totalAdaibalances = aToken.balanceOf(address(this));\n        uint256 _totalInterest = _totalAdaibalances.sub(_remainingBet);\n        return _totalInterest;\n    }\n\n    function getWinningsGivenOutcome(uint256 _outcome) public view returns (uint256) {\n        Token _token = Token(tokenAddresses[_outcome]);\n        uint256 _userBetOnOutcome = _token.balanceOf(msg.sender);\n        uint256 _totalRemainingBetsOnOutcome = totalBetsPerOutcome[_outcome].sub(betsWithdrawnPerOutcome[_outcome]);\n        return _calculateWinnings(_totalRemainingBetsOnOutcome, _userBetOnOutcome);\n    }\n\n    /// @dev If invalid outcome, simply pay out interest in proportion to bets across all tokenAddresses\n    /// @dev i.e. as if all the outcomes 'won'\n    function getWinningsInvalid() public view returns (uint256) {\n        return _calculateWinnings(totalBets.sub(betsWithdrawn), getUserBetsAllOutcomes());\n    }\n\n    function getEstimatedETHforDAI(uint256 ethAmount) public view returns (uint256[] memory) {\n        address[] memory path = _getDAIforETHpath();\n        return uniswapRouter.getAmountsIn(ethAmount, path);\n    }\n\n    function getEstimatedDAIforETH(uint256 daiAmount) public view returns (uint256[] memory) {\n        address[] memory path = _getDAIforETHpath();\n        return uniswapRouter.getAmountsOut(daiAmount, path);\n    }\n\n    /// @notice returns winning user's share of interest\n    /// @param _totalBetAmount total bet among all outcomes\n    /// @param _userBetOutcomeAmount total bet on winning outcome\n    /// @return users's share of the interest\n    function _calculateWinnings(uint256 _totalBetAmount, uint256 _userBetOutcomeAmount)\n        internal\n        view\n        returns (uint256)\n    {\n        uint256 winnings = 0;\n\n        if (_totalBetAmount > 0) {\n            uint256 _totalInterest = getTotalInterest();\n            winnings = (_totalInterest.mul(_userBetOutcomeAmount)).div(_totalBetAmount);\n        }\n\n        return winnings;\n    }\n\n    function getUserBetsAllOutcomes() public view returns (uint256) {\n        // get total bet across all outcomes\n        uint256 _userBetsAllOutcomes;\n        for (uint256 i = 0; i < numberOfOutcomes; i++) {\n            Token _token = Token(tokenAddresses[i]);\n            uint256 _userBetThisOutcome = _token.balanceOf(msg.sender);\n            _userBetsAllOutcomes = _userBetsAllOutcomes.add(_userBetThisOutcome);\n        }\n        return _userBetsAllOutcomes;\n    }\n\n    ////////////////////////////////////\n    //////// REALIITO FUNCTIONS ////////\n    ////////////////////////////////////\n\n    /// @notice posts the market question onto realit.io\n    /// @param template_id always 2\n    /// @param question string passed to realitio\n    /// @param arbitrator = kleros\n    /// @param timeout how long answer can be challenged until finalised\n    /// @param opening_ts when the question can first be answered\n    /// @param nonce nonce\n    /// @return the ID of the question on realitio\n    function _postQuestion(\n        uint256 template_id,\n        string memory question,\n        address arbitrator,\n        uint32 timeout,\n        uint32 opening_ts,\n        uint256 nonce\n    ) internal returns (bytes32) {\n        return realitio.askQuestion(template_id, question, arbitrator, timeout, opening_ts, nonce);\n    }\n\n    /// @notice determines the winning outcome from realitio\n    /// @dev this function call will revert if it has not yet resolved\n    /// @return the winning outcome of the event\n    function _determineWinner() internal view returns (uint256) {\n        bytes32 _winningOutcome = realitio.resultFor(questionId);\n        return uint256(_winningOutcome);\n    }\n\n    /// @notice Function called by determineWinner to see if question has been finalized\n    /// @return whether or not the question has been finalized on realitio\n    function _isQuestionFinalized() internal view returns (bool) {\n        return realitio.isFinalized(questionId);\n    }\n\n    ////////////////////////////////////\n    /////// EXTERNAL DAI CALLS /////////\n    ////////////////////////////////////\n\n    /// @notice common function for all outgoing DAI transfers\n    /// @param _to address to send to\n    /// @param _amount amount to send\n    function _sendCash(address _to, uint256 _amount) internal {\n        require(dai.transfer(_to, _amount), 'Cash transfer failed');\n    }\n\n    /// @notice common function for all incoming DAI transfers\n    /// @param _from address that is receiving cash\n    /// @param _amount amount to recieve\n    function _receiveCash(\n        address _from,\n        uint256 _amount,\n        uint256 _uniswapDeadline\n    ) internal {\n        if (msg.value > 0) {\n            _swapETHForExactTokenWithUniswap(_amount, _uniswapDeadline);\n            return;\n        }\n\n        require(dai.transferFrom(_from, address(this), _amount), 'Cash transfer failed');\n    }\n\n    ////////////////////////////////////\n    /////// EXTERNAL AAVE CALLS ////////\n    ////////////////////////////////////\n\n    /// @notice swap Dai for aDai\n    function _sendToAave(uint256 _dai) internal {\n        aaveLendingPool.deposit(address(dai), _dai, 0);\n    }\n\n    /// @notice swap aDai for Dai\n    function _redeemFromAave(uint256 _dai) internal {\n        aToken.redeem(_dai);\n    }\n\n    ////////////////////////////////////\n    //////// EXTERNAL FUNCTIONS ////////\n    ////////////////////////////////////\n\n    function placeBet(\n        uint256 _outcome,\n        uint256 _dai,\n        uint256 _uniswapDeadline // set to 0 if paying in DAI\n    ) external payable checkState(States.OPEN) whenNotPaused {\n        _placeBet(_outcome, _dai);\n        _receiveCash(msg.sender, _dai, _uniswapDeadline);\n        _sendToAave(_dai);\n    }\n\n    function determineWinner() external whenNotPaused {\n        require(_isQuestionFinalized(), 'Oracle has not finalised');\n        winningOutcome = _determineWinner();\n    }\n\n    function withdraw() external checkState(States.WITHDRAW) whenNotPaused nonReentrant {\n        if (maxInterest == 0) {\n            maxInterest = getTotalInterest();\n        }\n\n        if (totalBetsPerOutcome[winningOutcome] > 0) {\n            _payoutWinnings();\n        } else {\n            _payoutWinningsInvalid();\n        }\n\n        _burnUsersTokens();\n    }\n\n    ////////////////////////////////////\n    //////// INTERNAL FUNCTIONS ////////\n    ////////////////////////////////////\n    function _payoutWinnings() internal {\n        uint256 _winnings = getWinningsGivenOutcome(winningOutcome);\n        uint256 _daiToSend = _winnings.add(getUserBetsAllOutcomes());\n\n        // externals\n        if (_daiToSend > 0) {\n            _redeemFromAave(_daiToSend);\n            _sendCash(msg.sender, _daiToSend);\n        }\n    }\n\n    function _payoutWinningsInvalid() internal {\n        uint256 _winningsInvalid = getWinningsInvalid();\n        uint256 _daiToSend = _winningsInvalid.add(getUserBetsAllOutcomes());\n\n        // externals\n        if (_daiToSend > 0) {\n            _redeemFromAave(_daiToSend);\n            _sendCash(msg.sender, _daiToSend);\n        }\n    }\n\n    function _placeBet(uint256 _outcome, uint256 _dai) internal {\n        Token _token = tokenAddresses[_outcome];\n\n        betAmountsArray[_outcome].push(_dai);\n        timestampsArray[_outcome].push(now);\n\n        if (_token.balanceOf(msg.sender) == 0) {\n            participants.push(msg.sender);\n            usersPerOutcome[_outcome] = usersPerOutcome[_outcome].add(1);\n        }\n\n        _token.mint(msg.sender, _dai);\n        totalBets = totalBets.add(_dai);\n        totalBetsPerOutcome[_outcome] = totalBetsPerOutcome[_outcome].add(_dai);\n\n        emit ParticipantEntered(msg.sender);\n    }\n\n    function _burnUsersTokens() internal {\n        for (uint256 i = 0; i < numberOfOutcomes; i++) {\n            Token _token = Token(tokenAddresses[i]);\n            uint256 _userBetThisOutcome = _token.balanceOf(msg.sender);\n            if (_userBetThisOutcome > 0) {\n                betsWithdrawnPerOutcome[i] = betsWithdrawnPerOutcome[i].add(_userBetThisOutcome);\n                betsWithdrawn = betsWithdrawn.add(_userBetThisOutcome);\n                _token.burn(msg.sender, _userBetThisOutcome);\n            }\n        }\n    }\n\n    function _swapETHForExactTokenWithUniswap(uint256 daiAmount, uint256 deadline) private {\n        address[] memory path = _getDAIforETHpath();\n\n        uniswapRouter.swapETHForExactTokens{value: msg.value}(daiAmount, path, address(this), deadline);\n\n        (bool success, ) = msg.sender.call{value: address(this).balance}(''); // refund leftover ETH\n        require(success, 'Refund of ETH failed');\n    }\n\n    function _getDAIforETHpath() private view returns (address[] memory) {\n        address[] memory path = new address[](2);\n        path[0] = uniswapRouter.WETH();\n        path[1] = address(dai);\n\n        return path;\n    }\n\n    ////////////////////////////////////\n    ///// BOILERPLATE FUNCTIONS ////////\n    ////////////////////////////////////\n    function disableContract() public onlyOwner whenNotPaused returns (bool) {\n        // onlyOwner ensures only factory can pause\n        _pause();\n    }\n\n    function enableContract() public onlyOwner whenPaused returns (bool) {\n        // onlyOwner ensures only factory can unpause\n        _unpause();\n    }\n\n    receive() external payable {}\n\n    fallback() external payable {}\n}\n",
  "sourcePath": "/Users/brenfife/Desktop/MagicBet-Contracts/contracts/MBMarket.sol",
  "compiler": {
    "name": "solc",
    "version": "0.6.10+commit.00c0fcaf.Emscripten.clang"
  },
  "schemaVersion": "3.2.2",
  "updatedAt": "2020-07-25T19:34:28.239Z",
  "devdoc": {
    "methods": {
      "getWinningsInvalid()": {
        "details": "If invalid outcome, simply pay out interest in proportion to bets across all tokenAddressesi.e. as if all the outcomes 'won'"
      },
      "owner()": {
        "details": "Returns the address of the current owner."
      },
      "paused()": {
        "details": "Returns true if the contract is paused, and false otherwise."
      },
      "renounceOwnership()": {
        "details": "Leaves the contract without owner. It will not be possible to call `onlyOwner` functions anymore. Can only be called by the current owner. NOTE: Renouncing ownership will leave the contract without an owner, thereby removing any functionality that is only available to the owner."
      },
      "transferOwnership(address)": {
        "details": "Transfers ownership of the contract to a new account (`newOwner`). Can only be called by the current owner."
      }
    },
    "title": "The MagicBet market instance"
  },
  "userdoc": {
    "methods": {
      "UNRESOLVED_OUTCOME_RESULT()": {
        "notice": "///////////////////////////////// ///// VARIABLES ///////////////// /////////////////////////////////"
      },
      "dai()": {
        "notice": "///// Externals ////////"
      },
      "disableContract()": {
        "notice": "///////////////////////////////// // BOILERPLATE FUNCTIONS //////// /////////////////////////////////"
      },
      "getCurrentState()": {
        "notice": "///////////////////////////////// /////// VIEW FUNCTIONS ////////// /////////////////////////////////"
      },
      "initialize(address,address[3],address,address,string,uint256[4],address,string,string[])": {
        "notice": "///////////////////////////////// ///// CONSTRUCTOR /////////////// /////////////////////////////////"
      },
      "maxInterest()": {
        "notice": "///// Market Details ////////"
      },
      "placeBet(uint256,uint256,uint256)": {
        "notice": "///////////////////////////////// ///// EXTERNAL FUNCTIONS //////// /////////////////////////////////"
      },
      "totalBetsPerOutcome(uint256)": {
        "notice": "///// Betting variables ////////"
      },
      "winningOutcome()": {
        "notice": "///// Market resolution variables ////////"
      }
    },
    "notice": "This contract is the framework of each new market"
  }
}