{
  "contractName": "MBMarketFactory",
  "abi": [
    {
      "inputs": [
        {
          "internalType": "contract Dai",
          "name": "_daiAddress",
          "type": "address"
        },
        {
          "internalType": "contract IaToken",
          "name": "_aTokenAddress",
          "type": "address"
        },
        {
          "internalType": "contract IAaveLendingPool",
          "name": "_aaveLpAddress",
          "type": "address"
        },
        {
          "internalType": "contract IAaveLendingPoolCore",
          "name": "_aaveLpcoreAddress",
          "type": "address"
        },
        {
          "internalType": "contract IRealitio",
          "name": "_realitioAddress",
          "type": "address"
        },
        {
          "internalType": "contract IUniswapV2Router01",
          "name": "_uniswapRouter",
          "type": "address"
        }
      ],
      "stateMutability": "nonpayable",
      "type": "constructor"
    },
    {
      "anonymous": false,
      "inputs": [
        {
          "indexed": false,
          "internalType": "address",
          "name": "contractAddress",
          "type": "address"
        }
      ],
      "name": "MarketCreated",
      "type": "event"
    },
    {
      "anonymous": false,
      "inputs": [
        {
          "indexed": true,
          "internalType": "address",
          "name": "previousOwner",
          "type": "address"
        },
        {
          "indexed": true,
          "internalType": "address",
          "name": "newOwner",
          "type": "address"
        }
      ],
      "name": "OwnershipTransferred",
      "type": "event"
    },
    {
      "anonymous": false,
      "inputs": [
        {
          "indexed": false,
          "internalType": "address",
          "name": "account",
          "type": "address"
        }
      ],
      "name": "Paused",
      "type": "event"
    },
    {
      "anonymous": false,
      "inputs": [
        {
          "indexed": false,
          "internalType": "address",
          "name": "account",
          "type": "address"
        }
      ],
      "name": "Unpaused",
      "type": "event"
    },
    {
      "inputs": [],
      "name": "aToken",
      "outputs": [
        {
          "internalType": "contract IaToken",
          "name": "",
          "type": "address"
        }
      ],
      "stateMutability": "view",
      "type": "function"
    },
    {
      "inputs": [],
      "name": "aaveLendingPool",
      "outputs": [
        {
          "internalType": "contract IAaveLendingPool",
          "name": "",
          "type": "address"
        }
      ],
      "stateMutability": "view",
      "type": "function"
    },
    {
      "inputs": [],
      "name": "aaveLendingPoolCore",
      "outputs": [
        {
          "internalType": "contract IAaveLendingPoolCore",
          "name": "",
          "type": "address"
        }
      ],
      "stateMutability": "view",
      "type": "function"
    },
    {
      "inputs": [],
      "name": "dai",
      "outputs": [
        {
          "internalType": "contract Dai",
          "name": "",
          "type": "address"
        }
      ],
      "stateMutability": "view",
      "type": "function"
    },
    {
      "inputs": [
        {
          "internalType": "address",
          "name": "",
          "type": "address"
        }
      ],
      "name": "mappingOfMarkets",
      "outputs": [
        {
          "internalType": "bool",
          "name": "",
          "type": "bool"
        }
      ],
      "stateMutability": "view",
      "type": "function"
    },
    {
      "inputs": [
        {
          "internalType": "uint256",
          "name": "",
          "type": "uint256"
        }
      ],
      "name": "marketAddresses",
      "outputs": [
        {
          "internalType": "address",
          "name": "",
          "type": "address"
        }
      ],
      "stateMutability": "view",
      "type": "function"
    },
    {
      "inputs": [],
      "name": "mostRecentMarket",
      "outputs": [
        {
          "internalType": "address",
          "name": "",
          "type": "address"
        }
      ],
      "stateMutability": "view",
      "type": "function"
    },
    {
      "inputs": [],
      "name": "owner",
      "outputs": [
        {
          "internalType": "address",
          "name": "",
          "type": "address"
        }
      ],
      "stateMutability": "view",
      "type": "function"
    },
    {
      "inputs": [],
      "name": "paused",
      "outputs": [
        {
          "internalType": "bool",
          "name": "",
          "type": "bool"
        }
      ],
      "stateMutability": "view",
      "type": "function"
    },
    {
      "inputs": [],
      "name": "realitio",
      "outputs": [
        {
          "internalType": "contract IRealitio",
          "name": "",
          "type": "address"
        }
      ],
      "stateMutability": "view",
      "type": "function"
    },
    {
      "inputs": [],
      "name": "renounceOwnership",
      "outputs": [],
      "stateMutability": "nonpayable",
      "type": "function"
    },
    {
      "inputs": [
        {
          "internalType": "address",
          "name": "newOwner",
          "type": "address"
        }
      ],
      "name": "transferOwnership",
      "outputs": [],
      "stateMutability": "nonpayable",
      "type": "function"
    },
    {
      "inputs": [],
      "name": "uniswapRouter",
      "outputs": [
        {
          "internalType": "contract IUniswapV2Router01",
          "name": "",
          "type": "address"
        }
      ],
      "stateMutability": "view",
      "type": "function"
    },
    {
      "inputs": [
        {
          "internalType": "string",
          "name": "_eventName",
          "type": "string"
        },
        {
          "internalType": "uint256",
          "name": "_marketOpeningTime",
          "type": "uint256"
        },
        {
          "internalType": "uint256",
          "name": "_marketLockingTime",
          "type": "uint256"
        },
        {
          "internalType": "uint32",
          "name": "_marketResolutionTime",
          "type": "uint32"
        },
        {
          "internalType": "uint32",
          "name": "_timeout",
          "type": "uint32"
        },
        {
          "internalType": "address",
          "name": "_arbitrator",
          "type": "address"
        },
        {
          "internalType": "string",
          "name": "_realitioQuestion",
          "type": "string"
        },
        {
          "internalType": "string[]",
          "name": "_outcomeNamesArray",
          "type": "string[]"
        }
      ],
      "name": "createMarket",
      "outputs": [
        {
          "internalType": "contract MBMarket",
          "name": "",
          "type": "address"
        }
      ],
      "stateMutability": "nonpayable",
      "type": "function"
    },
    {
      "inputs": [],
      "name": "getMarkets",
      "outputs": [
        {
          "internalType": "address[]",
          "name": "",
          "type": "address[]"
        }
      ],
      "stateMutability": "view",
      "type": "function"
    },
    {
      "inputs": [],
      "name": "getMostRecentMarket",
      "outputs": [
        {
          "internalType": "address",
          "name": "",
          "type": "address"
        }
      ],
      "stateMutability": "view",
      "type": "function"
    },
    {
      "inputs": [],
      "name": "destroy",
      "outputs": [],
      "stateMutability": "nonpayable",
      "type": "function"
    },
    {
      "inputs": [
        {
          "internalType": "address payable",
          "name": "marketAddress",
          "type": "address"
        }
      ],
      "name": "disableMarket",
      "outputs": [
        {
          "internalType": "bool",
          "name": "",
          "type": "bool"
        }
      ],
      "stateMutability": "nonpayable",
      "type": "function"
    }
  ],
  "bytecode": "0x60806040523480156200001157600080fd5b506040516200565338038062005653833981016040819052620000349162000117565b6000620000496001600160e01b036200011316565b600080546001600160a01b0319166001600160a01b0383169081178255604051929350917f8be0079c531659141344cd1fd0a4f28419497f9722a3daafe3b4186f6b6457e0908290a3506000805460ff60a01b19169055600180546001600160a01b03199081166001600160a01b0398891617909155600280548216968816969096179095556003805486169487169490941790935560048054851692861692909217909155600580548416918516919091179055600680549092169216919091179055620001c3565b3390565b60008060008060008060c0878903121562000130578182fd5b86516200013d81620001aa565b60208801519096506200015081620001aa565b60408801519095506200016381620001aa565b60608801519094506200017681620001aa565b60808801519093506200018981620001aa565b60a08801519092506200019c81620001aa565b809150509295509295509295565b6001600160a01b0381168114620001c057600080fd5b50565b61548080620001d36000396000f3fe60806040523480156200001157600080fd5b5060043610620001305760003560e01c8063a0c1f15e11620000b1578063ec2c9016116200007b578063ec2c90161462000207578063f2fde38b1462000220578063f4b9fa751462000237578063f4c0b0031462000241578063f55a898c146200024b5762000130565b8063a0c1f15e14620001d2578063bc8802a214620001dc578063d3f8fb8114620001e6578063e9d337b814620001fd5762000130565b8063715018a611620000ff578063715018a61462000191578063735de9f7146200019d578063799d972714620001a757806383197ef014620001be5780638da5cb5b14620001c85762000130565b80632d30b9c31462000135578063350293a114620001575780633ca55833146200016e5780635c975abb1462000178575b600080fd5b6200013f62000262565b6040516200014e919062000b91565b60405180910390f35b6200013f6200016836600462000a98565b62000271565b6200013f62000299565b62000182620002a8565b6040516200014e919062000bf4565b6200019b620002b8565b005b6200013f62000345565b6200013f620001b8366004620009bb565b62000354565b6200019b62000544565b6200013f620005ad565b6200013f620005bc565b6200013f620005cb565b62000182620001f73660046200097a565b620005da565b6200013f620005ef565b62000211620005fe565b6040516200014e919062000ba5565b6200019b620002313660046200097a565b62000662565b6200013f62000720565b6200013f6200072f565b620001826200025c3660046200097a565b6200073e565b6009546001600160a01b031690565b600881815481106200027f57fe5b6000918252602090912001546001600160a01b0316905081565b6004546001600160a01b031681565b600054600160a01b900460ff1690565b620002c262000835565b6000546001600160a01b03908116911614620002fb5760405162461bcd60e51b8152600401620002f29062000dd3565b60405180910390fd5b600080546040516001600160a01b03909116907f8be0079c531659141344cd1fd0a4f28419497f9722a3daafe3b4186f6b6457e0908390a3600080546001600160a01b0319169055565b6006546001600160a01b031681565b60006200036062000835565b6000546001600160a01b03908116911614620003905760405162461bcd60e51b8152600401620002f29062000dd3565b600054600160a01b900460ff1615620003bd5760405162461bcd60e51b8152600401620002f29062000da9565b620003c762000839565b506040805160808101825289815260208082018a905263ffffffff808a16838501528816606080840191909152600154845191820185526002546001600160a01b0390811683526003548116938301939093526004548316828601526005546006549551949560009592851694918216929116908f9087908c908c908c903390620004529062000857565b620004679a9998979695949392919062000bff565b604051809103906000f08015801562000484573d6000803e3d6000fd5b506008805460018181019092557ff3f7a9fe364faab93b216da50a3214154f22a0a2b415b23a84c8169e8b636ee30180546001600160a01b0384166001600160a01b0319918216811790925560008281526007602052604090819020805460ff19169094179093556009805490911690911790555190915081907fb27af04ab132a0b6bba5de2a84bbbadcc31c20c33932936a992ae6ff951259c3906200052d90839062000b91565b60405180910390a1509a9950505050505050505050565b6200054e62000835565b6000546001600160a01b039081169116146200057e5760405162461bcd60e51b8152600401620002f29062000dd3565b600054600160a01b900460ff16620005aa5760405162461bcd60e51b8152600401620002f29062000ce4565b33ff5b6000546001600160a01b031690565b6002546001600160a01b031681565b6005546001600160a01b031681565b60076020526000908152604090205460ff1681565b6003546001600160a01b031681565b606060088054806020026020016040519081016040528092919081815260200182805480156200065857602002820191906000526020600020905b81546001600160a01b0316815260019091019060200180831162000639575b5050505050905090565b6200066c62000835565b6000546001600160a01b039081169116146200069c5760405162461bcd60e51b8152600401620002f29062000dd3565b6001600160a01b038116620006c55760405162461bcd60e51b8152600401620002f29062000d12565b600080546040516001600160a01b03808516939216917f8be0079c531659141344cd1fd0a4f28419497f9722a3daafe3b4186f6b6457e091a3600080546001600160a01b0319166001600160a01b0392909216919091179055565b6001546001600160a01b031681565b6009546001600160a01b031681565b60006200074a62000835565b6000546001600160a01b039081169116146200077a5760405162461bcd60e51b8152600401620002f29062000dd3565b6001600160a01b038216600090815260076020526040902054829060ff16620007b75760405162461bcd60e51b8152600401620002f29062000d58565b826001600160a01b031663894ba8336040518163ffffffff1660e01b8152600401602060405180830381600087803b158015620007f357600080fd5b505af115801562000808573d6000803e3d6000fd5b505050506040513d601f19601f820116820180604052508101906200082e919062000999565b9392505050565b3390565b60405180608001604052806004906020820280368337509192915050565b6146018062000e4a83390190565b8035620008728162000e30565b92915050565b600082601f83011262000889578081fd5b813567ffffffffffffffff811115620008a0578182fd5b6020620008b1818284020162000e08565b828152925080830184820160005b84811015620008ec57620008d9888584358a0101620008f7565b83529183019190830190600101620008bf565b505050505092915050565b600082601f83011262000908578081fd5b813567ffffffffffffffff8111156200091f578182fd5b62000934601f8201601f191660200162000e08565b91508082528360208285010111156200094c57600080fd5b8060208401602084013760009082016020015292915050565b803563ffffffff811681146200087257600080fd5b6000602082840312156200098c578081fd5b81356200082e8162000e30565b600060208284031215620009ab578081fd5b815180151581146200082e578182fd5b600080600080600080600080610100898b031215620009d8578384fd5b883567ffffffffffffffff80821115620009f0578586fd5b620009fe8c838d01620008f7565b995060208b0135985060408b0135975062000a1d8c60608d0162000965565b965062000a2e8c60808d0162000965565b955062000a3f8c60a08d0162000865565b945060c08b013591508082111562000a55578384fd5b62000a638c838d01620008f7565b935060e08b013591508082111562000a79578283fd5b5062000a888b828c0162000878565b9150509295985092959890939650565b60006020828403121562000aaa578081fd5b5035919050565b6001600160a01b03169052565b60008282518085526020808601955080818302840101818601855b8481101562000b0b57601f1986840301895262000af883835162000b43565b9884019892509083019060010162000ad9565b5090979650505050505050565b8060005b600481101562000b3d57815184526020938401939091019060010162000b1c565b50505050565b60008151808452815b8181101562000b6a5760208185018101518683018201520162000b4c565b8181111562000b7c5782602083870101525b50601f01601f19169290920160200192915050565b6001600160a01b0391909116815260200190565b6020808252825182820181905260009190848201906040850190845b8181101562000be85783516001600160a01b03168352928401929184019160010162000bc1565b50909695505050505050565b901515815260200190565b6001600160a01b038b16815260006101e060208084018d845b600381101562000c405762000c2f83835162000ab1565b918301919083019060010162000c18565b5050505062000c53608084018c62000ab1565b62000c6260a084018b62000ab1565b8060c084015262000c768184018a62000b43565b62000c8560e085018a62000b18565b62000c9561016085018962000ab1565b83810361018085015262000caa818862000b43565b9150508281036101a084015262000cc2818662000abe565b91505062000cd56101c083018462000ab1565b9b9a5050505050505050505050565b60208082526014908201527314185d5cd8589b194e881b9bdd081c185d5cd95960621b604082015260600190565b60208082526026908201527f4f776e61626c653a206e6577206f776e657220697320746865207a65726f206160408201526564647265737360d01b606082015260800190565b60208082526031908201527f4d757374277665206265656e20637265617465642062792074686520636f72726040820152706573706f6e64696e6720666163746f727960781b606082015260800190565b60208082526010908201526f14185d5cd8589b194e881c185d5cd95960821b604082015260600190565b6020808252818101527f4f776e61626c653a2063616c6c6572206973206e6f7420746865206f776e6572604082015260600190565b60405181810167ffffffffffffffff8111828210171562000e2857600080fd5b604052919050565b6001600160a01b038116811462000e4657600080fd5b5056fe608060405260006006556000196019553480156200001c57600080fd5b5060405162004601380380620046018339810160408190526200003f916200076c565b6000620000546001600160e01b036200028216565b600080546001600160a01b0319166001600160a01b038316908117825560405192935091600080516020620045e1833981519152908290a3506000805461ffff60a01b1916600160a81b1790556001600160a01b0381163314620000c657620000c6816001600160e01b036200028716565b600180546001600160a01b0319166001600160a01b038c161790558860006020020151600280546001600160a01b0319166001600160a01b039092169190911790558860016020020151600380546001600160a01b03199081166001600160a01b03938416179091556004805482168b8416179055600580549091168983161790556001541663095ea7b38a60026020020151600160ff1b6040518363ffffffff1660e01b81526004016200017d929190620008b6565b602060405180830381600087803b1580156200019857600080fd5b505af1158015620001ad573d6000803e3d6000fd5b505050506040513d601f19601f82011682018060405250810190620001d391906200072a565b508551620001e990600b906020890190620004ba565b5084516007556020850151600855604085015163ffffffff166009558151600e5560005b600e5481101562000246576200023d8382815181106200022957fe5b60200260200101516200034660201b60201c565b6001016200020d565b506002426200026c8286888a60036020020151600954866001600160e01b036200041b16565b600a555062000a1f9a5050505050505050505050565b335b90565b6200029a6001600160e01b036200028216565b6000546001600160a01b03908116911614620002d35760405162461bcd60e51b8152600401620002ca906200092a565b60405180910390fd5b6001600160a01b038116620002fc5760405162461bcd60e51b8152600401620002ca90620008e4565b600080546040516001600160a01b0380851693921691600080516020620045e183398151915291a3600080546001600160a01b0319166001600160a01b0392909216919091179055565b600c805460018101825560009190915281516200038b917fdf6966c971051c3d54ec59162606531493a51404a002842f56009d7e5cf4a8c701906020840190620004ba565b506000816040516200039d906200053f565b620003a99190620008cf565b604051809103906000f080158015620003c6573d6000803e3d6000fd5b50600d80546001810182556000919091527fd7b6990105719101dabeb77144f2a3385c8033acd3af97e9423a695e81ad1eb50180546001600160a01b0319166001600160a01b03929092169190911790555050565b6004805460405163762c38fd60e01b81526000926001600160a01b039092169163762c38fd9162000459918b918b918b918b918b918b91016200095f565b602060405180830381600087803b1580156200047457600080fd5b505af115801562000489573d6000803e3d6000fd5b505050506040513d601f19601f82011682018060405250810190620004af919062000753565b979650505050505050565b828054600181600116156101000203166002900490600052602060002090601f016020900481019282601f10620004fd57805160ff19168380011785556200052d565b828001600101855582156200052d579182015b828111156200052d57825182559160200191906001019062000510565b506200053b9291506200054d565b5090565b6113b2806200322f83390190565b6200028491905b808211156200053b576000815560010162000554565b8051620005778162000a06565b92915050565b600082601f8301126200058e578081fd5b6200059a6060620009ac565b9050808284606085011115620005af57600080fd5b60005b6003811015620005df578151620005c98162000a06565b83526020928301929190910190600101620005b2565b50505092915050565b600082601f830112620005f9578081fd5b81516001600160401b038111156200060f578182fd5b6020620006208182840201620009ac565b828152925080830184820160005b848110156200065b5762000648888584518a0101620006bc565b835291830191908301906001016200062e565b505050505092915050565b600082601f83011262000677578081fd5b620006836080620009ac565b90508082846080850111156200069857600080fd5b60005b6004811015620005df5781518352602092830192909101906001016200069b565b600082601f830112620006cd578081fd5b81516001600160401b03811115620006e3578182fd5b620006f8601f8201601f1916602001620009ac565b91508082528360208285010111156200071057600080fd5b62000723816020840160208601620009d3565b5092915050565b6000602082840312156200073c578081fd5b815180151581146200074c578182fd5b9392505050565b60006020828403121562000765578081fd5b5051919050565b6000806000806000806000806000806101e08b8d0312156200078c578586fd5b620007988c8c6200056a565b9950620007a98c60208d016200057d565b9850620007ba8c60808d016200056a565b9750620007cb8c60a08d016200056a565b60c08c01519097506001600160401b0380821115620007e8578788fd5b620007f68e838f01620006bc565b9750620008078e60e08f0162000666565b9650620008198e6101608f016200056a565b95506101808d015191508082111562000830578485fd5b6200083e8e838f01620006bc565b94506101a08d015191508082111562000855578384fd5b50620008648d828e01620005e8565b925050620008778c6101c08d016200056a565b90509295989b9194979a5092959850565b60008151808452620008a2816020860160208601620009d3565b601f01601f19169290920160200192915050565b6001600160a01b03929092168252602082015260400190565b6000602082526200074c602083018462000888565b60208082526026908201527f4f776e61626c653a206e6577206f776e657220697320746865207a65726f206160408201526564647265737360d01b606082015260800190565b6020808252818101527f4f776e61626c653a2063616c6c6572206973206e6f7420746865206f776e6572604082015260600190565b600087825260c060208301526200097a60c083018862000888565b6001600160a01b039690961660408301525063ffffffff938416606082015291909216608082015260a0015292915050565b6040518181016001600160401b0381118282101715620009cb57600080fd5b604052919050565b60005b83811015620009f0578181015183820152602001620009d6565b8381111562000a00576000848401525b50505050565b6001600160a01b038116811462000a1c57600080fd5b50565b6128008062000a2f6000396000f3fe6080604052600436106102b25760003560e01c80638da5cb5b11610175578063c56f338c116100dc578063e8f033c911610095578063f1f9c33e1161006f578063f1f9c33e1461078d578063f2fde38b146107a2578063f4b9fa75146107c2578063fd27b51e146107d7576102b9565b8063e8f033c914610736578063e9d337b814610756578063ee8c24b81461076b576102b9565b8063c56f338c1461068a578063cb704955146106aa578063d844ab5f146106cc578063e14dedfd146106ec578063e54f4fe314610701578063e5df8b8414610716576102b9565b8063a0c1f15e1161012e578063a0c1f15e146105f6578063ada8b83d1461060b578063b06a5c521461062b578063bc8802a214610640578063befa1e2f14610655578063c4d8dc581461066a576102b9565b80638da5cb5b14610562578063906d624114610577578063991d4f5d146105975780639b34ae03146105b75780639d7c7d39146105cc578063a055ccc5146105e1576102b9565b80634b8755ca11610219578063715018a6116101d2578063715018a6146104d9578063735de9f7146104ee5780638043c9c014610503578063807535cc146105185780638263302814610538578063894ba8331461054d576102b9565b80634b8755ca1461042b5780634ecc79f714610440578063519709c414610455578063561a5aca146104755780635aa68ac0146104a25780635c975abb146104c4576102b9565b806335c1d3491161026b57806335c1d3491461037d578063367edd32146103aa578063378aa701146103cc5780633ccfd60b146103ee57806349200d77146104035780634afe62b514610418576102b9565b806305801f0b146102bb5780630b60365c146102f1578063149b5d5814610306578063232ea3ad1461032657806327acae741461033b57806333b16d9314610368576102b9565b366102b957005b005b3480156102c757600080fd5b506102db6102d636600461221f565b6107ec565b6040516102e8919061245f565b60405180910390f35b3480156102fd57600080fd5b506102db6107fe565b34801561031257600080fd5b506102db61032136600461221f565b6108bb565b34801561033257600080fd5b506102db61095e565b34801561034757600080fd5b5061035b61035636600461221f565b610964565b6040516102e8919061247c565b34801561037457600080fd5b506102b9610a0a565b34801561038957600080fd5b5061039d61039836600461221f565b610a6e565b6040516102e891906122e6565b3480156103b657600080fd5b506103bf610a95565b6040516102e89190612454565b3480156103d857600080fd5b506103e1610afd565b6040516102e89190612468565b3480156103fa57600080fd5b506102b9610b6b565b34801561040f57600080fd5b506102db610cb4565b6102b9610426366004612237565b610cba565b34801561043757600080fd5b506102db610d39565b34801561044c57600080fd5b506102db610d3f565b34801561046157600080fd5b506102db61047036600461221f565b610d45565b34801561048157600080fd5b5061049561049036600461221f565b610d57565b6040516102e8919061241c565b3480156104ae57600080fd5b506104b7610de9565b6040516102e8919061235c565b3480156104d057600080fd5b506103bf610e4b565b3480156104e557600080fd5b506102b9610e5b565b3480156104fa57600080fd5b5061039d610eda565b34801561050f57600080fd5b5061035b610ee9565b34801561052457600080fd5b5061049561053336600461221f565b610f44565b34801561054457600080fd5b506102db610fa6565b34801561055957600080fd5b506103bf610fac565b34801561056e57600080fd5b5061039d611015565b34801561058357600080fd5b506103bf6105923660046120ad565b611024565b3480156105a357600080fd5b506102b96105b23660046121b5565b611039565b3480156105c357600080fd5b506102db61107a565b3480156105d857600080fd5b506102db611080565b3480156105ed57600080fd5b506102db6110a3565b34801561060257600080fd5b5061039d6110d9565b34801561061757600080fd5b5061049561062636600461221f565b6110e8565b34801561063757600080fd5b506102db611126565b34801561064c57600080fd5b5061039d61112c565b34801561066157600080fd5b506102db61113b565b34801561067657600080fd5b506102db61068536600461221f565b611141565b34801561069657600080fd5b506102db6106a536600461221f565b611152565b3480156106b657600080fd5b506106bf611164565b6040516102e891906123bc565b3480156106d857600080fd5b506102db6106e73660046120ad565b61123c565b3480156106f857600080fd5b506102db61124e565b34801561070d57600080fd5b506102db611254565b34801561072257600080fd5b5061039d61073136600461221f565b61125a565b34801561074257600080fd5b5061049561075136600461221f565b611267565b34801561076257600080fd5b5061039d6112c7565b34801561077757600080fd5b506107806112d6565b6040516102e8919061236f565b34801561079957600080fd5b506102db611336565b3480156107ae57600080fd5b506102b96107bd3660046120ad565b61133d565b3480156107ce57600080fd5b5061039d6113f3565b3480156107e357600080fd5b506102db611402565b60116020526000908152604090205481565b60008061081860165460155461140890919063ffffffff16565b6002546040516370a0823160e01b81529192506000916001600160a01b03909116906370a082319061084e9030906004016122e6565b60206040518083038186803b15801561086657600080fd5b505afa15801561087a573d6000803e3d6000fd5b505050506040513d601f19601f8201168201806040525081019061089e919061219d565b905060006108b2828463ffffffff61140816565b93505050505b90565b600080600d83815481106108cb57fe5b6000918252602090912001546040516370a0823160e01b81526001600160a01b03909116915081906370a08231906109079033906004016122e6565b60206040518083038186803b15801561091f57600080fd5b505afa158015610933573d6000803e3d6000fd5b505050506040513d601f19601f82011682018060405250810190610957919061219d565b9392505050565b60095481565b600c818154811061097157fe5b600091825260209182902001805460408051601f6002600019610100600187161502019094169390930492830185900485028101850190915281815293509091830182828015610a025780601f106109d757610100808354040283529160200191610a02565b820191906000526020600020905b8154815290600101906020018083116109e557829003601f168201915b505050505081565b600054600160a01b900460ff1615610a3d5760405162461bcd60e51b8152600401610a349061259f565b60405180910390fd5b610a4561144a565b610a615760405162461bcd60e51b8152600401610a349061253a565b610a696114cf565b601955565b60178181548110610a7b57fe5b6000918252602090912001546001600160a01b0316905081565b6000610a9f611558565b6000546001600160a01b03908116911614610acc5760405162461bcd60e51b8152600401610a3490612635565b600054600160a01b900460ff16610af55760405162461bcd60e51b8152600401610a349061248f565b6108b861155c565b6000600754421015610b11575060006108b8565b6007544210158015610b24575060085442105b15610b31575060016108b8565b600019601954148015610b585750600954610b55906224ea0063ffffffff6115d216565b42105b15610b65575060026108b8565b50600390565b600380610b76610afd565b6003811115610b8157fe5b14610b9e5760405162461bcd60e51b8152600401610a349061266a565b600054600160a01b900460ff1615610bc85760405162461bcd60e51b8152600401610a349061259f565b600054600160a81b900460ff16610bf15760405162461bcd60e51b8152600401610a34906126de565b6000805460ff60a81b191681553381526018602052604090205460ff1615610c2b5760405162461bcd60e51b8152600401610a34906125c9565b336000908152601860205260409020805460ff19166001179055600654610c5857610c546107fe565b6006555b60001960195414158015610c7c575060195460009081526011602052604090205415155b15610c8e57610c896115f7565b610c96565b610c96611648565b610c9e611652565b506000805460ff60a81b1916600160a81b179055565b600e5481565b600180610cc5610afd565b6003811115610cd057fe5b14610ced5760405162461bcd60e51b8152600401610a349061266a565b600054600160a01b900460ff1615610d175760405162461bcd60e51b8152600401610a349061259f565b610d2183836117e3565b610d2b3383611a2f565b610d3482611ae5565b505050565b60085481565b60075481565b60146020526000908152604090205481565b606080610d62611b53565b60055460405163d06ca61f60e01b81529192506001600160a01b03169063d06ca61f90610d959086908590600401612715565b60006040518083038186803b158015610dad57600080fd5b505afa158015610dc1573d6000803e3d6000fd5b505050506040513d6000823e601f3d908101601f1916820160405261095791908101906120e5565b60606017805480602002602001604051908101604052809291908181526020018280548015610e4157602002820191906000526020600020905b81546001600160a01b03168152600190910190602001808311610e23575b5050505050905090565b600054600160a01b900460ff1690565b610e63611558565b6000546001600160a01b03908116911614610e905760405162461bcd60e51b8152600401610a3490612635565b600080546040516001600160a01b03909116907f8be0079c531659141344cd1fd0a4f28419497f9722a3daafe3b4186f6b6457e0908390a3600080546001600160a01b0319169055565b6005546001600160a01b031681565b600b805460408051602060026001851615610100026000190190941693909304601f81018490048402820184019092528181529291830182828015610a025780601f106109d757610100808354040283529160200191610a02565b6000818152600f6020908152604091829020805483518184028101840190945280845260609392830182828015610f9a57602002820191906000526020600020905b815481526020019060010190808311610f86575b50505050509050919050565b60065481565b6000610fb6611558565b6000546001600160a01b03908116911614610fe35760405162461bcd60e51b8152600401610a3490612635565b600054600160a01b900460ff161561100d5760405162461bcd60e51b8152600401610a349061259f565b6108b8611c47565b6000546001600160a01b031690565b60186020526000908152604090205460ff1681565b611041611558565b6000546001600160a01b0390811691161461106e5760405162461bcd60e51b8152600401610a3490612635565b610d34600b8383612015565b60195481565b6006546000901561109457506006546108b8565b61109c6107fe565b90506108b8565b60006110d46110bf60165460155461140890919063ffffffff16565b33600090815260126020526040902054611cad565b905090565b6002546001600160a01b031681565b6060806110f3611b53565b6005546040516307c0329d60e21b81529192506001600160a01b031690631f00ca7490610d959086908590600401612715565b600a5481565b6004546001600160a01b031681565b60155481565b600061114c82611ceb565b92915050565b60136020526000908152604090205481565b6060600c805480602002602001604051908101604052809291908181526020016000905b828210156112335760008481526020908190208301805460408051601f600260001961010060018716150201909416939093049283018590048502810185019091528181529283018282801561121f5780601f106111f45761010080835404028352916020019161121f565b820191906000526020600020905b81548152906001019060200180831161120257829003601f168201915b505050505081526020019060010190611188565b50505050905090565b60126020526000908152604090205481565b60165481565b60001981565b600d8181548110610a7b57fe5b600081815260106020908152604091829020805483518184028101840190945280845260609392830182828015610f9a5760200282019190600052602060002090815481526020019060010190808311610f865750505050509050919050565b6003546001600160a01b031681565b6060600d805480602002602001604051908101604052809291908181526020018280548015610e41576020028201919060005260206000209081546001600160a01b03168152600190910190602001808311610e23575050505050905090565b6224ea0081565b611345611558565b6000546001600160a01b039081169116146113725760405162461bcd60e51b8152600401610a3490612635565b6001600160a01b0381166113985760405162461bcd60e51b8152600401610a34906124bd565b600080546040516001600160a01b03808516939216917f8be0079c531659141344cd1fd0a4f28419497f9722a3daafe3b4186f6b6457e091a3600080546001600160a01b0319166001600160a01b0392909216919091179055565b6001546001600160a01b031681565b60175490565b600061095783836040518060400160405280601e81526020017f536166654d6174683a207375627472616374696f6e206f766572666c6f770000815250611dc0565b60048054600a54604051633fc6a14f60e11b81526000936001600160a01b0390931692637f8d429e9261147f9290910161245f565b60206040518083038186803b15801561149757600080fd5b505afa1580156114ab573d6000803e3d6000fd5b505050506040513d601f19601f820116820180604052508101906110d4919061217d565b60048054600a5460405163684e62bf60e11b815260009384936001600160a01b03169263d09cc57e92611502920161245f565b60206040518083038186803b15801561151a57600080fd5b505afa15801561152e573d6000803e3d6000fd5b505050506040513d601f19601f82011682018060405250810190611552919061219d565b91505090565b3390565b600054600160a01b900460ff166115855760405162461bcd60e51b8152600401610a349061248f565b6000805460ff60a01b191690557f5db9ee0a495bf2e6ff9c91a7834c1ba4fdd244a5e8aa4e537bd38aeae4b073aa6115bb611558565b6040516115c891906122e6565b60405180910390a1565b6000828201838110156109575760405162461bcd60e51b8152600401610a3490612503565b6000611604601954611ceb565b336000908152601260205260408120549192509061162990839063ffffffff6115d216565b905080156116445761163a81611dec565b6116443382611e1c565b5050565b60006116046110a3565b6000805b600e548110156117b1576000600d828154811061166f57fe5b60009182526020822001546040516370a0823160e01b81526001600160a01b03909116925082906370a08231906116aa9033906004016122e6565b60206040518083038186803b1580156116c257600080fd5b505afa1580156116d6573d6000803e3d6000fd5b505050506040513d601f19601f820116820180604052508101906116fa919061219d565b905080156117a757611712848263ffffffff6115d216565b600084815260136020526040902054909450611734908263ffffffff6115d216565b600084815260136020526040908190209190915551632770a7eb60e21b81526001600160a01b03831690639dc29fac9061177490339085906004016122fa565b600060405180830381600087803b15801561178e57600080fd5b505af11580156117a2573d6000803e3d6000fd5b505050505b5050600101611656565b503360009081526012602052604090205481146117ca57fe5b6016546117dd908263ffffffff6115d216565b60165550565b6000828152600f60209081526040808320805460018181018355918552838520018590558584526010835290832080549182018155835290822042910155600d80548490811061182f57fe5b6000918252602090912001546040516370a0823160e01b81526001600160a01b03909116915081906370a082319061186b9033906004016122e6565b60206040518083038186803b15801561188357600080fd5b505afa158015611897573d6000803e3d6000fd5b505050506040513d601f19601f820116820180604052508101906118bb919061219d565b61192b576017805460018181019092557fc624b66cc0138b8fabc209247f72d758e1cf3343756d543badbf24212bed8c150180546001600160a01b0319163317905560008481526014602052604090205461191b9163ffffffff6115d216565b6000848152601460205260409020555b60405133907fef3b3ae531a4f494c95e537ec1fe385cfe5c1146cb4c1d850b24bad38595804990600090a26040516340c10f1960e01b81526001600160a01b038216906340c10f199061198490339086906004016122fa565b600060405180830381600087803b15801561199e57600080fd5b505af11580156119b2573d6000803e3d6000fd5b50506015546119ca925090508363ffffffff6115d216565b6015556000838152601160205260409020546119ec908363ffffffff6115d216565b600084815260116020908152604080832093909355338252601290522054611a1a908363ffffffff6115d216565b33600090815260126020526040902055505050565b3415611a4357611a3e81611e4e565b611644565b6001546040516323b872dd60e01b81526001600160a01b03909116906323b872dd90611a7790859030908690600401612313565b602060405180830381600087803b158015611a9157600080fd5b505af1158015611aa5573d6000803e3d6000fd5b505050506040513d601f19601f82011682018060405250810190611ac9919061217d565b6116445760405162461bcd60e51b8152600401610a34906126b0565b600354600154604051636968703360e11b81526001600160a01b039283169263d2d0e06692611b1e929116908590600090600401612337565b600060405180830381600087803b158015611b3857600080fd5b505af1158015611b4c573d6000803e3d6000fd5b5050505050565b6040805160028082526060808301845292839291906020830190803683375050600554604080516315ab88c960e31b815290519394506001600160a01b039091169263ad5c464892506004808301926020929190829003018186803b158015611bbb57600080fd5b505afa158015611bcf573d6000803e3d6000fd5b505050506040513d601f19601f82011682018060405250810190611bf391906120c9565b81600081518110611c0057fe5b6001600160a01b0392831660209182029290920101526001805483519216918391908110611c2a57fe5b6001600160a01b0390921660209283029190910190910152905090565b600054600160a01b900460ff1615611c715760405162461bcd60e51b8152600401610a349061259f565b6000805460ff60a01b1916600160a01b1790557f62e78cea01bee320cd4e420270b5ea74000d11b0c9f74754ebdbfc544b05a2586115bb611558565b6000808315610957576000611cc06107fe565b9050611ce285611cd6838763ffffffff611f6716565b9063ffffffff611fa116565b95945050505050565b600080600d8381548110611cfb57fe5b60009182526020822001546040516370a0823160e01b81526001600160a01b03909116925082906370a0823190611d369033906004016122e6565b60206040518083038186803b158015611d4e57600080fd5b505afa158015611d62573d6000803e3d6000fd5b505050506040513d601f19601f82011682018060405250810190611d86919061219d565b60008581526013602090815260408083205460119092528220549293509091611db49163ffffffff61140816565b9050611ce28183611cad565b60008184841115611de45760405162461bcd60e51b8152600401610a34919061247c565b505050900390565b60025460405163db006a7560e01b81526001600160a01b039091169063db006a7590611b1e90849060040161245f565b60015460405163a9059cbb60e01b81526001600160a01b039091169063a9059cbb90611a7790859085906004016122fa565b6060611e58611b53565b60055460405163fb3bdb4160e01b81529192506001600160a01b03169063fb3bdb41903490611e9490869086903090600f420190600401612736565b6000604051808303818588803b158015611ead57600080fd5b505af1158015611ec1573d6000803e3d6000fd5b50505050506040513d6000823e601f3d908101601f19168201604052611eea91908101906120e5565b506000336001600160a01b031647604051611f04906108b8565b60006040518083038185875af1925050503d8060008114611f41576040519150601f19603f3d011682016040523d82523d6000602084013e611f46565b606091505b5050905080610d345760405162461bcd60e51b8152600401610a3490612571565b600082611f765750600061114c565b82820282848281611f8357fe5b04146109575760405162461bcd60e51b8152600401610a34906125f4565b600061095783836040518060400160405280601a81526020017f536166654d6174683a206469766973696f6e206279207a65726f00000000000081525060008183611fff5760405162461bcd60e51b8152600401610a34919061247c565b50600083858161200b57fe5b0495945050505050565b828054600181600116156101000203166002900490600052602060002090601f016020900481019282601f106120565782800160ff19823516178555612083565b82800160010185558215612083579182015b82811115612083578235825591602001919060010190612068565b5061208f929150612093565b5090565b6108b891905b8082111561208f5760008155600101612099565b6000602082840312156120be578081fd5b8135610957816127b2565b6000602082840312156120da578081fd5b8151610957816127b2565b600060208083850312156120f7578182fd5b825167ffffffffffffffff81111561210d578283fd5b80840185601f82011261211e578384fd5b8051915061213361212e83612792565b61276b565b828152838101908285018585028401860189101561214f578687fd5b8693505b84841015612171578051835260019390930192918501918501612153565b50979650505050505050565b60006020828403121561218e578081fd5b81518015158114610957578182fd5b6000602082840312156121ae578081fd5b5051919050565b600080602083850312156121c7578081fd5b823567ffffffffffffffff808211156121de578283fd5b81850186601f8201126121ef578384fd5b80359250818311156121ff578384fd5b866020848301011115612210578384fd5b60200196919550909350505050565b600060208284031215612230578081fd5b5035919050565b60008060408385031215612249578182fd5b50508035926020909101359150565b6000815180845260208085019450808401835b838110156122905781516001600160a01b03168752958201959082019060010161226b565b509495945050505050565b60008151808452815b818110156122c0576020818501810151868301820152016122a4565b818111156122d15782602083870101525b50601f01601f19169290920160200192915050565b6001600160a01b0391909116815260200190565b6001600160a01b03929092168252602082015260400190565b6001600160a01b039384168152919092166020820152604081019190915260600190565b6001600160a01b03939093168352602083019190915261ffff16604082015260600190565b6000602082526109576020830184612258565b6020808252825182820181905260009190848201906040850190845b818110156123b05783516001600160a01b03168352928401929184019160010161238b565b50909695505050505050565b6000602080830181845280855180835260408601915060408482028701019250838701855b8281101561240f57603f198886030184526123fd85835161229b565b945092850192908501906001016123e1565b5092979650505050505050565b6020808252825182820181905260009190848201906040850190845b818110156123b057835183529284019291840191600101612438565b901515815260200190565b90815260200190565b602081016004831061247657fe5b91905290565b600060208252610957602083018461229b565b60208082526014908201527314185d5cd8589b194e881b9bdd081c185d5cd95960621b604082015260600190565b60208082526026908201527f4f776e61626c653a206e6577206f776e657220697320746865207a65726f206160408201526564647265737360d01b606082015260800190565b6020808252601b908201527f536166654d6174683a206164646974696f6e206f766572666c6f770000000000604082015260600190565b60208082526018908201527f4f7261636c6520686173206e6f742066696e616c697365640000000000000000604082015260600190565b6020808252601490820152731499599d5b99081bd9881155120819985a5b195960621b604082015260600190565b60208082526010908201526f14185d5cd8589b194e881c185d5cd95960821b604082015260600190565b60208082526011908201527020b63932b0b23c903bb4ba34323930bbb760791b604082015260600190565b60208082526021908201527f536166654d6174683a206d756c7469706c69636174696f6e206f766572666c6f6040820152607760f81b606082015260800190565b6020808252818101527f4f776e61626c653a2063616c6c6572206973206e6f7420746865206f776e6572604082015260600190565b60208082526026908201527f66756e6374696f6e2063616e6e6f742062652063616c6c656420617420746869604082015265732074696d6560d01b606082015260800190565b60208082526014908201527310d85cda081d1c985b9cd9995c8819985a5b195960621b604082015260600190565b6020808252601f908201527f5265656e7472616e637947756172643a207265656e7472616e742063616c6c00604082015260600190565b60008382526040602083015261272e6040830184612258565b949350505050565b60008582526080602083015261274f6080830186612258565b6001600160a01b03949094166040830152506060015292915050565b60405181810167ffffffffffffffff8111828210171561278a57600080fd5b604052919050565b600067ffffffffffffffff8211156127a8578081fd5b5060209081020190565b6001600160a01b03811681146127c757600080fd5b5056fea26469706673582212203a81dc7762fb3c584d48d8eada7a8199959f60241f384f35437eb57e027d13ff64736f6c634300060a003360806040523480156200001157600080fd5b50604051620013b2380380620013b2833981810160405260208110156200003757600080fd5b81019080805160405193929190846401000000008211156200005857600080fd5b9083019060208201858111156200006e57600080fd5b82516401000000008111828201881017156200008957600080fd5b82525081516020918201929091019080838360005b83811015620000b85781810151838201526020016200009e565b50505050905090810190601f168015620000e65780820380516001836020036101000a031916815260200191505b5060408181019052600281526126a160f11b60208083019190915285518695509193506200011c925060039190850190620001b9565b50805162000132906004906020840190620001b9565b50506005805460ff19166012179055506000620001576001600160e01b03620001b416565b60058054610100600160a81b0319166101006001600160a01b03841690810291909117909155604051919250906000907f8be0079c531659141344cd1fd0a4f28419497f9722a3daafe3b4186f6b6457e0908290a350506200025b565b335b90565b828054600181600116156101000203166002900490600052602060002090601f016020900481019282601f10620001fc57805160ff19168380011785556200022c565b828001600101855582156200022c579182015b828111156200022c5782518255916020019190600101906200020f565b506200023a9291506200023e565b5090565b620001b691905b808211156200023a576000815560010162000245565b611147806200026b6000396000f3fe6080604052600436106100f75760003560e01c8063715018a61161008a578063a457c2d711610059578063a457c2d7146103a5578063a9059cbb146103de578063dd62ed3e14610417578063f2fde38b14610452576100fe565b8063715018a6146103115780638da5cb5b1461032657806395d89b41146103575780639dc29fac1461036c576100fe565b8063313ce567116100c6578063313ce56714610241578063395093511461026c57806340c10f19146102a557806370a08231146102de576100fe565b806306fdde0314610100578063095ea7b31461018a57806318160ddd146101d757806323b872dd146101fe576100fe565b366100fe57005b005b34801561010c57600080fd5b50610115610485565b6040805160208082528351818301528351919283929083019185019080838360005b8381101561014f578181015183820152602001610137565b50505050905090810190601f16801561017c5780820380516001836020036101000a031916815260200191505b509250505060405180910390f35b34801561019657600080fd5b506101c3600480360360408110156101ad57600080fd5b506001600160a01b03813516906020013561051b565b604080519115158252519081900360200190f35b3480156101e357600080fd5b506101ec610538565b60408051918252519081900360200190f35b34801561020a57600080fd5b506101c36004803603606081101561022157600080fd5b506001600160a01b0381358116916020810135909116906040013561053e565b34801561024d57600080fd5b506102566105cb565b6040805160ff9092168252519081900360200190f35b34801561027857600080fd5b506101c36004803603604081101561028f57600080fd5b506001600160a01b0381351690602001356105d4565b3480156102b157600080fd5b506100fe600480360360408110156102c857600080fd5b506001600160a01b038135169060200135610628565b3480156102ea57600080fd5b506101ec6004803603602081101561030157600080fd5b50356001600160a01b0316610693565b34801561031d57600080fd5b506100fe6106ae565b34801561033257600080fd5b5061033b61075b565b604080516001600160a01b039092168252519081900360200190f35b34801561036357600080fd5b5061011561076f565b34801561037857600080fd5b506100fe6004803603604081101561038f57600080fd5b506001600160a01b0381351690602001356107d0565b3480156103b157600080fd5b506101c3600480360360408110156103c857600080fd5b506001600160a01b038135169060200135610837565b3480156103ea57600080fd5b506101c36004803603604081101561040157600080fd5b506001600160a01b0381351690602001356108a5565b34801561042357600080fd5b506101ec6004803603604081101561043a57600080fd5b506001600160a01b03813581169160200135166108b9565b34801561045e57600080fd5b506100fe6004803603602081101561047557600080fd5b50356001600160a01b03166108e4565b60038054604080516020601f60026000196101006001881615020190951694909404938401819004810282018101909252828152606093909290918301828280156105115780601f106104e657610100808354040283529160200191610511565b820191906000526020600020905b8154815290600101906020018083116104f457829003601f168201915b5050505050905090565b600061052f6105286109ed565b84846109f1565b50600192915050565b60025490565b600061054b848484610add565b6105c1846105576109ed565b6105bc8560405180606001604052806028815260200161103b602891396001600160a01b038a166000908152600160205260408120906105956109ed565b6001600160a01b03168152602081019190915260400160002054919063ffffffff610c4416565b6109f1565b5060019392505050565b60055460ff1690565b600061052f6105e16109ed565b846105bc85600160006105f26109ed565b6001600160a01b03908116825260208083019390935260409182016000908120918c16815292529020549063ffffffff610cdb16565b6106306109ed565b60055461010090046001600160a01b03908116911614610685576040805162461bcd60e51b81526020600482018190526024820152600080516020611063833981519152604482015290519081900360640190fd5b61068f8282610d3c565b5050565b6001600160a01b031660009081526020819052604090205490565b6106b66109ed565b60055461010090046001600160a01b0390811691161461070b576040805162461bcd60e51b81526020600482018190526024820152600080516020611063833981519152604482015290519081900360640190fd5b60055460405160009161010090046001600160a01b0316907f8be0079c531659141344cd1fd0a4f28419497f9722a3daafe3b4186f6b6457e0908390a360058054610100600160a81b0319169055565b60055461010090046001600160a01b031690565b60048054604080516020601f60026000196101006001881615020190951694909404938401819004810282018101909252828152606093909290918301828280156105115780601f106104e657610100808354040283529160200191610511565b6107d86109ed565b60055461010090046001600160a01b0390811691161461082d576040805162461bcd60e51b81526020600482018190526024820152600080516020611063833981519152604482015290519081900360640190fd5b61068f8282610e38565b600061052f6108446109ed565b846105bc856040518060600160405280602581526020016110ed602591396001600061086e6109ed565b6001600160a01b03908116825260208083019390935260409182016000908120918d1681529252902054919063ffffffff610c4416565b600061052f6108b26109ed565b8484610add565b6001600160a01b03918216600090815260016020908152604080832093909416825291909152205490565b6108ec6109ed565b60055461010090046001600160a01b03908116911614610941576040805162461bcd60e51b81526020600482018190526024820152600080516020611063833981519152604482015290519081900360640190fd5b6001600160a01b0381166109865760405162461bcd60e51b8152600401808060200182810382526026815260200180610fcd6026913960400191505060405180910390fd5b6005546040516001600160a01b0380841692610100900416907f8be0079c531659141344cd1fd0a4f28419497f9722a3daafe3b4186f6b6457e090600090a3600580546001600160a01b0390921661010002610100600160a81b0319909216919091179055565b3390565b6001600160a01b038316610a365760405162461bcd60e51b81526004018080602001828103825260248152602001806110c96024913960400191505060405180910390fd5b6001600160a01b038216610a7b5760405162461bcd60e51b8152600401808060200182810382526022815260200180610ff36022913960400191505060405180910390fd5b6001600160a01b03808416600081815260016020908152604080832094871680845294825291829020859055815185815291517f8c5be1e5ebec7d5bd14f71427d1e84f3dd0314c0f7b2291e5b200ac8c7c3b9259281900390910190a3505050565b6001600160a01b038316610b225760405162461bcd60e51b81526004018080602001828103825260258152602001806110a46025913960400191505060405180910390fd5b6001600160a01b038216610b675760405162461bcd60e51b8152600401808060200182810382526023815260200180610f886023913960400191505060405180910390fd5b610b72838383610f40565b610bb581604051806060016040528060268152602001611015602691396001600160a01b038616600090815260208190526040902054919063ffffffff610c4416565b6001600160a01b038085166000908152602081905260408082209390935590841681522054610bea908263ffffffff610cdb16565b6001600160a01b038084166000818152602081815260409182902094909455805185815290519193928716927fddf252ad1be2c89b69c2b068fc378daa952ba7f163c4a11628f55a4df523b3ef92918290030190a3505050565b60008184841115610cd35760405162461bcd60e51b81526004018080602001828103825283818151815260200191508051906020019080838360005b83811015610c98578181015183820152602001610c80565b50505050905090810190601f168015610cc55780820380516001836020036101000a031916815260200191505b509250505060405180910390fd5b505050900390565b600082820183811015610d35576040805162461bcd60e51b815260206004820152601b60248201527f536166654d6174683a206164646974696f6e206f766572666c6f770000000000604482015290519081900360640190fd5b9392505050565b6001600160a01b038216610d97576040805162461bcd60e51b815260206004820152601f60248201527f45524332303a206d696e7420746f20746865207a65726f206164647265737300604482015290519081900360640190fd5b610da360008383610f40565b600254610db6908263ffffffff610cdb16565b6002556001600160a01b038216600090815260208190526040902054610de2908263ffffffff610cdb16565b6001600160a01b0383166000818152602081815260408083209490945583518581529351929391927fddf252ad1be2c89b69c2b068fc378daa952ba7f163c4a11628f55a4df523b3ef9281900390910190a35050565b6001600160a01b038216610e7d5760405162461bcd60e51b81526004018080602001828103825260218152602001806110836021913960400191505060405180910390fd5b610e8982600083610f40565b610ecc81604051806060016040528060228152602001610fab602291396001600160a01b038516600090815260208190526040902054919063ffffffff610c4416565b6001600160a01b038316600090815260208190526040902055600254610ef8908263ffffffff610f4516565b6002556040805182815290516000916001600160a01b038516917fddf252ad1be2c89b69c2b068fc378daa952ba7f163c4a11628f55a4df523b3ef9181900360200190a35050565b505050565b6000610d3583836040518060400160405280601e81526020017f536166654d6174683a207375627472616374696f6e206f766572666c6f770000815250610c4456fe45524332303a207472616e7366657220746f20746865207a65726f206164647265737345524332303a206275726e20616d6f756e7420657863656564732062616c616e63654f776e61626c653a206e6577206f776e657220697320746865207a65726f206164647265737345524332303a20617070726f766520746f20746865207a65726f206164647265737345524332303a207472616e7366657220616d6f756e7420657863656564732062616c616e636545524332303a207472616e7366657220616d6f756e74206578636565647320616c6c6f77616e63654f776e61626c653a2063616c6c6572206973206e6f7420746865206f776e657245524332303a206275726e2066726f6d20746865207a65726f206164647265737345524332303a207472616e736665722066726f6d20746865207a65726f206164647265737345524332303a20617070726f76652066726f6d20746865207a65726f206164647265737345524332303a2064656372656173656420616c6c6f77616e63652062656c6f77207a65726fa2646970667358221220100877faccfafc199e33e5d71d01fdae3551e8d18c62ad9138fc9bcfb19ba08b64736f6c634300060a00338be0079c531659141344cd1fd0a4f28419497f9722a3daafe3b4186f6b6457e0a26469706673582212204d19795e091122918199572e2625f71b3cda5ebb992bf9cab5645f2a7a8ba48764736f6c634300060a0033",
  "immutableReferences": {},
  "source": "//SPDX-License-Identifier: UNLICENSED\npragma solidity ^0.6.0;\npragma experimental ABIEncoderV2;\n\nimport '@openzeppelin/contracts/access/Ownable.sol';\nimport '@openzeppelin/contracts/utils/Pausable.sol';\nimport './MBMarket.sol';\nimport './interfaces/IAave.sol';\nimport './interfaces/IDai.sol';\nimport './interfaces/IRealitio.sol';\nimport './interfaces/IUniswapV2Router01.sol';\n\n/// @title The MagicBet factory\n/// @notice This contract allows for generating new market instances\ncontract MBMarketFactory is Ownable, Pausable {\n    Dai public dai;\n    IaToken public aToken;\n    IAaveLendingPool public aaveLendingPool;\n    IAaveLendingPoolCore public aaveLendingPoolCore;\n    IRealitio public realitio;\n    IUniswapV2Router01 public uniswapRouter;\n\n    mapping(address => bool) public mappingOfMarkets;\n    address[] public marketAddresses;\n    address public mostRecentMarket;\n\n    event MarketCreated(address contractAddress);\n\n    modifier createdByThisFactory(address marketAddress) {\n        require(mappingOfMarkets[marketAddress], \"Must've been created by the corresponding factory\");\n        _;\n    }\n\n    constructor(\n        Dai _daiAddress,\n        IaToken _aTokenAddress,\n        IAaveLendingPool _aaveLpAddress,\n        IAaveLendingPoolCore _aaveLpcoreAddress,\n        IRealitio _realitioAddress,\n        IUniswapV2Router01 _uniswapRouter\n    ) public {\n        dai = _daiAddress;\n        aToken = _aTokenAddress;\n        aaveLendingPool = _aaveLpAddress;\n        aaveLendingPoolCore = _aaveLpcoreAddress;\n        realitio = _realitioAddress;\n        uniswapRouter = _uniswapRouter;\n    }\n\n    /// @notice This contract is the framework of each new market\n    /// @dev Currently, only owners can generate the markets\n    /// @param _eventName The event name\n    /// @param _marketOpeningTime When the market opens\n    /// @param _marketLockingTime When the market locks\n    /// @param _marketResolutionTime When the market is set to resolve\n    /// @param _timeout The timeout period\n    /// @param _arbitrator The arbitrator address\n    /// @param _realitioQuestion The question, formatted to suit how realitio required\n    /// @param _outcomeNamesArray The outcomes of this event\n    function createMarket(\n        string memory _eventName,\n        uint256 _marketOpeningTime,\n        uint256 _marketLockingTime,\n        uint32 _marketResolutionTime,\n        uint32 _timeout,\n        address _arbitrator,\n        string memory _realitioQuestion,\n        string[] memory _outcomeNamesArray\n    ) public virtual onlyOwner whenNotPaused returns (MBMarket) {\n        uint256[4] memory marketTimes = [_marketOpeningTime, _marketLockingTime, _marketResolutionTime, _timeout];\n        MBMarket newContract = new MBMarket({\n            _daiAddress: dai,\n            _aaveAddresses: [address(aToken), address(aaveLendingPool), address(aaveLendingPoolCore)],\n            _realitioAddress: realitio,\n            _uniswapRouter: uniswapRouter,\n            _eventName: _eventName,\n            _marketTimes: marketTimes,\n            _arbitrator: _arbitrator,\n            _realitioQuestion: _realitioQuestion,\n            _outcomeNamesArray: _outcomeNamesArray,\n            _owner: msg.sender\n        });\n        address newAddress = address(newContract);\n        marketAddresses.push(newAddress);\n        mappingOfMarkets[newAddress] = true;\n        mostRecentMarket = newAddress;\n        emit MarketCreated(address(newAddress));\n        return newContract;\n    }\n\n    function getMarkets() public view returns (address[] memory) {\n        return marketAddresses;\n    }\n\n    function getMostRecentMarket() public view returns (address) {\n        return mostRecentMarket;\n    }\n\n    function destroy() public onlyOwner whenPaused {\n        selfdestruct(msg.sender);\n    }\n\n    function disableMarket(address payable marketAddress)\n        public\n        onlyOwner\n        createdByThisFactory(marketAddress)\n        returns (bool)\n    {\n        return MBMarket(marketAddress).disableContract();\n    }\n}\n",
  "sourcePath": "/Users/brenfife/Desktop/MagicBet-Contracts/contracts/MBMarketFactory.sol",
  "compiler": {
    "name": "solc",
    "version": "0.6.10+commit.00c0fcaf.Emscripten.clang"
  },
  "schemaVersion": "3.2.0",
  "updatedAt": "2020-06-20T18:49:48.853Z",
  "devdoc": {
    "methods": {
      "createMarket(string,uint256,uint256,uint32,uint32,address,string,string[])": {
        "details": "Currently, only owners can generate the markets",
        "params": {
          "_arbitrator": "The arbitrator address",
          "_eventName": "The event name",
          "_marketLockingTime": "When the market locks",
          "_marketOpeningTime": "When the market opens",
          "_marketResolutionTime": "When the market is set to resolve",
          "_outcomeNamesArray": "The outcomes of this event",
          "_realitioQuestion": "The question, formatted to suit how realitio required",
          "_timeout": "The timeout period"
        }
      },
      "owner()": {
        "details": "Returns the address of the current owner."
      },
      "paused()": {
        "details": "Returns true if the contract is paused, and false otherwise."
      },
      "renounceOwnership()": {
        "details": "Leaves the contract without owner. It will not be possible to call `onlyOwner` functions anymore. Can only be called by the current owner. NOTE: Renouncing ownership will leave the contract without an owner, thereby removing any functionality that is only available to the owner."
      },
      "transferOwnership(address)": {
        "details": "Transfers ownership of the contract to a new account (`newOwner`). Can only be called by the current owner."
      }
    },
    "title": "The MagicBet factory"
  },
  "userdoc": {
    "methods": {
      "createMarket(string,uint256,uint256,uint32,uint32,address,string,string[])": {
        "notice": "This contract is the framework of each new market"
      }
    },
    "notice": "This contract allows for generating new market instances"
  }
}