{
  "contractName": "UniswapMockup",
  "abi": [
    {
      "inputs": [
        {
          "internalType": "uint256",
          "name": "daiAmount",
          "type": "uint256"
        },
        {
          "internalType": "address[]",
          "name": "path",
          "type": "address[]"
        },
        {
          "internalType": "address",
          "name": "receiver",
          "type": "address"
        },
        {
          "internalType": "uint256",
          "name": "deadline",
          "type": "uint256"
        }
      ],
      "name": "swapETHForExactTokens",
      "outputs": [
        {
          "internalType": "bytes32",
          "name": "",
          "type": "bytes32"
        }
      ],
      "stateMutability": "payable",
      "type": "function"
    }
  ],
  "bytecode": "0x608060405234801561001057600080fd5b5060f48061001f6000396000f3fe608060405260043610601c5760003560e01c8063fb3bdb41146021575b600080fd5b60a160048036036080811015603557600080fd5b81359190810190604081016020820135640100000000811115605657600080fd5b820183602082011115606757600080fd5b80359060200191846020830284011164010000000083111715608857600080fd5b91935091506001600160a01b03813516906020013560b3565b60408051918252519081900360200190f35b60009594505050505056fea264697066735822122057d01a23172818f5833f55bb052f38236f9d012783df43f7fb0e3db8d17805e964736f6c634300060a0033",
  "immutableReferences": {},
  "source": "//SPDX-License-Identifier: UNLICENSED\npragma solidity >=0.4.21 <0.7.0;\n\n\n// this is only for ganache testing. Public chain deployments will use the existing Realitio contracts.\n\ncontract UniswapMockup {\n    function swapETHForExactTokens(\n        uint256 daiAmount,\n        address[] calldata path,\n        address receiver,\n        uint256 deadline\n    ) external payable returns (bytes32) {\n        // TODO if tested\n    }\n}\n",
  "sourcePath": "/Users/brenfife/Desktop/MagicBet-Contracts/contracts/mockups/uniswapMockup.sol",
  "compiler": {
    "name": "solc",
    "version": "0.6.10+commit.00c0fcaf.Emscripten.clang"
  },
  "schemaVersion": "3.2.3",
  "updatedAt": "2020-08-09T22:21:32.895Z",
  "devdoc": {
    "methods": {}
  },
  "userdoc": {
    "methods": {}
  }
}